{
  "_format": "hh-sol-artifact-1",
  "contractName": "LPStaking",
  "sourceName": "contracts/LPStaking.sol",
  "abi": [
    {
      "inputs": [
        {
          "internalType": "address",
          "name": "_rewardToken",
          "type": "address"
        },
        {
          "internalType": "address[]",
          "name": "_initialSigners",
          "type": "address[]"
        }
      ],
      "stateMutability": "nonpayable",
      "type": "constructor"
    },
    {
      "inputs": [],
      "name": "AccessControlBadConfirmation",
      "type": "error"
    },
    {
      "inputs": [
        {
          "internalType": "address",
          "name": "account",
          "type": "address"
        },
        {
          "internalType": "bytes32",
          "name": "neededRole",
          "type": "bytes32"
        }
      ],
      "name": "AccessControlUnauthorizedAccount",
      "type": "error"
    },
    {
      "inputs": [],
      "name": "ReentrancyGuardReentrantCall",
      "type": "error"
    },
    {
      "inputs": [
        {
          "internalType": "address",
          "name": "token",
          "type": "address"
        }
      ],
      "name": "SafeERC20FailedOperation",
      "type": "error"
    },
    {
      "anonymous": false,
      "inputs": [
        {
          "indexed": false,
          "internalType": "uint256",
          "name": "actionId",
          "type": "uint256"
        },
        {
          "indexed": false,
          "internalType": "address",
          "name": "approver",
          "type": "address"
        }
      ],
      "name": "ActionApproved",
      "type": "event"
    },
    {
      "anonymous": false,
      "inputs": [
        {
          "indexed": false,
          "internalType": "uint256",
          "name": "actionId",
          "type": "uint256"
        }
      ],
      "name": "ActionExecuted",
      "type": "event"
    },
    {
      "anonymous": false,
      "inputs": [
        {
          "indexed": false,
          "internalType": "uint256",
          "name": "actionId",
          "type": "uint256"
        }
      ],
      "name": "ActionExpired",
      "type": "event"
    },
    {
      "anonymous": false,
      "inputs": [
        {
          "indexed": false,
          "internalType": "uint256",
          "name": "actionId",
          "type": "uint256"
        },
        {
          "indexed": false,
          "internalType": "address",
          "name": "proposer",
          "type": "address"
        },
        {
          "indexed": false,
          "internalType": "enum LPStaking.ActionType",
          "name": "actionType",
          "type": "uint8"
        }
      ],
      "name": "ActionProposed",
      "type": "event"
    },
    {
      "anonymous": false,
      "inputs": [
        {
          "indexed": false,
          "internalType": "uint256",
          "name": "newRate",
          "type": "uint256"
        }
      ],
      "name": "HourlyRateUpdated",
      "type": "event"
    },
    {
      "anonymous": false,
      "inputs": [
        {
          "indexed": false,
          "internalType": "address",
          "name": "lpToken",
          "type": "address"
        },
        {
          "indexed": false,
          "internalType": "string",
          "name": "platform",
          "type": "string"
        },
        {
          "indexed": false,
          "internalType": "uint256",
          "name": "weight",
          "type": "uint256"
        }
      ],
      "name": "PairAdded",
      "type": "event"
    },
    {
      "anonymous": false,
      "inputs": [
        {
          "indexed": false,
          "internalType": "address",
          "name": "lpToken",
          "type": "address"
        }
      ],
      "name": "PairRemoved",
      "type": "event"
    },
    {
      "anonymous": false,
      "inputs": [
        {
          "indexed": false,
          "internalType": "address",
          "name": "user",
          "type": "address"
        },
        {
          "indexed": false,
          "internalType": "address",
          "name": "lpToken",
          "type": "address"
        },
        {
          "indexed": false,
          "internalType": "uint256",
          "name": "amount",
          "type": "uint256"
        }
      ],
      "name": "RewardsClaimed",
      "type": "event"
    },
    {
      "anonymous": false,
      "inputs": [
        {
          "indexed": false,
          "internalType": "address",
          "name": "recipient",
          "type": "address"
        },
        {
          "indexed": false,
          "internalType": "uint256",
          "name": "amount",
          "type": "uint256"
        }
      ],
      "name": "RewardsWithdrawn",
      "type": "event"
    },
    {
      "anonymous": false,
      "inputs": [
        {
          "indexed": true,
          "internalType": "bytes32",
          "name": "role",
          "type": "bytes32"
        },
        {
          "indexed": true,
          "internalType": "bytes32",
          "name": "previousAdminRole",
          "type": "bytes32"
        },
        {
          "indexed": true,
          "internalType": "bytes32",
          "name": "newAdminRole",
          "type": "bytes32"
        }
      ],
      "name": "RoleAdminChanged",
      "type": "event"
    },
    {
      "anonymous": false,
      "inputs": [
        {
          "indexed": true,
          "internalType": "bytes32",
          "name": "role",
          "type": "bytes32"
        },
        {
          "indexed": true,
          "internalType": "address",
          "name": "account",
          "type": "address"
        },
        {
          "indexed": true,
          "internalType": "address",
          "name": "sender",
          "type": "address"
        }
      ],
      "name": "RoleGranted",
      "type": "event"
    },
    {
      "anonymous": false,
      "inputs": [
        {
          "indexed": true,
          "internalType": "bytes32",
          "name": "role",
          "type": "bytes32"
        },
        {
          "indexed": true,
          "internalType": "address",
          "name": "account",
          "type": "address"
        },
        {
          "indexed": true,
          "internalType": "address",
          "name": "sender",
          "type": "address"
        }
      ],
      "name": "RoleRevoked",
      "type": "event"
    },
    {
      "anonymous": false,
      "inputs": [
        {
          "indexed": false,
          "internalType": "address",
          "name": "oldSigner",
          "type": "address"
        },
        {
          "indexed": false,
          "internalType": "address",
          "name": "newSigner",
          "type": "address"
        }
      ],
      "name": "SignerChanged",
      "type": "event"
    },
    {
      "anonymous": false,
      "inputs": [
        {
          "indexed": false,
          "internalType": "address",
          "name": "user",
          "type": "address"
        },
        {
          "indexed": false,
          "internalType": "address",
          "name": "lpToken",
          "type": "address"
        },
        {
          "indexed": false,
          "internalType": "uint256",
          "name": "amount",
          "type": "uint256"
        }
      ],
      "name": "StakeAdded",
      "type": "event"
    },
    {
      "anonymous": false,
      "inputs": [
        {
          "indexed": false,
          "internalType": "address",
          "name": "user",
          "type": "address"
        },
        {
          "indexed": false,
          "internalType": "address",
          "name": "lpToken",
          "type": "address"
        },
        {
          "indexed": false,
          "internalType": "uint256",
          "name": "amount",
          "type": "uint256"
        }
      ],
      "name": "StakeRemoved",
      "type": "event"
    },
    {
      "anonymous": false,
      "inputs": [
        {
          "indexed": false,
          "internalType": "address[]",
          "name": "pairs",
          "type": "address[]"
        },
        {
          "indexed": false,
          "internalType": "uint256[]",
          "name": "weights",
          "type": "uint256[]"
        }
      ],
      "name": "WeightsUpdated",
      "type": "event"
    },
    {
      "inputs": [],
      "name": "ADMIN_ROLE",
      "outputs": [
        {
          "internalType": "bytes32",
          "name": "",
          "type": "bytes32"
        }
      ],
      "stateMutability": "view",
      "type": "function"
    },
    {
      "inputs": [],
      "name": "DEFAULT_ADMIN_ROLE",
      "outputs": [
        {
          "internalType": "bytes32",
          "name": "",
          "type": "bytes32"
        }
      ],
      "stateMutability": "view",
      "type": "function"
    },
    {
      "inputs": [],
      "name": "MAX_PAIRS",
      "outputs": [
        {
          "internalType": "uint256",
          "name": "",
          "type": "uint256"
        }
      ],
      "stateMutability": "view",
      "type": "function"
    },
    {
      "inputs": [],
      "name": "MAX_WEIGHT",
      "outputs": [
        {
          "internalType": "uint256",
          "name": "",
          "type": "uint256"
        }
      ],
      "stateMutability": "view",
      "type": "function"
    },
    {
      "inputs": [],
      "name": "MIN_SIGNERS",
      "outputs": [
        {
          "internalType": "uint256",
          "name": "",
          "type": "uint256"
        }
      ],
      "stateMutability": "view",
      "type": "function"
    },
    {
      "inputs": [],
      "name": "MIN_STAKE",
      "outputs": [
        {
          "internalType": "uint256",
          "name": "",
          "type": "uint256"
        }
      ],
      "stateMutability": "view",
      "type": "function"
    },
    {
      "inputs": [],
      "name": "PRECISION",
      "outputs": [
        {
          "internalType": "uint256",
          "name": "",
          "type": "uint256"
        }
      ],
      "stateMutability": "view",
      "type": "function"
    },
    {
      "inputs": [],
      "name": "REQUIRED_APPROVALS",
      "outputs": [
        {
          "internalType": "uint256",
          "name": "",
          "type": "uint256"
        }
      ],
      "stateMutability": "view",
      "type": "function"
    },
    {
      "inputs": [],
      "name": "TOTAL_SIGNERS",
      "outputs": [
        {
          "internalType": "uint256",
          "name": "",
          "type": "uint256"
        }
      ],
      "stateMutability": "view",
      "type": "function"
    },
    {
      "inputs": [],
      "name": "actionCounter",
      "outputs": [
        {
          "internalType": "uint256",
          "name": "",
          "type": "uint256"
        }
      ],
      "stateMutability": "view",
      "type": "function"
    },
    {
      "inputs": [
        {
          "internalType": "uint256",
          "name": "",
          "type": "uint256"
        }
      ],
      "name": "actions",
      "outputs": [
        {
          "internalType": "enum LPStaking.ActionType",
          "name": "actionType",
          "type": "uint8"
        },
        {
          "internalType": "uint256",
          "name": "newHourlyRewardRate",
          "type": "uint256"
        },
        {
          "internalType": "address",
          "name": "pairToAdd",
          "type": "address"
        },
        {
          "internalType": "string",
          "name": "pairNameToAdd",
          "type": "string"
        },
        {
          "internalType": "string",
          "name": "platformToAdd",
          "type": "string"
        },
        {
          "internalType": "uint256",
          "name": "weightToAdd",
          "type": "uint256"
        },
        {
          "internalType": "address",
          "name": "pairToRemove",
          "type": "address"
        },
        {
          "internalType": "address",
          "name": "recipient",
          "type": "address"
        },
        {
          "internalType": "uint256",
          "name": "withdrawAmount",
          "type": "uint256"
        },
        {
          "internalType": "bool",
          "name": "executed",
          "type": "bool"
        },
        {
          "internalType": "bool",
          "name": "expired",
          "type": "bool"
        },
        {
          "internalType": "uint8",
          "name": "approvals",
          "type": "uint8"
        },
        {
          "internalType": "uint256",
          "name": "proposedTime",
          "type": "uint256"
        }
      ],
      "stateMutability": "view",
      "type": "function"
    },
    {
      "inputs": [
        {
          "internalType": "uint256",
          "name": "",
          "type": "uint256"
        }
      ],
      "name": "activePairs",
      "outputs": [
        {
          "internalType": "address",
          "name": "",
          "type": "address"
        }
      ],
      "stateMutability": "view",
      "type": "function"
    },
    {
      "inputs": [
        {
          "internalType": "uint256",
          "name": "actionId",
          "type": "uint256"
        }
      ],
      "name": "approveAction",
      "outputs": [],
      "stateMutability": "nonpayable",
      "type": "function"
    },
    {
      "inputs": [
        {
          "internalType": "address",
          "name": "lpToken",
          "type": "address"
        }
      ],
      "name": "claimRewards",
      "outputs": [],
      "stateMutability": "nonpayable",
      "type": "function"
    },
    {
      "inputs": [],
      "name": "cleanupExpiredActions",
      "outputs": [],
      "stateMutability": "nonpayable",
      "type": "function"
    },
    {
      "inputs": [
        {
          "internalType": "address",
          "name": "user",
          "type": "address"
        },
        {
          "internalType": "address",
          "name": "lpToken",
          "type": "address"
        }
      ],
      "name": "earned",
      "outputs": [
        {
          "internalType": "uint256",
          "name": "",
          "type": "uint256"
        }
      ],
      "stateMutability": "view",
      "type": "function"
    },
    {
      "inputs": [
        {
          "internalType": "uint256",
          "name": "actionId",
          "type": "uint256"
        }
      ],
      "name": "executeAction",
      "outputs": [],
      "stateMutability": "nonpayable",
      "type": "function"
    },
    {
      "inputs": [
        {
          "internalType": "uint256",
          "name": "actionId",
          "type": "uint256"
        }
      ],
      "name": "getActionApproval",
      "outputs": [
        {
          "internalType": "address[]",
          "name": "",
          "type": "address[]"
        }
      ],
      "stateMutability": "view",
      "type": "function"
    },
    {
      "inputs": [
        {
          "internalType": "uint256",
          "name": "actionId",
          "type": "uint256"
        }
      ],
      "name": "getActionPairs",
      "outputs": [
        {
          "internalType": "address[]",
          "name": "",
          "type": "address[]"
        }
      ],
      "stateMutability": "view",
      "type": "function"
    },
    {
      "inputs": [
        {
          "internalType": "uint256",
          "name": "actionId",
          "type": "uint256"
        }
      ],
      "name": "getActionWeights",
      "outputs": [
        {
          "internalType": "uint256[]",
          "name": "",
          "type": "uint256[]"
        }
      ],
      "stateMutability": "view",
      "type": "function"
    },
    {
      "inputs": [],
      "name": "getActivePairs",
      "outputs": [
        {
          "internalType": "address[]",
          "name": "",
          "type": "address[]"
        }
      ],
      "stateMutability": "view",
      "type": "function"
    },
    {
      "inputs": [
        {
          "internalType": "address",
          "name": "lpToken",
          "type": "address"
        }
      ],
      "name": "getPairInfo",
      "outputs": [
        {
          "internalType": "contract IERC20",
          "name": "token",
          "type": "address"
        },
        {
          "internalType": "string",
          "name": "platform",
          "type": "string"
        },
        {
          "internalType": "uint256",
          "name": "weight",
          "type": "uint256"
        },
        {
          "internalType": "bool",
          "name": "isActive",
          "type": "bool"
        }
      ],
      "stateMutability": "view",
      "type": "function"
    },
    {
      "inputs": [],
      "name": "getPairs",
      "outputs": [
        {
          "components": [
            {
              "internalType": "contract IERC20",
              "name": "lpToken",
              "type": "address"
            },
            {
              "internalType": "string",
              "name": "pairName",
              "type": "string"
            },
            {
              "internalType": "string",
              "name": "platform",
              "type": "string"
            },
            {
              "internalType": "uint256",
              "name": "weight",
              "type": "uint256"
            },
            {
              "internalType": "bool",
              "name": "isActive",
              "type": "bool"
            }
          ],
          "internalType": "struct LPStaking.LiquidityPair[]",
          "name": "",
          "type": "tuple[]"
        }
      ],
      "stateMutability": "view",
      "type": "function"
    },
    {
      "inputs": [
        {
          "internalType": "bytes32",
          "name": "role",
          "type": "bytes32"
        }
      ],
      "name": "getRoleAdmin",
      "outputs": [
        {
          "internalType": "bytes32",
          "name": "",
          "type": "bytes32"
        }
      ],
      "stateMutability": "view",
      "type": "function"
    },
    {
      "inputs": [],
      "name": "getSigners",
      "outputs": [
        {
          "internalType": "address[]",
          "name": "",
          "type": "address[]"
        }
      ],
      "stateMutability": "view",
      "type": "function"
    },
    {
      "inputs": [
        {
          "internalType": "address",
          "name": "user",
          "type": "address"
        },
        {
          "internalType": "address",
          "name": "lpToken",
          "type": "address"
        }
      ],
      "name": "getUserStakeInfo",
      "outputs": [
        {
          "internalType": "uint256",
          "name": "amount",
          "type": "uint256"
        },
        {
          "internalType": "uint256",
          "name": "pendingRewards",
          "type": "uint256"
        },
        {
          "internalType": "uint256",
          "name": "lastRewardTime",
          "type": "uint256"
        }
      ],
      "stateMutability": "view",
      "type": "function"
    },
    {
      "inputs": [
        {
          "internalType": "address",
          "name": "user",
          "type": "address"
        }
      ],
      "name": "getUserStakes",
      "outputs": [
        {
          "components": [
            {
              "internalType": "uint256",
              "name": "amount",
              "type": "uint256"
            },
            {
              "internalType": "uint256",
              "name": "lastRewardTime",
              "type": "uint256"
            },
            {
              "internalType": "uint256",
              "name": "pendingRewards",
              "type": "uint256"
            },
            {
              "internalType": "uint256",
              "name": "rewardPerTokenPaid",
              "type": "uint256"
            }
          ],
          "internalType": "struct LPStaking.UserStake[]",
          "name": "",
          "type": "tuple[]"
        }
      ],
      "stateMutability": "view",
      "type": "function"
    },
    {
      "inputs": [
        {
          "internalType": "bytes32",
          "name": "role",
          "type": "bytes32"
        },
        {
          "internalType": "address",
          "name": "account",
          "type": "address"
        }
      ],
      "name": "grantRole",
      "outputs": [],
      "stateMutability": "nonpayable",
      "type": "function"
    },
    {
      "inputs": [
        {
          "internalType": "uint256",
          "name": "actionId",
          "type": "uint256"
        }
      ],
      "name": "handleExpiredAction",
      "outputs": [],
      "stateMutability": "nonpayable",
      "type": "function"
    },
    {
      "inputs": [
        {
          "internalType": "bytes32",
          "name": "role",
          "type": "bytes32"
        },
        {
          "internalType": "address",
          "name": "account",
          "type": "address"
        }
      ],
      "name": "hasRole",
      "outputs": [
        {
          "internalType": "bool",
          "name": "",
          "type": "bool"
        }
      ],
      "stateMutability": "view",
      "type": "function"
    },
    {
      "inputs": [],
      "name": "hourlyRewardRate",
      "outputs": [
        {
          "internalType": "uint256",
          "name": "",
          "type": "uint256"
        }
      ],
      "stateMutability": "view",
      "type": "function"
    },
    {
      "inputs": [
        {
          "internalType": "uint256",
          "name": "actionId",
          "type": "uint256"
        }
      ],
      "name": "isActionExpired",
      "outputs": [
        {
          "internalType": "bool",
          "name": "",
          "type": "bool"
        }
      ],
      "stateMutability": "view",
      "type": "function"
    },
    {
      "inputs": [
        {
          "internalType": "address",
          "name": "",
          "type": "address"
        }
      ],
      "name": "lastUpdateTime",
      "outputs": [
        {
          "internalType": "uint256",
          "name": "",
          "type": "uint256"
        }
      ],
      "stateMutability": "view",
      "type": "function"
    },
    {
      "inputs": [
        {
          "internalType": "address",
          "name": "",
          "type": "address"
        }
      ],
      "name": "pairs",
      "outputs": [
        {
          "internalType": "contract IERC20",
          "name": "lpToken",
          "type": "address"
        },
        {
          "internalType": "string",
          "name": "pairName",
          "type": "string"
        },
        {
          "internalType": "string",
          "name": "platform",
          "type": "string"
        },
        {
          "internalType": "uint256",
          "name": "weight",
          "type": "uint256"
        },
        {
          "internalType": "bool",
          "name": "isActive",
          "type": "bool"
        }
      ],
      "stateMutability": "view",
      "type": "function"
    },
    {
      "inputs": [
        {
          "internalType": "address",
          "name": "lpToken",
          "type": "address"
        },
        {
          "internalType": "string",
          "name": "pairName",
          "type": "string"
        },
        {
          "internalType": "string",
          "name": "platform",
          "type": "string"
        },
        {
          "internalType": "uint256",
          "name": "weight",
          "type": "uint256"
        }
      ],
      "name": "proposeAddPair",
      "outputs": [
        {
          "internalType": "uint256",
          "name": "",
          "type": "uint256"
        }
      ],
      "stateMutability": "nonpayable",
      "type": "function"
    },
    {
      "inputs": [
        {
          "internalType": "address",
          "name": "oldSigner",
          "type": "address"
        },
        {
          "internalType": "address",
          "name": "newSigner",
          "type": "address"
        }
      ],
      "name": "proposeChangeSigner",
      "outputs": [
        {
          "internalType": "uint256",
          "name": "",
          "type": "uint256"
        }
      ],
      "stateMutability": "nonpayable",
      "type": "function"
    },
    {
      "inputs": [
        {
          "internalType": "address",
          "name": "lpToken",
          "type": "address"
        }
      ],
      "name": "proposeRemovePair",
      "outputs": [
        {
          "internalType": "uint256",
          "name": "",
          "type": "uint256"
        }
      ],
      "stateMutability": "nonpayable",
      "type": "function"
    },
    {
      "inputs": [
        {
          "internalType": "uint256",
          "name": "newRate",
          "type": "uint256"
        }
      ],
      "name": "proposeSetHourlyRewardRate",
      "outputs": [
        {
          "internalType": "uint256",
          "name": "",
          "type": "uint256"
        }
      ],
      "stateMutability": "nonpayable",
      "type": "function"
    },
    {
      "inputs": [
        {
          "internalType": "address[]",
          "name": "lpTokens",
          "type": "address[]"
        },
        {
          "internalType": "uint256[]",
          "name": "weights",
          "type": "uint256[]"
        }
      ],
      "name": "proposeUpdatePairWeights",
      "outputs": [
        {
          "internalType": "uint256",
          "name": "",
          "type": "uint256"
        }
      ],
      "stateMutability": "nonpayable",
      "type": "function"
    },
    {
      "inputs": [
        {
          "internalType": "address",
          "name": "recipient",
          "type": "address"
        },
        {
          "internalType": "uint256",
          "name": "amount",
          "type": "uint256"
        }
      ],
      "name": "proposeWithdrawRewards",
      "outputs": [
        {
          "internalType": "uint256",
          "name": "",
          "type": "uint256"
        }
      ],
      "stateMutability": "nonpayable",
      "type": "function"
    },
    {
      "inputs": [
        {
          "internalType": "bytes32",
          "name": "role",
          "type": "bytes32"
        },
        {
          "internalType": "address",
          "name": "callerConfirmation",
          "type": "address"
        }
      ],
      "name": "renounceRole",
      "outputs": [],
      "stateMutability": "nonpayable",
      "type": "function"
    },
    {
      "inputs": [
        {
          "internalType": "bytes32",
          "name": "role",
          "type": "bytes32"
        },
        {
          "internalType": "address",
          "name": "account",
          "type": "address"
        }
      ],
      "name": "revokeRole",
      "outputs": [],
      "stateMutability": "nonpayable",
      "type": "function"
    },
    {
      "inputs": [
        {
          "internalType": "address",
          "name": "",
          "type": "address"
        }
      ],
      "name": "rewardPerTokenStored",
      "outputs": [
        {
          "internalType": "uint256",
          "name": "",
          "type": "uint256"
        }
      ],
      "stateMutability": "view",
      "type": "function"
    },
    {
      "inputs": [],
      "name": "rewardToken",
      "outputs": [
        {
          "internalType": "contract IERC20",
          "name": "",
          "type": "address"
        }
      ],
      "stateMutability": "view",
      "type": "function"
    },
    {
      "inputs": [
        {
          "internalType": "uint256",
          "name": "",
          "type": "uint256"
        }
      ],
      "name": "signers",
      "outputs": [
        {
          "internalType": "address",
          "name": "",
          "type": "address"
        }
      ],
      "stateMutability": "view",
      "type": "function"
    },
    {
      "inputs": [
        {
          "internalType": "address",
          "name": "lpToken",
          "type": "address"
        },
        {
          "internalType": "uint256",
          "name": "amount",
          "type": "uint256"
        }
      ],
      "name": "stake",
      "outputs": [],
      "stateMutability": "nonpayable",
      "type": "function"
    },
    {
      "inputs": [
        {
          "internalType": "bytes4",
          "name": "interfaceId",
          "type": "bytes4"
        }
      ],
      "name": "supportsInterface",
      "outputs": [
        {
          "internalType": "bool",
          "name": "",
          "type": "bool"
        }
      ],
      "stateMutability": "view",
      "type": "function"
    },
    {
      "inputs": [],
      "name": "totalWeight",
      "outputs": [
        {
          "internalType": "uint256",
          "name": "",
          "type": "uint256"
        }
      ],
      "stateMutability": "view",
      "type": "function"
    },
    {
      "inputs": [
        {
          "internalType": "address",
          "name": "lpToken",
          "type": "address"
        },
        {
          "internalType": "uint256",
          "name": "amount",
          "type": "uint256"
        }
      ],
      "name": "unstake",
      "outputs": [],
      "stateMutability": "nonpayable",
      "type": "function"
    },
    {
      "inputs": [
        {
          "internalType": "address",
          "name": "",
          "type": "address"
        },
        {
          "internalType": "address",
          "name": "",
          "type": "address"
        }
      ],
      "name": "userStakes",
      "outputs": [
        {
          "internalType": "uint256",
          "name": "amount",
          "type": "uint256"
        },
        {
          "internalType": "uint256",
          "name": "lastRewardTime",
          "type": "uint256"
        },
        {
          "internalType": "uint256",
          "name": "pendingRewards",
          "type": "uint256"
        },
        {
          "internalType": "uint256",
          "name": "rewardPerTokenPaid",
          "type": "uint256"
        }
      ],
      "stateMutability": "view",
      "type": "function"
    }
  ],
  "bytecode": "0x608060405234801561001057600080fd5b50604051614be1380380614be183398101604081905261002f9161033d565b6001600055805160041461008a5760405162461bcd60e51b815260206004820152601e60248201527f4d7573742070726f766964652065786163746c792034207369676e657273000060448201526064015b60405180910390fd5b6001600160a01b0382166100e05760405162461bcd60e51b815260206004820152601c60248201527f496e76616c69642072657761726420746f6b656e2061646472657373000000006044820152606401610081565b600280546001600160a01b0319166001600160a01b038416179055805161010e906007906020840190610291565b5061011a6000336101fc565b5060005b81518110156101f45760006001600160a01b031682828151811061014457610144610420565b60200260200101516001600160a01b0316036101a25760405162461bcd60e51b815260206004820152601660248201527f496e76616c6964207369676e65722061646472657373000000000000000000006044820152606401610081565b6101eb7fa49807205ce4d355092ef5a8a18f56e8913cf4a201fbe287825b095693c217758383815181106101d8576101d8610420565b60200260200101516101fc60201b60201c565b5060010161011e565b505050610436565b60008281526001602090815260408083206001600160a01b038516845290915281205460ff166102875760008381526001602081815260408084206001600160a01b0387168086529252808420805460ff19169093179092559051339286917f2f8788117e7eff1d82e926ec794901d17c78024a50270940304540a733656f0d9190a450600161028b565b5060005b92915050565b8280548282559060005260206000209081019282156102e6579160200282015b828111156102e657825182546001600160a01b0319166001600160a01b039091161782556020909201916001909101906102b1565b506102f29291506102f6565b5090565b5b808211156102f257600081556001016102f7565b80516001600160a01b038116811461032257600080fd5b919050565b634e487b7160e01b600052604160045260246000fd5b6000806040838503121561035057600080fd5b6103598361030b565b60208401519092506001600160401b0381111561037557600080fd5b8301601f8101851361038657600080fd5b80516001600160401b0381111561039f5761039f610327565b604051600582901b90603f8201601f191681016001600160401b03811182821017156103cd576103cd610327565b6040529182526020818401810192908101888411156103eb57600080fd5b6020850194505b83851015610411576104038561030b565b8152602094850194016103f2565b50809450505050509250929050565b634e487b7160e01b600052603260045260246000fd5b61479c806104456000396000f3fe608060405234801561001057600080fd5b50600436106102d65760003560e01c8063862d2d7c11610182578063cb43cfa4116100e9578063ef5cfb8c116100a2578063f80f40231161007c578063f80f4023146106dc578063fafbc0f6146106ef578063fdbd98b01461070f578063fe33b3021461071857600080fd5b8063ef5cfb8c146106a3578063f33d5647146106b6578063f7c618c1146106c957600080fd5b8063cb43cfa414610614578063d4ff73f71461061c578063d547741f1461063f578063d785b59514610652578063e4a28a5214610680578063e65f55b91461069057600080fd5b8063a217fddf1161013b578063a217fddf146105b6578063aaf5eb68146105be578063adc9772e146105cd578063c0c1cf55146105e0578063c2a672e0146105f3578063cb1c2b5c1461060657600080fd5b8063862d2d7c1461050a57806391d148541461056a57806394cf795e1461057d57806396c82e5714610585578063996cf2331461058e5780639ce43f901461059657600080fd5b8063343a0b1c1161024157806369c28f7b116101fa578063767eb5ef116101d4578063767eb5ef146104a15780637b9736b8146104b657806383240f83146104be578063842e2981146104ea57600080fd5b806369c28f7b1461047057806370ec86d51461048357806375b238fc1461048c57600080fd5b8063343a0b1c1461041c57806336568abe1461042f5780633f8a46ee1461044257806353d6181314610455578063599c5533146103ff578063602baccc1461046857600080fd5b8063248a9ca311610293578063248a9ca314610388578063263a8c68146103ac57806328119ffa146103cc5780632ce9aead146103df5780632f1b1d3f146103ff5780632f2ff15d1461040757600080fd5b806301ffc9a7146102db57806314b9af5514610303578063170c3898146103245780631a8254f5146103375780632079fb9a1461034a578063211dc32d14610375575b600080fd5b6102ee6102e9366004613c33565b61073c565b60405190151581526020015b60405180910390f35b610316610311366004613c80565b610773565b6040519081526020016102fa565b610316610332366004613cf3565b6109e3565b610316610345366004613d81565b610cba565b61035d610358366004613d81565b610da1565b6040516001600160a01b0390911681526020016102fa565b610316610383366004613d9a565b610dcb565b610316610396366004613d81565b6000908152600160208190526040909120015490565b6103bf6103ba366004613d81565b610fd7565b6040516102fa9190613dcd565b61035d6103da366004613d81565b611046565b6103166103ed366004613e19565b60096020526000908152604090205481565b610316600381565b61041a610415366004613e34565b611056565b005b61041a61042a366004613d81565b611082565b61041a61043d366004613e34565b611223565b61041a610450366004613d81565b61125b565b610316610463366004613e19565b6112ae565b6103bf611401565b6102ee61047e366004613d81565b611463565b61031660035481565b61031660008051602061474783398151915281565b6104a961148d565b6040516102fa9190613e9d565b61041a6116e8565b6104d16104cc366004613d81565b6117ad565b6040516102fa9d9c9b9a99989796959493929190613f8c565b6104fd6104f8366004613e19565b611948565b6040516102fa919061403b565b61054a610518366004613d9a565b600560209081526000928352604080842090915290825290208054600182015460028301546003909301549192909184565b6040805194855260208501939093529183015260608201526080016102fa565b6102ee610578366004613e34565b611b6e565b6103bf611b99565b610316600a5481565b610316606481565b6103166105a4366004613e19565b60086020526000908152604090205481565b610316600081565b610316670de0b6b3a764000081565b61041a6105db366004613c80565b611bf9565b61041a6105ee366004613d81565b611e04565b61041a610601366004613c80565b6129cb565b61031666038d7ea4c6800081565b610316600481565b61062f61062a366004613e19565b612bb0565b6040516102fa9493929190614099565b61041a61064d366004613e34565b612c89565b610665610660366004613d9a565b612caf565b604080519384526020840192909252908201526060016102fa565b610316683635c9adc5dea0000081565b61031661069e36600461411a565b612cf9565b61041a6106b1366004613e19565b612f90565b6103166106c4366004613d9a565b6130cd565b60025461035d906001600160a01b031681565b6103bf6106ea366004613d81565b613289565b6107026106fd366004613d81565b6132f6565b6040516102fa919061418b565b610316600b5481565b61072b610726366004613e19565b61335a565b6040516102fa9594939291906141c3565b60006001600160e01b03198216637965db0b60e01b148061076d57506301ffc9a760e01b6001600160e01b03198316145b92915050565b600060008051602061474783398151915261078d816134a7565b6001600160a01b0384166107e85760405162461bcd60e51b815260206004820152601960248201527f496e76616c696420726563697069656e7420616464726573730000000000000060448201526064015b60405180910390fd5b600083116108385760405162461bcd60e51b815260206004820181905260248201527f416d6f756e74206d7573742062652067726561746572207468616e207a65726f60448201526064016107df565b6002546040516370a0823160e01b81523060048201526001600160a01b03909116906370a0823190602401602060405180830381865afa158015610880573d6000803e3d6000fd5b505050506040513d601f19601f820116820180604052508101906108a49190614213565b8311156108f35760405162461bcd60e51b815260206004820152601f60248201527f416d6f756e74206578636565647320636f6e74726163742062616c616e63650060448201526064016107df565b6001600160801b0383111561093d5760405162461bcd60e51b815260206004820152601060248201526f416d6f756e7420746f6f206c6172676560801b60448201526064016107df565b600b805490600061094d83614242565b9091555050600b546000908152600c602052604090208054600590829060ff191660018302179055506009810180546001600160a01b0319166001600160a01b038716179055600a810184905542600d820155600b54604051600080516020614727833981519152916109c491339060059061425b565b60405180910390a16109d7600b546134b1565b5050600b549392505050565b60006000805160206147478339815191526109fd816134a7565b6001600160a01b038816610a425760405162461bcd60e51b815260206004820152600c60248201526b24b73b30b634b2103830b4b960a11b60448201526064016107df565b60008311610a925760405162461bcd60e51b815260206004820152601d60248201527f576569676874206d7573742062652067726561746572207468616e203000000060448201526064016107df565b683635c9adc5dea00000831115610ae45760405162461bcd60e51b81526020600482015260166024820152755765696768742065786365656473206d6178696d756d60501b60448201526064016107df565b85610b235760405162461bcd60e51b815260206004820152600f60248201526e456d7074792070616972206e616d6560881b60448201526064016107df565b6020861115610b695760405162461bcd60e51b815260206004820152601260248201527150616972206e616d6520746f6f206c6f6e6760701b60448201526064016107df565b83610bac5760405162461bcd60e51b8152602060048201526013602482015272456d70747920706c6174666f726d206e616d6560681b60448201526064016107df565b6020841115610bf65760405162461bcd60e51b8152602060048201526016602482015275506c6174666f726d206e616d6520746f6f206c6f6e6760501b60448201526064016107df565b600b8054906000610c0683614242565b9091555050600b546000908152600c60205260409020805460ff191660021781556004810180546001600160a01b038b166001600160a01b031990911617905560058101610c55888a8361431e565b5060068101610c6586888361431e565b506007810184905542600d820155600b5460405160008051602061472783398151915291610c9791339060029061425b565b60405180910390a1610caa600b546134b1565b5050600b54979650505050505050565b6000600080516020614747833981519152610cd4816134a7565b6001600160801b03831115610d1b5760405162461bcd60e51b815260206004820152600d60248201526c0a4c2e8ca40e8dede40d0d2ced609b1b60448201526064016107df565b610d2361368b565b600b8054906000610d3383614242565b9091555050600b80546000908152600c6020526040808220805460ff191681556001810187905542600d8201559254905160008051602061472783398151915292610d81929133919061425b565b60405180910390a1610d94600b546134b1565b600b549250505b50919050565b60078181548110610db157600080fd5b6000918252602090912001546001600160a01b0316905081565b6001600160a01b0380831660009081526005602090815260408083209385168352928152828220600882528383205460099092529282205491929142118015610e7c57506040516370a0823160e01b81523060048201526000906001600160a01b038616906370a0823190602401602060405180830381865afa158015610e56573d6000803e3d6000fd5b505050506040513d601f19601f82011682018060405250810190610e7a9190614213565b115b15610f90576001600160a01b038416600090815260096020526040812054610ea490426143de565b90506000610e10600354610eb891906143f1565b600a546001600160a01b03881660009081526004602052604081206003015492935091610ee58585614413565b610eef9190614413565b610ef991906143f1565b6040516370a0823160e01b81523060048201529091506001600160a01b038816906370a0823190602401602060405180830381865afa158015610f40573d6000803e3d6000fd5b505050506040513d601f19601f82011682018060405250810190610f649190614213565b610f76670de0b6b3a764000083614413565b610f8091906143f1565b610f8a908561442a565b93505050505b8160020154670de0b6b3a7640000836003015483610fae91906143de565b8454610fba9190614413565b610fc491906143f1565b610fce919061442a565b95945050505050565b6000818152600c602090815260409182902060020180548351818402810184019094528084526060939283018282801561103a57602002820191906000526020600020905b81546001600160a01b0316815260019091019060200180831161101c575b50505050509050919050565b60068181548110610db157600080fd5b60008281526001602081905260409091200154611072816134a7565b61107c83836136d6565b50505050565b60008051602061474783398151915261109a816134a7565b6000821180156110ac5750600b548211155b6110c85760405162461bcd60e51b81526004016107df9061443d565b6000828152600c60205260409020600b81015460ff161561112b5760405162461bcd60e51b815260206004820152601760248201527f416374696f6e20616c726561647920657865637574656400000000000000000060448201526064016107df565b600b810154610100900460ff16156111855760405162461bcd60e51b815260206004820152601d60248201527f416374696f6e20616c7265616479206d61726b6564206578706972656400000060448201526064016107df565b61118e83611463565b6111d35760405162461bcd60e51b81526020600482015260166024820152751058dd1a5bdb881b9bdd08195e1c1a5c9959081e595d60521b60448201526064016107df565b600b8101805461ff0019166101001790556040517f7d919bd8ec97e857ec355cca68a0882119b700d30b815f9939a75e824cad9a9b906112169085815260200190565b60405180910390a1505050565b6001600160a01b038116331461124c5760405163334bd91960e11b815260040160405180910390fd5b611256828261374f565b505050565b600080516020614747833981519152611273816134a7565b6000821180156112855750600b548211155b6112a15760405162461bcd60e51b81526004016107df9061443d565b6112aa826134b1565b5050565b60006000805160206147478339815191526112c8816134a7565b6001600160a01b0383166113155760405162461bcd60e51b8152602060048201526014602482015273496e76616c69642070616972206164647265737360601b60448201526064016107df565b6001600160a01b0383166000908152600460208190526040909120015460ff166113815760405162461bcd60e51b815260206004820181905260248201527f50616972206e6f7420616374697665206f7220646f65736e277420657869737460448201526064016107df565b600b805490600061139183614242565b9091555050600b546000908152600c602052604090208054600390829060ff191660018302179055506008810180546001600160a01b0319166001600160a01b03861617905542600d820155600b5460405160008051602061472783398151915291610d8191339060039061425b565b6060600680548060200260200160405190810160405280929190818152602001828054801561145957602002820191906000526020600020905b81546001600160a01b0316815260019091019060200180831161143b575b5050505050905090565b6000818152600c60205260408120600d8101546114849062093a809061442a565b42119392505050565b60065460609060009067ffffffffffffffff8111156114ae576114ae614286565b60405190808252806020026020018201604052801561151c57816020015b6115096040518060a0016040528060006001600160a01b031681526020016060815260200160608152602001600081526020016000151581525090565b8152602001906001900390816114cc5790505b50905060005b600654811015610d9b57600460006006838154811061154357611543614467565b60009182526020808320909101546001600160a01b039081168452838201949094526040928301909120825160a0810190935280549093168252600183018054929392918401916115939061429c565b80601f01602080910402602001604051908101604052809291908181526020018280546115bf9061429c565b801561160c5780601f106115e15761010080835404028352916020019161160c565b820191906000526020600020905b8154815290600101906020018083116115ef57829003601f168201915b505050505081526020016002820180546116259061429c565b80601f01602080910402602001604051908101604052809291908181526020018280546116519061429c565b801561169e5780601f106116735761010080835404028352916020019161169e565b820191906000526020600020905b81548152906001019060200180831161168157829003601f168201915b50505091835250506003820154602082015260049091015460ff16151560409091015282518390839081106116d5576116d5614467565b6020908102919091010152600101611522565b600080516020614747833981519152611700816134a7565b60015b600b5481116112aa576000818152600c60205260409020600b81015460ff161580156117395750600b810154610100900460ff16155b8015611749575061174982611463565b1561179a57600b8101805461ff0019166101001790556040517f7d919bd8ec97e857ec355cca68a0882119b700d30b815f9939a75e824cad9a9b906117919084815260200190565b60405180910390a15b50806117a581614242565b915050611703565b600c60205260009081526040902080546001820154600483015460058401805460ff9094169492936001600160a01b0390921692916117eb9061429c565b80601f01602080910402602001604051908101604052809291908181526020018280546118179061429c565b80156118645780601f1061183957610100808354040283529160200191611864565b820191906000526020600020905b81548152906001019060200180831161184757829003601f168201915b5050505050908060060180546118799061429c565b80601f01602080910402602001604051908101604052809291908181526020018280546118a59061429c565b80156118f25780601f106118c7576101008083540402835291602001916118f2565b820191906000526020600020905b8154815290600101906020018083116118d557829003601f168201915b505050600784015460088501546009860154600a870154600b880154600d90980154969793966001600160a01b039384169650919092169350909160ff808216926101008304821692620100009004909116908d565b60606000805b6006548110156119c8576001600160a01b0384166000908152600560205260408120600680548391908590811061198757611987614467565b60009182526020808320909101546001600160a01b0316835282019290925260400190205411156119c057816119bc81614242565b9250505b60010161194e565b5060008167ffffffffffffffff8111156119e4576119e4614286565b604051908082528060200260200182016040528015611a4057816020015b611a2d6040518060800160405280600081526020016000815260200160008152602001600081525090565b815260200190600190039081611a025790505b5090506000805b600654811015611b64576001600160a01b03861660009081526005602052604081206006805483919085908110611a8057611a80614467565b60009182526020808320909101546001600160a01b031683528201929092526040019020541115611b5c576001600160a01b03861660009081526005602052604081206006805491929184908110611ada57611ada614467565b60009182526020808320909101546001600160a01b0316835282810193909352604091820190208151608081018352815481526001820154938101939093526002810154918301919091526003015460608201528351849084908110611b4257611b42614467565b60200260200101819052508180611b5890614242565b9250505b600101611a47565b5090949350505050565b60009182526001602090815260408084206001600160a01b0393909316845291905290205460ff1690565b60606007805480602002602001604051908101604052809291908181526020018280548015611459576020028201919060005260206000209081546001600160a01b0316815260019091019060200180831161143b575050505050905090565b611c016137bc565b6001600160a01b03821660009081526004602081905260409091209081015460ff16611c3f5760405162461bcd60e51b81526004016107df9061447d565b6000816003015411611c8a5760405162461bcd60e51b815260206004820152601460248201527314185a5c881a185cc81e995c9bc81dd95a59da1d60621b60448201526064016107df565b66038d7ea4c68000821015611cd85760405162461bcd60e51b81526020600482015260146024820152735374616b6520616d6f756e7420746f6f206c6f7760601b60448201526064016107df565b6001600160801b03821115611d275760405162461bcd60e51b81526020600482015260156024820152740a6e8c2d6ca40c2dadeeadce840e8dede40d0d2ced605b1b60448201526064016107df565b611d30836137e6565b3360009081526005602090815260408083206001600160a01b03871684529091529020805415611d6a57611d643385610dcb565b60028201555b82816000016000828254611d7e919061442a565b90915550506001600160a01b038416600081815260086020526040902054600383015567ffffffffffffffff42166001830155611dbd9033308661394f565b7ffb8efd70c9f0ca009bfc9f2ca8a9256a5aefbc720bdb8d838e4bcd42c241b9eb338585604051611df0939291906144a6565b60405180910390a150506112aa6001600055565b600080516020614747833981519152611e1c816134a7565b600082118015611e2e5750600b548211155b611e4a5760405162461bcd60e51b81526004016107df9061443d565b6000828152600c60205260409020600b81015460ff1615611ea05760405162461bcd60e51b815260206004820152601060248201526f105b1c9958591e48195e1958dd5d195960821b60448201526064016107df565b600b810154610100900460ff1615611eca5760405162461bcd60e51b81526004016107df906144ca565b600b81015460036201000090910460ff161015611f205760405162461bcd60e51b81526020600482015260146024820152734e6f7420656e6f75676820617070726f76616c7360601b60448201526064016107df565b62093a8081600d0154611f33919061442a565b421115611f525760405162461bcd60e51b81526004016107df906144ca565b6000815460ff166005811115611f6a57611f6a613f54565b03611fb257600181015460038190556040519081527fb03a67404ead580ad77cfd64b1f08197269fa5180fccb88d6615bdc8aa91e620906020015b60405180910390a161298a565b6001815460ff166005811115611fca57611fca613f54565b036121915760028101546000600a8190555b818110156120de5760006001600160a01b03166004600085600201848154811061200857612008614467565b60009182526020808320909101546001600160a01b03908116845290830193909352604090910190205416036120755760405162461bcd60e51b815260206004820152601260248201527114185a5c88191bd95cdb89dd08195e1a5cdd60721b60448201526064016107df565b82600301818154811061208a5761208a614467565b9060005260206000200154600460008560020184815481106120ae576120ae614467565b60009182526020808320909101546001600160a01b03168352820192909252604001902060030155600101611fdc565b5060005b60065481101561214b57600460006006838154811061210357612103614467565b60009182526020808320909101546001600160a01b03168352820192909252604001812060030154600a80549192909161213e90849061442a565b90915550506001016120e2565b507f7f9d3b855249ef24ed9613191786a1fc8d2afafdc45ab1ec9c1a051589d7837c82600201836003016040516121839291906144f6565b60405180910390a15061298a565b6002815460ff1660058111156121a9576121a9613f54565b036125ac576004818101546001600160a01b03908116600090815260209290925260409091205416156122145760405162461bcd60e51b81526020600482015260136024820152725061697220616c72656164792065786973747360681b60448201526064016107df565b6006546064116122575760405162461bcd60e51b815260206004820152600e60248201526d546f6f206d616e7920706169727360901b60448201526064016107df565b683635c9adc5dea00000816007015411156122a65760405162461bcd60e51b815260206004820152600f60248201526e0aecad2ced0e840e8dede40d0d2ced608b1b60448201526064016107df565b60208160060180546122b79061429c565b905011156123005760405162461bcd60e51b8152602060048201526016602482015275506c6174666f726d206e616d6520746f6f206c6f6e6760501b60448201526064016107df565b6040805160a0810190915260048201546001600160a01b031681526005820180546020830191906123309061429c565b80601f016020809104026020016040519081016040528092919081815260200182805461235c9061429c565b80156123a95780601f1061237e576101008083540402835291602001916123a9565b820191906000526020600020905b81548152906001019060200180831161238c57829003601f168201915b505050505081526020018260060180546123c29061429c565b80601f01602080910402602001604051908101604052809291908181526020018280546123ee9061429c565b801561243b5780601f106124105761010080835404028352916020019161243b565b820191906000526020600020905b81548152906001019060200180831161241e57829003601f168201915b50505091835250506007830154602080830191909152600160409283018190526004808601546001600160a01b039081166000908152918452939020845181546001600160a01b0319169416939093178355908301519082019061249f908261458c565b50604082015160028201906124b4908261458c565b50606082015160038201556080909101516004918201805491151560ff199092169190911790558101546006805460018101825560009182527ff652222313e28459528d920b65115c16c04f3efc82aaedc97be59f3f377c0d3f0180546001600160a01b0319166001600160a01b03909316929092179091556007820154600a80549192909161254590849061442a565b90915550506004810180546001600160a01b03908116600090815260096020526040908190204290559154600784015492517f0a75180afe57477e6f07d0789053cbdb7699cde088de468ea9e91c0e910d80ef93611fa5939290921691600686019161464b565b6003815460ff1660058111156125c4576125c4613f54565b036126a85760088101546001600160a01b03166000818152600460208190526040909120015460ff166126095760405162461bcd60e51b81526004016107df9061447d565b6001600160a01b038116600090815260046020526040812060030154600a8054919290916126389084906143de565b90915550506001600160a01b03811660009081526004602081905260408220908101805460ff191690556003015561266f816139a9565b6040516001600160a01b03821681527f9493af33d363a70a1cd9cc0ceb347e3c0e16b5d9371695618e1ac5fb1c255b7c90602001612183565b6004815460ff1660058111156126c0576126c0613f54565b036127ec57600481015460088201546001600160a01b0391821691166126f46000805160206147478339815191528361374f565b5061270d600080516020614747833981519152826136d6565b5060005b6007548110156127a157826001600160a01b03166007828154811061273857612738614467565b6000918252602090912001546001600160a01b03160361279957816007828154811061276657612766614467565b9060005260206000200160006101000a8154816001600160a01b0302191690836001600160a01b031602179055506127a1565b600101612711565b50604080516001600160a01b038085168252831660208201527feeb293e1f8f3a9db91ade748726387ed1352ca78f5430c5f06fe3d1e1ad50579910160405180910390a1505061298a565b6005815460ff16600581111561280457612804613f54565b0361298a5760098101546001600160a01b03166128575760405162461bcd60e51b8152602060048201526011602482015270125b9d985b1a59081c9958da5c1a595b9d607a1b60448201526064016107df565b600a8101546002546040516370a0823160e01b81523060048201526001600160a01b03909116906370a0823190602401602060405180830381865afa1580156128a4573d6000803e3d6000fd5b505050506040513d601f19601f820116820180604052508101906128c89190614213565b10156129165760405162461bcd60e51b815260206004820152601d60248201527f496e73756666696369656e7420636f6e74726163742062616c616e636500000060448201526064016107df565b6009810154600a82015460025461293b926001600160a01b0391821692911690613aa5565b6009810154600a820154604080516001600160a01b03909316835260208301919091527f8a43c4352486ec339f487f64af78ca5cbf06cd47833f073d3baf3a193e503161910160405180910390a15b600b8101805460ff191660011790556040517f7cd79380f59dcb9a2e87db5e49009e2cb7ff8a3175bf8db0137c71bd7abe7143906112169085815260200190565b6129d36137bc565b6001600160a01b03821660009081526004602081905260409091209081015460ff16612a115760405162461bcd60e51b81526004016107df9061447d565b3360009081526005602090815260408083206001600160a01b038716845290915290208054831115612a7a5760405162461bcd60e51b8152602060048201526012602482015271496e73756666696369656e74207374616b6560701b60448201526064016107df565b612a83846137e6565b6000612a8f3386610dcb565b6000600284018190556001600160a01b038716815260086020526040902054600384015582549091508403612af85760008255612ad66001600160a01b0386163386613aa5565b8015612af357600254612af3906001600160a01b03163383613aa5565b612b26565b83826000016000828254612b0c91906143de565b90915550612b2690506001600160a01b0386163386613aa5565b7fc970f16cd3ec5b32f311b9501d3274f497db81bb41ef2937fad509e835bbd251338686604051612b59939291906144a6565b60405180910390a18015612ba3577f9310ccfcb8de723f578a9e4282ea9f521f05ae40dc08f3068dfad528a65ee3c7338683604051612b9a939291906144a6565b60405180910390a15b5050506112aa6001600055565b6001600160a01b03808216600090815260046020819052604082208054600382015492820154600283018054959660609688968796959092169360ff16908390612bf99061429c565b80601f0160208091040260200160405190810160405280929190818152602001828054612c259061429c565b8015612c725780601f10612c4757610100808354040283529160200191612c72565b820191906000526020600020905b815481529060010190602001808311612c5557829003601f168201915b505050505092509450945094509450509193509193565b60008281526001602081905260409091200154612ca5816134a7565b61107c838361374f565b6001600160a01b0380831660009081526005602090815260408083209385168352929052908120805482918291612ce68787610dcb565b8260010154935093509350509250925092565b6000600080516020614747833981519152612d13816134a7565b848314612d625760405162461bcd60e51b815260206004820152601860248201527f4172726179206c656e67746873206d757374206d61746368000000000000000060448201526064016107df565b84612daf5760405162461bcd60e51b815260206004820152601860248201527f456d70747920617272617973206e6f7420616c6c6f776564000000000000000060448201526064016107df565b6064851115612df15760405162461bcd60e51b815260206004820152600e60248201526d546f6f206d616e7920706169727360901b60448201526064016107df565b60005b83811015612eed57683635c9adc5dea00000858583818110612e1857612e18614467565b905060200201351115612e665760405162461bcd60e51b81526020600482015260166024820152755765696768742065786365656473206d6178696d756d60501b60448201526064016107df565b6000878783818110612e7a57612e7a614467565b9050602002016020810190612e8f9190613e19565b6001600160a01b031603612ee55760405162461bcd60e51b815260206004820152601860248201527f496e76616c6964204c5020746f6b656e2061646472657373000000000000000060448201526064016107df565b600101612df4565b50612ef661368b565b600b8054906000612f0683614242565b9091555050600b546000908152600c60205260409020805460ff19166001178155612f35600282018888613b80565b50612f44600382018686613be3565b5042600d820155600b5460405160008051602061472783398151915291612f6f91339060019061425b565b60405180910390a1612f82600b546134b1565b5050600b5495945050505050565b612f986137bc565b6001600160a01b03811660009081526004602081905260409091209081015460ff16612fd65760405162461bcd60e51b81526004016107df9061447d565b612fdf826137e6565b6000612feb3384610dcb565b9050600081116130335760405162461bcd60e51b81526020600482015260136024820152724e6f207265776172647320746f20636c61696d60681b60448201526064016107df565b3360008181526005602090815260408083206001600160a01b03888116855290835281842060028082018690556008909452919093205460038201559054909261308292919091169084613aa5565b7f9310ccfcb8de723f578a9e4282ea9f521f05ae40dc08f3068dfad528a65ee3c73385846040516130b5939291906144a6565b60405180910390a15050506130ca6001600055565b50565b60006000805160206147478339815191526130e7816134a7565b6130ff60008051602061474783398151915285611b6e565b6131425760405162461bcd60e51b815260206004820152601460248201527313db19081cda59db995c881b9bdd08199bdd5b9960621b60448201526064016107df565b61315a60008051602061474783398151915284611b6e565b156131a75760405162461bcd60e51b815260206004820152601960248201527f4e6577207369676e657220616c7265616479206578697374730000000000000060448201526064016107df565b6001600160a01b0383166131f25760405162461bcd60e51b815260206004820152601260248201527124b73b30b634b2103732bb9039b4b3b732b960711b60448201526064016107df565b600b805490600061320283614242565b9091555050600b546000908152600c602052604090208054600490829060ff19166001830217905550600480820180546001600160a01b038089166001600160a01b0319928316179092556008840180549288169290911691909117905542600d830155600b54604051600080516020614727833981519152926109c4929133919061425b565b6000818152600c602081815260409283902090910180548351818402810184019094528084526060939283018282801561103a576020028201919060005260206000209081546001600160a01b0316815260019091019060200180831161101c5750505050509050919050565b6000818152600c602090815260409182902060030180548351818402810184019094528084526060939283018282801561103a57602002820191906000526020600020905b81548152602001906001019080831161333b5750505050509050919050565b600460205260009081526040902080546001820180546001600160a01b0390921692916133869061429c565b80601f01602080910402602001604051908101604052809291908181526020018280546133b29061429c565b80156133ff5780601f106133d4576101008083540402835291602001916133ff565b820191906000526020600020905b8154815290600101906020018083116133e257829003601f168201915b5050505050908060020180546134149061429c565b80601f01602080910402602001604051908101604052809291908181526020018280546134409061429c565b801561348d5780601f106134625761010080835404028352916020019161348d565b820191906000526020600020905b81548152906001019060200180831161347057829003601f168201915b50505050600383015460049093015491929160ff16905085565b6130ca8133613ad6565b6000818152600c60205260409020600b81015460ff16156135075760405162461bcd60e51b815260206004820152601060248201526f105b1c9958591e48195e1958dd5d195960821b60448201526064016107df565b600b810154610100900460ff16156135315760405162461bcd60e51b81526004016107df906144ca565b62093a8081600d0154613544919061442a565b4211156135635760405162461bcd60e51b81526004016107df906144ca565b60005b600c8201548110156135ee57336001600160a01b031682600c01828154811061359157613591614467565b6000918252602090912001546001600160a01b0316036135e65760405162461bcd60e51b815260206004820152601060248201526f105b1c9958591e48185c1c1c9bdd995960821b60448201526064016107df565b600101613566565b50600c81018054600181018255600091825260209091200180546001600160a01b03191633179055600b8101805460ff6201000090910416906002613632836146f1565b825460ff9182166101009390930a928302919092021990911617905550604080518381523360208201527f13f5ed40f1478eb39ccc91c62e3e395db4ea1b1afc8928825652b67136b06044910160405180910390a15050565b60005b6006548110156130ca576000600682815481106136ad576136ad614467565b6000918252602090912001546001600160a01b031690506136cd816137e6565b5060010161368e565b60006136e28383611b6e565b6137475760008381526001602081815260408084206001600160a01b0387168086529252808420805460ff19169093179092559051339286917f2f8788117e7eff1d82e926ec794901d17c78024a50270940304540a733656f0d9190a450600161076d565b50600061076d565b600061375b8383611b6e565b156137475760008381526001602090815260408083206001600160a01b0386168085529252808320805460ff1916905551339286917ff6391f5c32d9c69d2a47ea670b442974b53935d1edc7fd64eb21e047a839171b9190a450600161076d565b6002600054036137df57604051633ee5aeb560e01b815260040160405180910390fd5b6002600055565b6040516370a0823160e01b81523060048201526000906001600160a01b038316906370a0823190602401602060405180830381865afa15801561382d573d6000803e3d6000fd5b505050506040513d601f19601f820116820180604052508101906138519190614213565b6001600160a01b0383166000908152600960205260408120549192509061387890426143de565b905060008211801561388a5750600081115b15613931576000610e106003546138a191906143f1565b600a546001600160a01b038616600090815260046020526040812060030154929350916138ce8585614413565b6138d89190614413565b6138e291906143f1565b9050836138f7670de0b6b3a764000083614413565b61390191906143f1565b6001600160a01b0386166000908152600860205260408120805490919061392990849061442a565b909155505050505b50506001600160a01b03166000908152600960205260409020429055565b61107c84856001600160a01b03166323b872dd868686604051602401613977939291906144a6565b604051602081830303815290604052915060e01b6020820180516001600160e01b038381831617835250505050613b0f565b60065460005b8181101561125657826001600160a01b0316600682815481106139d4576139d4614467565b6000918252602090912001546001600160a01b031603613a9d5760066139fb6001846143de565b81548110613a0b57613a0b614467565b600091825260209091200154600680546001600160a01b039092169183908110613a3757613a37614467565b9060005260206000200160006101000a8154816001600160a01b0302191690836001600160a01b031602179055506006805480613a7657613a76614710565b600082815260209020810160001990810180546001600160a01b0319169055019055505050565b6001016139af565b6040516001600160a01b0383811660248301526044820183905261125691859182169063a9059cbb90606401613977565b613ae08282611b6e565b6112aa5760405163e2517d3f60e01b81526001600160a01b0382166004820152602481018390526044016107df565b600080602060008451602086016000885af180613b32576040513d6000823e3d81fd5b50506000513d91508115613b4a578060011415613b57565b6001600160a01b0384163b155b1561107c57604051635274afe760e01b81526001600160a01b03851660048201526024016107df565b828054828255906000526020600020908101928215613bd3579160200282015b82811115613bd35781546001600160a01b0319166001600160a01b03843516178255602090920191600190910190613ba0565b50613bdf929150613c1e565b5090565b828054828255906000526020600020908101928215613bd3579160200282015b82811115613bd3578235825591602001919060010190613c03565b5b80821115613bdf5760008155600101613c1f565b600060208284031215613c4557600080fd5b81356001600160e01b031981168114613c5d57600080fd5b9392505050565b80356001600160a01b0381168114613c7b57600080fd5b919050565b60008060408385031215613c9357600080fd5b613c9c83613c64565b946020939093013593505050565b60008083601f840112613cbc57600080fd5b50813567ffffffffffffffff811115613cd457600080fd5b602083019150836020828501011115613cec57600080fd5b9250929050565b60008060008060008060808789031215613d0c57600080fd5b613d1587613c64565b9550602087013567ffffffffffffffff811115613d3157600080fd5b613d3d89828a01613caa565b909650945050604087013567ffffffffffffffff811115613d5d57600080fd5b613d6989828a01613caa565b979a9699509497949695606090950135949350505050565b600060208284031215613d9357600080fd5b5035919050565b60008060408385031215613dad57600080fd5b613db683613c64565b9150613dc460208401613c64565b90509250929050565b602080825282518282018190526000918401906040840190835b81811015613e0e5783516001600160a01b0316835260209384019390920191600101613de7565b509095945050505050565b600060208284031215613e2b57600080fd5b613c5d82613c64565b60008060408385031215613e4757600080fd5b82359150613dc460208401613c64565b6000815180845260005b81811015613e7d57602081850181015186830182015201613e61565b506000602082860101526020601f19601f83011685010191505092915050565b6000602082016020835280845180835260408501915060408160051b86010192506020860160005b82811015613f4857868503603f19018452815180516001600160a01b0316865260208082015160a091880182905290613f0090880182613e57565b905060408201518782036040890152613f198282613e57565b606084810151908a01526080938401511515939098019290925250506020938401939190910190600101613ec5565b50929695505050505050565b634e487b7160e01b600052602160045260246000fd5b60068110613f8857634e487b7160e01b600052602160045260246000fd5b9052565b613f96818f613f6a565b8c602082015260018060a01b038c1660408201526101a060608201526000613fc26101a083018d613e57565b8281036080840152613fd4818d613e57565b60a084018c90526001600160a01b038b811660c08601528a1660e08501529150613ffb9050565b8661010083015261401161012083018715159052565b93151561014082015260ff92909216610160830152610180909101529a9950505050505050505050565b602080825282518282018190526000918401906040840190835b81811015613e0e5783518051845260208101516020850152604081015160408501526060810151606085015250608083019250602084019350600181019050614055565b6001600160a01b03851681526080602082018190526000906140bd90830186613e57565b60408301949094525090151560609091015292915050565b60008083601f8401126140e757600080fd5b50813567ffffffffffffffff8111156140ff57600080fd5b6020830191508360208260051b8501011115613cec57600080fd5b6000806000806040858703121561413057600080fd5b843567ffffffffffffffff81111561414757600080fd5b614153878288016140d5565b909550935050602085013567ffffffffffffffff81111561417357600080fd5b61417f878288016140d5565b95989497509550505050565b602080825282518282018190526000918401906040840190835b81811015613e0e5783518352602093840193909201916001016141a5565b6001600160a01b038616815260a0602082018190526000906141e790830187613e57565b82810360408401526141f98187613e57565b606084019590955250509015156080909101529392505050565b60006020828403121561422557600080fd5b5051919050565b634e487b7160e01b600052601160045260246000fd5b6000600182016142545761425461422c565b5060010190565b8381526001600160a01b03831660208201526060810161427e6040830184613f6a565b949350505050565b634e487b7160e01b600052604160045260246000fd5b600181811c908216806142b057607f821691505b602082108103610d9b57634e487b7160e01b600052602260045260246000fd5b601f82111561125657806000526020600020601f840160051c810160208510156142f75750805b601f840160051c820191505b818110156143175760008155600101614303565b5050505050565b67ffffffffffffffff83111561433657614336614286565b61434a83614344835461429c565b836142d0565b6000601f84116001811461437e57600085156143665750838201355b600019600387901b1c1916600186901b178355614317565b600083815260209020601f19861690835b828110156143af578685013582556020948501946001909201910161438f565b50868210156143cc5760001960f88860031b161c19848701351681555b505060018560011b0183555050505050565b8181038181111561076d5761076d61422c565b60008261440e57634e487b7160e01b600052601260045260246000fd5b500490565b808202811582820484141761076d5761076d61422c565b8082018082111561076d5761076d61422c565b60208082526010908201526f125b9d985b1a59081858dd1a5bdb925960821b604082015260600190565b634e487b7160e01b600052603260045260246000fd5b6020808252600f908201526e50616972206e6f742061637469766560881b604082015260600190565b6001600160a01b039384168152919092166020820152604081019190915260600190565b6020808252601290820152711058dd1a5bdb881a185cc8195e1c1a5c995960721b604082015260600190565b6040808252835490820181905260008481526020812090916060840190835b8181101561453c5783546001600160a01b0316835260019384019360209093019201614515565b505083810360208501528091508454808252602082019250856000526020600020915060005b81811015614580578254845260209093019260019283019201614562565b50919695505050505050565b815167ffffffffffffffff8111156145a6576145a6614286565b6145ba816145b4845461429c565b846142d0565b6020601f8211600181146145ee57600083156145d65750848201515b600019600385901b1c1916600184901b178455614317565b600084815260208120601f198516915b8281101561461e57878501518255602094850194600190920191016145fe565b508482101561463c5786840151600019600387901b60f8161c191681555b50505050600190811b01905550565b6001600160a01b0384168152606060208201528254600090819061466e8161429c565b806060860152600182166000811461468d57600181146146a9576146dd565b60ff1983166080870152608082151560051b87010193506146dd565b87600052602060002060005b838110156146d4578154888201608001526001909101906020016146b5565b87016080019450505b505050604092909201929092529392505050565b600060ff821660ff81036147075761470761422c565b60010192915050565b634e487b7160e01b600052603160045260246000fdfeff1f23bc7538ef354da69561506eedc8078a7bce7b70ef9877b7bbad4f7ca378a49807205ce4d355092ef5a8a18f56e8913cf4a201fbe287825b095693c21775a2646970667358221220ba575bf81246943c299c7b23529570c24dbe1c65bab84358faeb836754f06fe464736f6c634300081c0033",
  "linkReferences": {},
  "deployedLinkReferences": {}
}