{
  "contracts/LPStaking.sol": {
    "LPStaking": {
      "abi": [
        {
          "inputs": [
            {
              "internalType": "address",
              "name": "_rewardToken",
              "type": "address"
            },
            {
              "internalType": "address[]",
              "name": "_initialSigners",
              "type": "address[]"
            }
          ],
          "stateMutability": "nonpayable",
          "type": "constructor"
        },
        {
          "inputs": [],
          "name": "AccessControlBadConfirmation",
          "type": "error"
        },
        {
          "inputs": [
            {
              "internalType": "address",
              "name": "account",
              "type": "address"
            },
            {
              "internalType": "bytes32",
              "name": "neededRole",
              "type": "bytes32"
            }
          ],
          "name": "AccessControlUnauthorizedAccount",
          "type": "error"
        },
        {
          "inputs": [],
          "name": "ReentrancyGuardReentrantCall",
          "type": "error"
        },
        {
          "inputs": [
            {
              "internalType": "address",
              "name": "token",
              "type": "address"
            }
          ],
          "name": "SafeERC20FailedOperation",
          "type": "error"
        },
        {
          "anonymous": false,
          "inputs": [
            {
              "indexed": false,
              "internalType": "uint256",
              "name": "actionId",
              "type": "uint256"
            },
            {
              "indexed": false,
              "internalType": "address",
              "name": "approver",
              "type": "address"
            }
          ],
          "name": "ActionApproved",
          "type": "event"
        },
        {
          "anonymous": false,
          "inputs": [
            {
              "indexed": false,
              "internalType": "uint256",
              "name": "actionId",
              "type": "uint256"
            }
          ],
          "name": "ActionExecuted",
          "type": "event"
        },
        {
          "anonymous": false,
          "inputs": [
            {
              "indexed": false,
              "internalType": "uint256",
              "name": "actionId",
              "type": "uint256"
            }
          ],
          "name": "ActionExpired",
          "type": "event"
        },
        {
          "anonymous": false,
          "inputs": [
            {
              "indexed": false,
              "internalType": "uint256",
              "name": "actionId",
              "type": "uint256"
            },
            {
              "indexed": false,
              "internalType": "address",
              "name": "proposer",
              "type": "address"
            },
            {
              "indexed": false,
              "internalType": "enum LPStaking.ActionType",
              "name": "actionType",
              "type": "uint8"
            }
          ],
          "name": "ActionProposed",
          "type": "event"
        },
        {
          "anonymous": false,
          "inputs": [
            {
              "indexed": false,
              "internalType": "uint256",
              "name": "actionId",
              "type": "uint256"
            },
            {
              "indexed": false,
              "internalType": "address",
              "name": "rejecter",
              "type": "address"
            }
          ],
          "name": "ActionRejected",
          "type": "event"
        },
        {
          "anonymous": false,
          "inputs": [
            {
              "indexed": false,
              "internalType": "uint256",
              "name": "newRate",
              "type": "uint256"
            }
          ],
          "name": "HourlyRateUpdated",
          "type": "event"
        },
        {
          "anonymous": false,
          "inputs": [
            {
              "indexed": false,
              "internalType": "address",
              "name": "lpToken",
              "type": "address"
            },
            {
              "indexed": false,
              "internalType": "string",
              "name": "platform",
              "type": "string"
            },
            {
              "indexed": false,
              "internalType": "uint256",
              "name": "weight",
              "type": "uint256"
            }
          ],
          "name": "PairAdded",
          "type": "event"
        },
        {
          "anonymous": false,
          "inputs": [
            {
              "indexed": false,
              "internalType": "address",
              "name": "lpToken",
              "type": "address"
            }
          ],
          "name": "PairRemoved",
          "type": "event"
        },
        {
          "anonymous": false,
          "inputs": [
            {
              "indexed": false,
              "internalType": "address",
              "name": "user",
              "type": "address"
            },
            {
              "indexed": false,
              "internalType": "address",
              "name": "lpToken",
              "type": "address"
            },
            {
              "indexed": false,
              "internalType": "uint256",
              "name": "amount",
              "type": "uint256"
            }
          ],
          "name": "RewardsClaimed",
          "type": "event"
        },
        {
          "anonymous": false,
          "inputs": [
            {
              "indexed": false,
              "internalType": "address",
              "name": "recipient",
              "type": "address"
            },
            {
              "indexed": false,
              "internalType": "uint256",
              "name": "amount",
              "type": "uint256"
            }
          ],
          "name": "RewardsWithdrawn",
          "type": "event"
        },
        {
          "anonymous": false,
          "inputs": [
            {
              "indexed": true,
              "internalType": "bytes32",
              "name": "role",
              "type": "bytes32"
            },
            {
              "indexed": true,
              "internalType": "bytes32",
              "name": "previousAdminRole",
              "type": "bytes32"
            },
            {
              "indexed": true,
              "internalType": "bytes32",
              "name": "newAdminRole",
              "type": "bytes32"
            }
          ],
          "name": "RoleAdminChanged",
          "type": "event"
        },
        {
          "anonymous": false,
          "inputs": [
            {
              "indexed": true,
              "internalType": "bytes32",
              "name": "role",
              "type": "bytes32"
            },
            {
              "indexed": true,
              "internalType": "address",
              "name": "account",
              "type": "address"
            },
            {
              "indexed": true,
              "internalType": "address",
              "name": "sender",
              "type": "address"
            }
          ],
          "name": "RoleGranted",
          "type": "event"
        },
        {
          "anonymous": false,
          "inputs": [
            {
              "indexed": true,
              "internalType": "bytes32",
              "name": "role",
              "type": "bytes32"
            },
            {
              "indexed": true,
              "internalType": "address",
              "name": "account",
              "type": "address"
            },
            {
              "indexed": true,
              "internalType": "address",
              "name": "sender",
              "type": "address"
            }
          ],
          "name": "RoleRevoked",
          "type": "event"
        },
        {
          "anonymous": false,
          "inputs": [
            {
              "indexed": false,
              "internalType": "address",
              "name": "oldSigner",
              "type": "address"
            },
            {
              "indexed": false,
              "internalType": "address",
              "name": "newSigner",
              "type": "address"
            }
          ],
          "name": "SignerChanged",
          "type": "event"
        },
        {
          "anonymous": false,
          "inputs": [
            {
              "indexed": false,
              "internalType": "address",
              "name": "user",
              "type": "address"
            },
            {
              "indexed": false,
              "internalType": "address",
              "name": "lpToken",
              "type": "address"
            },
            {
              "indexed": false,
              "internalType": "uint256",
              "name": "amount",
              "type": "uint256"
            }
          ],
          "name": "StakeAdded",
          "type": "event"
        },
        {
          "anonymous": false,
          "inputs": [
            {
              "indexed": false,
              "internalType": "address",
              "name": "user",
              "type": "address"
            },
            {
              "indexed": false,
              "internalType": "address",
              "name": "lpToken",
              "type": "address"
            },
            {
              "indexed": false,
              "internalType": "uint256",
              "name": "amount",
              "type": "uint256"
            }
          ],
          "name": "StakeRemoved",
          "type": "event"
        },
        {
          "anonymous": false,
          "inputs": [
            {
              "indexed": false,
              "internalType": "address[]",
              "name": "pairs",
              "type": "address[]"
            },
            {
              "indexed": false,
              "internalType": "uint256[]",
              "name": "weights",
              "type": "uint256[]"
            }
          ],
          "name": "WeightsUpdated",
          "type": "event"
        },
        {
          "inputs": [],
          "name": "ADMIN_ROLE",
          "outputs": [
            {
              "internalType": "bytes32",
              "name": "",
              "type": "bytes32"
            }
          ],
          "stateMutability": "view",
          "type": "function"
        },
        {
          "inputs": [],
          "name": "DEFAULT_ADMIN_ROLE",
          "outputs": [
            {
              "internalType": "bytes32",
              "name": "",
              "type": "bytes32"
            }
          ],
          "stateMutability": "view",
          "type": "function"
        },
        {
          "inputs": [],
          "name": "MAX_PAIRS",
          "outputs": [
            {
              "internalType": "uint256",
              "name": "",
              "type": "uint256"
            }
          ],
          "stateMutability": "view",
          "type": "function"
        },
        {
          "inputs": [],
          "name": "MAX_WEIGHT",
          "outputs": [
            {
              "internalType": "uint256",
              "name": "",
              "type": "uint256"
            }
          ],
          "stateMutability": "view",
          "type": "function"
        },
        {
          "inputs": [],
          "name": "MIN_STAKE",
          "outputs": [
            {
              "internalType": "uint256",
              "name": "",
              "type": "uint256"
            }
          ],
          "stateMutability": "view",
          "type": "function"
        },
        {
          "inputs": [],
          "name": "OWNER_APPROVER_ROLE",
          "outputs": [
            {
              "internalType": "bytes32",
              "name": "",
              "type": "bytes32"
            }
          ],
          "stateMutability": "view",
          "type": "function"
        },
        {
          "inputs": [],
          "name": "PRECISION",
          "outputs": [
            {
              "internalType": "uint256",
              "name": "",
              "type": "uint256"
            }
          ],
          "stateMutability": "view",
          "type": "function"
        },
        {
          "inputs": [],
          "name": "REQUIRED_APPROVALS",
          "outputs": [
            {
              "internalType": "uint256",
              "name": "",
              "type": "uint256"
            }
          ],
          "stateMutability": "view",
          "type": "function"
        },
        {
          "inputs": [],
          "name": "actionCounter",
          "outputs": [
            {
              "internalType": "uint256",
              "name": "",
              "type": "uint256"
            }
          ],
          "stateMutability": "view",
          "type": "function"
        },
        {
          "inputs": [
            {
              "internalType": "uint256",
              "name": "",
              "type": "uint256"
            }
          ],
          "name": "actions",
          "outputs": [
            {
              "internalType": "enum LPStaking.ActionType",
              "name": "actionType",
              "type": "uint8"
            },
            {
              "internalType": "uint256",
              "name": "newHourlyRewardRate",
              "type": "uint256"
            },
            {
              "internalType": "address",
              "name": "pairToAdd",
              "type": "address"
            },
            {
              "internalType": "string",
              "name": "pairNameToAdd",
              "type": "string"
            },
            {
              "internalType": "string",
              "name": "platformToAdd",
              "type": "string"
            },
            {
              "internalType": "uint256",
              "name": "weightToAdd",
              "type": "uint256"
            },
            {
              "internalType": "address",
              "name": "pairToRemove",
              "type": "address"
            },
            {
              "internalType": "address",
              "name": "recipient",
              "type": "address"
            },
            {
              "internalType": "uint256",
              "name": "withdrawAmount",
              "type": "uint256"
            },
            {
              "internalType": "bool",
              "name": "executed",
              "type": "bool"
            },
            {
              "internalType": "bool",
              "name": "expired",
              "type": "bool"
            },
            {
              "internalType": "uint8",
              "name": "approvals",
              "type": "uint8"
            },
            {
              "internalType": "uint256",
              "name": "proposedTime",
              "type": "uint256"
            },
            {
              "internalType": "bool",
              "name": "rejected",
              "type": "bool"
            }
          ],
          "stateMutability": "view",
          "type": "function"
        },
        {
          "inputs": [
            {
              "internalType": "uint256",
              "name": "",
              "type": "uint256"
            }
          ],
          "name": "activePairs",
          "outputs": [
            {
              "internalType": "address",
              "name": "",
              "type": "address"
            }
          ],
          "stateMutability": "view",
          "type": "function"
        },
        {
          "inputs": [
            {
              "internalType": "uint256",
              "name": "actionId",
              "type": "uint256"
            }
          ],
          "name": "approveAction",
          "outputs": [],
          "stateMutability": "nonpayable",
          "type": "function"
        },
        {
          "inputs": [
            {
              "internalType": "address",
              "name": "lpToken",
              "type": "address"
            }
          ],
          "name": "claimRewards",
          "outputs": [],
          "stateMutability": "nonpayable",
          "type": "function"
        },
        {
          "inputs": [],
          "name": "cleanupExpiredActions",
          "outputs": [],
          "stateMutability": "nonpayable",
          "type": "function"
        },
        {
          "inputs": [
            {
              "internalType": "address",
              "name": "user",
              "type": "address"
            },
            {
              "internalType": "address",
              "name": "lpToken",
              "type": "address"
            }
          ],
          "name": "earned",
          "outputs": [
            {
              "internalType": "uint256",
              "name": "",
              "type": "uint256"
            }
          ],
          "stateMutability": "view",
          "type": "function"
        },
        {
          "inputs": [
            {
              "internalType": "uint256",
              "name": "actionId",
              "type": "uint256"
            }
          ],
          "name": "executeAction",
          "outputs": [],
          "stateMutability": "nonpayable",
          "type": "function"
        },
        {
          "inputs": [
            {
              "internalType": "uint256",
              "name": "actionId",
              "type": "uint256"
            }
          ],
          "name": "getActionApproval",
          "outputs": [
            {
              "internalType": "address[]",
              "name": "",
              "type": "address[]"
            }
          ],
          "stateMutability": "view",
          "type": "function"
        },
        {
          "inputs": [
            {
              "internalType": "uint256",
              "name": "actionId",
              "type": "uint256"
            }
          ],
          "name": "getActionPairs",
          "outputs": [
            {
              "internalType": "address[]",
              "name": "",
              "type": "address[]"
            }
          ],
          "stateMutability": "view",
          "type": "function"
        },
        {
          "inputs": [
            {
              "internalType": "uint256",
              "name": "actionId",
              "type": "uint256"
            }
          ],
          "name": "getActionWeights",
          "outputs": [
            {
              "internalType": "uint256[]",
              "name": "",
              "type": "uint256[]"
            }
          ],
          "stateMutability": "view",
          "type": "function"
        },
        {
          "inputs": [],
          "name": "getActivePairs",
          "outputs": [
            {
              "internalType": "address[]",
              "name": "",
              "type": "address[]"
            }
          ],
          "stateMutability": "view",
          "type": "function"
        },
        {
          "inputs": [
            {
              "internalType": "address",
              "name": "lpToken",
              "type": "address"
            }
          ],
          "name": "getPairInfo",
          "outputs": [
            {
              "internalType": "contract IERC20",
              "name": "token",
              "type": "address"
            },
            {
              "internalType": "string",
              "name": "platform",
              "type": "string"
            },
            {
              "internalType": "uint256",
              "name": "weight",
              "type": "uint256"
            },
            {
              "internalType": "bool",
              "name": "isActive",
              "type": "bool"
            }
          ],
          "stateMutability": "view",
          "type": "function"
        },
        {
          "inputs": [],
          "name": "getPairs",
          "outputs": [
            {
              "components": [
                {
                  "internalType": "contract IERC20",
                  "name": "lpToken",
                  "type": "address"
                },
                {
                  "internalType": "string",
                  "name": "pairName",
                  "type": "string"
                },
                {
                  "internalType": "string",
                  "name": "platform",
                  "type": "string"
                },
                {
                  "internalType": "uint256",
                  "name": "weight",
                  "type": "uint256"
                },
                {
                  "internalType": "bool",
                  "name": "isActive",
                  "type": "bool"
                }
              ],
              "internalType": "struct LPStaking.LiquidityPair[]",
              "name": "",
              "type": "tuple[]"
            }
          ],
          "stateMutability": "view",
          "type": "function"
        },
        {
          "inputs": [
            {
              "internalType": "bytes32",
              "name": "role",
              "type": "bytes32"
            }
          ],
          "name": "getRoleAdmin",
          "outputs": [
            {
              "internalType": "bytes32",
              "name": "",
              "type": "bytes32"
            }
          ],
          "stateMutability": "view",
          "type": "function"
        },
        {
          "inputs": [],
          "name": "getSigners",
          "outputs": [
            {
              "internalType": "address[]",
              "name": "",
              "type": "address[]"
            }
          ],
          "stateMutability": "view",
          "type": "function"
        },
        {
          "inputs": [
            {
              "internalType": "address",
              "name": "user",
              "type": "address"
            },
            {
              "internalType": "address",
              "name": "lpToken",
              "type": "address"
            }
          ],
          "name": "getUserStakeInfo",
          "outputs": [
            {
              "internalType": "uint256",
              "name": "amount",
              "type": "uint256"
            },
            {
              "internalType": "uint256",
              "name": "pendingRewards",
              "type": "uint256"
            },
            {
              "internalType": "uint256",
              "name": "lastRewardTime",
              "type": "uint256"
            }
          ],
          "stateMutability": "view",
          "type": "function"
        },
        {
          "inputs": [
            {
              "internalType": "address",
              "name": "user",
              "type": "address"
            }
          ],
          "name": "getUserStakes",
          "outputs": [
            {
              "components": [
                {
                  "internalType": "uint256",
                  "name": "amount",
                  "type": "uint256"
                },
                {
                  "internalType": "uint256",
                  "name": "lastRewardTime",
                  "type": "uint256"
                },
                {
                  "internalType": "uint256",
                  "name": "pendingRewards",
                  "type": "uint256"
                },
                {
                  "internalType": "uint256",
                  "name": "rewardPerTokenPaid",
                  "type": "uint256"
                }
              ],
              "internalType": "struct LPStaking.UserStake[]",
              "name": "",
              "type": "tuple[]"
            }
          ],
          "stateMutability": "view",
          "type": "function"
        },
        {
          "inputs": [
            {
              "internalType": "bytes32",
              "name": "role",
              "type": "bytes32"
            },
            {
              "internalType": "address",
              "name": "account",
              "type": "address"
            }
          ],
          "name": "grantRole",
          "outputs": [],
          "stateMutability": "nonpayable",
          "type": "function"
        },
        {
          "inputs": [
            {
              "internalType": "uint256",
              "name": "actionId",
              "type": "uint256"
            }
          ],
          "name": "handleExpiredAction",
          "outputs": [],
          "stateMutability": "nonpayable",
          "type": "function"
        },
        {
          "inputs": [
            {
              "internalType": "bytes32",
              "name": "role",
              "type": "bytes32"
            },
            {
              "internalType": "address",
              "name": "account",
              "type": "address"
            }
          ],
          "name": "hasRole",
          "outputs": [
            {
              "internalType": "bool",
              "name": "",
              "type": "bool"
            }
          ],
          "stateMutability": "view",
          "type": "function"
        },
        {
          "inputs": [],
          "name": "hourlyRewardRate",
          "outputs": [
            {
              "internalType": "uint256",
              "name": "",
              "type": "uint256"
            }
          ],
          "stateMutability": "view",
          "type": "function"
        },
        {
          "inputs": [
            {
              "internalType": "uint256",
              "name": "actionId",
              "type": "uint256"
            }
          ],
          "name": "isActionExpired",
          "outputs": [
            {
              "internalType": "bool",
              "name": "",
              "type": "bool"
            }
          ],
          "stateMutability": "view",
          "type": "function"
        },
        {
          "inputs": [
            {
              "internalType": "address",
              "name": "",
              "type": "address"
            }
          ],
          "name": "lastUpdateTime",
          "outputs": [
            {
              "internalType": "uint256",
              "name": "",
              "type": "uint256"
            }
          ],
          "stateMutability": "view",
          "type": "function"
        },
        {
          "inputs": [
            {
              "internalType": "address",
              "name": "",
              "type": "address"
            }
          ],
          "name": "pairs",
          "outputs": [
            {
              "internalType": "contract IERC20",
              "name": "lpToken",
              "type": "address"
            },
            {
              "internalType": "string",
              "name": "pairName",
              "type": "string"
            },
            {
              "internalType": "string",
              "name": "platform",
              "type": "string"
            },
            {
              "internalType": "uint256",
              "name": "weight",
              "type": "uint256"
            },
            {
              "internalType": "bool",
              "name": "isActive",
              "type": "bool"
            }
          ],
          "stateMutability": "view",
          "type": "function"
        },
        {
          "inputs": [
            {
              "internalType": "address",
              "name": "lpToken",
              "type": "address"
            },
            {
              "internalType": "string",
              "name": "pairName",
              "type": "string"
            },
            {
              "internalType": "string",
              "name": "platform",
              "type": "string"
            },
            {
              "internalType": "uint256",
              "name": "weight",
              "type": "uint256"
            }
          ],
          "name": "proposeAddPair",
          "outputs": [
            {
              "internalType": "uint256",
              "name": "",
              "type": "uint256"
            }
          ],
          "stateMutability": "nonpayable",
          "type": "function"
        },
        {
          "inputs": [
            {
              "internalType": "address",
              "name": "oldSigner",
              "type": "address"
            },
            {
              "internalType": "address",
              "name": "newSigner",
              "type": "address"
            }
          ],
          "name": "proposeChangeSigner",
          "outputs": [
            {
              "internalType": "uint256",
              "name": "",
              "type": "uint256"
            }
          ],
          "stateMutability": "nonpayable",
          "type": "function"
        },
        {
          "inputs": [
            {
              "internalType": "address",
              "name": "lpToken",
              "type": "address"
            }
          ],
          "name": "proposeRemovePair",
          "outputs": [
            {
              "internalType": "uint256",
              "name": "",
              "type": "uint256"
            }
          ],
          "stateMutability": "nonpayable",
          "type": "function"
        },
        {
          "inputs": [
            {
              "internalType": "uint256",
              "name": "newRate",
              "type": "uint256"
            }
          ],
          "name": "proposeSetHourlyRewardRate",
          "outputs": [
            {
              "internalType": "uint256",
              "name": "",
              "type": "uint256"
            }
          ],
          "stateMutability": "nonpayable",
          "type": "function"
        },
        {
          "inputs": [
            {
              "internalType": "address[]",
              "name": "lpTokens",
              "type": "address[]"
            },
            {
              "internalType": "uint256[]",
              "name": "weights",
              "type": "uint256[]"
            }
          ],
          "name": "proposeUpdatePairWeights",
          "outputs": [
            {
              "internalType": "uint256",
              "name": "",
              "type": "uint256"
            }
          ],
          "stateMutability": "nonpayable",
          "type": "function"
        },
        {
          "inputs": [
            {
              "internalType": "address",
              "name": "recipient",
              "type": "address"
            },
            {
              "internalType": "uint256",
              "name": "amount",
              "type": "uint256"
            }
          ],
          "name": "proposeWithdrawRewards",
          "outputs": [
            {
              "internalType": "uint256",
              "name": "",
              "type": "uint256"
            }
          ],
          "stateMutability": "nonpayable",
          "type": "function"
        },
        {
          "inputs": [
            {
              "internalType": "uint256",
              "name": "actionId",
              "type": "uint256"
            }
          ],
          "name": "rejectAction",
          "outputs": [],
          "stateMutability": "nonpayable",
          "type": "function"
        },
        {
          "inputs": [
            {
              "internalType": "bytes32",
              "name": "role",
              "type": "bytes32"
            },
            {
              "internalType": "address",
              "name": "callerConfirmation",
              "type": "address"
            }
          ],
          "name": "renounceRole",
          "outputs": [],
          "stateMutability": "nonpayable",
          "type": "function"
        },
        {
          "inputs": [
            {
              "internalType": "bytes32",
              "name": "role",
              "type": "bytes32"
            },
            {
              "internalType": "address",
              "name": "account",
              "type": "address"
            }
          ],
          "name": "revokeRole",
          "outputs": [],
          "stateMutability": "nonpayable",
          "type": "function"
        },
        {
          "inputs": [
            {
              "internalType": "address",
              "name": "",
              "type": "address"
            }
          ],
          "name": "rewardPerTokenStored",
          "outputs": [
            {
              "internalType": "uint256",
              "name": "",
              "type": "uint256"
            }
          ],
          "stateMutability": "view",
          "type": "function"
        },
        {
          "inputs": [],
          "name": "rewardToken",
          "outputs": [
            {
              "internalType": "contract IERC20",
              "name": "",
              "type": "address"
            }
          ],
          "stateMutability": "view",
          "type": "function"
        },
        {
          "inputs": [
            {
              "internalType": "uint256",
              "name": "",
              "type": "uint256"
            }
          ],
          "name": "signers",
          "outputs": [
            {
              "internalType": "address",
              "name": "",
              "type": "address"
            }
          ],
          "stateMutability": "view",
          "type": "function"
        },
        {
          "inputs": [
            {
              "internalType": "address",
              "name": "lpToken",
              "type": "address"
            },
            {
              "internalType": "uint256",
              "name": "amount",
              "type": "uint256"
            }
          ],
          "name": "stake",
          "outputs": [],
          "stateMutability": "nonpayable",
          "type": "function"
        },
        {
          "inputs": [
            {
              "internalType": "bytes4",
              "name": "interfaceId",
              "type": "bytes4"
            }
          ],
          "name": "supportsInterface",
          "outputs": [
            {
              "internalType": "bool",
              "name": "",
              "type": "bool"
            }
          ],
          "stateMutability": "view",
          "type": "function"
        },
        {
          "inputs": [],
          "name": "totalWeight",
          "outputs": [
            {
              "internalType": "uint256",
              "name": "",
              "type": "uint256"
            }
          ],
          "stateMutability": "view",
          "type": "function"
        },
        {
          "inputs": [
            {
              "internalType": "address",
              "name": "lpToken",
              "type": "address"
            },
            {
              "internalType": "uint256",
              "name": "amount",
              "type": "uint256"
            }
          ],
          "name": "unstake",
          "outputs": [],
          "stateMutability": "nonpayable",
          "type": "function"
        },
        {
          "inputs": [
            {
              "internalType": "address",
              "name": "",
              "type": "address"
            },
            {
              "internalType": "address",
              "name": "",
              "type": "address"
            }
          ],
          "name": "userStakes",
          "outputs": [
            {
              "internalType": "uint256",
              "name": "amount",
              "type": "uint256"
            },
            {
              "internalType": "uint256",
              "name": "lastRewardTime",
              "type": "uint256"
            },
            {
              "internalType": "uint256",
              "name": "pendingRewards",
              "type": "uint256"
            },
            {
              "internalType": "uint256",
              "name": "rewardPerTokenPaid",
              "type": "uint256"
            }
          ],
          "stateMutability": "view",
          "type": "function"
        }
      ],
      "evm": {
        "bytecode": {
          "linkReferences": {},
          "object": "6080604052346102d55761483a80380380610019816102da565b9283398101906040818303126102d557610032816102ff565b602082015190916001600160401b0382116102d557019082601f830112156102d5578151926001600160401b03841161021d578360051b9260206100778186016102da565b809681520190602082958201019283116102d557602001905b8282106102bd5750505060016000556004835103610278576001600160a01b0316801561023357600280546001600160a01b0319169190911790558151906001600160401b03821161021d5768010000000000000000821161021d57600754826007558083106101d7575b506007600052602060002060005b8381106101ba578461011a3361033d565b5060005b81518110156101ab576001600160a01b036101398284610313565b5116156101665760019061015f6001600160a01b036101588386610313565b51166103db565b500161011e565b60405162461bcd60e51b815260206004820152601660248201527f496e76616c6964207369676e65722061646472657373000000000000000000006044820152606490fd5b60405161436690816104748239f35b82516001600160a01b031681830155602090920191600101610109565b60076000527fa66cc928b5edb82af9bd49922954155ab7b0942694bea4ce44661d9a8736c6889081019083015b81811061021157506100fb565b60008155600101610204565b634e487b7160e01b600052604160045260246000fd5b60405162461bcd60e51b815260206004820152601c60248201527f496e76616c69642072657761726420746f6b656e2061646472657373000000006044820152606490fd5b60405162461bcd60e51b815260206004820152601e60248201527f4d7573742070726f766964652065786163746c792034207369676e65727300006044820152606490fd5b602080916102ca846102ff565b815201910190610090565b600080fd5b6040519190601f01601f191682016001600160401b0381118382101761021d57604052565b51906001600160a01b03821682036102d557565b80518210156103275760209160051b010190565b634e487b7160e01b600052603260045260246000fd5b6001600160a01b03811660009081526000805160206147fa833981519152602052604090205460ff166103d5576001600160a01b031660008181526000805160206147fa83398151915260205260408120805460ff191660011790553391907fd59b2497ebc6a7b17400211976b8406e1f8b300d75ef805d3c4031ae66dcdf1e906000805160206147da8339815191529080a4600190565b50600090565b6001600160a01b038116600090815260008051602061481a833981519152602052604090205460ff166103d5576001600160a01b0316600081815260008051602061481a83398151915260205260408120805460ff191660011790553391907fa49807205ce4d355092ef5a8a18f56e8913cf4a201fbe287825b095693c21775906000805160206147da8339815191529080a460019056fe608080604052600436101561001357600080fd5b60003560e01c90816301ffc9a7146133ca5750806314b9af5514613188578063170c389814612da15780631a8254f514612ce25780632079fb9a14612cb9578063211dc32d14612c8d578063248a9ca314612c58578063263a8c6814612c2957806328119ffa14612be75780632b4b16b114612a5d5780632ce9aead14612a235780632f2ff15d146129e35780633033c090146129a8578063343a0b1c1461283757806336568abe146127f15780633f8a46ee1461265d57806353d618131461251f578063599c553314612503578063602baccc146124a057806369c28f7b1461247857806370ec86d51461245a57806375b238fc14612431578063767eb5ef146122555780637b9736b81461219d57806383240f831461206d578063842e298114611e39578063862d2d7c14611dc357806391d1485414611d7657806394cf795e14611d1357806396c82e5714611cf5578063996cf23314611cd95780639ce43f9014611c9f578063a217fddf14611c83578063aaf5eb6814611c60578063adc9772e14611a62578063c0c1cf5514610d6b578063c2a672e014610b7b578063cb1c2b5c14610b59578063d4ff73f714610ac7578063d547741f14610a80578063d785b59514610a0f578063e4a28a52146109eb578063e65f55b91461072e578063ef5cfb8c146105fc578063f33d564714610407578063f7c618c1146103de578063f80f40231461039f578063fafbc0f614610324578063fdbd98b0146103065763fe33b3021461024557600080fd5b34610301576020366003190112610301576001600160a01b0361026661341d565b166000526004602052604060002060018060a01b038154166040519161029a836102938160018501613598565b0384613651565b6040516102b5816102ae8160028601613598565b0382613651565b6102f060ff6004600385015494015416916102e2604051968796875260a0602088015260a087019061351d565b90858203604087015261351d565b916060840152151560808301520390f35b600080fd5b34610301576000366003190112610301576020600b54604051908152f35b3461030157602036600319011261030157600435600052600c6020526102ae61035a600360406000200160405192838092613c01565b60405180916020820160208352815180915260206040840192019060005b818110610386575050500390f35b8251845285945060209384019390920191600101610378565b3461030157602036600319011261030157600435600052600c6020526103da6103ce600c6040600020016139e3565b604051918291826134da565b0390f35b34610301576000366003190112610301576002546040516001600160a01b039091168152602090f35b346103015760403660031901126103015761042061341d565b610428613433565b610430613c82565b6001600160a01b03821660009081526000805160206142f1833981519152602052604090205460ff16156105c0576001600160a01b03811660009081526000805160206142f1833981519152602052604090205460ff1661057b576001600160a01b03811615610541576104a5600b546136a2565b80600b55600052600c602052604060002091600460ff19845416178355600483019060018060a01b03166001600160601b0360a01b825416179055600882019060018060a01b03166001600160601b0360a01b825416179055600d42910155610534600b546000805160206142d1833981519152606060405183815233602082015260046040820152a1613d0d565b6020600b54604051908152f35b60405162461bcd60e51b815260206004820152601260248201527124b73b30b634b2103732bb9039b4b3b732b960711b6044820152606490fd5b60405162461bcd60e51b815260206004820152601960248201527f4e6577207369676e657220616c726561647920657869737473000000000000006044820152606490fd5b60405162461bcd60e51b815260206004820152601460248201527313db19081cda59db995c881b9bdd08199bdd5b9960621b6044820152606490fd5b346103015760203660031901126103015761061561341d565b61061d6140c1565b60018060a01b0381169081600052600460205261064460ff60046040600020015416613b44565b61064d816140e3565b61065781336137e6565b9081156106f3577f9310ccfcb8de723f578a9e4282ea9f521f05ae40dc08f3068dfad528a65ee3c79233600052600560205260406000208160005260205260406000209060006002830155600052600860205260036040600020549101556106ca823360018060a01b036002541661421c565b604080513381526001600160a01b03929092166020830152810191909152606090a16001600055005b60405162461bcd60e51b81526020600482015260136024820152724e6f207265776172647320746f20636c61696d60681b6044820152606490fd5b34610301576040366003190112610301576004356001600160401b0381116103015761075e903690600401613672565b6024356001600160401b0381116103015761077d903690600401613672565b91610786613c82565b8281036109a6578015610961576107a06064821115613bc4565b60005b8381106108d357506107b6600b546136a2565b80600b55600052600c602052604060002093600160ff1986541617855560028501906001600160401b0383116108a257600160401b83116108a25761080083835481855584613c5f565b90600052602060002060005b8381106108b8575050505060038301906001600160401b0383116108a257600160401b83116108a25761084483835481855584613c5f565b90600052602060002060005b83811061088e5784600d42910155610534600b546000805160206142d1833981519152606060405183815233602082015260016040820152a1613d0d565b600190602084359401938184015501610850565b634e487b7160e01b600052604160045260246000fd5b60019060206108c685613c4b565b940193818401550161080c565b6108f3683635c9adc5dea000006108eb838787613c3b565b3511156136b1565b6001600160a01b0361090e610909838589613c3b565b613c4b565b161561091c576001016107a3565b60405162461bcd60e51b815260206004820152601860248201527f496e76616c6964204c5020746f6b656e206164647265737300000000000000006044820152606490fd5b60405162461bcd60e51b815260206004820152601860248201527f456d70747920617272617973206e6f7420616c6c6f77656400000000000000006044820152606490fd5b60405162461bcd60e51b815260206004820152601860248201527f4172726179206c656e67746873206d757374206d6174636800000000000000006044820152606490fd5b34610301576000366003190112610301576020604051683635c9adc5dea000008152f35b34610301576040366003190112610301576060610a2a61341d565b610a32613433565b60018060a01b0382166000526005602052604060002060018060a01b0382166000526020526001610a6a6040600020928354946137e6565b9101549060405192835260208301526040820152f35b3461030157604036600319011261030157610ac5600435610a9f613433565b90610ac0610abb82600052600160205260016040600020015490565b613cd0565b61403b565b005b34610301576020366003190112610301576001600160a01b03610ae861341d565b1660005260046020526002604060002060018060a01b0381541690600381015490610b2c60ff60048301541691610b256040518097819301613598565b0385613651565b610b48604051948594855260806020860152608085019061351d565b916040840152151560608301520390f35b3461030157600036600319011261030157602060405166038d7ea4c680008152f35b3461030157604036600319011261030157610b9461341d565b602435610b9f6140c1565b60018060a01b03821690816000526004602052610bc660ff60046040600020015416613b44565b3360005260056020526040806000206000908482526020522081815410610d31577fc970f16cd3ec5b32f311b9501d3274f497db81bb41ef2937fad509e835bbd25191610c8591610c16866140e3565b81610c2187336137e6565b956000600284015580600052600860205260406000205460038401558254808314600014610cfb57506000610c589355339061421c565b83610cdd575b604080513381526001600160a01b0387166020820152908101919091529081906060820190565b0390a180610c95575b6001600055005b604080513381526001600160a01b039390931660208401528201527f9310ccfcb8de723f578a9e4282ea9f521f05ae40dc08f3068dfad528a65ee3c790606090a18080610c8e565b600254610cf690859033906001600160a01b031661421c565b610c5e565b92610d0983610d1295613799565b9055339061421c565b8315610c5e57600254610cf690859033906001600160a01b031661421c565b60405162461bcd60e51b8152602060048201526012602482015271496e73756666696369656e74207374616b6560701b6044820152606490fd5b3461030157602036600319011261030157600435610d87613c82565b80151580611a56575b610d9990613a37565b80600052600c602052604060002090600b820191600360ff8454610dbf82821615613a76565b610dce828260081c1615613ab5565b610dde82600e8601541615613b82565b60101c1610611a1a57600d81015462093a80810180911161167257610e0590421115613ab5565b60ff815416600681101590816119775760028114918215611a0e575b82156119fd575b82156119ec575b505061198d575b60ff81541660068110156119775780610ea45750906000805160206142b1833981519152927fb03a67404ead580ad77cfd64b1f08197269fa5180fccb88d6615bdc8aa91e620602060018195015480600355604051908152a15b805460ff19166001179055604051908152a1005b909190600060018203611068575050600282019283546000600a55600360009401935b818110610fb957505060005b600654811015610f1c5780610ee96001926134a7565b838060a01b0391549060031b1c166000526004602052610f13600360406000200154600a546137d9565b600a5501610ed3565b5090916040519060408201604083528554809152606083019560005260206000209060005b818110610f9a575050508180610f92877f7f9d3b855249ef24ed9613191786a1fc8d2afafdc45ab1ec9c1a051589d7837c9460209897966000805160206142b18339815191529a0389850152613c01565b0390a1610e90565b82546001600160a01b0316885260209097019660019283019201610f41565b610fc381876134c2565b90546001600160a01b0360039290921b1c8116600090815260046020526040902054161561102e5780610ff8600192876134c2565b90549060031b1c61100982896134c2565b848060a01b0391549060031b1c16600052600460205260036040600020015501610ec7565b60405162461bcd60e51b815260206004820152601260248201527114185a5c88191bd95cdb89dd08195e1a5cdd60721b6044820152606490fd5b506002810361146f5750600482019260018060a01b038454169283600052600460205260018060a01b0360406000205416611434576110ab606460065410613bc4565b6007810193845491683635c9adc5dea0000083116113fd5760068101926110de60206110d7865461355e565b11156136f6565b6005611103604051936110f08561361b565b8585526102ae6040518094819301613598565b60208301908152604051906111238261111c8189613598565b0383613651565b6040848101928352606085019384526001608086018181526000978852600460205291909620945185546001600160a01b0319166001600160a01b0391909116178555905180519195850191906001600160401b0382116108a2576111928261118c855461355e565b85613752565b602090601f8311600114611396576111c392916000918361131f575b50508160011b916000199060031b1c19161790565b90555b51805160028401916001600160401b0382116108a2576111ea8261118c855461355e565b602090601f831160011461132a5791806112209260049796959460009261131f5750508160011b916000199060031b1c19161790565b90555b516003820155019051151560ff8019835416911617905560018060a01b038554169060065494600160401b8610156108a2576000805160206142b1833981519152966112c27f0a75180afe57477e6f07d0789053cbdb7699cde088de468ea9e91c0e910d80ef9461129e89600160209b0160065560066134c2565b81546001600160a01b0393841660039290921b91821b9390911b1916919091179055565b6112cf8254600a546137d9565b600a5560018060a01b03815416600052600987524260406000205560018060a01b03905416905461131160405193849384526060898501526060840190613598565b9060408301520390a1610e90565b015190508d806111ae565b90601f1983169184600052816000209260005b81811061137e57509160019391856004999897969410611365575b505050811b019055611223565b015160001960f88460031b161c191690558c8080611358565b9293602060018192878601518155019501930161133d565b90601f1983169184600052816000209260005b8181106113e557509084600195949392106113cc575b505050811b0190556111c6565b015160001960f88460031b161c191690558c80806113bf565b929360206001819287860151815501950193016113a9565b60405162461bcd60e51b815260206004820152600f60248201526e0aecad2ced0e840e8dede40d0d2ced608b1b6044820152606490fd5b60405162461bcd60e51b81526020600482015260136024820152725061697220616c72656164792065786973747360681b6044820152606490fd5b9192916000600382036116c65750509091600860018060a01b0391015416918260005260046020526114ab60ff60046040600020015416613b44565b8260005260046020526114c8600360406000200154600a54613799565b600a55826000526004602052600060036040822001556040516370a0823160e01b8152306004820152602081602481875afa9081156116ba57600091611688575b5015611552575b906020917f9493af33d363a70a1cd9cc0ceb347e3c0e16b5d9371695618e1ac5fb1c255b7c836000805160206142b183398151915295604051908152a1610e90565b60008381526004602081905260408220908101805460ff1916905580546001600160a01b0319169055600654905b81811061158f575b5050611510565b84611599826134a7565b905460039190911b1c6001600160a01b0316146115b857600101611580565b91929160001982019182116116725761129e6115d66115ee936134a7565b905460039190911b1c6001600160a01b0316916134a7565b60065491821561165c577f9493af33d363a70a1cd9cc0ceb347e3c0e16b5d9371695618e1ac5fb1c255b7c60206000805160206142b18339815191529581956000190161163a816134a7565b81549060018060a01b039060031b1b1916905560065595505081929350611588565b634e487b7160e01b600052603160045260246000fd5b634e487b7160e01b600052601160045260246000fd5b90506020813d6020116116b2575b816116a360209383613651565b81010312610301575184611509565b3d9150611696565b6040513d6000823e3d90fd5b50600481036117c1575060048301546008909301546001600160a01b039384169316916116f284613fa5565b506116fc83613e78565b5060005b600754811015611785578461171482613476565b905460039190911b1c6001600160a01b03161461173357600101611700565b60406000805160206142b1833981519152958561177660209761129e7feeb293e1f8f3a9db91ade748726387ed1352ca78f5430c5f06fe3d1e1ad5057996613476565b825191825286820152a1610e90565b507feeb293e1f8f3a9db91ade748726387ed1352ca78f5430c5f06fe3d1e1ad5057960406000805160206142b183398151915295602095611776565b600560009492939491146117ea575b50506020906000805160206142b183398151915292610e90565b60098201805492949193926001600160a01b031690811561193e576002546040516370a0823160e01b81523060048201526001600160a01b0390911696906020816024818b5afa9687156119325780976118f7575b5050600a019081548096106118b25761188b6020967f8a43c4352486ec339f487f64af78ca5cbf06cd47833f073d3baf3a193e503161946000805160206142b18339815191529961421c565b549054604080516001600160a01b039093168352602083019190915290a1928192506117d0565b60405162461bcd60e51b815260206004820152601d60248201527f496e73756666696369656e7420636f6e74726163742062616c616e63650000006044820152606490fd5b909196506020823d60201161192a575b8161191460209383613651565b8101031261192757505194600a8861183f565b80fd5b3d9150611907565b604051903d90823e3d90fd5b60405162461bcd60e51b8152602060048201526011602482015270125b9d985b1a59081c9958da5c1a595b9d607a1b6044820152606490fd5b634e487b7160e01b600052602160045260246000fd5b9060005b6006548110156119e557806119a76001926134a7565b838060a01b0391549060031b1c1680600052600460205260ff600460406000200154166119d6575b5001611991565b6119df906140e3565b856119cf565b5090610e36565b909150611977576003148480610e2f565b809250611977576001811491610e28565b50801591506000610e21565b60405162461bcd60e51b81526020600482015260146024820152734e6f7420656e6f75676820617070726f76616c7360601b6044820152606490fd5b50600b54811115610d90565b3461030157604036600319011261030157611a7b61341d565b602435611a866140c1565b60018060a01b0382169182600052600460205260036040600020611ab060ff600483015416613b44565b015415611c245766038d7ea4c680008210611be8576001600160801b038211611bab576106ca7ffb8efd70c9f0ca009bfc9f2ca8a9256a5aefbc720bdb8d838e4bcd42c241b9eb93611b01836140e3565b33600052600560205260408060002060009083825260205220611b2a85825480611b97576137d9565b8155600082815260086020908152604091829020546003840155426001600160401b0316600190930192909255516323b872dd60e01b918101919091523360248201523060448201526064810185905290611b9282608481015b03601f198101845283613651565b614255565b611ba187336137e6565b60028501556137d9565b60405162461bcd60e51b81526020600482015260156024820152740a6e8c2d6ca40c2dadeeadce840e8dede40d0d2ced605b1b6044820152606490fd5b60405162461bcd60e51b81526020600482015260146024820152735374616b6520616d6f756e7420746f6f206c6f7760601b6044820152606490fd5b60405162461bcd60e51b815260206004820152601460248201527314185a5c881a185cc81e995c9bc81dd95a59da1d60621b6044820152606490fd5b34610301576000366003190112610301576020604051670de0b6b3a76400008152f35b3461030157600036600319011261030157602060405160008152f35b34610301576020366003190112610301576001600160a01b03611cc061341d565b1660005260086020526020604060002054604051908152f35b3461030157600036600319011261030157602060405160648152f35b34610301576000366003190112610301576020600a54604051908152f35b34610301576000366003190112610301576040516007548082526020820190600760005260206000209060005b818110611d57576103da856103ce81870382613651565b82546001600160a01b0316845260209093019260019283019201611d40565b3461030157604036600319011261030157611d8f613433565b600435600052600160205260406000209060018060a01b0316600052602052602060ff604060002054166040519015158152f35b346103015760403660031901126103015760806040611de061341d565b611de8613433565b9060018060a01b031660005260056020528160002060009160018060a01b03168252602052208054906001810154906003600282015491015491604051938452602084015260408301526060820152f35b3461030157602036600319011261030157611e5261341d565b6006546000916001600160a01b0316825b8281106120155750611e7483613b19565b92611e826040519485613651565b808452611e91601f1991613b19565b0160005b818110611fe25750506000805b838110611f10578460405180916020820160208352815180915260206040840192019060005b818110611ed6575050500390f35b9193509160206080600192606087518051835284810151858401526040810151604084015201516060820152019401910191849392611ec8565b826000526005602052604080600020611f28836134a7565b905460039190911b1c6001600160a01b031660009081526020919091522054611f54575b600101611ea2565b90611fda600191846000526005602052604080600020611f73866134a7565b868060a01b0391549060031b1c1690600091868060a01b0316825260205220600360405191611fa183613636565b805483528581015460208401526002810154604084015201546060820152611fc98289613b30565b52611fd48188613b30565b506136a2565b919050611f4c565b602090604051611ff181613636565b60008152600083820152600060408201526000606082015282828801015201611e95565b81600052600560205260408060002061202d836134a7565b905460039190911b1c6001600160a01b031660009081526020919091522054612059575b600101611e63565b926120656001916136a2565b939050612051565b3461030157602036600319011261030157600435600052600c602052604060002060ff8154169060018101549160018060a01b03600483015416604051926120bc84610b258160058501613598565b604051916120d1836102938160068601613598565b60078201549360018060a01b0360088401541660018060a01b03600985015416600a85015491600b8601549360ff600e600d89015498015416976040519b6006831015611977578c9b6101c060608e60ff9b612144956121529883526020830152604082015201526101c08d019061351d565b908b820360808d015261351d565b9760a08a015260c089015260e08801526101008701528181161515610120870152818160081c16151561014087015260101c1661016085015261018084015215156101a08301520390f35b34610301576000366003190112610301576121b6613c82565b60015b600b548111610ac557806121f691600052600c602052600b604060002001805460ff81161580612247575b80612238575b6121fb575b50506136a2565b6121b9565b6101009061ff0019161790557f7d919bd8ec97e857ec355cca68a0882119b700d30b815f9939a75e824cad9a9b6020604051838152a182806121ef565b5061224283613af6565b6121ea565b5060ff8160081c16156121e4565b346103015760003660031901126103015760065461227281613b19565b906122806040519283613651565b808252601f1961228f82613b19565b0160005b8181106123f757505060005b81811061235357826040518091602082016020835281518091526040830190602060408260051b8601019301916000905b8282106122df57505050500390f35b919360019193955060208091603f19898203018552875190848060a01b03825116815260808061233161231f8686015160a08887015260a086019061351d565b6040860151858203604087015261351d565b93606081015160608501520151151591015296019201920185949391926122d0565b8061235f6001926134a7565b838060a01b0391549060031b1c166000526004602052604060002060ff60046040519261238b8461361b565b858060a01b0381541684526040516123a9816102ae818a8601613598565b60208501526040516123c2816102ae8160028601613598565b604085015260038101546060850152015416151560808201526123e58286613b30565b526123f08185613b30565b500161229f565b6020906040516124068161361b565b6000815260608382015260606040820152600060608201526000608082015282828701015201612293565b346103015760003660031901126103015760206040516000805160206143118339815191528152f35b34610301576000366003190112610301576020600354604051908152f35b34610301576020366003190112610301576020612496600435613af6565b6040519015158152f35b34610301576000366003190112610301576040516006548082526020820190600660005260206000209060005b8181106124e4576103da856103ce81870382613651565b82546001600160a01b03168452602090930192600192830192016124cd565b3461030157600036600319011261030157602060405160038152f35b346103015760203660031901126103015761253861341d565b612540613c82565b6001600160a01b031680156126215780600052600460205260ff60046040600020015416156125dd57612574600b546136a2565b80600b55600052600c602052604060002090600360ff1983541617825560088201906001600160601b0360a01b825416179055600d42910155610534600b546000805160206142d1833981519152606060405183815233602082015260036040820152a1613d0d565b606460405162461bcd60e51b815260206004820152602060248201527f50616972206e6f7420616374697665206f7220646f65736e27742065786973746044820152fd5b60405162461bcd60e51b8152602060048201526014602482015273496e76616c69642070616972206164647265737360601b6044820152606490fd5b3461030157602036600319011261030157600435801515806127e5575b61268390613a37565b80600052600c60205260ff60406000205416600681101561197757600403612772573360009081526000805160206142f1833981519152602052604090205460ff16801561273a575b156126da57610ac590613d0d565b60405162461bcd60e51b815260206004820152603260248201527f43616c6c6572206d75737420686176652041444d494e5f524f4c45206f72204f604482015271574e45525f415050524f5645525f524f4c4560701b6064820152608490fd5b503360009081527fb98fea3292a51d6ba303dd5ef6120a65c5e45f140a21630a75de31035db0b199602052604090205460ff166126cc565b3360009081526000805160206142f1833981519152602052604090205460ff16156127a057610ac590613d0d565b60405162461bcd60e51b815260206004820152601b60248201527f43616c6c6572206d75737420686176652041444d494e5f524f4c4500000000006044820152606490fd5b50600b5481111561267a565b346103015760403660031901126103015761280a613433565b336001600160a01b0382160361282657610ac59060043561403b565b63334bd91960e11b60005260046000fd5b3461030157602036600319011261030157600435612853613c82565b8015158061299c575b61286590613a37565b80600052600c602052600b6040600020019081549060ff82166129575760ff8260081c166129125761289681613af6565b156128d4577f7d919bd8ec97e857ec355cca68a0882119b700d30b815f9939a75e824cad9a9b9261010060209361ff001916179055604051908152a1005b60405162461bcd60e51b81526020600482015260166024820152751058dd1a5bdb881b9bdd08195e1c1a5c9959081e595d60521b6044820152606490fd5b60405162461bcd60e51b815260206004820152601d60248201527f416374696f6e20616c7265616479206d61726b656420657870697265640000006044820152606490fd5b60405162461bcd60e51b815260206004820152601760248201527f416374696f6e20616c72656164792065786563757465640000000000000000006044820152606490fd5b50600b5481111561285c565b346103015760003660031901126103015760206040517fd59b2497ebc6a7b17400211976b8406e1f8b300d75ef805d3c4031ae66dcdf1e8152f35b3461030157604036600319011261030157610ac5600435612a02613433565b90612a1e610abb82600052600160205260016040600020015490565b613f16565b34610301576020366003190112610301576001600160a01b03612a4461341d565b1660005260096020526020604060002054604051908152f35b3461030157602036600319011261030157600435612a79613c82565b80151580612bdb575b612a8b90613a37565b80600052600c6020526040600020612ab960ff600b830154612aaf82821615613a76565b60081c1615613ab5565b600e81019081549060ff8216612ba357600d81015462093a80810180911161167257612ae790421115613ab5565b600c0180549060005b828110612b3457600160ff198516178555604080518781523360208201527f56bdda336a8bb949a57770a7cde5b62bd8913d11d9dde767735db889a609692f9190a1005b612b3e81836134c2565b905460039190911b1c6001600160a01b03163314612b5e57600101612af0565b60405162461bcd60e51b815260206004820152601d60248201527f43616e6e6f742072656a65637420616674657220617070726f76696e670000006044820152606490fd5b60405162461bcd60e51b815260206004820152601060248201526f105b1c9958591e481c995a9958dd195960821b6044820152606490fd5b50600b54811115612a82565b346103015760203660031901126103015760043560065481101561030157612c106020916134a7565b905460405160039290921b1c6001600160a01b03168152f35b3461030157602036600319011261030157600435600052600c6020526103da6103ce60026040600020016139e3565b34610301576020366003190112610301576020612c85600435600052600160205260016040600020015490565b604051908152f35b34610301576040366003190112610301576020612c85612cab61341d565b612cb3613433565b906137e6565b346103015760203660031901126103015760043560075481101561030157612c10602091613476565b3461030157602036600319011261030157600435612cfe613c82565b6001600160801b038111612d6c57612d17600b546136a2565b80600b55600052600c60205260406000209060ff1982541682556001820155600d42910155610534600b546000805160206142d1833981519152606060405183815233602082015260006040820152a1613d0d565b60405162461bcd60e51b815260206004820152600d60248201526c0a4c2e8ca40e8dede40d0d2ced609b1b6044820152606490fd5b3461030157608036600319011261030157612dba61341d565b6024356001600160401b03811161030157612dd9903690600401613449565b6044929192356001600160401b03811161030157612dfb903690600401613449565b909360643592612e09613c82565b6001600160a01b0385161561315457831561310f57612e33683635c9adc5dea000008511156136b1565b80156130d8576020811161309e57821561306357612e5460208411156136f6565b612e5f600b546136a2565b80600b55600052600c602052604060002094600260ff19875416178655600486019060018060a01b03166001600160601b0360a01b82541617905560058501916001600160401b0382116108a257612ebb8261118c855461355e565b600090601f8311600114612fff57612eeb929160009183612ff45750508160011b916000199060031b1c19161790565b90555b60068301906001600160401b0381116108a257612f1581612f0f845461355e565b84613752565b6000601f8211600114612f90578190612f4793949596600092612f855750508160011b916000199060031b1c19161790565b90555b6007820155600d42910155610534600b546000805160206142d1833981519152606060405183815233602082015260026040820152a1613d0d565b0135905086806111ae565b601f198216958382526020822091805b888110612fdc57508360019596979810612fc2575b505050811b019055612f4a565b0135600019600384901b60f8161c19169055858080612fb5565b90926020600181928686013581550194019101612fa0565b0135905088806111ae565b8382526020822091601f198416815b81811061304b5750908460019594939210613031575b505050811b019055612eee565b0135600019600384901b60f8161c19169055878080613024565b9193602060018192878701358155019501920161300e565b60405162461bcd60e51b8152602060048201526013602482015272456d70747920706c6174666f726d206e616d6560681b6044820152606490fd5b60405162461bcd60e51b815260206004820152601260248201527150616972206e616d6520746f6f206c6f6e6760701b6044820152606490fd5b60405162461bcd60e51b815260206004820152600f60248201526e456d7074792070616972206e616d6560881b6044820152606490fd5b60405162461bcd60e51b815260206004820152601d60248201527f576569676874206d7573742062652067726561746572207468616e20300000006044820152606490fd5b60405162461bcd60e51b815260206004820152600c60248201526b24b73b30b634b2103830b4b960a11b6044820152606490fd5b34610301576040366003190112610301576131a161341d565b6024356131ac613c82565b6001600160a01b03821615613385578015613341576002546040516370a0823160e01b815230600482015290602090829060249082906001600160a01b03165afa9081156116ba5760009161330f575b5081116132ca576001600160801b0381116132925761321c600b546136a2565b80600b55600052600c602052604060002091600560ff19845416178355600983019060018060a01b03166001600160601b0360a01b825416179055600a820155600d42910155610534600b546000805160206142d1833981519152606060405183815233602082015260056040820152a1613d0d565b60405162461bcd60e51b815260206004820152601060248201526f416d6f756e7420746f6f206c6172676560801b6044820152606490fd5b60405162461bcd60e51b815260206004820152601f60248201527f416d6f756e74206578636565647320636f6e74726163742062616c616e6365006044820152606490fd5b90506020813d602011613339575b8161332a60209383613651565b810103126103015751836131fc565b3d915061331d565b606460405162461bcd60e51b815260206004820152602060248201527f416d6f756e74206d7573742062652067726561746572207468616e207a65726f6044820152fd5b60405162461bcd60e51b815260206004820152601960248201527f496e76616c696420726563697069656e742061646472657373000000000000006044820152606490fd5b34610301576020366003190112610301576004359063ffffffff60e01b821680920361030157602091637965db0b60e01b811490811561340c575b5015158152f35b6301ffc9a760e01b14905083613405565b600435906001600160a01b038216820361030157565b602435906001600160a01b038216820361030157565b9181601f84011215610301578235916001600160401b038311610301576020838186019501011161030157565b60075481101561349157600760005260206000200190600090565b634e487b7160e01b600052603260045260246000fd5b60065481101561349157600660005260206000200190600090565b80548210156134915760005260206000200190600090565b602060408183019282815284518094520192019060005b8181106134fe5750505090565b82516001600160a01b03168452602093840193909201916001016134f1565b919082519283825260005b848110613549575050826000602080949584010152601f8019910116010190565b80602080928401015182828601015201613528565b90600182811c9216801561358e575b602083101461357857565b634e487b7160e01b600052602260045260246000fd5b91607f169161356d565b600092918154916135a88361355e565b80835292600181169081156135fe57506001146135c457505050565b60009081526020812093945091925b8383106135e4575060209250010190565b6001816020929493945483858701015201910191906135d3565b915050602093945060ff929192191683830152151560051b010190565b60a081019081106001600160401b038211176108a257604052565b608081019081106001600160401b038211176108a257604052565b90601f801991011681019081106001600160401b038211176108a257604052565b9181601f84011215610301578235916001600160401b038311610301576020808501948460051b01011161030157565b60001981146116725760010190565b156136b857565b60405162461bcd60e51b81526020600482015260166024820152755765696768742065786365656473206d6178696d756d60501b6044820152606490fd5b156136fd57565b60405162461bcd60e51b8152602060048201526016602482015275506c6174666f726d206e616d6520746f6f206c6f6e6760501b6044820152606490fd5b818110613746575050565b6000815560010161373b565b9190601f811161376157505050565b61378d926000526020600020906020601f840160051c8301931061378f575b601f0160051c019061373b565b565b9091508190613780565b9190820391821161167257565b81156137b0570490565b634e487b7160e01b600052601260045260246000fd5b8181029291811591840414171561167257565b9190820180921161167257565b6001600160a01b0390811660009081526005602090815260408083209490931680835293815282822060088252838320546009909252929091205490929042118061397d575b80613972575b61386e575b506002670de0b6b3a764000061386161386b9461385b855491600387015490613799565b906137c6565b04910154906137d9565b90565b918260005260096020526138bd6138b461389c61389060406000205442613799565b610e10600354046137c6565b856000526004602052600360406000200154906137c6565b600a54906137a6565b670de0b6b3a7640000810290808204670de0b6b3a76400001490151715611672576020602494604051958680926370a0823160e01b82523060048301525afa9384156116ba5760009461393a575b5061386161393160029361392b61386b97670de0b6b3a7640000956137a6565b906137d9565b94505050613837565b9350906020843d60201161396a575b8161395660209383613651565b81010312610301579251929061386161390b565b3d9150613949565b50600a541515613832565b506040516370a0823160e01b8152306004820152602081602481855afa9081156116ba576000916139b1575b50151561382c565b90506020813d6020116139db575b816139cc60209383613651565b810103126103015751386139a9565b3d91506139bf565b906040519182815491828252602082019060005260206000209260005b818110613a1557505061378d92500383613651565b84546001600160a01b0316835260019485019487945060209093019201613a00565b15613a3e57565b60405162461bcd60e51b815260206004820152601060248201526f125b9d985b1a59081858dd1a5bdb925960821b6044820152606490fd5b15613a7d57565b60405162461bcd60e51b815260206004820152601060248201526f105b1c9958591e48195e1958dd5d195960821b6044820152606490fd5b15613abc57565b60405162461bcd60e51b81526020600482015260126024820152711058dd1a5bdb881a185cc8195e1c1a5c995960721b6044820152606490fd5b600052600c602052600d6040600020015462093a80810180911161167257421190565b6001600160401b0381116108a25760051b60200190565b80518210156134915760209160051b010190565b15613b4b57565b60405162461bcd60e51b815260206004820152600f60248201526e50616972206e6f742061637469766560881b6044820152606490fd5b15613b8957565b60405162461bcd60e51b81526020600482015260136024820152721058dd1a5bdb881dd85cc81c995a9958dd1959606a1b6044820152606490fd5b15613bcb57565b60405162461bcd60e51b815260206004820152600e60248201526d546f6f206d616e7920706169727360901b6044820152606490fd5b906020825491828152019160005260206000209060005b818110613c255750505090565b8254845260209093019260019283019201613c18565b91908110156134915760051b0190565b356001600160a01b03811681036103015790565b91818110613c6c57505050565b61378d926000526020600020918201910161373b565b3360009081526000805160206142f1833981519152602052604090205460ff1615613ca957565b63e2517d3f60e01b6000523360045260008051602061431183398151915260245260446000fd5b600081815260016020908152604080832033845290915290205460ff1615613cf55750565b63e2517d3f60e01b6000523360045260245260446000fd5b80600052600c6020526040600020600b810190613d3360ff8354612aaf82821615613a76565b613d4460ff600e8301541615613b82565b600d81015462093a80810180911161167257613d6290421115613ab5565b600c01805460005b818110613e16575050805490600160401b8210156108a25781613d95916001613db3940181556134c2565b81546001600160a01b0360039290921b91821b19163390911b179055565b80549160ff8360101c169160ff83146116725762ff0000199390931660019290920160101b62ff00001691909117909155604080519182523360208301527f13f5ed40f1478eb39ccc91c62e3e395db4ea1b1afc8928825652b67136b0604491a1565b613e2081846134c2565b905460039190911b1c6001600160a01b03163314613e4057600101613d6a565b60405162461bcd60e51b815260206004820152601060248201526f105b1c9958591e48185c1c1c9bdd995960821b6044820152606490fd5b6001600160a01b03811660009081526000805160206142f1833981519152602052604090205460ff16613f10576001600160a01b031660008181526000805160206142f183398151915260205260408120805460ff19166001179055339190600080516020614311833981519152907f2f8788117e7eff1d82e926ec794901d17c78024a50270940304540a733656f0d9080a4600190565b50600090565b60008181526001602090815260408083206001600160a01b038616845290915290205460ff16613f9e5760008181526001602081815260408084206001600160a01b0396909616808552959091528220805460ff19169091179055339291907f2f8788117e7eff1d82e926ec794901d17c78024a50270940304540a733656f0d9080a4600190565b5050600090565b6001600160a01b03811660009081526000805160206142f1833981519152602052604090205460ff1615613f10576001600160a01b031660008181526000805160206142f183398151915260205260408120805460ff19169055339190600080516020614311833981519152907ff6391f5c32d9c69d2a47ea670b442974b53935d1edc7fd64eb21e047a839171b9080a4600190565b60008181526001602090815260408083206001600160a01b038616845290915290205460ff1615613f9e5760008181526001602090815260408083206001600160a01b0395909516808452949091528120805460ff19169055339291907ff6391f5c32d9c69d2a47ea670b442974b53935d1edc7fd64eb21e047a839171b9080a4600190565b6002600054146140d2576002600055565b633ee5aeb560e01b60005260046000fd5b6040516370a0823160e01b81523060048201526001600160a01b039190911690602081602481855afa9081156116ba576000916141ea575b5081600052600960205261413460406000205442613799565b811515806141e1575b806141d6575b61415b575b5050600052600960205242604060002055565b6138b461417161418992610e10600354046137c6565b846000526004602052600360406000200154906137c6565b90670de0b6b3a7640000820291808304670de0b6b3a76400001490151715611672576141b4916137a6565b8160005260086020526141cd60406000209182546137d9565b90553880614148565b50600a541515614143565b5080151561413d565b906020823d602011614214575b8161420460209383613651565b810103126119275750513861411b565b3d91506141f7565b60405163a9059cbb60e01b60208201526001600160a01b039092166024830152604482019290925261378d91611b928260648101611b84565b906000602091828151910182855af1156116ba576000513d6142a757506001600160a01b0381163b155b6142865750565b635274afe760e01b60009081526001600160a01b0391909116600452602490fd5b6001141561427f56fe7cd79380f59dcb9a2e87db5e49009e2cb7ff8a3175bf8db0137c71bd7abe7143ff1f23bc7538ef354da69561506eedc8078a7bce7b70ef9877b7bbad4f7ca37850efbde2d46c37e9785f1791697f77e94bb7b701e19f1930a668820722d37694a49807205ce4d355092ef5a8a18f56e8913cf4a201fbe287825b095693c21775a2646970667358221220592df8e9d7bc84890988c6d788d2e1b003a6c8a47e21ce9b0cb766e04d29266264736f6c634300081c00332f8788117e7eff1d82e926ec794901d17c78024a50270940304540a733656f0db98fea3292a51d6ba303dd5ef6120a65c5e45f140a21630a75de31035db0b19950efbde2d46c37e9785f1791697f77e94bb7b701e19f1930a668820722d37694",
          "opcodes": "PUSH1 0x80 PUSH1 0x40 MSTORE CALLVALUE PUSH2 0x2D5 JUMPI PUSH2 0x483A DUP1 CODESIZE SUB DUP1 PUSH2 0x19 DUP2 PUSH2 0x2DA JUMP JUMPDEST SWAP3 DUP4 CODECOPY DUP2 ADD SWAP1 PUSH1 0x40 DUP2 DUP4 SUB SLT PUSH2 0x2D5 JUMPI PUSH2 0x32 DUP2 PUSH2 0x2FF JUMP JUMPDEST PUSH1 0x20 DUP3 ADD MLOAD SWAP1 SWAP2 PUSH1 0x1 PUSH1 0x1 PUSH1 0x40 SHL SUB DUP3 GT PUSH2 0x2D5 JUMPI ADD SWAP1 DUP3 PUSH1 0x1F DUP4 ADD SLT ISZERO PUSH2 0x2D5 JUMPI DUP2 MLOAD SWAP3 PUSH1 0x1 PUSH1 0x1 PUSH1 0x40 SHL SUB DUP5 GT PUSH2 0x21D JUMPI DUP4 PUSH1 0x5 SHL SWAP3 PUSH1 0x20 PUSH2 0x77 DUP2 DUP7 ADD PUSH2 0x2DA JUMP JUMPDEST DUP1 SWAP7 DUP2 MSTORE ADD SWAP1 PUSH1 0x20 DUP3 SWAP6 DUP3 ADD ADD SWAP3 DUP4 GT PUSH2 0x2D5 JUMPI PUSH1 0x20 ADD SWAP1 JUMPDEST DUP3 DUP3 LT PUSH2 0x2BD JUMPI POP POP POP PUSH1 0x1 PUSH1 0x0 SSTORE PUSH1 0x4 DUP4 MLOAD SUB PUSH2 0x278 JUMPI PUSH1 0x1 PUSH1 0x1 PUSH1 0xA0 SHL SUB AND DUP1 ISZERO PUSH2 0x233 JUMPI PUSH1 0x2 DUP1 SLOAD PUSH1 0x1 PUSH1 0x1 PUSH1 0xA0 SHL SUB NOT AND SWAP2 SWAP1 SWAP2 OR SWAP1 SSTORE DUP2 MLOAD SWAP1 PUSH1 0x1 PUSH1 0x1 PUSH1 0x40 SHL SUB DUP3 GT PUSH2 0x21D JUMPI PUSH9 0x10000000000000000 DUP3 GT PUSH2 0x21D JUMPI PUSH1 0x7 SLOAD DUP3 PUSH1 0x7 SSTORE DUP1 DUP4 LT PUSH2 0x1D7 JUMPI JUMPDEST POP PUSH1 0x7 PUSH1 0x0 MSTORE PUSH1 0x20 PUSH1 0x0 KECCAK256 PUSH1 0x0 JUMPDEST DUP4 DUP2 LT PUSH2 0x1BA JUMPI DUP5 PUSH2 0x11A CALLER PUSH2 0x33D JUMP JUMPDEST POP PUSH1 0x0 JUMPDEST DUP2 MLOAD DUP2 LT ISZERO PUSH2 0x1AB JUMPI PUSH1 0x1 PUSH1 0x1 PUSH1 0xA0 SHL SUB PUSH2 0x139 DUP3 DUP5 PUSH2 0x313 JUMP JUMPDEST MLOAD AND ISZERO PUSH2 0x166 JUMPI PUSH1 0x1 SWAP1 PUSH2 0x15F PUSH1 0x1 PUSH1 0x1 PUSH1 0xA0 SHL SUB PUSH2 0x158 DUP4 DUP7 PUSH2 0x313 JUMP JUMPDEST MLOAD AND PUSH2 0x3DB JUMP JUMPDEST POP ADD PUSH2 0x11E JUMP JUMPDEST PUSH1 0x40 MLOAD PUSH3 0x461BCD PUSH1 0xE5 SHL DUP2 MSTORE PUSH1 0x20 PUSH1 0x4 DUP3 ADD MSTORE PUSH1 0x16 PUSH1 0x24 DUP3 ADD MSTORE PUSH32 0x496E76616C6964207369676E6572206164647265737300000000000000000000 PUSH1 0x44 DUP3 ADD MSTORE PUSH1 0x64 SWAP1 REVERT JUMPDEST PUSH1 0x40 MLOAD PUSH2 0x4366 SWAP1 DUP2 PUSH2 0x474 DUP3 CODECOPY RETURN JUMPDEST DUP3 MLOAD PUSH1 0x1 PUSH1 0x1 PUSH1 0xA0 SHL SUB AND DUP2 DUP4 ADD SSTORE PUSH1 0x20 SWAP1 SWAP3 ADD SWAP2 PUSH1 0x1 ADD PUSH2 0x109 JUMP JUMPDEST PUSH1 0x7 PUSH1 0x0 MSTORE PUSH32 0xA66CC928B5EDB82AF9BD49922954155AB7B0942694BEA4CE44661D9A8736C688 SWAP1 DUP2 ADD SWAP1 DUP4 ADD JUMPDEST DUP2 DUP2 LT PUSH2 0x211 JUMPI POP PUSH2 0xFB JUMP JUMPDEST PUSH1 0x0 DUP2 SSTORE PUSH1 0x1 ADD PUSH2 0x204 JUMP JUMPDEST PUSH4 0x4E487B71 PUSH1 0xE0 SHL PUSH1 0x0 MSTORE PUSH1 0x41 PUSH1 0x4 MSTORE PUSH1 0x24 PUSH1 0x0 REVERT JUMPDEST PUSH1 0x40 MLOAD PUSH3 0x461BCD PUSH1 0xE5 SHL DUP2 MSTORE PUSH1 0x20 PUSH1 0x4 DUP3 ADD MSTORE PUSH1 0x1C PUSH1 0x24 DUP3 ADD MSTORE PUSH32 0x496E76616C69642072657761726420746F6B656E206164647265737300000000 PUSH1 0x44 DUP3 ADD MSTORE PUSH1 0x64 SWAP1 REVERT JUMPDEST PUSH1 0x40 MLOAD PUSH3 0x461BCD PUSH1 0xE5 SHL DUP2 MSTORE PUSH1 0x20 PUSH1 0x4 DUP3 ADD MSTORE PUSH1 0x1E PUSH1 0x24 DUP3 ADD MSTORE PUSH32 0x4D7573742070726F766964652065786163746C792034207369676E6572730000 PUSH1 0x44 DUP3 ADD MSTORE PUSH1 0x64 SWAP1 REVERT JUMPDEST PUSH1 0x20 DUP1 SWAP2 PUSH2 0x2CA DUP5 PUSH2 0x2FF JUMP JUMPDEST DUP2 MSTORE ADD SWAP2 ADD SWAP1 PUSH2 0x90 JUMP JUMPDEST PUSH1 0x0 DUP1 REVERT JUMPDEST PUSH1 0x40 MLOAD SWAP2 SWAP1 PUSH1 0x1F ADD PUSH1 0x1F NOT AND DUP3 ADD PUSH1 0x1 PUSH1 0x1 PUSH1 0x40 SHL SUB DUP2 GT DUP4 DUP3 LT OR PUSH2 0x21D JUMPI PUSH1 0x40 MSTORE JUMP JUMPDEST MLOAD SWAP1 PUSH1 0x1 PUSH1 0x1 PUSH1 0xA0 SHL SUB DUP3 AND DUP3 SUB PUSH2 0x2D5 JUMPI JUMP JUMPDEST DUP1 MLOAD DUP3 LT ISZERO PUSH2 0x327 JUMPI PUSH1 0x20 SWAP2 PUSH1 0x5 SHL ADD ADD SWAP1 JUMP JUMPDEST PUSH4 0x4E487B71 PUSH1 0xE0 SHL PUSH1 0x0 MSTORE PUSH1 0x32 PUSH1 0x4 MSTORE PUSH1 0x24 PUSH1 0x0 REVERT JUMPDEST PUSH1 0x1 PUSH1 0x1 PUSH1 0xA0 SHL SUB DUP2 AND PUSH1 0x0 SWAP1 DUP2 MSTORE PUSH1 0x0 DUP1 MLOAD PUSH1 0x20 PUSH2 0x47FA DUP4 CODECOPY DUP2 MLOAD SWAP2 MSTORE PUSH1 0x20 MSTORE PUSH1 0x40 SWAP1 KECCAK256 SLOAD PUSH1 0xFF AND PUSH2 0x3D5 JUMPI PUSH1 0x1 PUSH1 0x1 PUSH1 0xA0 SHL SUB AND PUSH1 0x0 DUP2 DUP2 MSTORE PUSH1 0x0 DUP1 MLOAD PUSH1 0x20 PUSH2 0x47FA DUP4 CODECOPY DUP2 MLOAD SWAP2 MSTORE PUSH1 0x20 MSTORE PUSH1 0x40 DUP2 KECCAK256 DUP1 SLOAD PUSH1 0xFF NOT AND PUSH1 0x1 OR SWAP1 SSTORE CALLER SWAP2 SWAP1 PUSH32 0xD59B2497EBC6A7B17400211976B8406E1F8B300D75EF805D3C4031AE66DCDF1E SWAP1 PUSH1 0x0 DUP1 MLOAD PUSH1 0x20 PUSH2 0x47DA DUP4 CODECOPY DUP2 MLOAD SWAP2 MSTORE SWAP1 DUP1 LOG4 PUSH1 0x1 SWAP1 JUMP JUMPDEST POP PUSH1 0x0 SWAP1 JUMP JUMPDEST PUSH1 0x1 PUSH1 0x1 PUSH1 0xA0 SHL SUB DUP2 AND PUSH1 0x0 SWAP1 DUP2 MSTORE PUSH1 0x0 DUP1 MLOAD PUSH1 0x20 PUSH2 0x481A DUP4 CODECOPY DUP2 MLOAD SWAP2 MSTORE PUSH1 0x20 MSTORE PUSH1 0x40 SWAP1 KECCAK256 SLOAD PUSH1 0xFF AND PUSH2 0x3D5 JUMPI PUSH1 0x1 PUSH1 0x1 PUSH1 0xA0 SHL SUB AND PUSH1 0x0 DUP2 DUP2 MSTORE PUSH1 0x0 DUP1 MLOAD PUSH1 0x20 PUSH2 0x481A DUP4 CODECOPY DUP2 MLOAD SWAP2 MSTORE PUSH1 0x20 MSTORE PUSH1 0x40 DUP2 KECCAK256 DUP1 SLOAD PUSH1 0xFF NOT AND PUSH1 0x1 OR SWAP1 SSTORE CALLER SWAP2 SWAP1 PUSH32 0xA49807205CE4D355092EF5A8A18F56E8913CF4A201FBE287825B095693C21775 SWAP1 PUSH1 0x0 DUP1 MLOAD PUSH1 0x20 PUSH2 0x47DA DUP4 CODECOPY DUP2 MLOAD SWAP2 MSTORE SWAP1 DUP1 LOG4 PUSH1 0x1 SWAP1 JUMP INVALID PUSH1 0x80 DUP1 PUSH1 0x40 MSTORE PUSH1 0x4 CALLDATASIZE LT ISZERO PUSH2 0x13 JUMPI PUSH1 0x0 DUP1 REVERT JUMPDEST PUSH1 0x0 CALLDATALOAD PUSH1 0xE0 SHR SWAP1 DUP2 PUSH4 0x1FFC9A7 EQ PUSH2 0x33CA JUMPI POP DUP1 PUSH4 0x14B9AF55 EQ PUSH2 0x3188 JUMPI DUP1 PUSH4 0x170C3898 EQ PUSH2 0x2DA1 JUMPI DUP1 PUSH4 0x1A8254F5 EQ PUSH2 0x2CE2 JUMPI DUP1 PUSH4 0x2079FB9A EQ PUSH2 0x2CB9 JUMPI DUP1 PUSH4 0x211DC32D EQ PUSH2 0x2C8D JUMPI DUP1 PUSH4 0x248A9CA3 EQ PUSH2 0x2C58 JUMPI DUP1 PUSH4 0x263A8C68 EQ PUSH2 0x2C29 JUMPI DUP1 PUSH4 0x28119FFA EQ PUSH2 0x2BE7 JUMPI DUP1 PUSH4 0x2B4B16B1 EQ PUSH2 0x2A5D JUMPI DUP1 PUSH4 0x2CE9AEAD EQ PUSH2 0x2A23 JUMPI DUP1 PUSH4 0x2F2FF15D EQ PUSH2 0x29E3 JUMPI DUP1 PUSH4 0x3033C090 EQ PUSH2 0x29A8 JUMPI DUP1 PUSH4 0x343A0B1C EQ PUSH2 0x2837 JUMPI DUP1 PUSH4 0x36568ABE EQ PUSH2 0x27F1 JUMPI DUP1 PUSH4 0x3F8A46EE EQ PUSH2 0x265D JUMPI DUP1 PUSH4 0x53D61813 EQ PUSH2 0x251F JUMPI DUP1 PUSH4 0x599C5533 EQ PUSH2 0x2503 JUMPI DUP1 PUSH4 0x602BACCC EQ PUSH2 0x24A0 JUMPI DUP1 PUSH4 0x69C28F7B EQ PUSH2 0x2478 JUMPI DUP1 PUSH4 0x70EC86D5 EQ PUSH2 0x245A JUMPI DUP1 PUSH4 0x75B238FC EQ PUSH2 0x2431 JUMPI DUP1 PUSH4 0x767EB5EF EQ PUSH2 0x2255 JUMPI DUP1 PUSH4 0x7B9736B8 EQ PUSH2 0x219D JUMPI DUP1 PUSH4 0x83240F83 EQ PUSH2 0x206D JUMPI DUP1 PUSH4 0x842E2981 EQ PUSH2 0x1E39 JUMPI DUP1 PUSH4 0x862D2D7C EQ PUSH2 0x1DC3 JUMPI DUP1 PUSH4 0x91D14854 EQ PUSH2 0x1D76 JUMPI DUP1 PUSH4 0x94CF795E EQ PUSH2 0x1D13 JUMPI DUP1 PUSH4 0x96C82E57 EQ PUSH2 0x1CF5 JUMPI DUP1 PUSH4 0x996CF233 EQ PUSH2 0x1CD9 JUMPI DUP1 PUSH4 0x9CE43F90 EQ PUSH2 0x1C9F JUMPI DUP1 PUSH4 0xA217FDDF EQ PUSH2 0x1C83 JUMPI DUP1 PUSH4 0xAAF5EB68 EQ PUSH2 0x1C60 JUMPI DUP1 PUSH4 0xADC9772E EQ PUSH2 0x1A62 JUMPI DUP1 PUSH4 0xC0C1CF55 EQ PUSH2 0xD6B JUMPI DUP1 PUSH4 0xC2A672E0 EQ PUSH2 0xB7B JUMPI DUP1 PUSH4 0xCB1C2B5C EQ PUSH2 0xB59 JUMPI DUP1 PUSH4 0xD4FF73F7 EQ PUSH2 0xAC7 JUMPI DUP1 PUSH4 0xD547741F EQ PUSH2 0xA80 JUMPI DUP1 PUSH4 0xD785B595 EQ PUSH2 0xA0F JUMPI DUP1 PUSH4 0xE4A28A52 EQ PUSH2 0x9EB JUMPI DUP1 PUSH4 0xE65F55B9 EQ PUSH2 0x72E JUMPI DUP1 PUSH4 0xEF5CFB8C EQ PUSH2 0x5FC JUMPI DUP1 PUSH4 0xF33D5647 EQ PUSH2 0x407 JUMPI DUP1 PUSH4 0xF7C618C1 EQ PUSH2 0x3DE JUMPI DUP1 PUSH4 0xF80F4023 EQ PUSH2 0x39F JUMPI DUP1 PUSH4 0xFAFBC0F6 EQ PUSH2 0x324 JUMPI DUP1 PUSH4 0xFDBD98B0 EQ PUSH2 0x306 JUMPI PUSH4 0xFE33B302 EQ PUSH2 0x245 JUMPI PUSH1 0x0 DUP1 REVERT JUMPDEST CALLVALUE PUSH2 0x301 JUMPI PUSH1 0x20 CALLDATASIZE PUSH1 0x3 NOT ADD SLT PUSH2 0x301 JUMPI PUSH1 0x1 PUSH1 0x1 PUSH1 0xA0 SHL SUB PUSH2 0x266 PUSH2 0x341D JUMP JUMPDEST AND PUSH1 0x0 MSTORE PUSH1 0x4 PUSH1 0x20 MSTORE PUSH1 0x40 PUSH1 0x0 KECCAK256 PUSH1 0x1 DUP1 PUSH1 0xA0 SHL SUB DUP2 SLOAD AND PUSH1 0x40 MLOAD SWAP2 PUSH2 0x29A DUP4 PUSH2 0x293 DUP2 PUSH1 0x1 DUP6 ADD PUSH2 0x3598 JUMP JUMPDEST SUB DUP5 PUSH2 0x3651 JUMP JUMPDEST PUSH1 0x40 MLOAD PUSH2 0x2B5 DUP2 PUSH2 0x2AE DUP2 PUSH1 0x2 DUP7 ADD PUSH2 0x3598 JUMP JUMPDEST SUB DUP3 PUSH2 0x3651 JUMP JUMPDEST PUSH2 0x2F0 PUSH1 0xFF PUSH1 0x4 PUSH1 0x3 DUP6 ADD SLOAD SWAP5 ADD SLOAD AND SWAP2 PUSH2 0x2E2 PUSH1 0x40 MLOAD SWAP7 DUP8 SWAP7 DUP8 MSTORE PUSH1 0xA0 PUSH1 0x20 DUP9 ADD MSTORE PUSH1 0xA0 DUP8 ADD SWAP1 PUSH2 0x351D JUMP JUMPDEST SWAP1 DUP6 DUP3 SUB PUSH1 0x40 DUP8 ADD MSTORE PUSH2 0x351D JUMP JUMPDEST SWAP2 PUSH1 0x60 DUP5 ADD MSTORE ISZERO ISZERO PUSH1 0x80 DUP4 ADD MSTORE SUB SWAP1 RETURN JUMPDEST PUSH1 0x0 DUP1 REVERT JUMPDEST CALLVALUE PUSH2 0x301 JUMPI PUSH1 0x0 CALLDATASIZE PUSH1 0x3 NOT ADD SLT PUSH2 0x301 JUMPI PUSH1 0x20 PUSH1 0xB SLOAD PUSH1 0x40 MLOAD SWAP1 DUP2 MSTORE RETURN JUMPDEST CALLVALUE PUSH2 0x301 JUMPI PUSH1 0x20 CALLDATASIZE PUSH1 0x3 NOT ADD SLT PUSH2 0x301 JUMPI PUSH1 0x4 CALLDATALOAD PUSH1 0x0 MSTORE PUSH1 0xC PUSH1 0x20 MSTORE PUSH2 0x2AE PUSH2 0x35A PUSH1 0x3 PUSH1 0x40 PUSH1 0x0 KECCAK256 ADD PUSH1 0x40 MLOAD SWAP3 DUP4 DUP1 SWAP3 PUSH2 0x3C01 JUMP JUMPDEST PUSH1 0x40 MLOAD DUP1 SWAP2 PUSH1 0x20 DUP3 ADD PUSH1 0x20 DUP4 MSTORE DUP2 MLOAD DUP1 SWAP2 MSTORE PUSH1 0x20 PUSH1 0x40 DUP5 ADD SWAP3 ADD SWAP1 PUSH1 0x0 JUMPDEST DUP2 DUP2 LT PUSH2 0x386 JUMPI POP POP POP SUB SWAP1 RETURN JUMPDEST DUP3 MLOAD DUP5 MSTORE DUP6 SWAP5 POP PUSH1 0x20 SWAP4 DUP5 ADD SWAP4 SWAP1 SWAP3 ADD SWAP2 PUSH1 0x1 ADD PUSH2 0x378 JUMP JUMPDEST CALLVALUE PUSH2 0x301 JUMPI PUSH1 0x20 CALLDATASIZE PUSH1 0x3 NOT ADD SLT PUSH2 0x301 JUMPI PUSH1 0x4 CALLDATALOAD PUSH1 0x0 MSTORE PUSH1 0xC PUSH1 0x20 MSTORE PUSH2 0x3DA PUSH2 0x3CE PUSH1 0xC PUSH1 0x40 PUSH1 0x0 KECCAK256 ADD PUSH2 0x39E3 JUMP JUMPDEST PUSH1 0x40 MLOAD SWAP2 DUP3 SWAP2 DUP3 PUSH2 0x34DA JUMP JUMPDEST SUB SWAP1 RETURN JUMPDEST CALLVALUE PUSH2 0x301 JUMPI PUSH1 0x0 CALLDATASIZE PUSH1 0x3 NOT ADD SLT PUSH2 0x301 JUMPI PUSH1 0x2 SLOAD PUSH1 0x40 MLOAD PUSH1 0x1 PUSH1 0x1 PUSH1 0xA0 SHL SUB SWAP1 SWAP2 AND DUP2 MSTORE PUSH1 0x20 SWAP1 RETURN JUMPDEST CALLVALUE PUSH2 0x301 JUMPI PUSH1 0x40 CALLDATASIZE PUSH1 0x3 NOT ADD SLT PUSH2 0x301 JUMPI PUSH2 0x420 PUSH2 0x341D JUMP JUMPDEST PUSH2 0x428 PUSH2 0x3433 JUMP JUMPDEST PUSH2 0x430 PUSH2 0x3C82 JUMP JUMPDEST PUSH1 0x1 PUSH1 0x1 PUSH1 0xA0 SHL SUB DUP3 AND PUSH1 0x0 SWAP1 DUP2 MSTORE PUSH1 0x0 DUP1 MLOAD PUSH1 0x20 PUSH2 0x42F1 DUP4 CODECOPY DUP2 MLOAD SWAP2 MSTORE PUSH1 0x20 MSTORE PUSH1 0x40 SWAP1 KECCAK256 SLOAD PUSH1 0xFF AND ISZERO PUSH2 0x5C0 JUMPI PUSH1 0x1 PUSH1 0x1 PUSH1 0xA0 SHL SUB DUP2 AND PUSH1 0x0 SWAP1 DUP2 MSTORE PUSH1 0x0 DUP1 MLOAD PUSH1 0x20 PUSH2 0x42F1 DUP4 CODECOPY DUP2 MLOAD SWAP2 MSTORE PUSH1 0x20 MSTORE PUSH1 0x40 SWAP1 KECCAK256 SLOAD PUSH1 0xFF AND PUSH2 0x57B JUMPI PUSH1 0x1 PUSH1 0x1 PUSH1 0xA0 SHL SUB DUP2 AND ISZERO PUSH2 0x541 JUMPI PUSH2 0x4A5 PUSH1 0xB SLOAD PUSH2 0x36A2 JUMP JUMPDEST DUP1 PUSH1 0xB SSTORE PUSH1 0x0 MSTORE PUSH1 0xC PUSH1 0x20 MSTORE PUSH1 0x40 PUSH1 0x0 KECCAK256 SWAP2 PUSH1 0x4 PUSH1 0xFF NOT DUP5 SLOAD AND OR DUP4 SSTORE PUSH1 0x4 DUP4 ADD SWAP1 PUSH1 0x1 DUP1 PUSH1 0xA0 SHL SUB AND PUSH1 0x1 PUSH1 0x1 PUSH1 0x60 SHL SUB PUSH1 0xA0 SHL DUP3 SLOAD AND OR SWAP1 SSTORE PUSH1 0x8 DUP3 ADD SWAP1 PUSH1 0x1 DUP1 PUSH1 0xA0 SHL SUB AND PUSH1 0x1 PUSH1 0x1 PUSH1 0x60 SHL SUB PUSH1 0xA0 SHL DUP3 SLOAD AND OR SWAP1 SSTORE PUSH1 0xD TIMESTAMP SWAP2 ADD SSTORE PUSH2 0x534 PUSH1 0xB SLOAD PUSH1 0x0 DUP1 MLOAD PUSH1 0x20 PUSH2 0x42D1 DUP4 CODECOPY DUP2 MLOAD SWAP2 MSTORE PUSH1 0x60 PUSH1 0x40 MLOAD DUP4 DUP2 MSTORE CALLER PUSH1 0x20 DUP3 ADD MSTORE PUSH1 0x4 PUSH1 0x40 DUP3 ADD MSTORE LOG1 PUSH2 0x3D0D JUMP JUMPDEST PUSH1 0x20 PUSH1 0xB SLOAD PUSH1 0x40 MLOAD SWAP1 DUP2 MSTORE RETURN JUMPDEST PUSH1 0x40 MLOAD PUSH3 0x461BCD PUSH1 0xE5 SHL DUP2 MSTORE PUSH1 0x20 PUSH1 0x4 DUP3 ADD MSTORE PUSH1 0x12 PUSH1 0x24 DUP3 ADD MSTORE PUSH18 0x24B73B30B634B2103732BB9039B4B3B732B9 PUSH1 0x71 SHL PUSH1 0x44 DUP3 ADD MSTORE PUSH1 0x64 SWAP1 REVERT JUMPDEST PUSH1 0x40 MLOAD PUSH3 0x461BCD PUSH1 0xE5 SHL DUP2 MSTORE PUSH1 0x20 PUSH1 0x4 DUP3 ADD MSTORE PUSH1 0x19 PUSH1 0x24 DUP3 ADD MSTORE PUSH32 0x4E6577207369676E657220616C72656164792065786973747300000000000000 PUSH1 0x44 DUP3 ADD MSTORE PUSH1 0x64 SWAP1 REVERT JUMPDEST PUSH1 0x40 MLOAD PUSH3 0x461BCD PUSH1 0xE5 SHL DUP2 MSTORE PUSH1 0x20 PUSH1 0x4 DUP3 ADD MSTORE PUSH1 0x14 PUSH1 0x24 DUP3 ADD MSTORE PUSH20 0x13DB19081CDA59DB995C881B9BDD08199BDD5B99 PUSH1 0x62 SHL PUSH1 0x44 DUP3 ADD MSTORE PUSH1 0x64 SWAP1 REVERT JUMPDEST CALLVALUE PUSH2 0x301 JUMPI PUSH1 0x20 CALLDATASIZE PUSH1 0x3 NOT ADD SLT PUSH2 0x301 JUMPI PUSH2 0x615 PUSH2 0x341D JUMP JUMPDEST PUSH2 0x61D PUSH2 0x40C1 JUMP JUMPDEST PUSH1 0x1 DUP1 PUSH1 0xA0 SHL SUB DUP2 AND SWAP1 DUP2 PUSH1 0x0 MSTORE PUSH1 0x4 PUSH1 0x20 MSTORE PUSH2 0x644 PUSH1 0xFF PUSH1 0x4 PUSH1 0x40 PUSH1 0x0 KECCAK256 ADD SLOAD AND PUSH2 0x3B44 JUMP JUMPDEST PUSH2 0x64D DUP2 PUSH2 0x40E3 JUMP JUMPDEST PUSH2 0x657 DUP2 CALLER PUSH2 0x37E6 JUMP JUMPDEST SWAP1 DUP2 ISZERO PUSH2 0x6F3 JUMPI PUSH32 0x9310CCFCB8DE723F578A9E4282EA9F521F05AE40DC08F3068DFAD528A65EE3C7 SWAP3 CALLER PUSH1 0x0 MSTORE PUSH1 0x5 PUSH1 0x20 MSTORE PUSH1 0x40 PUSH1 0x0 KECCAK256 DUP2 PUSH1 0x0 MSTORE PUSH1 0x20 MSTORE PUSH1 0x40 PUSH1 0x0 KECCAK256 SWAP1 PUSH1 0x0 PUSH1 0x2 DUP4 ADD SSTORE PUSH1 0x0 MSTORE PUSH1 0x8 PUSH1 0x20 MSTORE PUSH1 0x3 PUSH1 0x40 PUSH1 0x0 KECCAK256 SLOAD SWAP2 ADD SSTORE PUSH2 0x6CA DUP3 CALLER PUSH1 0x1 DUP1 PUSH1 0xA0 SHL SUB PUSH1 0x2 SLOAD AND PUSH2 0x421C JUMP JUMPDEST PUSH1 0x40 DUP1 MLOAD CALLER DUP2 MSTORE PUSH1 0x1 PUSH1 0x1 PUSH1 0xA0 SHL SUB SWAP3 SWAP1 SWAP3 AND PUSH1 0x20 DUP4 ADD MSTORE DUP2 ADD SWAP2 SWAP1 SWAP2 MSTORE PUSH1 0x60 SWAP1 LOG1 PUSH1 0x1 PUSH1 0x0 SSTORE STOP JUMPDEST PUSH1 0x40 MLOAD PUSH3 0x461BCD PUSH1 0xE5 SHL DUP2 MSTORE PUSH1 0x20 PUSH1 0x4 DUP3 ADD MSTORE PUSH1 0x13 PUSH1 0x24 DUP3 ADD MSTORE PUSH19 0x4E6F207265776172647320746F20636C61696D PUSH1 0x68 SHL PUSH1 0x44 DUP3 ADD MSTORE PUSH1 0x64 SWAP1 REVERT JUMPDEST CALLVALUE PUSH2 0x301 JUMPI PUSH1 0x40 CALLDATASIZE PUSH1 0x3 NOT ADD SLT PUSH2 0x301 JUMPI PUSH1 0x4 CALLDATALOAD PUSH1 0x1 PUSH1 0x1 PUSH1 0x40 SHL SUB DUP2 GT PUSH2 0x301 JUMPI PUSH2 0x75E SWAP1 CALLDATASIZE SWAP1 PUSH1 0x4 ADD PUSH2 0x3672 JUMP JUMPDEST PUSH1 0x24 CALLDATALOAD PUSH1 0x1 PUSH1 0x1 PUSH1 0x40 SHL SUB DUP2 GT PUSH2 0x301 JUMPI PUSH2 0x77D SWAP1 CALLDATASIZE SWAP1 PUSH1 0x4 ADD PUSH2 0x3672 JUMP JUMPDEST SWAP2 PUSH2 0x786 PUSH2 0x3C82 JUMP JUMPDEST DUP3 DUP2 SUB PUSH2 0x9A6 JUMPI DUP1 ISZERO PUSH2 0x961 JUMPI PUSH2 0x7A0 PUSH1 0x64 DUP3 GT ISZERO PUSH2 0x3BC4 JUMP JUMPDEST PUSH1 0x0 JUMPDEST DUP4 DUP2 LT PUSH2 0x8D3 JUMPI POP PUSH2 0x7B6 PUSH1 0xB SLOAD PUSH2 0x36A2 JUMP JUMPDEST DUP1 PUSH1 0xB SSTORE PUSH1 0x0 MSTORE PUSH1 0xC PUSH1 0x20 MSTORE PUSH1 0x40 PUSH1 0x0 KECCAK256 SWAP4 PUSH1 0x1 PUSH1 0xFF NOT DUP7 SLOAD AND OR DUP6 SSTORE PUSH1 0x2 DUP6 ADD SWAP1 PUSH1 0x1 PUSH1 0x1 PUSH1 0x40 SHL SUB DUP4 GT PUSH2 0x8A2 JUMPI PUSH1 0x1 PUSH1 0x40 SHL DUP4 GT PUSH2 0x8A2 JUMPI PUSH2 0x800 DUP4 DUP4 SLOAD DUP2 DUP6 SSTORE DUP5 PUSH2 0x3C5F JUMP JUMPDEST SWAP1 PUSH1 0x0 MSTORE PUSH1 0x20 PUSH1 0x0 KECCAK256 PUSH1 0x0 JUMPDEST DUP4 DUP2 LT PUSH2 0x8B8 JUMPI POP POP POP POP PUSH1 0x3 DUP4 ADD SWAP1 PUSH1 0x1 PUSH1 0x1 PUSH1 0x40 SHL SUB DUP4 GT PUSH2 0x8A2 JUMPI PUSH1 0x1 PUSH1 0x40 SHL DUP4 GT PUSH2 0x8A2 JUMPI PUSH2 0x844 DUP4 DUP4 SLOAD DUP2 DUP6 SSTORE DUP5 PUSH2 0x3C5F JUMP JUMPDEST SWAP1 PUSH1 0x0 MSTORE PUSH1 0x20 PUSH1 0x0 KECCAK256 PUSH1 0x0 JUMPDEST DUP4 DUP2 LT PUSH2 0x88E JUMPI DUP5 PUSH1 0xD TIMESTAMP SWAP2 ADD SSTORE PUSH2 0x534 PUSH1 0xB SLOAD PUSH1 0x0 DUP1 MLOAD PUSH1 0x20 PUSH2 0x42D1 DUP4 CODECOPY DUP2 MLOAD SWAP2 MSTORE PUSH1 0x60 PUSH1 0x40 MLOAD DUP4 DUP2 MSTORE CALLER PUSH1 0x20 DUP3 ADD MSTORE PUSH1 0x1 PUSH1 0x40 DUP3 ADD MSTORE LOG1 PUSH2 0x3D0D JUMP JUMPDEST PUSH1 0x1 SWAP1 PUSH1 0x20 DUP5 CALLDATALOAD SWAP5 ADD SWAP4 DUP2 DUP5 ADD SSTORE ADD PUSH2 0x850 JUMP JUMPDEST PUSH4 0x4E487B71 PUSH1 0xE0 SHL PUSH1 0x0 MSTORE PUSH1 0x41 PUSH1 0x4 MSTORE PUSH1 0x24 PUSH1 0x0 REVERT JUMPDEST PUSH1 0x1 SWAP1 PUSH1 0x20 PUSH2 0x8C6 DUP6 PUSH2 0x3C4B JUMP JUMPDEST SWAP5 ADD SWAP4 DUP2 DUP5 ADD SSTORE ADD PUSH2 0x80C JUMP JUMPDEST PUSH2 0x8F3 PUSH9 0x3635C9ADC5DEA00000 PUSH2 0x8EB DUP4 DUP8 DUP8 PUSH2 0x3C3B JUMP JUMPDEST CALLDATALOAD GT ISZERO PUSH2 0x36B1 JUMP JUMPDEST PUSH1 0x1 PUSH1 0x1 PUSH1 0xA0 SHL SUB PUSH2 0x90E PUSH2 0x909 DUP4 DUP6 DUP10 PUSH2 0x3C3B JUMP JUMPDEST PUSH2 0x3C4B JUMP JUMPDEST AND ISZERO PUSH2 0x91C JUMPI PUSH1 0x1 ADD PUSH2 0x7A3 JUMP JUMPDEST PUSH1 0x40 MLOAD PUSH3 0x461BCD PUSH1 0xE5 SHL DUP2 MSTORE PUSH1 0x20 PUSH1 0x4 DUP3 ADD MSTORE PUSH1 0x18 PUSH1 0x24 DUP3 ADD MSTORE PUSH32 0x496E76616C6964204C5020746F6B656E20616464726573730000000000000000 PUSH1 0x44 DUP3 ADD MSTORE PUSH1 0x64 SWAP1 REVERT JUMPDEST PUSH1 0x40 MLOAD PUSH3 0x461BCD PUSH1 0xE5 SHL DUP2 MSTORE PUSH1 0x20 PUSH1 0x4 DUP3 ADD MSTORE PUSH1 0x18 PUSH1 0x24 DUP3 ADD MSTORE PUSH32 0x456D70747920617272617973206E6F7420616C6C6F7765640000000000000000 PUSH1 0x44 DUP3 ADD MSTORE PUSH1 0x64 SWAP1 REVERT JUMPDEST PUSH1 0x40 MLOAD PUSH3 0x461BCD PUSH1 0xE5 SHL DUP2 MSTORE PUSH1 0x20 PUSH1 0x4 DUP3 ADD MSTORE PUSH1 0x18 PUSH1 0x24 DUP3 ADD MSTORE PUSH32 0x4172726179206C656E67746873206D757374206D617463680000000000000000 PUSH1 0x44 DUP3 ADD MSTORE PUSH1 0x64 SWAP1 REVERT JUMPDEST CALLVALUE PUSH2 0x301 JUMPI PUSH1 0x0 CALLDATASIZE PUSH1 0x3 NOT ADD SLT PUSH2 0x301 JUMPI PUSH1 0x20 PUSH1 0x40 MLOAD PUSH9 0x3635C9ADC5DEA00000 DUP2 MSTORE RETURN JUMPDEST CALLVALUE PUSH2 0x301 JUMPI PUSH1 0x40 CALLDATASIZE PUSH1 0x3 NOT ADD SLT PUSH2 0x301 JUMPI PUSH1 0x60 PUSH2 0xA2A PUSH2 0x341D JUMP JUMPDEST PUSH2 0xA32 PUSH2 0x3433 JUMP JUMPDEST PUSH1 0x1 DUP1 PUSH1 0xA0 SHL SUB DUP3 AND PUSH1 0x0 MSTORE PUSH1 0x5 PUSH1 0x20 MSTORE PUSH1 0x40 PUSH1 0x0 KECCAK256 PUSH1 0x1 DUP1 PUSH1 0xA0 SHL SUB DUP3 AND PUSH1 0x0 MSTORE PUSH1 0x20 MSTORE PUSH1 0x1 PUSH2 0xA6A PUSH1 0x40 PUSH1 0x0 KECCAK256 SWAP3 DUP4 SLOAD SWAP5 PUSH2 0x37E6 JUMP JUMPDEST SWAP2 ADD SLOAD SWAP1 PUSH1 0x40 MLOAD SWAP3 DUP4 MSTORE PUSH1 0x20 DUP4 ADD MSTORE PUSH1 0x40 DUP3 ADD MSTORE RETURN JUMPDEST CALLVALUE PUSH2 0x301 JUMPI PUSH1 0x40 CALLDATASIZE PUSH1 0x3 NOT ADD SLT PUSH2 0x301 JUMPI PUSH2 0xAC5 PUSH1 0x4 CALLDATALOAD PUSH2 0xA9F PUSH2 0x3433 JUMP JUMPDEST SWAP1 PUSH2 0xAC0 PUSH2 0xABB DUP3 PUSH1 0x0 MSTORE PUSH1 0x1 PUSH1 0x20 MSTORE PUSH1 0x1 PUSH1 0x40 PUSH1 0x0 KECCAK256 ADD SLOAD SWAP1 JUMP JUMPDEST PUSH2 0x3CD0 JUMP JUMPDEST PUSH2 0x403B JUMP JUMPDEST STOP JUMPDEST CALLVALUE PUSH2 0x301 JUMPI PUSH1 0x20 CALLDATASIZE PUSH1 0x3 NOT ADD SLT PUSH2 0x301 JUMPI PUSH1 0x1 PUSH1 0x1 PUSH1 0xA0 SHL SUB PUSH2 0xAE8 PUSH2 0x341D JUMP JUMPDEST AND PUSH1 0x0 MSTORE PUSH1 0x4 PUSH1 0x20 MSTORE PUSH1 0x2 PUSH1 0x40 PUSH1 0x0 KECCAK256 PUSH1 0x1 DUP1 PUSH1 0xA0 SHL SUB DUP2 SLOAD AND SWAP1 PUSH1 0x3 DUP2 ADD SLOAD SWAP1 PUSH2 0xB2C PUSH1 0xFF PUSH1 0x4 DUP4 ADD SLOAD AND SWAP2 PUSH2 0xB25 PUSH1 0x40 MLOAD DUP1 SWAP8 DUP2 SWAP4 ADD PUSH2 0x3598 JUMP JUMPDEST SUB DUP6 PUSH2 0x3651 JUMP JUMPDEST PUSH2 0xB48 PUSH1 0x40 MLOAD SWAP5 DUP6 SWAP5 DUP6 MSTORE PUSH1 0x80 PUSH1 0x20 DUP7 ADD MSTORE PUSH1 0x80 DUP6 ADD SWAP1 PUSH2 0x351D JUMP JUMPDEST SWAP2 PUSH1 0x40 DUP5 ADD MSTORE ISZERO ISZERO PUSH1 0x60 DUP4 ADD MSTORE SUB SWAP1 RETURN JUMPDEST CALLVALUE PUSH2 0x301 JUMPI PUSH1 0x0 CALLDATASIZE PUSH1 0x3 NOT ADD SLT PUSH2 0x301 JUMPI PUSH1 0x20 PUSH1 0x40 MLOAD PUSH7 0x38D7EA4C68000 DUP2 MSTORE RETURN JUMPDEST CALLVALUE PUSH2 0x301 JUMPI PUSH1 0x40 CALLDATASIZE PUSH1 0x3 NOT ADD SLT PUSH2 0x301 JUMPI PUSH2 0xB94 PUSH2 0x341D JUMP JUMPDEST PUSH1 0x24 CALLDATALOAD PUSH2 0xB9F PUSH2 0x40C1 JUMP JUMPDEST PUSH1 0x1 DUP1 PUSH1 0xA0 SHL SUB DUP3 AND SWAP1 DUP2 PUSH1 0x0 MSTORE PUSH1 0x4 PUSH1 0x20 MSTORE PUSH2 0xBC6 PUSH1 0xFF PUSH1 0x4 PUSH1 0x40 PUSH1 0x0 KECCAK256 ADD SLOAD AND PUSH2 0x3B44 JUMP JUMPDEST CALLER PUSH1 0x0 MSTORE PUSH1 0x5 PUSH1 0x20 MSTORE PUSH1 0x40 DUP1 PUSH1 0x0 KECCAK256 PUSH1 0x0 SWAP1 DUP5 DUP3 MSTORE PUSH1 0x20 MSTORE KECCAK256 DUP2 DUP2 SLOAD LT PUSH2 0xD31 JUMPI PUSH32 0xC970F16CD3EC5B32F311B9501D3274F497DB81BB41EF2937FAD509E835BBD251 SWAP2 PUSH2 0xC85 SWAP2 PUSH2 0xC16 DUP7 PUSH2 0x40E3 JUMP JUMPDEST DUP2 PUSH2 0xC21 DUP8 CALLER PUSH2 0x37E6 JUMP JUMPDEST SWAP6 PUSH1 0x0 PUSH1 0x2 DUP5 ADD SSTORE DUP1 PUSH1 0x0 MSTORE PUSH1 0x8 PUSH1 0x20 MSTORE PUSH1 0x40 PUSH1 0x0 KECCAK256 SLOAD PUSH1 0x3 DUP5 ADD SSTORE DUP3 SLOAD DUP1 DUP4 EQ PUSH1 0x0 EQ PUSH2 0xCFB JUMPI POP PUSH1 0x0 PUSH2 0xC58 SWAP4 SSTORE CALLER SWAP1 PUSH2 0x421C JUMP JUMPDEST DUP4 PUSH2 0xCDD JUMPI JUMPDEST PUSH1 0x40 DUP1 MLOAD CALLER DUP2 MSTORE PUSH1 0x1 PUSH1 0x1 PUSH1 0xA0 SHL SUB DUP8 AND PUSH1 0x20 DUP3 ADD MSTORE SWAP1 DUP2 ADD SWAP2 SWAP1 SWAP2 MSTORE SWAP1 DUP2 SWAP1 PUSH1 0x60 DUP3 ADD SWAP1 JUMP JUMPDEST SUB SWAP1 LOG1 DUP1 PUSH2 0xC95 JUMPI JUMPDEST PUSH1 0x1 PUSH1 0x0 SSTORE STOP JUMPDEST PUSH1 0x40 DUP1 MLOAD CALLER DUP2 MSTORE PUSH1 0x1 PUSH1 0x1 PUSH1 0xA0 SHL SUB SWAP4 SWAP1 SWAP4 AND PUSH1 0x20 DUP5 ADD MSTORE DUP3 ADD MSTORE PUSH32 0x9310CCFCB8DE723F578A9E4282EA9F521F05AE40DC08F3068DFAD528A65EE3C7 SWAP1 PUSH1 0x60 SWAP1 LOG1 DUP1 DUP1 PUSH2 0xC8E JUMP JUMPDEST PUSH1 0x2 SLOAD PUSH2 0xCF6 SWAP1 DUP6 SWAP1 CALLER SWAP1 PUSH1 0x1 PUSH1 0x1 PUSH1 0xA0 SHL SUB AND PUSH2 0x421C JUMP JUMPDEST PUSH2 0xC5E JUMP JUMPDEST SWAP3 PUSH2 0xD09 DUP4 PUSH2 0xD12 SWAP6 PUSH2 0x3799 JUMP JUMPDEST SWAP1 SSTORE CALLER SWAP1 PUSH2 0x421C JUMP JUMPDEST DUP4 ISZERO PUSH2 0xC5E JUMPI PUSH1 0x2 SLOAD PUSH2 0xCF6 SWAP1 DUP6 SWAP1 CALLER SWAP1 PUSH1 0x1 PUSH1 0x1 PUSH1 0xA0 SHL SUB AND PUSH2 0x421C JUMP JUMPDEST PUSH1 0x40 MLOAD PUSH3 0x461BCD PUSH1 0xE5 SHL DUP2 MSTORE PUSH1 0x20 PUSH1 0x4 DUP3 ADD MSTORE PUSH1 0x12 PUSH1 0x24 DUP3 ADD MSTORE PUSH18 0x496E73756666696369656E74207374616B65 PUSH1 0x70 SHL PUSH1 0x44 DUP3 ADD MSTORE PUSH1 0x64 SWAP1 REVERT JUMPDEST CALLVALUE PUSH2 0x301 JUMPI PUSH1 0x20 CALLDATASIZE PUSH1 0x3 NOT ADD SLT PUSH2 0x301 JUMPI PUSH1 0x4 CALLDATALOAD PUSH2 0xD87 PUSH2 0x3C82 JUMP JUMPDEST DUP1 ISZERO ISZERO DUP1 PUSH2 0x1A56 JUMPI JUMPDEST PUSH2 0xD99 SWAP1 PUSH2 0x3A37 JUMP JUMPDEST DUP1 PUSH1 0x0 MSTORE PUSH1 0xC PUSH1 0x20 MSTORE PUSH1 0x40 PUSH1 0x0 KECCAK256 SWAP1 PUSH1 0xB DUP3 ADD SWAP2 PUSH1 0x3 PUSH1 0xFF DUP5 SLOAD PUSH2 0xDBF DUP3 DUP3 AND ISZERO PUSH2 0x3A76 JUMP JUMPDEST PUSH2 0xDCE DUP3 DUP3 PUSH1 0x8 SHR AND ISZERO PUSH2 0x3AB5 JUMP JUMPDEST PUSH2 0xDDE DUP3 PUSH1 0xE DUP7 ADD SLOAD AND ISZERO PUSH2 0x3B82 JUMP JUMPDEST PUSH1 0x10 SHR AND LT PUSH2 0x1A1A JUMPI PUSH1 0xD DUP2 ADD SLOAD PUSH3 0x93A80 DUP2 ADD DUP1 SWAP2 GT PUSH2 0x1672 JUMPI PUSH2 0xE05 SWAP1 TIMESTAMP GT ISZERO PUSH2 0x3AB5 JUMP JUMPDEST PUSH1 0xFF DUP2 SLOAD AND PUSH1 0x6 DUP2 LT ISZERO SWAP1 DUP2 PUSH2 0x1977 JUMPI PUSH1 0x2 DUP2 EQ SWAP2 DUP3 ISZERO PUSH2 0x1A0E JUMPI JUMPDEST DUP3 ISZERO PUSH2 0x19FD JUMPI JUMPDEST DUP3 ISZERO PUSH2 0x19EC JUMPI JUMPDEST POP POP PUSH2 0x198D JUMPI JUMPDEST PUSH1 0xFF DUP2 SLOAD AND PUSH1 0x6 DUP2 LT ISZERO PUSH2 0x1977 JUMPI DUP1 PUSH2 0xEA4 JUMPI POP SWAP1 PUSH1 0x0 DUP1 MLOAD PUSH1 0x20 PUSH2 0x42B1 DUP4 CODECOPY DUP2 MLOAD SWAP2 MSTORE SWAP3 PUSH32 0xB03A67404EAD580AD77CFD64B1F08197269FA5180FCCB88D6615BDC8AA91E620 PUSH1 0x20 PUSH1 0x1 DUP2 SWAP6 ADD SLOAD DUP1 PUSH1 0x3 SSTORE PUSH1 0x40 MLOAD SWAP1 DUP2 MSTORE LOG1 JUMPDEST DUP1 SLOAD PUSH1 0xFF NOT AND PUSH1 0x1 OR SWAP1 SSTORE PUSH1 0x40 MLOAD SWAP1 DUP2 MSTORE LOG1 STOP JUMPDEST SWAP1 SWAP2 SWAP1 PUSH1 0x0 PUSH1 0x1 DUP3 SUB PUSH2 0x1068 JUMPI POP POP PUSH1 0x2 DUP3 ADD SWAP3 DUP4 SLOAD PUSH1 0x0 PUSH1 0xA SSTORE PUSH1 0x3 PUSH1 0x0 SWAP5 ADD SWAP4 JUMPDEST DUP2 DUP2 LT PUSH2 0xFB9 JUMPI POP POP PUSH1 0x0 JUMPDEST PUSH1 0x6 SLOAD DUP2 LT ISZERO PUSH2 0xF1C JUMPI DUP1 PUSH2 0xEE9 PUSH1 0x1 SWAP3 PUSH2 0x34A7 JUMP JUMPDEST DUP4 DUP1 PUSH1 0xA0 SHL SUB SWAP2 SLOAD SWAP1 PUSH1 0x3 SHL SHR AND PUSH1 0x0 MSTORE PUSH1 0x4 PUSH1 0x20 MSTORE PUSH2 0xF13 PUSH1 0x3 PUSH1 0x40 PUSH1 0x0 KECCAK256 ADD SLOAD PUSH1 0xA SLOAD PUSH2 0x37D9 JUMP JUMPDEST PUSH1 0xA SSTORE ADD PUSH2 0xED3 JUMP JUMPDEST POP SWAP1 SWAP2 PUSH1 0x40 MLOAD SWAP1 PUSH1 0x40 DUP3 ADD PUSH1 0x40 DUP4 MSTORE DUP6 SLOAD DUP1 SWAP2 MSTORE PUSH1 0x60 DUP4 ADD SWAP6 PUSH1 0x0 MSTORE PUSH1 0x20 PUSH1 0x0 KECCAK256 SWAP1 PUSH1 0x0 JUMPDEST DUP2 DUP2 LT PUSH2 0xF9A JUMPI POP POP POP DUP2 DUP1 PUSH2 0xF92 DUP8 PUSH32 0x7F9D3B855249EF24ED9613191786A1FC8D2AFAFDC45AB1EC9C1A051589D7837C SWAP5 PUSH1 0x20 SWAP9 SWAP8 SWAP7 PUSH1 0x0 DUP1 MLOAD PUSH1 0x20 PUSH2 0x42B1 DUP4 CODECOPY DUP2 MLOAD SWAP2 MSTORE SWAP11 SUB DUP10 DUP6 ADD MSTORE PUSH2 0x3C01 JUMP JUMPDEST SUB SWAP1 LOG1 PUSH2 0xE90 JUMP JUMPDEST DUP3 SLOAD PUSH1 0x1 PUSH1 0x1 PUSH1 0xA0 SHL SUB AND DUP9 MSTORE PUSH1 0x20 SWAP1 SWAP8 ADD SWAP7 PUSH1 0x1 SWAP3 DUP4 ADD SWAP3 ADD PUSH2 0xF41 JUMP JUMPDEST PUSH2 0xFC3 DUP2 DUP8 PUSH2 0x34C2 JUMP JUMPDEST SWAP1 SLOAD PUSH1 0x1 PUSH1 0x1 PUSH1 0xA0 SHL SUB PUSH1 0x3 SWAP3 SWAP1 SWAP3 SHL SHR DUP2 AND PUSH1 0x0 SWAP1 DUP2 MSTORE PUSH1 0x4 PUSH1 0x20 MSTORE PUSH1 0x40 SWAP1 KECCAK256 SLOAD AND ISZERO PUSH2 0x102E JUMPI DUP1 PUSH2 0xFF8 PUSH1 0x1 SWAP3 DUP8 PUSH2 0x34C2 JUMP JUMPDEST SWAP1 SLOAD SWAP1 PUSH1 0x3 SHL SHR PUSH2 0x1009 DUP3 DUP10 PUSH2 0x34C2 JUMP JUMPDEST DUP5 DUP1 PUSH1 0xA0 SHL SUB SWAP2 SLOAD SWAP1 PUSH1 0x3 SHL SHR AND PUSH1 0x0 MSTORE PUSH1 0x4 PUSH1 0x20 MSTORE PUSH1 0x3 PUSH1 0x40 PUSH1 0x0 KECCAK256 ADD SSTORE ADD PUSH2 0xEC7 JUMP JUMPDEST PUSH1 0x40 MLOAD PUSH3 0x461BCD PUSH1 0xE5 SHL DUP2 MSTORE PUSH1 0x20 PUSH1 0x4 DUP3 ADD MSTORE PUSH1 0x12 PUSH1 0x24 DUP3 ADD MSTORE PUSH18 0x14185A5C88191BD95CDB89DD08195E1A5CDD PUSH1 0x72 SHL PUSH1 0x44 DUP3 ADD MSTORE PUSH1 0x64 SWAP1 REVERT JUMPDEST POP PUSH1 0x2 DUP2 SUB PUSH2 0x146F JUMPI POP PUSH1 0x4 DUP3 ADD SWAP3 PUSH1 0x1 DUP1 PUSH1 0xA0 SHL SUB DUP5 SLOAD AND SWAP3 DUP4 PUSH1 0x0 MSTORE PUSH1 0x4 PUSH1 0x20 MSTORE PUSH1 0x1 DUP1 PUSH1 0xA0 SHL SUB PUSH1 0x40 PUSH1 0x0 KECCAK256 SLOAD AND PUSH2 0x1434 JUMPI PUSH2 0x10AB PUSH1 0x64 PUSH1 0x6 SLOAD LT PUSH2 0x3BC4 JUMP JUMPDEST PUSH1 0x7 DUP2 ADD SWAP4 DUP5 SLOAD SWAP2 PUSH9 0x3635C9ADC5DEA00000 DUP4 GT PUSH2 0x13FD JUMPI PUSH1 0x6 DUP2 ADD SWAP3 PUSH2 0x10DE PUSH1 0x20 PUSH2 0x10D7 DUP7 SLOAD PUSH2 0x355E JUMP JUMPDEST GT ISZERO PUSH2 0x36F6 JUMP JUMPDEST PUSH1 0x5 PUSH2 0x1103 PUSH1 0x40 MLOAD SWAP4 PUSH2 0x10F0 DUP6 PUSH2 0x361B JUMP JUMPDEST DUP6 DUP6 MSTORE PUSH2 0x2AE PUSH1 0x40 MLOAD DUP1 SWAP5 DUP2 SWAP4 ADD PUSH2 0x3598 JUMP JUMPDEST PUSH1 0x20 DUP4 ADD SWAP1 DUP2 MSTORE PUSH1 0x40 MLOAD SWAP1 PUSH2 0x1123 DUP3 PUSH2 0x111C DUP2 DUP10 PUSH2 0x3598 JUMP JUMPDEST SUB DUP4 PUSH2 0x3651 JUMP JUMPDEST PUSH1 0x40 DUP5 DUP2 ADD SWAP3 DUP4 MSTORE PUSH1 0x60 DUP6 ADD SWAP4 DUP5 MSTORE PUSH1 0x1 PUSH1 0x80 DUP7 ADD DUP2 DUP2 MSTORE PUSH1 0x0 SWAP8 DUP9 MSTORE PUSH1 0x4 PUSH1 0x20 MSTORE SWAP2 SWAP1 SWAP7 KECCAK256 SWAP5 MLOAD DUP6 SLOAD PUSH1 0x1 PUSH1 0x1 PUSH1 0xA0 SHL SUB NOT AND PUSH1 0x1 PUSH1 0x1 PUSH1 0xA0 SHL SUB SWAP2 SWAP1 SWAP2 AND OR DUP6 SSTORE SWAP1 MLOAD DUP1 MLOAD SWAP2 SWAP6 DUP6 ADD SWAP2 SWAP1 PUSH1 0x1 PUSH1 0x1 PUSH1 0x40 SHL SUB DUP3 GT PUSH2 0x8A2 JUMPI PUSH2 0x1192 DUP3 PUSH2 0x118C DUP6 SLOAD PUSH2 0x355E JUMP JUMPDEST DUP6 PUSH2 0x3752 JUMP JUMPDEST PUSH1 0x20 SWAP1 PUSH1 0x1F DUP4 GT PUSH1 0x1 EQ PUSH2 0x1396 JUMPI PUSH2 0x11C3 SWAP3 SWAP2 PUSH1 0x0 SWAP2 DUP4 PUSH2 0x131F JUMPI JUMPDEST POP POP DUP2 PUSH1 0x1 SHL SWAP2 PUSH1 0x0 NOT SWAP1 PUSH1 0x3 SHL SHR NOT AND OR SWAP1 JUMP JUMPDEST SWAP1 SSTORE JUMPDEST MLOAD DUP1 MLOAD PUSH1 0x2 DUP5 ADD SWAP2 PUSH1 0x1 PUSH1 0x1 PUSH1 0x40 SHL SUB DUP3 GT PUSH2 0x8A2 JUMPI PUSH2 0x11EA DUP3 PUSH2 0x118C DUP6 SLOAD PUSH2 0x355E JUMP JUMPDEST PUSH1 0x20 SWAP1 PUSH1 0x1F DUP4 GT PUSH1 0x1 EQ PUSH2 0x132A JUMPI SWAP2 DUP1 PUSH2 0x1220 SWAP3 PUSH1 0x4 SWAP8 SWAP7 SWAP6 SWAP5 PUSH1 0x0 SWAP3 PUSH2 0x131F JUMPI POP POP DUP2 PUSH1 0x1 SHL SWAP2 PUSH1 0x0 NOT SWAP1 PUSH1 0x3 SHL SHR NOT AND OR SWAP1 JUMP JUMPDEST SWAP1 SSTORE JUMPDEST MLOAD PUSH1 0x3 DUP3 ADD SSTORE ADD SWAP1 MLOAD ISZERO ISZERO PUSH1 0xFF DUP1 NOT DUP4 SLOAD AND SWAP2 AND OR SWAP1 SSTORE PUSH1 0x1 DUP1 PUSH1 0xA0 SHL SUB DUP6 SLOAD AND SWAP1 PUSH1 0x6 SLOAD SWAP5 PUSH1 0x1 PUSH1 0x40 SHL DUP7 LT ISZERO PUSH2 0x8A2 JUMPI PUSH1 0x0 DUP1 MLOAD PUSH1 0x20 PUSH2 0x42B1 DUP4 CODECOPY DUP2 MLOAD SWAP2 MSTORE SWAP7 PUSH2 0x12C2 PUSH32 0xA75180AFE57477E6F07D0789053CBDB7699CDE088DE468EA9E91C0E910D80EF SWAP5 PUSH2 0x129E DUP10 PUSH1 0x1 PUSH1 0x20 SWAP12 ADD PUSH1 0x6 SSTORE PUSH1 0x6 PUSH2 0x34C2 JUMP JUMPDEST DUP2 SLOAD PUSH1 0x1 PUSH1 0x1 PUSH1 0xA0 SHL SUB SWAP4 DUP5 AND PUSH1 0x3 SWAP3 SWAP1 SWAP3 SHL SWAP2 DUP3 SHL SWAP4 SWAP1 SWAP2 SHL NOT AND SWAP2 SWAP1 SWAP2 OR SWAP1 SSTORE JUMP JUMPDEST PUSH2 0x12CF DUP3 SLOAD PUSH1 0xA SLOAD PUSH2 0x37D9 JUMP JUMPDEST PUSH1 0xA SSTORE PUSH1 0x1 DUP1 PUSH1 0xA0 SHL SUB DUP2 SLOAD AND PUSH1 0x0 MSTORE PUSH1 0x9 DUP8 MSTORE TIMESTAMP PUSH1 0x40 PUSH1 0x0 KECCAK256 SSTORE PUSH1 0x1 DUP1 PUSH1 0xA0 SHL SUB SWAP1 SLOAD AND SWAP1 SLOAD PUSH2 0x1311 PUSH1 0x40 MLOAD SWAP4 DUP5 SWAP4 DUP5 MSTORE PUSH1 0x60 DUP10 DUP6 ADD MSTORE PUSH1 0x60 DUP5 ADD SWAP1 PUSH2 0x3598 JUMP JUMPDEST SWAP1 PUSH1 0x40 DUP4 ADD MSTORE SUB SWAP1 LOG1 PUSH2 0xE90 JUMP JUMPDEST ADD MLOAD SWAP1 POP DUP14 DUP1 PUSH2 0x11AE JUMP JUMPDEST SWAP1 PUSH1 0x1F NOT DUP4 AND SWAP2 DUP5 PUSH1 0x0 MSTORE DUP2 PUSH1 0x0 KECCAK256 SWAP3 PUSH1 0x0 JUMPDEST DUP2 DUP2 LT PUSH2 0x137E JUMPI POP SWAP2 PUSH1 0x1 SWAP4 SWAP2 DUP6 PUSH1 0x4 SWAP10 SWAP9 SWAP8 SWAP7 SWAP5 LT PUSH2 0x1365 JUMPI JUMPDEST POP POP POP DUP2 SHL ADD SWAP1 SSTORE PUSH2 0x1223 JUMP JUMPDEST ADD MLOAD PUSH1 0x0 NOT PUSH1 0xF8 DUP5 PUSH1 0x3 SHL AND SHR NOT AND SWAP1 SSTORE DUP13 DUP1 DUP1 PUSH2 0x1358 JUMP JUMPDEST SWAP3 SWAP4 PUSH1 0x20 PUSH1 0x1 DUP2 SWAP3 DUP8 DUP7 ADD MLOAD DUP2 SSTORE ADD SWAP6 ADD SWAP4 ADD PUSH2 0x133D JUMP JUMPDEST SWAP1 PUSH1 0x1F NOT DUP4 AND SWAP2 DUP5 PUSH1 0x0 MSTORE DUP2 PUSH1 0x0 KECCAK256 SWAP3 PUSH1 0x0 JUMPDEST DUP2 DUP2 LT PUSH2 0x13E5 JUMPI POP SWAP1 DUP5 PUSH1 0x1 SWAP6 SWAP5 SWAP4 SWAP3 LT PUSH2 0x13CC JUMPI JUMPDEST POP POP POP DUP2 SHL ADD SWAP1 SSTORE PUSH2 0x11C6 JUMP JUMPDEST ADD MLOAD PUSH1 0x0 NOT PUSH1 0xF8 DUP5 PUSH1 0x3 SHL AND SHR NOT AND SWAP1 SSTORE DUP13 DUP1 DUP1 PUSH2 0x13BF JUMP JUMPDEST SWAP3 SWAP4 PUSH1 0x20 PUSH1 0x1 DUP2 SWAP3 DUP8 DUP7 ADD MLOAD DUP2 SSTORE ADD SWAP6 ADD SWAP4 ADD PUSH2 0x13A9 JUMP JUMPDEST PUSH1 0x40 MLOAD PUSH3 0x461BCD PUSH1 0xE5 SHL DUP2 MSTORE PUSH1 0x20 PUSH1 0x4 DUP3 ADD MSTORE PUSH1 0xF PUSH1 0x24 DUP3 ADD MSTORE PUSH15 0xAECAD2CED0E840E8DEDE40D0D2CED PUSH1 0x8B SHL PUSH1 0x44 DUP3 ADD MSTORE PUSH1 0x64 SWAP1 REVERT JUMPDEST PUSH1 0x40 MLOAD PUSH3 0x461BCD PUSH1 0xE5 SHL DUP2 MSTORE PUSH1 0x20 PUSH1 0x4 DUP3 ADD MSTORE PUSH1 0x13 PUSH1 0x24 DUP3 ADD MSTORE PUSH19 0x5061697220616C726561647920657869737473 PUSH1 0x68 SHL PUSH1 0x44 DUP3 ADD MSTORE PUSH1 0x64 SWAP1 REVERT JUMPDEST SWAP2 SWAP3 SWAP2 PUSH1 0x0 PUSH1 0x3 DUP3 SUB PUSH2 0x16C6 JUMPI POP POP SWAP1 SWAP2 PUSH1 0x8 PUSH1 0x1 DUP1 PUSH1 0xA0 SHL SUB SWAP2 ADD SLOAD AND SWAP2 DUP3 PUSH1 0x0 MSTORE PUSH1 0x4 PUSH1 0x20 MSTORE PUSH2 0x14AB PUSH1 0xFF PUSH1 0x4 PUSH1 0x40 PUSH1 0x0 KECCAK256 ADD SLOAD AND PUSH2 0x3B44 JUMP JUMPDEST DUP3 PUSH1 0x0 MSTORE PUSH1 0x4 PUSH1 0x20 MSTORE PUSH2 0x14C8 PUSH1 0x3 PUSH1 0x40 PUSH1 0x0 KECCAK256 ADD SLOAD PUSH1 0xA SLOAD PUSH2 0x3799 JUMP JUMPDEST PUSH1 0xA SSTORE DUP3 PUSH1 0x0 MSTORE PUSH1 0x4 PUSH1 0x20 MSTORE PUSH1 0x0 PUSH1 0x3 PUSH1 0x40 DUP3 KECCAK256 ADD SSTORE PUSH1 0x40 MLOAD PUSH4 0x70A08231 PUSH1 0xE0 SHL DUP2 MSTORE ADDRESS PUSH1 0x4 DUP3 ADD MSTORE PUSH1 0x20 DUP2 PUSH1 0x24 DUP2 DUP8 GAS STATICCALL SWAP1 DUP2 ISZERO PUSH2 0x16BA JUMPI PUSH1 0x0 SWAP2 PUSH2 0x1688 JUMPI JUMPDEST POP ISZERO PUSH2 0x1552 JUMPI JUMPDEST SWAP1 PUSH1 0x20 SWAP2 PUSH32 0x9493AF33D363A70A1CD9CC0CEB347E3C0E16B5D9371695618E1AC5FB1C255B7C DUP4 PUSH1 0x0 DUP1 MLOAD PUSH1 0x20 PUSH2 0x42B1 DUP4 CODECOPY DUP2 MLOAD SWAP2 MSTORE SWAP6 PUSH1 0x40 MLOAD SWAP1 DUP2 MSTORE LOG1 PUSH2 0xE90 JUMP JUMPDEST PUSH1 0x0 DUP4 DUP2 MSTORE PUSH1 0x4 PUSH1 0x20 DUP2 SWAP1 MSTORE PUSH1 0x40 DUP3 KECCAK256 SWAP1 DUP2 ADD DUP1 SLOAD PUSH1 0xFF NOT AND SWAP1 SSTORE DUP1 SLOAD PUSH1 0x1 PUSH1 0x1 PUSH1 0xA0 SHL SUB NOT AND SWAP1 SSTORE PUSH1 0x6 SLOAD SWAP1 JUMPDEST DUP2 DUP2 LT PUSH2 0x158F JUMPI JUMPDEST POP POP PUSH2 0x1510 JUMP JUMPDEST DUP5 PUSH2 0x1599 DUP3 PUSH2 0x34A7 JUMP JUMPDEST SWAP1 SLOAD PUSH1 0x3 SWAP2 SWAP1 SWAP2 SHL SHR PUSH1 0x1 PUSH1 0x1 PUSH1 0xA0 SHL SUB AND EQ PUSH2 0x15B8 JUMPI PUSH1 0x1 ADD PUSH2 0x1580 JUMP JUMPDEST SWAP2 SWAP3 SWAP2 PUSH1 0x0 NOT DUP3 ADD SWAP2 DUP3 GT PUSH2 0x1672 JUMPI PUSH2 0x129E PUSH2 0x15D6 PUSH2 0x15EE SWAP4 PUSH2 0x34A7 JUMP JUMPDEST SWAP1 SLOAD PUSH1 0x3 SWAP2 SWAP1 SWAP2 SHL SHR PUSH1 0x1 PUSH1 0x1 PUSH1 0xA0 SHL SUB AND SWAP2 PUSH2 0x34A7 JUMP JUMPDEST PUSH1 0x6 SLOAD SWAP2 DUP3 ISZERO PUSH2 0x165C JUMPI PUSH32 0x9493AF33D363A70A1CD9CC0CEB347E3C0E16B5D9371695618E1AC5FB1C255B7C PUSH1 0x20 PUSH1 0x0 DUP1 MLOAD PUSH1 0x20 PUSH2 0x42B1 DUP4 CODECOPY DUP2 MLOAD SWAP2 MSTORE SWAP6 DUP2 SWAP6 PUSH1 0x0 NOT ADD PUSH2 0x163A DUP2 PUSH2 0x34A7 JUMP JUMPDEST DUP2 SLOAD SWAP1 PUSH1 0x1 DUP1 PUSH1 0xA0 SHL SUB SWAP1 PUSH1 0x3 SHL SHL NOT AND SWAP1 SSTORE PUSH1 0x6 SSTORE SWAP6 POP POP DUP2 SWAP3 SWAP4 POP PUSH2 0x1588 JUMP JUMPDEST PUSH4 0x4E487B71 PUSH1 0xE0 SHL PUSH1 0x0 MSTORE PUSH1 0x31 PUSH1 0x4 MSTORE PUSH1 0x24 PUSH1 0x0 REVERT JUMPDEST PUSH4 0x4E487B71 PUSH1 0xE0 SHL PUSH1 0x0 MSTORE PUSH1 0x11 PUSH1 0x4 MSTORE PUSH1 0x24 PUSH1 0x0 REVERT JUMPDEST SWAP1 POP PUSH1 0x20 DUP2 RETURNDATASIZE PUSH1 0x20 GT PUSH2 0x16B2 JUMPI JUMPDEST DUP2 PUSH2 0x16A3 PUSH1 0x20 SWAP4 DUP4 PUSH2 0x3651 JUMP JUMPDEST DUP2 ADD SUB SLT PUSH2 0x301 JUMPI MLOAD DUP5 PUSH2 0x1509 JUMP JUMPDEST RETURNDATASIZE SWAP2 POP PUSH2 0x1696 JUMP JUMPDEST PUSH1 0x40 MLOAD RETURNDATASIZE PUSH1 0x0 DUP3 RETURNDATACOPY RETURNDATASIZE SWAP1 REVERT JUMPDEST POP PUSH1 0x4 DUP2 SUB PUSH2 0x17C1 JUMPI POP PUSH1 0x4 DUP4 ADD SLOAD PUSH1 0x8 SWAP1 SWAP4 ADD SLOAD PUSH1 0x1 PUSH1 0x1 PUSH1 0xA0 SHL SUB SWAP4 DUP5 AND SWAP4 AND SWAP2 PUSH2 0x16F2 DUP5 PUSH2 0x3FA5 JUMP JUMPDEST POP PUSH2 0x16FC DUP4 PUSH2 0x3E78 JUMP JUMPDEST POP PUSH1 0x0 JUMPDEST PUSH1 0x7 SLOAD DUP2 LT ISZERO PUSH2 0x1785 JUMPI DUP5 PUSH2 0x1714 DUP3 PUSH2 0x3476 JUMP JUMPDEST SWAP1 SLOAD PUSH1 0x3 SWAP2 SWAP1 SWAP2 SHL SHR PUSH1 0x1 PUSH1 0x1 PUSH1 0xA0 SHL SUB AND EQ PUSH2 0x1733 JUMPI PUSH1 0x1 ADD PUSH2 0x1700 JUMP JUMPDEST PUSH1 0x40 PUSH1 0x0 DUP1 MLOAD PUSH1 0x20 PUSH2 0x42B1 DUP4 CODECOPY DUP2 MLOAD SWAP2 MSTORE SWAP6 DUP6 PUSH2 0x1776 PUSH1 0x20 SWAP8 PUSH2 0x129E PUSH32 0xEEB293E1F8F3A9DB91ADE748726387ED1352CA78F5430C5F06FE3D1E1AD50579 SWAP7 PUSH2 0x3476 JUMP JUMPDEST DUP3 MLOAD SWAP2 DUP3 MSTORE DUP7 DUP3 ADD MSTORE LOG1 PUSH2 0xE90 JUMP JUMPDEST POP PUSH32 0xEEB293E1F8F3A9DB91ADE748726387ED1352CA78F5430C5F06FE3D1E1AD50579 PUSH1 0x40 PUSH1 0x0 DUP1 MLOAD PUSH1 0x20 PUSH2 0x42B1 DUP4 CODECOPY DUP2 MLOAD SWAP2 MSTORE SWAP6 PUSH1 0x20 SWAP6 PUSH2 0x1776 JUMP JUMPDEST PUSH1 0x5 PUSH1 0x0 SWAP5 SWAP3 SWAP4 SWAP5 SWAP2 EQ PUSH2 0x17EA JUMPI JUMPDEST POP POP PUSH1 0x20 SWAP1 PUSH1 0x0 DUP1 MLOAD PUSH1 0x20 PUSH2 0x42B1 DUP4 CODECOPY DUP2 MLOAD SWAP2 MSTORE SWAP3 PUSH2 0xE90 JUMP JUMPDEST PUSH1 0x9 DUP3 ADD DUP1 SLOAD SWAP3 SWAP5 SWAP2 SWAP4 SWAP3 PUSH1 0x1 PUSH1 0x1 PUSH1 0xA0 SHL SUB AND SWAP1 DUP2 ISZERO PUSH2 0x193E JUMPI PUSH1 0x2 SLOAD PUSH1 0x40 MLOAD PUSH4 0x70A08231 PUSH1 0xE0 SHL DUP2 MSTORE ADDRESS PUSH1 0x4 DUP3 ADD MSTORE PUSH1 0x1 PUSH1 0x1 PUSH1 0xA0 SHL SUB SWAP1 SWAP2 AND SWAP7 SWAP1 PUSH1 0x20 DUP2 PUSH1 0x24 DUP2 DUP12 GAS STATICCALL SWAP7 DUP8 ISZERO PUSH2 0x1932 JUMPI DUP1 SWAP8 PUSH2 0x18F7 JUMPI JUMPDEST POP POP PUSH1 0xA ADD SWAP1 DUP2 SLOAD DUP1 SWAP7 LT PUSH2 0x18B2 JUMPI PUSH2 0x188B PUSH1 0x20 SWAP7 PUSH32 0x8A43C4352486EC339F487F64AF78CA5CBF06CD47833F073D3BAF3A193E503161 SWAP5 PUSH1 0x0 DUP1 MLOAD PUSH1 0x20 PUSH2 0x42B1 DUP4 CODECOPY DUP2 MLOAD SWAP2 MSTORE SWAP10 PUSH2 0x421C JUMP JUMPDEST SLOAD SWAP1 SLOAD PUSH1 0x40 DUP1 MLOAD PUSH1 0x1 PUSH1 0x1 PUSH1 0xA0 SHL SUB SWAP1 SWAP4 AND DUP4 MSTORE PUSH1 0x20 DUP4 ADD SWAP2 SWAP1 SWAP2 MSTORE SWAP1 LOG1 SWAP3 DUP2 SWAP3 POP PUSH2 0x17D0 JUMP JUMPDEST PUSH1 0x40 MLOAD PUSH3 0x461BCD PUSH1 0xE5 SHL DUP2 MSTORE PUSH1 0x20 PUSH1 0x4 DUP3 ADD MSTORE PUSH1 0x1D PUSH1 0x24 DUP3 ADD MSTORE PUSH32 0x496E73756666696369656E7420636F6E74726163742062616C616E6365000000 PUSH1 0x44 DUP3 ADD MSTORE PUSH1 0x64 SWAP1 REVERT JUMPDEST SWAP1 SWAP2 SWAP7 POP PUSH1 0x20 DUP3 RETURNDATASIZE PUSH1 0x20 GT PUSH2 0x192A JUMPI JUMPDEST DUP2 PUSH2 0x1914 PUSH1 0x20 SWAP4 DUP4 PUSH2 0x3651 JUMP JUMPDEST DUP2 ADD SUB SLT PUSH2 0x1927 JUMPI POP MLOAD SWAP5 PUSH1 0xA DUP9 PUSH2 0x183F JUMP JUMPDEST DUP1 REVERT JUMPDEST RETURNDATASIZE SWAP2 POP PUSH2 0x1907 JUMP JUMPDEST PUSH1 0x40 MLOAD SWAP1 RETURNDATASIZE SWAP1 DUP3 RETURNDATACOPY RETURNDATASIZE SWAP1 REVERT JUMPDEST PUSH1 0x40 MLOAD PUSH3 0x461BCD PUSH1 0xE5 SHL DUP2 MSTORE PUSH1 0x20 PUSH1 0x4 DUP3 ADD MSTORE PUSH1 0x11 PUSH1 0x24 DUP3 ADD MSTORE PUSH17 0x125B9D985B1A59081C9958DA5C1A595B9D PUSH1 0x7A SHL PUSH1 0x44 DUP3 ADD MSTORE PUSH1 0x64 SWAP1 REVERT JUMPDEST PUSH4 0x4E487B71 PUSH1 0xE0 SHL PUSH1 0x0 MSTORE PUSH1 0x21 PUSH1 0x4 MSTORE PUSH1 0x24 PUSH1 0x0 REVERT JUMPDEST SWAP1 PUSH1 0x0 JUMPDEST PUSH1 0x6 SLOAD DUP2 LT ISZERO PUSH2 0x19E5 JUMPI DUP1 PUSH2 0x19A7 PUSH1 0x1 SWAP3 PUSH2 0x34A7 JUMP JUMPDEST DUP4 DUP1 PUSH1 0xA0 SHL SUB SWAP2 SLOAD SWAP1 PUSH1 0x3 SHL SHR AND DUP1 PUSH1 0x0 MSTORE PUSH1 0x4 PUSH1 0x20 MSTORE PUSH1 0xFF PUSH1 0x4 PUSH1 0x40 PUSH1 0x0 KECCAK256 ADD SLOAD AND PUSH2 0x19D6 JUMPI JUMPDEST POP ADD PUSH2 0x1991 JUMP JUMPDEST PUSH2 0x19DF SWAP1 PUSH2 0x40E3 JUMP JUMPDEST DUP6 PUSH2 0x19CF JUMP JUMPDEST POP SWAP1 PUSH2 0xE36 JUMP JUMPDEST SWAP1 SWAP2 POP PUSH2 0x1977 JUMPI PUSH1 0x3 EQ DUP5 DUP1 PUSH2 0xE2F JUMP JUMPDEST DUP1 SWAP3 POP PUSH2 0x1977 JUMPI PUSH1 0x1 DUP2 EQ SWAP2 PUSH2 0xE28 JUMP JUMPDEST POP DUP1 ISZERO SWAP2 POP PUSH1 0x0 PUSH2 0xE21 JUMP JUMPDEST PUSH1 0x40 MLOAD PUSH3 0x461BCD PUSH1 0xE5 SHL DUP2 MSTORE PUSH1 0x20 PUSH1 0x4 DUP3 ADD MSTORE PUSH1 0x14 PUSH1 0x24 DUP3 ADD MSTORE PUSH20 0x4E6F7420656E6F75676820617070726F76616C73 PUSH1 0x60 SHL PUSH1 0x44 DUP3 ADD MSTORE PUSH1 0x64 SWAP1 REVERT JUMPDEST POP PUSH1 0xB SLOAD DUP2 GT ISZERO PUSH2 0xD90 JUMP JUMPDEST CALLVALUE PUSH2 0x301 JUMPI PUSH1 0x40 CALLDATASIZE PUSH1 0x3 NOT ADD SLT PUSH2 0x301 JUMPI PUSH2 0x1A7B PUSH2 0x341D JUMP JUMPDEST PUSH1 0x24 CALLDATALOAD PUSH2 0x1A86 PUSH2 0x40C1 JUMP JUMPDEST PUSH1 0x1 DUP1 PUSH1 0xA0 SHL SUB DUP3 AND SWAP2 DUP3 PUSH1 0x0 MSTORE PUSH1 0x4 PUSH1 0x20 MSTORE PUSH1 0x3 PUSH1 0x40 PUSH1 0x0 KECCAK256 PUSH2 0x1AB0 PUSH1 0xFF PUSH1 0x4 DUP4 ADD SLOAD AND PUSH2 0x3B44 JUMP JUMPDEST ADD SLOAD ISZERO PUSH2 0x1C24 JUMPI PUSH7 0x38D7EA4C68000 DUP3 LT PUSH2 0x1BE8 JUMPI PUSH1 0x1 PUSH1 0x1 PUSH1 0x80 SHL SUB DUP3 GT PUSH2 0x1BAB JUMPI PUSH2 0x6CA PUSH32 0xFB8EFD70C9F0CA009BFC9F2CA8A9256A5AEFBC720BDB8D838E4BCD42C241B9EB SWAP4 PUSH2 0x1B01 DUP4 PUSH2 0x40E3 JUMP JUMPDEST CALLER PUSH1 0x0 MSTORE PUSH1 0x5 PUSH1 0x20 MSTORE PUSH1 0x40 DUP1 PUSH1 0x0 KECCAK256 PUSH1 0x0 SWAP1 DUP4 DUP3 MSTORE PUSH1 0x20 MSTORE KECCAK256 PUSH2 0x1B2A DUP6 DUP3 SLOAD DUP1 PUSH2 0x1B97 JUMPI PUSH2 0x37D9 JUMP JUMPDEST DUP2 SSTORE PUSH1 0x0 DUP3 DUP2 MSTORE PUSH1 0x8 PUSH1 0x20 SWAP1 DUP2 MSTORE PUSH1 0x40 SWAP2 DUP3 SWAP1 KECCAK256 SLOAD PUSH1 0x3 DUP5 ADD SSTORE TIMESTAMP PUSH1 0x1 PUSH1 0x1 PUSH1 0x40 SHL SUB AND PUSH1 0x1 SWAP1 SWAP4 ADD SWAP3 SWAP1 SWAP3 SSTORE MLOAD PUSH4 0x23B872DD PUSH1 0xE0 SHL SWAP2 DUP2 ADD SWAP2 SWAP1 SWAP2 MSTORE CALLER PUSH1 0x24 DUP3 ADD MSTORE ADDRESS PUSH1 0x44 DUP3 ADD MSTORE PUSH1 0x64 DUP2 ADD DUP6 SWAP1 MSTORE SWAP1 PUSH2 0x1B92 DUP3 PUSH1 0x84 DUP2 ADD JUMPDEST SUB PUSH1 0x1F NOT DUP2 ADD DUP5 MSTORE DUP4 PUSH2 0x3651 JUMP JUMPDEST PUSH2 0x4255 JUMP JUMPDEST PUSH2 0x1BA1 DUP8 CALLER PUSH2 0x37E6 JUMP JUMPDEST PUSH1 0x2 DUP6 ADD SSTORE PUSH2 0x37D9 JUMP JUMPDEST PUSH1 0x40 MLOAD PUSH3 0x461BCD PUSH1 0xE5 SHL DUP2 MSTORE PUSH1 0x20 PUSH1 0x4 DUP3 ADD MSTORE PUSH1 0x15 PUSH1 0x24 DUP3 ADD MSTORE PUSH21 0xA6E8C2D6CA40C2DADEEADCE840E8DEDE40D0D2CED PUSH1 0x5B SHL PUSH1 0x44 DUP3 ADD MSTORE PUSH1 0x64 SWAP1 REVERT JUMPDEST PUSH1 0x40 MLOAD PUSH3 0x461BCD PUSH1 0xE5 SHL DUP2 MSTORE PUSH1 0x20 PUSH1 0x4 DUP3 ADD MSTORE PUSH1 0x14 PUSH1 0x24 DUP3 ADD MSTORE PUSH20 0x5374616B6520616D6F756E7420746F6F206C6F77 PUSH1 0x60 SHL PUSH1 0x44 DUP3 ADD MSTORE PUSH1 0x64 SWAP1 REVERT JUMPDEST PUSH1 0x40 MLOAD PUSH3 0x461BCD PUSH1 0xE5 SHL DUP2 MSTORE PUSH1 0x20 PUSH1 0x4 DUP3 ADD MSTORE PUSH1 0x14 PUSH1 0x24 DUP3 ADD MSTORE PUSH20 0x14185A5C881A185CC81E995C9BC81DD95A59DA1D PUSH1 0x62 SHL PUSH1 0x44 DUP3 ADD MSTORE PUSH1 0x64 SWAP1 REVERT JUMPDEST CALLVALUE PUSH2 0x301 JUMPI PUSH1 0x0 CALLDATASIZE PUSH1 0x3 NOT ADD SLT PUSH2 0x301 JUMPI PUSH1 0x20 PUSH1 0x40 MLOAD PUSH8 0xDE0B6B3A7640000 DUP2 MSTORE RETURN JUMPDEST CALLVALUE PUSH2 0x301 JUMPI PUSH1 0x0 CALLDATASIZE PUSH1 0x3 NOT ADD SLT PUSH2 0x301 JUMPI PUSH1 0x20 PUSH1 0x40 MLOAD PUSH1 0x0 DUP2 MSTORE RETURN JUMPDEST CALLVALUE PUSH2 0x301 JUMPI PUSH1 0x20 CALLDATASIZE PUSH1 0x3 NOT ADD SLT PUSH2 0x301 JUMPI PUSH1 0x1 PUSH1 0x1 PUSH1 0xA0 SHL SUB PUSH2 0x1CC0 PUSH2 0x341D JUMP JUMPDEST AND PUSH1 0x0 MSTORE PUSH1 0x8 PUSH1 0x20 MSTORE PUSH1 0x20 PUSH1 0x40 PUSH1 0x0 KECCAK256 SLOAD PUSH1 0x40 MLOAD SWAP1 DUP2 MSTORE RETURN JUMPDEST CALLVALUE PUSH2 0x301 JUMPI PUSH1 0x0 CALLDATASIZE PUSH1 0x3 NOT ADD SLT PUSH2 0x301 JUMPI PUSH1 0x20 PUSH1 0x40 MLOAD PUSH1 0x64 DUP2 MSTORE RETURN JUMPDEST CALLVALUE PUSH2 0x301 JUMPI PUSH1 0x0 CALLDATASIZE PUSH1 0x3 NOT ADD SLT PUSH2 0x301 JUMPI PUSH1 0x20 PUSH1 0xA SLOAD PUSH1 0x40 MLOAD SWAP1 DUP2 MSTORE RETURN JUMPDEST CALLVALUE PUSH2 0x301 JUMPI PUSH1 0x0 CALLDATASIZE PUSH1 0x3 NOT ADD SLT PUSH2 0x301 JUMPI PUSH1 0x40 MLOAD PUSH1 0x7 SLOAD DUP1 DUP3 MSTORE PUSH1 0x20 DUP3 ADD SWAP1 PUSH1 0x7 PUSH1 0x0 MSTORE PUSH1 0x20 PUSH1 0x0 KECCAK256 SWAP1 PUSH1 0x0 JUMPDEST DUP2 DUP2 LT PUSH2 0x1D57 JUMPI PUSH2 0x3DA DUP6 PUSH2 0x3CE DUP2 DUP8 SUB DUP3 PUSH2 0x3651 JUMP JUMPDEST DUP3 SLOAD PUSH1 0x1 PUSH1 0x1 PUSH1 0xA0 SHL SUB AND DUP5 MSTORE PUSH1 0x20 SWAP1 SWAP4 ADD SWAP3 PUSH1 0x1 SWAP3 DUP4 ADD SWAP3 ADD PUSH2 0x1D40 JUMP JUMPDEST CALLVALUE PUSH2 0x301 JUMPI PUSH1 0x40 CALLDATASIZE PUSH1 0x3 NOT ADD SLT PUSH2 0x301 JUMPI PUSH2 0x1D8F PUSH2 0x3433 JUMP JUMPDEST PUSH1 0x4 CALLDATALOAD PUSH1 0x0 MSTORE PUSH1 0x1 PUSH1 0x20 MSTORE PUSH1 0x40 PUSH1 0x0 KECCAK256 SWAP1 PUSH1 0x1 DUP1 PUSH1 0xA0 SHL SUB AND PUSH1 0x0 MSTORE PUSH1 0x20 MSTORE PUSH1 0x20 PUSH1 0xFF PUSH1 0x40 PUSH1 0x0 KECCAK256 SLOAD AND PUSH1 0x40 MLOAD SWAP1 ISZERO ISZERO DUP2 MSTORE RETURN JUMPDEST CALLVALUE PUSH2 0x301 JUMPI PUSH1 0x40 CALLDATASIZE PUSH1 0x3 NOT ADD SLT PUSH2 0x301 JUMPI PUSH1 0x80 PUSH1 0x40 PUSH2 0x1DE0 PUSH2 0x341D JUMP JUMPDEST PUSH2 0x1DE8 PUSH2 0x3433 JUMP JUMPDEST SWAP1 PUSH1 0x1 DUP1 PUSH1 0xA0 SHL SUB AND PUSH1 0x0 MSTORE PUSH1 0x5 PUSH1 0x20 MSTORE DUP2 PUSH1 0x0 KECCAK256 PUSH1 0x0 SWAP2 PUSH1 0x1 DUP1 PUSH1 0xA0 SHL SUB AND DUP3 MSTORE PUSH1 0x20 MSTORE KECCAK256 DUP1 SLOAD SWAP1 PUSH1 0x1 DUP2 ADD SLOAD SWAP1 PUSH1 0x3 PUSH1 0x2 DUP3 ADD SLOAD SWAP2 ADD SLOAD SWAP2 PUSH1 0x40 MLOAD SWAP4 DUP5 MSTORE PUSH1 0x20 DUP5 ADD MSTORE PUSH1 0x40 DUP4 ADD MSTORE PUSH1 0x60 DUP3 ADD MSTORE RETURN JUMPDEST CALLVALUE PUSH2 0x301 JUMPI PUSH1 0x20 CALLDATASIZE PUSH1 0x3 NOT ADD SLT PUSH2 0x301 JUMPI PUSH2 0x1E52 PUSH2 0x341D JUMP JUMPDEST PUSH1 0x6 SLOAD PUSH1 0x0 SWAP2 PUSH1 0x1 PUSH1 0x1 PUSH1 0xA0 SHL SUB AND DUP3 JUMPDEST DUP3 DUP2 LT PUSH2 0x2015 JUMPI POP PUSH2 0x1E74 DUP4 PUSH2 0x3B19 JUMP JUMPDEST SWAP3 PUSH2 0x1E82 PUSH1 0x40 MLOAD SWAP5 DUP6 PUSH2 0x3651 JUMP JUMPDEST DUP1 DUP5 MSTORE PUSH2 0x1E91 PUSH1 0x1F NOT SWAP2 PUSH2 0x3B19 JUMP JUMPDEST ADD PUSH1 0x0 JUMPDEST DUP2 DUP2 LT PUSH2 0x1FE2 JUMPI POP POP PUSH1 0x0 DUP1 JUMPDEST DUP4 DUP2 LT PUSH2 0x1F10 JUMPI DUP5 PUSH1 0x40 MLOAD DUP1 SWAP2 PUSH1 0x20 DUP3 ADD PUSH1 0x20 DUP4 MSTORE DUP2 MLOAD DUP1 SWAP2 MSTORE PUSH1 0x20 PUSH1 0x40 DUP5 ADD SWAP3 ADD SWAP1 PUSH1 0x0 JUMPDEST DUP2 DUP2 LT PUSH2 0x1ED6 JUMPI POP POP POP SUB SWAP1 RETURN JUMPDEST SWAP2 SWAP4 POP SWAP2 PUSH1 0x20 PUSH1 0x80 PUSH1 0x1 SWAP3 PUSH1 0x60 DUP8 MLOAD DUP1 MLOAD DUP4 MSTORE DUP5 DUP2 ADD MLOAD DUP6 DUP5 ADD MSTORE PUSH1 0x40 DUP2 ADD MLOAD PUSH1 0x40 DUP5 ADD MSTORE ADD MLOAD PUSH1 0x60 DUP3 ADD MSTORE ADD SWAP5 ADD SWAP2 ADD SWAP2 DUP5 SWAP4 SWAP3 PUSH2 0x1EC8 JUMP JUMPDEST DUP3 PUSH1 0x0 MSTORE PUSH1 0x5 PUSH1 0x20 MSTORE PUSH1 0x40 DUP1 PUSH1 0x0 KECCAK256 PUSH2 0x1F28 DUP4 PUSH2 0x34A7 JUMP JUMPDEST SWAP1 SLOAD PUSH1 0x3 SWAP2 SWAP1 SWAP2 SHL SHR PUSH1 0x1 PUSH1 0x1 PUSH1 0xA0 SHL SUB AND PUSH1 0x0 SWAP1 DUP2 MSTORE PUSH1 0x20 SWAP2 SWAP1 SWAP2 MSTORE KECCAK256 SLOAD PUSH2 0x1F54 JUMPI JUMPDEST PUSH1 0x1 ADD PUSH2 0x1EA2 JUMP JUMPDEST SWAP1 PUSH2 0x1FDA PUSH1 0x1 SWAP2 DUP5 PUSH1 0x0 MSTORE PUSH1 0x5 PUSH1 0x20 MSTORE PUSH1 0x40 DUP1 PUSH1 0x0 KECCAK256 PUSH2 0x1F73 DUP7 PUSH2 0x34A7 JUMP JUMPDEST DUP7 DUP1 PUSH1 0xA0 SHL SUB SWAP2 SLOAD SWAP1 PUSH1 0x3 SHL SHR AND SWAP1 PUSH1 0x0 SWAP2 DUP7 DUP1 PUSH1 0xA0 SHL SUB AND DUP3 MSTORE PUSH1 0x20 MSTORE KECCAK256 PUSH1 0x3 PUSH1 0x40 MLOAD SWAP2 PUSH2 0x1FA1 DUP4 PUSH2 0x3636 JUMP JUMPDEST DUP1 SLOAD DUP4 MSTORE DUP6 DUP2 ADD SLOAD PUSH1 0x20 DUP5 ADD MSTORE PUSH1 0x2 DUP2 ADD SLOAD PUSH1 0x40 DUP5 ADD MSTORE ADD SLOAD PUSH1 0x60 DUP3 ADD MSTORE PUSH2 0x1FC9 DUP3 DUP10 PUSH2 0x3B30 JUMP JUMPDEST MSTORE PUSH2 0x1FD4 DUP2 DUP9 PUSH2 0x3B30 JUMP JUMPDEST POP PUSH2 0x36A2 JUMP JUMPDEST SWAP2 SWAP1 POP PUSH2 0x1F4C JUMP JUMPDEST PUSH1 0x20 SWAP1 PUSH1 0x40 MLOAD PUSH2 0x1FF1 DUP2 PUSH2 0x3636 JUMP JUMPDEST PUSH1 0x0 DUP2 MSTORE PUSH1 0x0 DUP4 DUP3 ADD MSTORE PUSH1 0x0 PUSH1 0x40 DUP3 ADD MSTORE PUSH1 0x0 PUSH1 0x60 DUP3 ADD MSTORE DUP3 DUP3 DUP9 ADD ADD MSTORE ADD PUSH2 0x1E95 JUMP JUMPDEST DUP2 PUSH1 0x0 MSTORE PUSH1 0x5 PUSH1 0x20 MSTORE PUSH1 0x40 DUP1 PUSH1 0x0 KECCAK256 PUSH2 0x202D DUP4 PUSH2 0x34A7 JUMP JUMPDEST SWAP1 SLOAD PUSH1 0x3 SWAP2 SWAP1 SWAP2 SHL SHR PUSH1 0x1 PUSH1 0x1 PUSH1 0xA0 SHL SUB AND PUSH1 0x0 SWAP1 DUP2 MSTORE PUSH1 0x20 SWAP2 SWAP1 SWAP2 MSTORE KECCAK256 SLOAD PUSH2 0x2059 JUMPI JUMPDEST PUSH1 0x1 ADD PUSH2 0x1E63 JUMP JUMPDEST SWAP3 PUSH2 0x2065 PUSH1 0x1 SWAP2 PUSH2 0x36A2 JUMP JUMPDEST SWAP4 SWAP1 POP PUSH2 0x2051 JUMP JUMPDEST CALLVALUE PUSH2 0x301 JUMPI PUSH1 0x20 CALLDATASIZE PUSH1 0x3 NOT ADD SLT PUSH2 0x301 JUMPI PUSH1 0x4 CALLDATALOAD PUSH1 0x0 MSTORE PUSH1 0xC PUSH1 0x20 MSTORE PUSH1 0x40 PUSH1 0x0 KECCAK256 PUSH1 0xFF DUP2 SLOAD AND SWAP1 PUSH1 0x1 DUP2 ADD SLOAD SWAP2 PUSH1 0x1 DUP1 PUSH1 0xA0 SHL SUB PUSH1 0x4 DUP4 ADD SLOAD AND PUSH1 0x40 MLOAD SWAP3 PUSH2 0x20BC DUP5 PUSH2 0xB25 DUP2 PUSH1 0x5 DUP6 ADD PUSH2 0x3598 JUMP JUMPDEST PUSH1 0x40 MLOAD SWAP2 PUSH2 0x20D1 DUP4 PUSH2 0x293 DUP2 PUSH1 0x6 DUP7 ADD PUSH2 0x3598 JUMP JUMPDEST PUSH1 0x7 DUP3 ADD SLOAD SWAP4 PUSH1 0x1 DUP1 PUSH1 0xA0 SHL SUB PUSH1 0x8 DUP5 ADD SLOAD AND PUSH1 0x1 DUP1 PUSH1 0xA0 SHL SUB PUSH1 0x9 DUP6 ADD SLOAD AND PUSH1 0xA DUP6 ADD SLOAD SWAP2 PUSH1 0xB DUP7 ADD SLOAD SWAP4 PUSH1 0xFF PUSH1 0xE PUSH1 0xD DUP10 ADD SLOAD SWAP9 ADD SLOAD AND SWAP8 PUSH1 0x40 MLOAD SWAP12 PUSH1 0x6 DUP4 LT ISZERO PUSH2 0x1977 JUMPI DUP13 SWAP12 PUSH2 0x1C0 PUSH1 0x60 DUP15 PUSH1 0xFF SWAP12 PUSH2 0x2144 SWAP6 PUSH2 0x2152 SWAP9 DUP4 MSTORE PUSH1 0x20 DUP4 ADD MSTORE PUSH1 0x40 DUP3 ADD MSTORE ADD MSTORE PUSH2 0x1C0 DUP14 ADD SWAP1 PUSH2 0x351D JUMP JUMPDEST SWAP1 DUP12 DUP3 SUB PUSH1 0x80 DUP14 ADD MSTORE PUSH2 0x351D JUMP JUMPDEST SWAP8 PUSH1 0xA0 DUP11 ADD MSTORE PUSH1 0xC0 DUP10 ADD MSTORE PUSH1 0xE0 DUP9 ADD MSTORE PUSH2 0x100 DUP8 ADD MSTORE DUP2 DUP2 AND ISZERO ISZERO PUSH2 0x120 DUP8 ADD MSTORE DUP2 DUP2 PUSH1 0x8 SHR AND ISZERO ISZERO PUSH2 0x140 DUP8 ADD MSTORE PUSH1 0x10 SHR AND PUSH2 0x160 DUP6 ADD MSTORE PUSH2 0x180 DUP5 ADD MSTORE ISZERO ISZERO PUSH2 0x1A0 DUP4 ADD MSTORE SUB SWAP1 RETURN JUMPDEST CALLVALUE PUSH2 0x301 JUMPI PUSH1 0x0 CALLDATASIZE PUSH1 0x3 NOT ADD SLT PUSH2 0x301 JUMPI PUSH2 0x21B6 PUSH2 0x3C82 JUMP JUMPDEST PUSH1 0x1 JUMPDEST PUSH1 0xB SLOAD DUP2 GT PUSH2 0xAC5 JUMPI DUP1 PUSH2 0x21F6 SWAP2 PUSH1 0x0 MSTORE PUSH1 0xC PUSH1 0x20 MSTORE PUSH1 0xB PUSH1 0x40 PUSH1 0x0 KECCAK256 ADD DUP1 SLOAD PUSH1 0xFF DUP2 AND ISZERO DUP1 PUSH2 0x2247 JUMPI JUMPDEST DUP1 PUSH2 0x2238 JUMPI JUMPDEST PUSH2 0x21FB JUMPI JUMPDEST POP POP PUSH2 0x36A2 JUMP JUMPDEST PUSH2 0x21B9 JUMP JUMPDEST PUSH2 0x100 SWAP1 PUSH2 0xFF00 NOT AND OR SWAP1 SSTORE PUSH32 0x7D919BD8EC97E857EC355CCA68A0882119B700D30B815F9939A75E824CAD9A9B PUSH1 0x20 PUSH1 0x40 MLOAD DUP4 DUP2 MSTORE LOG1 DUP3 DUP1 PUSH2 0x21EF JUMP JUMPDEST POP PUSH2 0x2242 DUP4 PUSH2 0x3AF6 JUMP JUMPDEST PUSH2 0x21EA JUMP JUMPDEST POP PUSH1 0xFF DUP2 PUSH1 0x8 SHR AND ISZERO PUSH2 0x21E4 JUMP JUMPDEST CALLVALUE PUSH2 0x301 JUMPI PUSH1 0x0 CALLDATASIZE PUSH1 0x3 NOT ADD SLT PUSH2 0x301 JUMPI PUSH1 0x6 SLOAD PUSH2 0x2272 DUP2 PUSH2 0x3B19 JUMP JUMPDEST SWAP1 PUSH2 0x2280 PUSH1 0x40 MLOAD SWAP3 DUP4 PUSH2 0x3651 JUMP JUMPDEST DUP1 DUP3 MSTORE PUSH1 0x1F NOT PUSH2 0x228F DUP3 PUSH2 0x3B19 JUMP JUMPDEST ADD PUSH1 0x0 JUMPDEST DUP2 DUP2 LT PUSH2 0x23F7 JUMPI POP POP PUSH1 0x0 JUMPDEST DUP2 DUP2 LT PUSH2 0x2353 JUMPI DUP3 PUSH1 0x40 MLOAD DUP1 SWAP2 PUSH1 0x20 DUP3 ADD PUSH1 0x20 DUP4 MSTORE DUP2 MLOAD DUP1 SWAP2 MSTORE PUSH1 0x40 DUP4 ADD SWAP1 PUSH1 0x20 PUSH1 0x40 DUP3 PUSH1 0x5 SHL DUP7 ADD ADD SWAP4 ADD SWAP2 PUSH1 0x0 SWAP1 JUMPDEST DUP3 DUP3 LT PUSH2 0x22DF JUMPI POP POP POP POP SUB SWAP1 RETURN JUMPDEST SWAP2 SWAP4 PUSH1 0x1 SWAP2 SWAP4 SWAP6 POP PUSH1 0x20 DUP1 SWAP2 PUSH1 0x3F NOT DUP10 DUP3 SUB ADD DUP6 MSTORE DUP8 MLOAD SWAP1 DUP5 DUP1 PUSH1 0xA0 SHL SUB DUP3 MLOAD AND DUP2 MSTORE PUSH1 0x80 DUP1 PUSH2 0x2331 PUSH2 0x231F DUP7 DUP7 ADD MLOAD PUSH1 0xA0 DUP9 DUP8 ADD MSTORE PUSH1 0xA0 DUP7 ADD SWAP1 PUSH2 0x351D JUMP JUMPDEST PUSH1 0x40 DUP7 ADD MLOAD DUP6 DUP3 SUB PUSH1 0x40 DUP8 ADD MSTORE PUSH2 0x351D JUMP JUMPDEST SWAP4 PUSH1 0x60 DUP2 ADD MLOAD PUSH1 0x60 DUP6 ADD MSTORE ADD MLOAD ISZERO ISZERO SWAP2 ADD MSTORE SWAP7 ADD SWAP3 ADD SWAP3 ADD DUP6 SWAP5 SWAP4 SWAP2 SWAP3 PUSH2 0x22D0 JUMP JUMPDEST DUP1 PUSH2 0x235F PUSH1 0x1 SWAP3 PUSH2 0x34A7 JUMP JUMPDEST DUP4 DUP1 PUSH1 0xA0 SHL SUB SWAP2 SLOAD SWAP1 PUSH1 0x3 SHL SHR AND PUSH1 0x0 MSTORE PUSH1 0x4 PUSH1 0x20 MSTORE PUSH1 0x40 PUSH1 0x0 KECCAK256 PUSH1 0xFF PUSH1 0x4 PUSH1 0x40 MLOAD SWAP3 PUSH2 0x238B DUP5 PUSH2 0x361B JUMP JUMPDEST DUP6 DUP1 PUSH1 0xA0 SHL SUB DUP2 SLOAD AND DUP5 MSTORE PUSH1 0x40 MLOAD PUSH2 0x23A9 DUP2 PUSH2 0x2AE DUP2 DUP11 DUP7 ADD PUSH2 0x3598 JUMP JUMPDEST PUSH1 0x20 DUP6 ADD MSTORE PUSH1 0x40 MLOAD PUSH2 0x23C2 DUP2 PUSH2 0x2AE DUP2 PUSH1 0x2 DUP7 ADD PUSH2 0x3598 JUMP JUMPDEST PUSH1 0x40 DUP6 ADD MSTORE PUSH1 0x3 DUP2 ADD SLOAD PUSH1 0x60 DUP6 ADD MSTORE ADD SLOAD AND ISZERO ISZERO PUSH1 0x80 DUP3 ADD MSTORE PUSH2 0x23E5 DUP3 DUP7 PUSH2 0x3B30 JUMP JUMPDEST MSTORE PUSH2 0x23F0 DUP2 DUP6 PUSH2 0x3B30 JUMP JUMPDEST POP ADD PUSH2 0x229F JUMP JUMPDEST PUSH1 0x20 SWAP1 PUSH1 0x40 MLOAD PUSH2 0x2406 DUP2 PUSH2 0x361B JUMP JUMPDEST PUSH1 0x0 DUP2 MSTORE PUSH1 0x60 DUP4 DUP3 ADD MSTORE PUSH1 0x60 PUSH1 0x40 DUP3 ADD MSTORE PUSH1 0x0 PUSH1 0x60 DUP3 ADD MSTORE PUSH1 0x0 PUSH1 0x80 DUP3 ADD MSTORE DUP3 DUP3 DUP8 ADD ADD MSTORE ADD PUSH2 0x2293 JUMP JUMPDEST CALLVALUE PUSH2 0x301 JUMPI PUSH1 0x0 CALLDATASIZE PUSH1 0x3 NOT ADD SLT PUSH2 0x301 JUMPI PUSH1 0x20 PUSH1 0x40 MLOAD PUSH1 0x0 DUP1 MLOAD PUSH1 0x20 PUSH2 0x4311 DUP4 CODECOPY DUP2 MLOAD SWAP2 MSTORE DUP2 MSTORE RETURN JUMPDEST CALLVALUE PUSH2 0x301 JUMPI PUSH1 0x0 CALLDATASIZE PUSH1 0x3 NOT ADD SLT PUSH2 0x301 JUMPI PUSH1 0x20 PUSH1 0x3 SLOAD PUSH1 0x40 MLOAD SWAP1 DUP2 MSTORE RETURN JUMPDEST CALLVALUE PUSH2 0x301 JUMPI PUSH1 0x20 CALLDATASIZE PUSH1 0x3 NOT ADD SLT PUSH2 0x301 JUMPI PUSH1 0x20 PUSH2 0x2496 PUSH1 0x4 CALLDATALOAD PUSH2 0x3AF6 JUMP JUMPDEST PUSH1 0x40 MLOAD SWAP1 ISZERO ISZERO DUP2 MSTORE RETURN JUMPDEST CALLVALUE PUSH2 0x301 JUMPI PUSH1 0x0 CALLDATASIZE PUSH1 0x3 NOT ADD SLT PUSH2 0x301 JUMPI PUSH1 0x40 MLOAD PUSH1 0x6 SLOAD DUP1 DUP3 MSTORE PUSH1 0x20 DUP3 ADD SWAP1 PUSH1 0x6 PUSH1 0x0 MSTORE PUSH1 0x20 PUSH1 0x0 KECCAK256 SWAP1 PUSH1 0x0 JUMPDEST DUP2 DUP2 LT PUSH2 0x24E4 JUMPI PUSH2 0x3DA DUP6 PUSH2 0x3CE DUP2 DUP8 SUB DUP3 PUSH2 0x3651 JUMP JUMPDEST DUP3 SLOAD PUSH1 0x1 PUSH1 0x1 PUSH1 0xA0 SHL SUB AND DUP5 MSTORE PUSH1 0x20 SWAP1 SWAP4 ADD SWAP3 PUSH1 0x1 SWAP3 DUP4 ADD SWAP3 ADD PUSH2 0x24CD JUMP JUMPDEST CALLVALUE PUSH2 0x301 JUMPI PUSH1 0x0 CALLDATASIZE PUSH1 0x3 NOT ADD SLT PUSH2 0x301 JUMPI PUSH1 0x20 PUSH1 0x40 MLOAD PUSH1 0x3 DUP2 MSTORE RETURN JUMPDEST CALLVALUE PUSH2 0x301 JUMPI PUSH1 0x20 CALLDATASIZE PUSH1 0x3 NOT ADD SLT PUSH2 0x301 JUMPI PUSH2 0x2538 PUSH2 0x341D JUMP JUMPDEST PUSH2 0x2540 PUSH2 0x3C82 JUMP JUMPDEST PUSH1 0x1 PUSH1 0x1 PUSH1 0xA0 SHL SUB AND DUP1 ISZERO PUSH2 0x2621 JUMPI DUP1 PUSH1 0x0 MSTORE PUSH1 0x4 PUSH1 0x20 MSTORE PUSH1 0xFF PUSH1 0x4 PUSH1 0x40 PUSH1 0x0 KECCAK256 ADD SLOAD AND ISZERO PUSH2 0x25DD JUMPI PUSH2 0x2574 PUSH1 0xB SLOAD PUSH2 0x36A2 JUMP JUMPDEST DUP1 PUSH1 0xB SSTORE PUSH1 0x0 MSTORE PUSH1 0xC PUSH1 0x20 MSTORE PUSH1 0x40 PUSH1 0x0 KECCAK256 SWAP1 PUSH1 0x3 PUSH1 0xFF NOT DUP4 SLOAD AND OR DUP3 SSTORE PUSH1 0x8 DUP3 ADD SWAP1 PUSH1 0x1 PUSH1 0x1 PUSH1 0x60 SHL SUB PUSH1 0xA0 SHL DUP3 SLOAD AND OR SWAP1 SSTORE PUSH1 0xD TIMESTAMP SWAP2 ADD SSTORE PUSH2 0x534 PUSH1 0xB SLOAD PUSH1 0x0 DUP1 MLOAD PUSH1 0x20 PUSH2 0x42D1 DUP4 CODECOPY DUP2 MLOAD SWAP2 MSTORE PUSH1 0x60 PUSH1 0x40 MLOAD DUP4 DUP2 MSTORE CALLER PUSH1 0x20 DUP3 ADD MSTORE PUSH1 0x3 PUSH1 0x40 DUP3 ADD MSTORE LOG1 PUSH2 0x3D0D JUMP JUMPDEST PUSH1 0x64 PUSH1 0x40 MLOAD PUSH3 0x461BCD PUSH1 0xE5 SHL DUP2 MSTORE PUSH1 0x20 PUSH1 0x4 DUP3 ADD MSTORE PUSH1 0x20 PUSH1 0x24 DUP3 ADD MSTORE PUSH32 0x50616972206E6F7420616374697665206F7220646F65736E2774206578697374 PUSH1 0x44 DUP3 ADD MSTORE REVERT JUMPDEST PUSH1 0x40 MLOAD PUSH3 0x461BCD PUSH1 0xE5 SHL DUP2 MSTORE PUSH1 0x20 PUSH1 0x4 DUP3 ADD MSTORE PUSH1 0x14 PUSH1 0x24 DUP3 ADD MSTORE PUSH20 0x496E76616C696420706169722061646472657373 PUSH1 0x60 SHL PUSH1 0x44 DUP3 ADD MSTORE PUSH1 0x64 SWAP1 REVERT JUMPDEST CALLVALUE PUSH2 0x301 JUMPI PUSH1 0x20 CALLDATASIZE PUSH1 0x3 NOT ADD SLT PUSH2 0x301 JUMPI PUSH1 0x4 CALLDATALOAD DUP1 ISZERO ISZERO DUP1 PUSH2 0x27E5 JUMPI JUMPDEST PUSH2 0x2683 SWAP1 PUSH2 0x3A37 JUMP JUMPDEST DUP1 PUSH1 0x0 MSTORE PUSH1 0xC PUSH1 0x20 MSTORE PUSH1 0xFF PUSH1 0x40 PUSH1 0x0 KECCAK256 SLOAD AND PUSH1 0x6 DUP2 LT ISZERO PUSH2 0x1977 JUMPI PUSH1 0x4 SUB PUSH2 0x2772 JUMPI CALLER PUSH1 0x0 SWAP1 DUP2 MSTORE PUSH1 0x0 DUP1 MLOAD PUSH1 0x20 PUSH2 0x42F1 DUP4 CODECOPY DUP2 MLOAD SWAP2 MSTORE PUSH1 0x20 MSTORE PUSH1 0x40 SWAP1 KECCAK256 SLOAD PUSH1 0xFF AND DUP1 ISZERO PUSH2 0x273A JUMPI JUMPDEST ISZERO PUSH2 0x26DA JUMPI PUSH2 0xAC5 SWAP1 PUSH2 0x3D0D JUMP JUMPDEST PUSH1 0x40 MLOAD PUSH3 0x461BCD PUSH1 0xE5 SHL DUP2 MSTORE PUSH1 0x20 PUSH1 0x4 DUP3 ADD MSTORE PUSH1 0x32 PUSH1 0x24 DUP3 ADD MSTORE PUSH32 0x43616C6C6572206D75737420686176652041444D494E5F524F4C45206F72204F PUSH1 0x44 DUP3 ADD MSTORE PUSH18 0x574E45525F415050524F5645525F524F4C45 PUSH1 0x70 SHL PUSH1 0x64 DUP3 ADD MSTORE PUSH1 0x84 SWAP1 REVERT JUMPDEST POP CALLER PUSH1 0x0 SWAP1 DUP2 MSTORE PUSH32 0xB98FEA3292A51D6BA303DD5EF6120A65C5E45F140A21630A75DE31035DB0B199 PUSH1 0x20 MSTORE PUSH1 0x40 SWAP1 KECCAK256 SLOAD PUSH1 0xFF AND PUSH2 0x26CC JUMP JUMPDEST CALLER PUSH1 0x0 SWAP1 DUP2 MSTORE PUSH1 0x0 DUP1 MLOAD PUSH1 0x20 PUSH2 0x42F1 DUP4 CODECOPY DUP2 MLOAD SWAP2 MSTORE PUSH1 0x20 MSTORE PUSH1 0x40 SWAP1 KECCAK256 SLOAD PUSH1 0xFF AND ISZERO PUSH2 0x27A0 JUMPI PUSH2 0xAC5 SWAP1 PUSH2 0x3D0D JUMP JUMPDEST PUSH1 0x40 MLOAD PUSH3 0x461BCD PUSH1 0xE5 SHL DUP2 MSTORE PUSH1 0x20 PUSH1 0x4 DUP3 ADD MSTORE PUSH1 0x1B PUSH1 0x24 DUP3 ADD MSTORE PUSH32 0x43616C6C6572206D75737420686176652041444D494E5F524F4C450000000000 PUSH1 0x44 DUP3 ADD MSTORE PUSH1 0x64 SWAP1 REVERT JUMPDEST POP PUSH1 0xB SLOAD DUP2 GT ISZERO PUSH2 0x267A JUMP JUMPDEST CALLVALUE PUSH2 0x301 JUMPI PUSH1 0x40 CALLDATASIZE PUSH1 0x3 NOT ADD SLT PUSH2 0x301 JUMPI PUSH2 0x280A PUSH2 0x3433 JUMP JUMPDEST CALLER PUSH1 0x1 PUSH1 0x1 PUSH1 0xA0 SHL SUB DUP3 AND SUB PUSH2 0x2826 JUMPI PUSH2 0xAC5 SWAP1 PUSH1 0x4 CALLDATALOAD PUSH2 0x403B JUMP JUMPDEST PUSH4 0x334BD919 PUSH1 0xE1 SHL PUSH1 0x0 MSTORE PUSH1 0x4 PUSH1 0x0 REVERT JUMPDEST CALLVALUE PUSH2 0x301 JUMPI PUSH1 0x20 CALLDATASIZE PUSH1 0x3 NOT ADD SLT PUSH2 0x301 JUMPI PUSH1 0x4 CALLDATALOAD PUSH2 0x2853 PUSH2 0x3C82 JUMP JUMPDEST DUP1 ISZERO ISZERO DUP1 PUSH2 0x299C JUMPI JUMPDEST PUSH2 0x2865 SWAP1 PUSH2 0x3A37 JUMP JUMPDEST DUP1 PUSH1 0x0 MSTORE PUSH1 0xC PUSH1 0x20 MSTORE PUSH1 0xB PUSH1 0x40 PUSH1 0x0 KECCAK256 ADD SWAP1 DUP2 SLOAD SWAP1 PUSH1 0xFF DUP3 AND PUSH2 0x2957 JUMPI PUSH1 0xFF DUP3 PUSH1 0x8 SHR AND PUSH2 0x2912 JUMPI PUSH2 0x2896 DUP2 PUSH2 0x3AF6 JUMP JUMPDEST ISZERO PUSH2 0x28D4 JUMPI PUSH32 0x7D919BD8EC97E857EC355CCA68A0882119B700D30B815F9939A75E824CAD9A9B SWAP3 PUSH2 0x100 PUSH1 0x20 SWAP4 PUSH2 0xFF00 NOT AND OR SWAP1 SSTORE PUSH1 0x40 MLOAD SWAP1 DUP2 MSTORE LOG1 STOP JUMPDEST PUSH1 0x40 MLOAD PUSH3 0x461BCD PUSH1 0xE5 SHL DUP2 MSTORE PUSH1 0x20 PUSH1 0x4 DUP3 ADD MSTORE PUSH1 0x16 PUSH1 0x24 DUP3 ADD MSTORE PUSH22 0x1058DD1A5BDB881B9BDD08195E1C1A5C9959081E595D PUSH1 0x52 SHL PUSH1 0x44 DUP3 ADD MSTORE PUSH1 0x64 SWAP1 REVERT JUMPDEST PUSH1 0x40 MLOAD PUSH3 0x461BCD PUSH1 0xE5 SHL DUP2 MSTORE PUSH1 0x20 PUSH1 0x4 DUP3 ADD MSTORE PUSH1 0x1D PUSH1 0x24 DUP3 ADD MSTORE PUSH32 0x416374696F6E20616C7265616479206D61726B65642065787069726564000000 PUSH1 0x44 DUP3 ADD MSTORE PUSH1 0x64 SWAP1 REVERT JUMPDEST PUSH1 0x40 MLOAD PUSH3 0x461BCD PUSH1 0xE5 SHL DUP2 MSTORE PUSH1 0x20 PUSH1 0x4 DUP3 ADD MSTORE PUSH1 0x17 PUSH1 0x24 DUP3 ADD MSTORE PUSH32 0x416374696F6E20616C7265616479206578656375746564000000000000000000 PUSH1 0x44 DUP3 ADD MSTORE PUSH1 0x64 SWAP1 REVERT JUMPDEST POP PUSH1 0xB SLOAD DUP2 GT ISZERO PUSH2 0x285C JUMP JUMPDEST CALLVALUE PUSH2 0x301 JUMPI PUSH1 0x0 CALLDATASIZE PUSH1 0x3 NOT ADD SLT PUSH2 0x301 JUMPI PUSH1 0x20 PUSH1 0x40 MLOAD PUSH32 0xD59B2497EBC6A7B17400211976B8406E1F8B300D75EF805D3C4031AE66DCDF1E DUP2 MSTORE RETURN JUMPDEST CALLVALUE PUSH2 0x301 JUMPI PUSH1 0x40 CALLDATASIZE PUSH1 0x3 NOT ADD SLT PUSH2 0x301 JUMPI PUSH2 0xAC5 PUSH1 0x4 CALLDATALOAD PUSH2 0x2A02 PUSH2 0x3433 JUMP JUMPDEST SWAP1 PUSH2 0x2A1E PUSH2 0xABB DUP3 PUSH1 0x0 MSTORE PUSH1 0x1 PUSH1 0x20 MSTORE PUSH1 0x1 PUSH1 0x40 PUSH1 0x0 KECCAK256 ADD SLOAD SWAP1 JUMP JUMPDEST PUSH2 0x3F16 JUMP JUMPDEST CALLVALUE PUSH2 0x301 JUMPI PUSH1 0x20 CALLDATASIZE PUSH1 0x3 NOT ADD SLT PUSH2 0x301 JUMPI PUSH1 0x1 PUSH1 0x1 PUSH1 0xA0 SHL SUB PUSH2 0x2A44 PUSH2 0x341D JUMP JUMPDEST AND PUSH1 0x0 MSTORE PUSH1 0x9 PUSH1 0x20 MSTORE PUSH1 0x20 PUSH1 0x40 PUSH1 0x0 KECCAK256 SLOAD PUSH1 0x40 MLOAD SWAP1 DUP2 MSTORE RETURN JUMPDEST CALLVALUE PUSH2 0x301 JUMPI PUSH1 0x20 CALLDATASIZE PUSH1 0x3 NOT ADD SLT PUSH2 0x301 JUMPI PUSH1 0x4 CALLDATALOAD PUSH2 0x2A79 PUSH2 0x3C82 JUMP JUMPDEST DUP1 ISZERO ISZERO DUP1 PUSH2 0x2BDB JUMPI JUMPDEST PUSH2 0x2A8B SWAP1 PUSH2 0x3A37 JUMP JUMPDEST DUP1 PUSH1 0x0 MSTORE PUSH1 0xC PUSH1 0x20 MSTORE PUSH1 0x40 PUSH1 0x0 KECCAK256 PUSH2 0x2AB9 PUSH1 0xFF PUSH1 0xB DUP4 ADD SLOAD PUSH2 0x2AAF DUP3 DUP3 AND ISZERO PUSH2 0x3A76 JUMP JUMPDEST PUSH1 0x8 SHR AND ISZERO PUSH2 0x3AB5 JUMP JUMPDEST PUSH1 0xE DUP2 ADD SWAP1 DUP2 SLOAD SWAP1 PUSH1 0xFF DUP3 AND PUSH2 0x2BA3 JUMPI PUSH1 0xD DUP2 ADD SLOAD PUSH3 0x93A80 DUP2 ADD DUP1 SWAP2 GT PUSH2 0x1672 JUMPI PUSH2 0x2AE7 SWAP1 TIMESTAMP GT ISZERO PUSH2 0x3AB5 JUMP JUMPDEST PUSH1 0xC ADD DUP1 SLOAD SWAP1 PUSH1 0x0 JUMPDEST DUP3 DUP2 LT PUSH2 0x2B34 JUMPI PUSH1 0x1 PUSH1 0xFF NOT DUP6 AND OR DUP6 SSTORE PUSH1 0x40 DUP1 MLOAD DUP8 DUP2 MSTORE CALLER PUSH1 0x20 DUP3 ADD MSTORE PUSH32 0x56BDDA336A8BB949A57770A7CDE5B62BD8913D11D9DDE767735DB889A609692F SWAP2 SWAP1 LOG1 STOP JUMPDEST PUSH2 0x2B3E DUP2 DUP4 PUSH2 0x34C2 JUMP JUMPDEST SWAP1 SLOAD PUSH1 0x3 SWAP2 SWAP1 SWAP2 SHL SHR PUSH1 0x1 PUSH1 0x1 PUSH1 0xA0 SHL SUB AND CALLER EQ PUSH2 0x2B5E JUMPI PUSH1 0x1 ADD PUSH2 0x2AF0 JUMP JUMPDEST PUSH1 0x40 MLOAD PUSH3 0x461BCD PUSH1 0xE5 SHL DUP2 MSTORE PUSH1 0x20 PUSH1 0x4 DUP3 ADD MSTORE PUSH1 0x1D PUSH1 0x24 DUP3 ADD MSTORE PUSH32 0x43616E6E6F742072656A65637420616674657220617070726F76696E67000000 PUSH1 0x44 DUP3 ADD MSTORE PUSH1 0x64 SWAP1 REVERT JUMPDEST PUSH1 0x40 MLOAD PUSH3 0x461BCD PUSH1 0xE5 SHL DUP2 MSTORE PUSH1 0x20 PUSH1 0x4 DUP3 ADD MSTORE PUSH1 0x10 PUSH1 0x24 DUP3 ADD MSTORE PUSH16 0x105B1C9958591E481C995A9958DD1959 PUSH1 0x82 SHL PUSH1 0x44 DUP3 ADD MSTORE PUSH1 0x64 SWAP1 REVERT JUMPDEST POP PUSH1 0xB SLOAD DUP2 GT ISZERO PUSH2 0x2A82 JUMP JUMPDEST CALLVALUE PUSH2 0x301 JUMPI PUSH1 0x20 CALLDATASIZE PUSH1 0x3 NOT ADD SLT PUSH2 0x301 JUMPI PUSH1 0x4 CALLDATALOAD PUSH1 0x6 SLOAD DUP2 LT ISZERO PUSH2 0x301 JUMPI PUSH2 0x2C10 PUSH1 0x20 SWAP2 PUSH2 0x34A7 JUMP JUMPDEST SWAP1 SLOAD PUSH1 0x40 MLOAD PUSH1 0x3 SWAP3 SWAP1 SWAP3 SHL SHR PUSH1 0x1 PUSH1 0x1 PUSH1 0xA0 SHL SUB AND DUP2 MSTORE RETURN JUMPDEST CALLVALUE PUSH2 0x301 JUMPI PUSH1 0x20 CALLDATASIZE PUSH1 0x3 NOT ADD SLT PUSH2 0x301 JUMPI PUSH1 0x4 CALLDATALOAD PUSH1 0x0 MSTORE PUSH1 0xC PUSH1 0x20 MSTORE PUSH2 0x3DA PUSH2 0x3CE PUSH1 0x2 PUSH1 0x40 PUSH1 0x0 KECCAK256 ADD PUSH2 0x39E3 JUMP JUMPDEST CALLVALUE PUSH2 0x301 JUMPI PUSH1 0x20 CALLDATASIZE PUSH1 0x3 NOT ADD SLT PUSH2 0x301 JUMPI PUSH1 0x20 PUSH2 0x2C85 PUSH1 0x4 CALLDATALOAD PUSH1 0x0 MSTORE PUSH1 0x1 PUSH1 0x20 MSTORE PUSH1 0x1 PUSH1 0x40 PUSH1 0x0 KECCAK256 ADD SLOAD SWAP1 JUMP JUMPDEST PUSH1 0x40 MLOAD SWAP1 DUP2 MSTORE RETURN JUMPDEST CALLVALUE PUSH2 0x301 JUMPI PUSH1 0x40 CALLDATASIZE PUSH1 0x3 NOT ADD SLT PUSH2 0x301 JUMPI PUSH1 0x20 PUSH2 0x2C85 PUSH2 0x2CAB PUSH2 0x341D JUMP JUMPDEST PUSH2 0x2CB3 PUSH2 0x3433 JUMP JUMPDEST SWAP1 PUSH2 0x37E6 JUMP JUMPDEST CALLVALUE PUSH2 0x301 JUMPI PUSH1 0x20 CALLDATASIZE PUSH1 0x3 NOT ADD SLT PUSH2 0x301 JUMPI PUSH1 0x4 CALLDATALOAD PUSH1 0x7 SLOAD DUP2 LT ISZERO PUSH2 0x301 JUMPI PUSH2 0x2C10 PUSH1 0x20 SWAP2 PUSH2 0x3476 JUMP JUMPDEST CALLVALUE PUSH2 0x301 JUMPI PUSH1 0x20 CALLDATASIZE PUSH1 0x3 NOT ADD SLT PUSH2 0x301 JUMPI PUSH1 0x4 CALLDATALOAD PUSH2 0x2CFE PUSH2 0x3C82 JUMP JUMPDEST PUSH1 0x1 PUSH1 0x1 PUSH1 0x80 SHL SUB DUP2 GT PUSH2 0x2D6C JUMPI PUSH2 0x2D17 PUSH1 0xB SLOAD PUSH2 0x36A2 JUMP JUMPDEST DUP1 PUSH1 0xB SSTORE PUSH1 0x0 MSTORE PUSH1 0xC PUSH1 0x20 MSTORE PUSH1 0x40 PUSH1 0x0 KECCAK256 SWAP1 PUSH1 0xFF NOT DUP3 SLOAD AND DUP3 SSTORE PUSH1 0x1 DUP3 ADD SSTORE PUSH1 0xD TIMESTAMP SWAP2 ADD SSTORE PUSH2 0x534 PUSH1 0xB SLOAD PUSH1 0x0 DUP1 MLOAD PUSH1 0x20 PUSH2 0x42D1 DUP4 CODECOPY DUP2 MLOAD SWAP2 MSTORE PUSH1 0x60 PUSH1 0x40 MLOAD DUP4 DUP2 MSTORE CALLER PUSH1 0x20 DUP3 ADD MSTORE PUSH1 0x0 PUSH1 0x40 DUP3 ADD MSTORE LOG1 PUSH2 0x3D0D JUMP JUMPDEST PUSH1 0x40 MLOAD PUSH3 0x461BCD PUSH1 0xE5 SHL DUP2 MSTORE PUSH1 0x20 PUSH1 0x4 DUP3 ADD MSTORE PUSH1 0xD PUSH1 0x24 DUP3 ADD MSTORE PUSH13 0xA4C2E8CA40E8DEDE40D0D2CED PUSH1 0x9B SHL PUSH1 0x44 DUP3 ADD MSTORE PUSH1 0x64 SWAP1 REVERT JUMPDEST CALLVALUE PUSH2 0x301 JUMPI PUSH1 0x80 CALLDATASIZE PUSH1 0x3 NOT ADD SLT PUSH2 0x301 JUMPI PUSH2 0x2DBA PUSH2 0x341D JUMP JUMPDEST PUSH1 0x24 CALLDATALOAD PUSH1 0x1 PUSH1 0x1 PUSH1 0x40 SHL SUB DUP2 GT PUSH2 0x301 JUMPI PUSH2 0x2DD9 SWAP1 CALLDATASIZE SWAP1 PUSH1 0x4 ADD PUSH2 0x3449 JUMP JUMPDEST PUSH1 0x44 SWAP3 SWAP2 SWAP3 CALLDATALOAD PUSH1 0x1 PUSH1 0x1 PUSH1 0x40 SHL SUB DUP2 GT PUSH2 0x301 JUMPI PUSH2 0x2DFB SWAP1 CALLDATASIZE SWAP1 PUSH1 0x4 ADD PUSH2 0x3449 JUMP JUMPDEST SWAP1 SWAP4 PUSH1 0x64 CALLDATALOAD SWAP3 PUSH2 0x2E09 PUSH2 0x3C82 JUMP JUMPDEST PUSH1 0x1 PUSH1 0x1 PUSH1 0xA0 SHL SUB DUP6 AND ISZERO PUSH2 0x3154 JUMPI DUP4 ISZERO PUSH2 0x310F JUMPI PUSH2 0x2E33 PUSH9 0x3635C9ADC5DEA00000 DUP6 GT ISZERO PUSH2 0x36B1 JUMP JUMPDEST DUP1 ISZERO PUSH2 0x30D8 JUMPI PUSH1 0x20 DUP2 GT PUSH2 0x309E JUMPI DUP3 ISZERO PUSH2 0x3063 JUMPI PUSH2 0x2E54 PUSH1 0x20 DUP5 GT ISZERO PUSH2 0x36F6 JUMP JUMPDEST PUSH2 0x2E5F PUSH1 0xB SLOAD PUSH2 0x36A2 JUMP JUMPDEST DUP1 PUSH1 0xB SSTORE PUSH1 0x0 MSTORE PUSH1 0xC PUSH1 0x20 MSTORE PUSH1 0x40 PUSH1 0x0 KECCAK256 SWAP5 PUSH1 0x2 PUSH1 0xFF NOT DUP8 SLOAD AND OR DUP7 SSTORE PUSH1 0x4 DUP7 ADD SWAP1 PUSH1 0x1 DUP1 PUSH1 0xA0 SHL SUB AND PUSH1 0x1 PUSH1 0x1 PUSH1 0x60 SHL SUB PUSH1 0xA0 SHL DUP3 SLOAD AND OR SWAP1 SSTORE PUSH1 0x5 DUP6 ADD SWAP2 PUSH1 0x1 PUSH1 0x1 PUSH1 0x40 SHL SUB DUP3 GT PUSH2 0x8A2 JUMPI PUSH2 0x2EBB DUP3 PUSH2 0x118C DUP6 SLOAD PUSH2 0x355E JUMP JUMPDEST PUSH1 0x0 SWAP1 PUSH1 0x1F DUP4 GT PUSH1 0x1 EQ PUSH2 0x2FFF JUMPI PUSH2 0x2EEB SWAP3 SWAP2 PUSH1 0x0 SWAP2 DUP4 PUSH2 0x2FF4 JUMPI POP POP DUP2 PUSH1 0x1 SHL SWAP2 PUSH1 0x0 NOT SWAP1 PUSH1 0x3 SHL SHR NOT AND OR SWAP1 JUMP JUMPDEST SWAP1 SSTORE JUMPDEST PUSH1 0x6 DUP4 ADD SWAP1 PUSH1 0x1 PUSH1 0x1 PUSH1 0x40 SHL SUB DUP2 GT PUSH2 0x8A2 JUMPI PUSH2 0x2F15 DUP2 PUSH2 0x2F0F DUP5 SLOAD PUSH2 0x355E JUMP JUMPDEST DUP5 PUSH2 0x3752 JUMP JUMPDEST PUSH1 0x0 PUSH1 0x1F DUP3 GT PUSH1 0x1 EQ PUSH2 0x2F90 JUMPI DUP2 SWAP1 PUSH2 0x2F47 SWAP4 SWAP5 SWAP6 SWAP7 PUSH1 0x0 SWAP3 PUSH2 0x2F85 JUMPI POP POP DUP2 PUSH1 0x1 SHL SWAP2 PUSH1 0x0 NOT SWAP1 PUSH1 0x3 SHL SHR NOT AND OR SWAP1 JUMP JUMPDEST SWAP1 SSTORE JUMPDEST PUSH1 0x7 DUP3 ADD SSTORE PUSH1 0xD TIMESTAMP SWAP2 ADD SSTORE PUSH2 0x534 PUSH1 0xB SLOAD PUSH1 0x0 DUP1 MLOAD PUSH1 0x20 PUSH2 0x42D1 DUP4 CODECOPY DUP2 MLOAD SWAP2 MSTORE PUSH1 0x60 PUSH1 0x40 MLOAD DUP4 DUP2 MSTORE CALLER PUSH1 0x20 DUP3 ADD MSTORE PUSH1 0x2 PUSH1 0x40 DUP3 ADD MSTORE LOG1 PUSH2 0x3D0D JUMP JUMPDEST ADD CALLDATALOAD SWAP1 POP DUP7 DUP1 PUSH2 0x11AE JUMP JUMPDEST PUSH1 0x1F NOT DUP3 AND SWAP6 DUP4 DUP3 MSTORE PUSH1 0x20 DUP3 KECCAK256 SWAP2 DUP1 JUMPDEST DUP9 DUP2 LT PUSH2 0x2FDC JUMPI POP DUP4 PUSH1 0x1 SWAP6 SWAP7 SWAP8 SWAP9 LT PUSH2 0x2FC2 JUMPI JUMPDEST POP POP POP DUP2 SHL ADD SWAP1 SSTORE PUSH2 0x2F4A JUMP JUMPDEST ADD CALLDATALOAD PUSH1 0x0 NOT PUSH1 0x3 DUP5 SWAP1 SHL PUSH1 0xF8 AND SHR NOT AND SWAP1 SSTORE DUP6 DUP1 DUP1 PUSH2 0x2FB5 JUMP JUMPDEST SWAP1 SWAP3 PUSH1 0x20 PUSH1 0x1 DUP2 SWAP3 DUP7 DUP7 ADD CALLDATALOAD DUP2 SSTORE ADD SWAP5 ADD SWAP2 ADD PUSH2 0x2FA0 JUMP JUMPDEST ADD CALLDATALOAD SWAP1 POP DUP9 DUP1 PUSH2 0x11AE JUMP JUMPDEST DUP4 DUP3 MSTORE PUSH1 0x20 DUP3 KECCAK256 SWAP2 PUSH1 0x1F NOT DUP5 AND DUP2 JUMPDEST DUP2 DUP2 LT PUSH2 0x304B JUMPI POP SWAP1 DUP5 PUSH1 0x1 SWAP6 SWAP5 SWAP4 SWAP3 LT PUSH2 0x3031 JUMPI JUMPDEST POP POP POP DUP2 SHL ADD SWAP1 SSTORE PUSH2 0x2EEE JUMP JUMPDEST ADD CALLDATALOAD PUSH1 0x0 NOT PUSH1 0x3 DUP5 SWAP1 SHL PUSH1 0xF8 AND SHR NOT AND SWAP1 SSTORE DUP8 DUP1 DUP1 PUSH2 0x3024 JUMP JUMPDEST SWAP2 SWAP4 PUSH1 0x20 PUSH1 0x1 DUP2 SWAP3 DUP8 DUP8 ADD CALLDATALOAD DUP2 SSTORE ADD SWAP6 ADD SWAP3 ADD PUSH2 0x300E JUMP JUMPDEST PUSH1 0x40 MLOAD PUSH3 0x461BCD PUSH1 0xE5 SHL DUP2 MSTORE PUSH1 0x20 PUSH1 0x4 DUP3 ADD MSTORE PUSH1 0x13 PUSH1 0x24 DUP3 ADD MSTORE PUSH19 0x456D70747920706C6174666F726D206E616D65 PUSH1 0x68 SHL PUSH1 0x44 DUP3 ADD MSTORE PUSH1 0x64 SWAP1 REVERT JUMPDEST PUSH1 0x40 MLOAD PUSH3 0x461BCD PUSH1 0xE5 SHL DUP2 MSTORE PUSH1 0x20 PUSH1 0x4 DUP3 ADD MSTORE PUSH1 0x12 PUSH1 0x24 DUP3 ADD MSTORE PUSH18 0x50616972206E616D6520746F6F206C6F6E67 PUSH1 0x70 SHL PUSH1 0x44 DUP3 ADD MSTORE PUSH1 0x64 SWAP1 REVERT JUMPDEST PUSH1 0x40 MLOAD PUSH3 0x461BCD PUSH1 0xE5 SHL DUP2 MSTORE PUSH1 0x20 PUSH1 0x4 DUP3 ADD MSTORE PUSH1 0xF PUSH1 0x24 DUP3 ADD MSTORE PUSH15 0x456D7074792070616972206E616D65 PUSH1 0x88 SHL PUSH1 0x44 DUP3 ADD MSTORE PUSH1 0x64 SWAP1 REVERT JUMPDEST PUSH1 0x40 MLOAD PUSH3 0x461BCD PUSH1 0xE5 SHL DUP2 MSTORE PUSH1 0x20 PUSH1 0x4 DUP3 ADD MSTORE PUSH1 0x1D PUSH1 0x24 DUP3 ADD MSTORE PUSH32 0x576569676874206D7573742062652067726561746572207468616E2030000000 PUSH1 0x44 DUP3 ADD MSTORE PUSH1 0x64 SWAP1 REVERT JUMPDEST PUSH1 0x40 MLOAD PUSH3 0x461BCD PUSH1 0xE5 SHL DUP2 MSTORE PUSH1 0x20 PUSH1 0x4 DUP3 ADD MSTORE PUSH1 0xC PUSH1 0x24 DUP3 ADD MSTORE PUSH12 0x24B73B30B634B2103830B4B9 PUSH1 0xA1 SHL PUSH1 0x44 DUP3 ADD MSTORE PUSH1 0x64 SWAP1 REVERT JUMPDEST CALLVALUE PUSH2 0x301 JUMPI PUSH1 0x40 CALLDATASIZE PUSH1 0x3 NOT ADD SLT PUSH2 0x301 JUMPI PUSH2 0x31A1 PUSH2 0x341D JUMP JUMPDEST PUSH1 0x24 CALLDATALOAD PUSH2 0x31AC PUSH2 0x3C82 JUMP JUMPDEST PUSH1 0x1 PUSH1 0x1 PUSH1 0xA0 SHL SUB DUP3 AND ISZERO PUSH2 0x3385 JUMPI DUP1 ISZERO PUSH2 0x3341 JUMPI PUSH1 0x2 SLOAD PUSH1 0x40 MLOAD PUSH4 0x70A08231 PUSH1 0xE0 SHL DUP2 MSTORE ADDRESS PUSH1 0x4 DUP3 ADD MSTORE SWAP1 PUSH1 0x20 SWAP1 DUP3 SWAP1 PUSH1 0x24 SWAP1 DUP3 SWAP1 PUSH1 0x1 PUSH1 0x1 PUSH1 0xA0 SHL SUB AND GAS STATICCALL SWAP1 DUP2 ISZERO PUSH2 0x16BA JUMPI PUSH1 0x0 SWAP2 PUSH2 0x330F JUMPI JUMPDEST POP DUP2 GT PUSH2 0x32CA JUMPI PUSH1 0x1 PUSH1 0x1 PUSH1 0x80 SHL SUB DUP2 GT PUSH2 0x3292 JUMPI PUSH2 0x321C PUSH1 0xB SLOAD PUSH2 0x36A2 JUMP JUMPDEST DUP1 PUSH1 0xB SSTORE PUSH1 0x0 MSTORE PUSH1 0xC PUSH1 0x20 MSTORE PUSH1 0x40 PUSH1 0x0 KECCAK256 SWAP2 PUSH1 0x5 PUSH1 0xFF NOT DUP5 SLOAD AND OR DUP4 SSTORE PUSH1 0x9 DUP4 ADD SWAP1 PUSH1 0x1 DUP1 PUSH1 0xA0 SHL SUB AND PUSH1 0x1 PUSH1 0x1 PUSH1 0x60 SHL SUB PUSH1 0xA0 SHL DUP3 SLOAD AND OR SWAP1 SSTORE PUSH1 0xA DUP3 ADD SSTORE PUSH1 0xD TIMESTAMP SWAP2 ADD SSTORE PUSH2 0x534 PUSH1 0xB SLOAD PUSH1 0x0 DUP1 MLOAD PUSH1 0x20 PUSH2 0x42D1 DUP4 CODECOPY DUP2 MLOAD SWAP2 MSTORE PUSH1 0x60 PUSH1 0x40 MLOAD DUP4 DUP2 MSTORE CALLER PUSH1 0x20 DUP3 ADD MSTORE PUSH1 0x5 PUSH1 0x40 DUP3 ADD MSTORE LOG1 PUSH2 0x3D0D JUMP JUMPDEST PUSH1 0x40 MLOAD PUSH3 0x461BCD PUSH1 0xE5 SHL DUP2 MSTORE PUSH1 0x20 PUSH1 0x4 DUP3 ADD MSTORE PUSH1 0x10 PUSH1 0x24 DUP3 ADD MSTORE PUSH16 0x416D6F756E7420746F6F206C61726765 PUSH1 0x80 SHL PUSH1 0x44 DUP3 ADD MSTORE PUSH1 0x64 SWAP1 REVERT JUMPDEST PUSH1 0x40 MLOAD PUSH3 0x461BCD PUSH1 0xE5 SHL DUP2 MSTORE PUSH1 0x20 PUSH1 0x4 DUP3 ADD MSTORE PUSH1 0x1F PUSH1 0x24 DUP3 ADD MSTORE PUSH32 0x416D6F756E74206578636565647320636F6E74726163742062616C616E636500 PUSH1 0x44 DUP3 ADD MSTORE PUSH1 0x64 SWAP1 REVERT JUMPDEST SWAP1 POP PUSH1 0x20 DUP2 RETURNDATASIZE PUSH1 0x20 GT PUSH2 0x3339 JUMPI JUMPDEST DUP2 PUSH2 0x332A PUSH1 0x20 SWAP4 DUP4 PUSH2 0x3651 JUMP JUMPDEST DUP2 ADD SUB SLT PUSH2 0x301 JUMPI MLOAD DUP4 PUSH2 0x31FC JUMP JUMPDEST RETURNDATASIZE SWAP2 POP PUSH2 0x331D JUMP JUMPDEST PUSH1 0x64 PUSH1 0x40 MLOAD PUSH3 0x461BCD PUSH1 0xE5 SHL DUP2 MSTORE PUSH1 0x20 PUSH1 0x4 DUP3 ADD MSTORE PUSH1 0x20 PUSH1 0x24 DUP3 ADD MSTORE PUSH32 0x416D6F756E74206D7573742062652067726561746572207468616E207A65726F PUSH1 0x44 DUP3 ADD MSTORE REVERT JUMPDEST PUSH1 0x40 MLOAD PUSH3 0x461BCD PUSH1 0xE5 SHL DUP2 MSTORE PUSH1 0x20 PUSH1 0x4 DUP3 ADD MSTORE PUSH1 0x19 PUSH1 0x24 DUP3 ADD MSTORE PUSH32 0x496E76616C696420726563697069656E74206164647265737300000000000000 PUSH1 0x44 DUP3 ADD MSTORE PUSH1 0x64 SWAP1 REVERT JUMPDEST CALLVALUE PUSH2 0x301 JUMPI PUSH1 0x20 CALLDATASIZE PUSH1 0x3 NOT ADD SLT PUSH2 0x301 JUMPI PUSH1 0x4 CALLDATALOAD SWAP1 PUSH4 0xFFFFFFFF PUSH1 0xE0 SHL DUP3 AND DUP1 SWAP3 SUB PUSH2 0x301 JUMPI PUSH1 0x20 SWAP2 PUSH4 0x7965DB0B PUSH1 0xE0 SHL DUP2 EQ SWAP1 DUP2 ISZERO PUSH2 0x340C JUMPI JUMPDEST POP ISZERO ISZERO DUP2 MSTORE RETURN JUMPDEST PUSH4 0x1FFC9A7 PUSH1 0xE0 SHL EQ SWAP1 POP DUP4 PUSH2 0x3405 JUMP JUMPDEST PUSH1 0x4 CALLDATALOAD SWAP1 PUSH1 0x1 PUSH1 0x1 PUSH1 0xA0 SHL SUB DUP3 AND DUP3 SUB PUSH2 0x301 JUMPI JUMP JUMPDEST PUSH1 0x24 CALLDATALOAD SWAP1 PUSH1 0x1 PUSH1 0x1 PUSH1 0xA0 SHL SUB DUP3 AND DUP3 SUB PUSH2 0x301 JUMPI JUMP JUMPDEST SWAP2 DUP2 PUSH1 0x1F DUP5 ADD SLT ISZERO PUSH2 0x301 JUMPI DUP3 CALLDATALOAD SWAP2 PUSH1 0x1 PUSH1 0x1 PUSH1 0x40 SHL SUB DUP4 GT PUSH2 0x301 JUMPI PUSH1 0x20 DUP4 DUP2 DUP7 ADD SWAP6 ADD ADD GT PUSH2 0x301 JUMPI JUMP JUMPDEST PUSH1 0x7 SLOAD DUP2 LT ISZERO PUSH2 0x3491 JUMPI PUSH1 0x7 PUSH1 0x0 MSTORE PUSH1 0x20 PUSH1 0x0 KECCAK256 ADD SWAP1 PUSH1 0x0 SWAP1 JUMP JUMPDEST PUSH4 0x4E487B71 PUSH1 0xE0 SHL PUSH1 0x0 MSTORE PUSH1 0x32 PUSH1 0x4 MSTORE PUSH1 0x24 PUSH1 0x0 REVERT JUMPDEST PUSH1 0x6 SLOAD DUP2 LT ISZERO PUSH2 0x3491 JUMPI PUSH1 0x6 PUSH1 0x0 MSTORE PUSH1 0x20 PUSH1 0x0 KECCAK256 ADD SWAP1 PUSH1 0x0 SWAP1 JUMP JUMPDEST DUP1 SLOAD DUP3 LT ISZERO PUSH2 0x3491 JUMPI PUSH1 0x0 MSTORE PUSH1 0x20 PUSH1 0x0 KECCAK256 ADD SWAP1 PUSH1 0x0 SWAP1 JUMP JUMPDEST PUSH1 0x20 PUSH1 0x40 DUP2 DUP4 ADD SWAP3 DUP3 DUP2 MSTORE DUP5 MLOAD DUP1 SWAP5 MSTORE ADD SWAP3 ADD SWAP1 PUSH1 0x0 JUMPDEST DUP2 DUP2 LT PUSH2 0x34FE JUMPI POP POP POP SWAP1 JUMP JUMPDEST DUP3 MLOAD PUSH1 0x1 PUSH1 0x1 PUSH1 0xA0 SHL SUB AND DUP5 MSTORE PUSH1 0x20 SWAP4 DUP5 ADD SWAP4 SWAP1 SWAP3 ADD SWAP2 PUSH1 0x1 ADD PUSH2 0x34F1 JUMP JUMPDEST SWAP2 SWAP1 DUP3 MLOAD SWAP3 DUP4 DUP3 MSTORE PUSH1 0x0 JUMPDEST DUP5 DUP2 LT PUSH2 0x3549 JUMPI POP POP DUP3 PUSH1 0x0 PUSH1 0x20 DUP1 SWAP5 SWAP6 DUP5 ADD ADD MSTORE PUSH1 0x1F DUP1 NOT SWAP2 ADD AND ADD ADD SWAP1 JUMP JUMPDEST DUP1 PUSH1 0x20 DUP1 SWAP3 DUP5 ADD ADD MLOAD DUP3 DUP3 DUP7 ADD ADD MSTORE ADD PUSH2 0x3528 JUMP JUMPDEST SWAP1 PUSH1 0x1 DUP3 DUP2 SHR SWAP3 AND DUP1 ISZERO PUSH2 0x358E JUMPI JUMPDEST PUSH1 0x20 DUP4 LT EQ PUSH2 0x3578 JUMPI JUMP JUMPDEST PUSH4 0x4E487B71 PUSH1 0xE0 SHL PUSH1 0x0 MSTORE PUSH1 0x22 PUSH1 0x4 MSTORE PUSH1 0x24 PUSH1 0x0 REVERT JUMPDEST SWAP2 PUSH1 0x7F AND SWAP2 PUSH2 0x356D JUMP JUMPDEST PUSH1 0x0 SWAP3 SWAP2 DUP2 SLOAD SWAP2 PUSH2 0x35A8 DUP4 PUSH2 0x355E JUMP JUMPDEST DUP1 DUP4 MSTORE SWAP3 PUSH1 0x1 DUP2 AND SWAP1 DUP2 ISZERO PUSH2 0x35FE JUMPI POP PUSH1 0x1 EQ PUSH2 0x35C4 JUMPI POP POP POP JUMP JUMPDEST PUSH1 0x0 SWAP1 DUP2 MSTORE PUSH1 0x20 DUP2 KECCAK256 SWAP4 SWAP5 POP SWAP2 SWAP3 JUMPDEST DUP4 DUP4 LT PUSH2 0x35E4 JUMPI POP PUSH1 0x20 SWAP3 POP ADD ADD SWAP1 JUMP JUMPDEST PUSH1 0x1 DUP2 PUSH1 0x20 SWAP3 SWAP5 SWAP4 SWAP5 SLOAD DUP4 DUP6 DUP8 ADD ADD MSTORE ADD SWAP2 ADD SWAP2 SWAP1 PUSH2 0x35D3 JUMP JUMPDEST SWAP2 POP POP PUSH1 0x20 SWAP4 SWAP5 POP PUSH1 0xFF SWAP3 SWAP2 SWAP3 NOT AND DUP4 DUP4 ADD MSTORE ISZERO ISZERO PUSH1 0x5 SHL ADD ADD SWAP1 JUMP JUMPDEST PUSH1 0xA0 DUP2 ADD SWAP1 DUP2 LT PUSH1 0x1 PUSH1 0x1 PUSH1 0x40 SHL SUB DUP3 GT OR PUSH2 0x8A2 JUMPI PUSH1 0x40 MSTORE JUMP JUMPDEST PUSH1 0x80 DUP2 ADD SWAP1 DUP2 LT PUSH1 0x1 PUSH1 0x1 PUSH1 0x40 SHL SUB DUP3 GT OR PUSH2 0x8A2 JUMPI PUSH1 0x40 MSTORE JUMP JUMPDEST SWAP1 PUSH1 0x1F DUP1 NOT SWAP2 ADD AND DUP2 ADD SWAP1 DUP2 LT PUSH1 0x1 PUSH1 0x1 PUSH1 0x40 SHL SUB DUP3 GT OR PUSH2 0x8A2 JUMPI PUSH1 0x40 MSTORE JUMP JUMPDEST SWAP2 DUP2 PUSH1 0x1F DUP5 ADD SLT ISZERO PUSH2 0x301 JUMPI DUP3 CALLDATALOAD SWAP2 PUSH1 0x1 PUSH1 0x1 PUSH1 0x40 SHL SUB DUP4 GT PUSH2 0x301 JUMPI PUSH1 0x20 DUP1 DUP6 ADD SWAP5 DUP5 PUSH1 0x5 SHL ADD ADD GT PUSH2 0x301 JUMPI JUMP JUMPDEST PUSH1 0x0 NOT DUP2 EQ PUSH2 0x1672 JUMPI PUSH1 0x1 ADD SWAP1 JUMP JUMPDEST ISZERO PUSH2 0x36B8 JUMPI JUMP JUMPDEST PUSH1 0x40 MLOAD PUSH3 0x461BCD PUSH1 0xE5 SHL DUP2 MSTORE PUSH1 0x20 PUSH1 0x4 DUP3 ADD MSTORE PUSH1 0x16 PUSH1 0x24 DUP3 ADD MSTORE PUSH22 0x5765696768742065786365656473206D6178696D756D PUSH1 0x50 SHL PUSH1 0x44 DUP3 ADD MSTORE PUSH1 0x64 SWAP1 REVERT JUMPDEST ISZERO PUSH2 0x36FD JUMPI JUMP JUMPDEST PUSH1 0x40 MLOAD PUSH3 0x461BCD PUSH1 0xE5 SHL DUP2 MSTORE PUSH1 0x20 PUSH1 0x4 DUP3 ADD MSTORE PUSH1 0x16 PUSH1 0x24 DUP3 ADD MSTORE PUSH22 0x506C6174666F726D206E616D6520746F6F206C6F6E67 PUSH1 0x50 SHL PUSH1 0x44 DUP3 ADD MSTORE PUSH1 0x64 SWAP1 REVERT JUMPDEST DUP2 DUP2 LT PUSH2 0x3746 JUMPI POP POP JUMP JUMPDEST PUSH1 0x0 DUP2 SSTORE PUSH1 0x1 ADD PUSH2 0x373B JUMP JUMPDEST SWAP2 SWAP1 PUSH1 0x1F DUP2 GT PUSH2 0x3761 JUMPI POP POP POP JUMP JUMPDEST PUSH2 0x378D SWAP3 PUSH1 0x0 MSTORE PUSH1 0x20 PUSH1 0x0 KECCAK256 SWAP1 PUSH1 0x20 PUSH1 0x1F DUP5 ADD PUSH1 0x5 SHR DUP4 ADD SWAP4 LT PUSH2 0x378F JUMPI JUMPDEST PUSH1 0x1F ADD PUSH1 0x5 SHR ADD SWAP1 PUSH2 0x373B JUMP JUMPDEST JUMP JUMPDEST SWAP1 SWAP2 POP DUP2 SWAP1 PUSH2 0x3780 JUMP JUMPDEST SWAP2 SWAP1 DUP3 SUB SWAP2 DUP3 GT PUSH2 0x1672 JUMPI JUMP JUMPDEST DUP2 ISZERO PUSH2 0x37B0 JUMPI DIV SWAP1 JUMP JUMPDEST PUSH4 0x4E487B71 PUSH1 0xE0 SHL PUSH1 0x0 MSTORE PUSH1 0x12 PUSH1 0x4 MSTORE PUSH1 0x24 PUSH1 0x0 REVERT JUMPDEST DUP2 DUP2 MUL SWAP3 SWAP2 DUP2 ISZERO SWAP2 DUP5 DIV EQ OR ISZERO PUSH2 0x1672 JUMPI JUMP JUMPDEST SWAP2 SWAP1 DUP3 ADD DUP1 SWAP3 GT PUSH2 0x1672 JUMPI JUMP JUMPDEST PUSH1 0x1 PUSH1 0x1 PUSH1 0xA0 SHL SUB SWAP1 DUP2 AND PUSH1 0x0 SWAP1 DUP2 MSTORE PUSH1 0x5 PUSH1 0x20 SWAP1 DUP2 MSTORE PUSH1 0x40 DUP1 DUP4 KECCAK256 SWAP5 SWAP1 SWAP4 AND DUP1 DUP4 MSTORE SWAP4 DUP2 MSTORE DUP3 DUP3 KECCAK256 PUSH1 0x8 DUP3 MSTORE DUP4 DUP4 KECCAK256 SLOAD PUSH1 0x9 SWAP1 SWAP3 MSTORE SWAP3 SWAP1 SWAP2 KECCAK256 SLOAD SWAP1 SWAP3 SWAP1 TIMESTAMP GT DUP1 PUSH2 0x397D JUMPI JUMPDEST DUP1 PUSH2 0x3972 JUMPI JUMPDEST PUSH2 0x386E JUMPI JUMPDEST POP PUSH1 0x2 PUSH8 0xDE0B6B3A7640000 PUSH2 0x3861 PUSH2 0x386B SWAP5 PUSH2 0x385B DUP6 SLOAD SWAP2 PUSH1 0x3 DUP8 ADD SLOAD SWAP1 PUSH2 0x3799 JUMP JUMPDEST SWAP1 PUSH2 0x37C6 JUMP JUMPDEST DIV SWAP2 ADD SLOAD SWAP1 PUSH2 0x37D9 JUMP JUMPDEST SWAP1 JUMP JUMPDEST SWAP2 DUP3 PUSH1 0x0 MSTORE PUSH1 0x9 PUSH1 0x20 MSTORE PUSH2 0x38BD PUSH2 0x38B4 PUSH2 0x389C PUSH2 0x3890 PUSH1 0x40 PUSH1 0x0 KECCAK256 SLOAD TIMESTAMP PUSH2 0x3799 JUMP JUMPDEST PUSH2 0xE10 PUSH1 0x3 SLOAD DIV PUSH2 0x37C6 JUMP JUMPDEST DUP6 PUSH1 0x0 MSTORE PUSH1 0x4 PUSH1 0x20 MSTORE PUSH1 0x3 PUSH1 0x40 PUSH1 0x0 KECCAK256 ADD SLOAD SWAP1 PUSH2 0x37C6 JUMP JUMPDEST PUSH1 0xA SLOAD SWAP1 PUSH2 0x37A6 JUMP JUMPDEST PUSH8 0xDE0B6B3A7640000 DUP2 MUL SWAP1 DUP1 DUP3 DIV PUSH8 0xDE0B6B3A7640000 EQ SWAP1 ISZERO OR ISZERO PUSH2 0x1672 JUMPI PUSH1 0x20 PUSH1 0x24 SWAP5 PUSH1 0x40 MLOAD SWAP6 DUP7 DUP1 SWAP3 PUSH4 0x70A08231 PUSH1 0xE0 SHL DUP3 MSTORE ADDRESS PUSH1 0x4 DUP4 ADD MSTORE GAS STATICCALL SWAP4 DUP5 ISZERO PUSH2 0x16BA JUMPI PUSH1 0x0 SWAP5 PUSH2 0x393A JUMPI JUMPDEST POP PUSH2 0x3861 PUSH2 0x3931 PUSH1 0x2 SWAP4 PUSH2 0x392B PUSH2 0x386B SWAP8 PUSH8 0xDE0B6B3A7640000 SWAP6 PUSH2 0x37A6 JUMP JUMPDEST SWAP1 PUSH2 0x37D9 JUMP JUMPDEST SWAP5 POP POP POP PUSH2 0x3837 JUMP JUMPDEST SWAP4 POP SWAP1 PUSH1 0x20 DUP5 RETURNDATASIZE PUSH1 0x20 GT PUSH2 0x396A JUMPI JUMPDEST DUP2 PUSH2 0x3956 PUSH1 0x20 SWAP4 DUP4 PUSH2 0x3651 JUMP JUMPDEST DUP2 ADD SUB SLT PUSH2 0x301 JUMPI SWAP3 MLOAD SWAP3 SWAP1 PUSH2 0x3861 PUSH2 0x390B JUMP JUMPDEST RETURNDATASIZE SWAP2 POP PUSH2 0x3949 JUMP JUMPDEST POP PUSH1 0xA SLOAD ISZERO ISZERO PUSH2 0x3832 JUMP JUMPDEST POP PUSH1 0x40 MLOAD PUSH4 0x70A08231 PUSH1 0xE0 SHL DUP2 MSTORE ADDRESS PUSH1 0x4 DUP3 ADD MSTORE PUSH1 0x20 DUP2 PUSH1 0x24 DUP2 DUP6 GAS STATICCALL SWAP1 DUP2 ISZERO PUSH2 0x16BA JUMPI PUSH1 0x0 SWAP2 PUSH2 0x39B1 JUMPI JUMPDEST POP ISZERO ISZERO PUSH2 0x382C JUMP JUMPDEST SWAP1 POP PUSH1 0x20 DUP2 RETURNDATASIZE PUSH1 0x20 GT PUSH2 0x39DB JUMPI JUMPDEST DUP2 PUSH2 0x39CC PUSH1 0x20 SWAP4 DUP4 PUSH2 0x3651 JUMP JUMPDEST DUP2 ADD SUB SLT PUSH2 0x301 JUMPI MLOAD CODESIZE PUSH2 0x39A9 JUMP JUMPDEST RETURNDATASIZE SWAP2 POP PUSH2 0x39BF JUMP JUMPDEST SWAP1 PUSH1 0x40 MLOAD SWAP2 DUP3 DUP2 SLOAD SWAP2 DUP3 DUP3 MSTORE PUSH1 0x20 DUP3 ADD SWAP1 PUSH1 0x0 MSTORE PUSH1 0x20 PUSH1 0x0 KECCAK256 SWAP3 PUSH1 0x0 JUMPDEST DUP2 DUP2 LT PUSH2 0x3A15 JUMPI POP POP PUSH2 0x378D SWAP3 POP SUB DUP4 PUSH2 0x3651 JUMP JUMPDEST DUP5 SLOAD PUSH1 0x1 PUSH1 0x1 PUSH1 0xA0 SHL SUB AND DUP4 MSTORE PUSH1 0x1 SWAP5 DUP6 ADD SWAP5 DUP8 SWAP5 POP PUSH1 0x20 SWAP1 SWAP4 ADD SWAP3 ADD PUSH2 0x3A00 JUMP JUMPDEST ISZERO PUSH2 0x3A3E JUMPI JUMP JUMPDEST PUSH1 0x40 MLOAD PUSH3 0x461BCD PUSH1 0xE5 SHL DUP2 MSTORE PUSH1 0x20 PUSH1 0x4 DUP3 ADD MSTORE PUSH1 0x10 PUSH1 0x24 DUP3 ADD MSTORE PUSH16 0x125B9D985B1A59081858DD1A5BDB9259 PUSH1 0x82 SHL PUSH1 0x44 DUP3 ADD MSTORE PUSH1 0x64 SWAP1 REVERT JUMPDEST ISZERO PUSH2 0x3A7D JUMPI JUMP JUMPDEST PUSH1 0x40 MLOAD PUSH3 0x461BCD PUSH1 0xE5 SHL DUP2 MSTORE PUSH1 0x20 PUSH1 0x4 DUP3 ADD MSTORE PUSH1 0x10 PUSH1 0x24 DUP3 ADD MSTORE PUSH16 0x105B1C9958591E48195E1958DD5D1959 PUSH1 0x82 SHL PUSH1 0x44 DUP3 ADD MSTORE PUSH1 0x64 SWAP1 REVERT JUMPDEST ISZERO PUSH2 0x3ABC JUMPI JUMP JUMPDEST PUSH1 0x40 MLOAD PUSH3 0x461BCD PUSH1 0xE5 SHL DUP2 MSTORE PUSH1 0x20 PUSH1 0x4 DUP3 ADD MSTORE PUSH1 0x12 PUSH1 0x24 DUP3 ADD MSTORE PUSH18 0x1058DD1A5BDB881A185CC8195E1C1A5C9959 PUSH1 0x72 SHL PUSH1 0x44 DUP3 ADD MSTORE PUSH1 0x64 SWAP1 REVERT JUMPDEST PUSH1 0x0 MSTORE PUSH1 0xC PUSH1 0x20 MSTORE PUSH1 0xD PUSH1 0x40 PUSH1 0x0 KECCAK256 ADD SLOAD PUSH3 0x93A80 DUP2 ADD DUP1 SWAP2 GT PUSH2 0x1672 JUMPI TIMESTAMP GT SWAP1 JUMP JUMPDEST PUSH1 0x1 PUSH1 0x1 PUSH1 0x40 SHL SUB DUP2 GT PUSH2 0x8A2 JUMPI PUSH1 0x5 SHL PUSH1 0x20 ADD SWAP1 JUMP JUMPDEST DUP1 MLOAD DUP3 LT ISZERO PUSH2 0x3491 JUMPI PUSH1 0x20 SWAP2 PUSH1 0x5 SHL ADD ADD SWAP1 JUMP JUMPDEST ISZERO PUSH2 0x3B4B JUMPI JUMP JUMPDEST PUSH1 0x40 MLOAD PUSH3 0x461BCD PUSH1 0xE5 SHL DUP2 MSTORE PUSH1 0x20 PUSH1 0x4 DUP3 ADD MSTORE PUSH1 0xF PUSH1 0x24 DUP3 ADD MSTORE PUSH15 0x50616972206E6F7420616374697665 PUSH1 0x88 SHL PUSH1 0x44 DUP3 ADD MSTORE PUSH1 0x64 SWAP1 REVERT JUMPDEST ISZERO PUSH2 0x3B89 JUMPI JUMP JUMPDEST PUSH1 0x40 MLOAD PUSH3 0x461BCD PUSH1 0xE5 SHL DUP2 MSTORE PUSH1 0x20 PUSH1 0x4 DUP3 ADD MSTORE PUSH1 0x13 PUSH1 0x24 DUP3 ADD MSTORE PUSH19 0x1058DD1A5BDB881DD85CC81C995A9958DD1959 PUSH1 0x6A SHL PUSH1 0x44 DUP3 ADD MSTORE PUSH1 0x64 SWAP1 REVERT JUMPDEST ISZERO PUSH2 0x3BCB JUMPI JUMP JUMPDEST PUSH1 0x40 MLOAD PUSH3 0x461BCD PUSH1 0xE5 SHL DUP2 MSTORE PUSH1 0x20 PUSH1 0x4 DUP3 ADD MSTORE PUSH1 0xE PUSH1 0x24 DUP3 ADD MSTORE PUSH14 0x546F6F206D616E79207061697273 PUSH1 0x90 SHL PUSH1 0x44 DUP3 ADD MSTORE PUSH1 0x64 SWAP1 REVERT JUMPDEST SWAP1 PUSH1 0x20 DUP3 SLOAD SWAP2 DUP3 DUP2 MSTORE ADD SWAP2 PUSH1 0x0 MSTORE PUSH1 0x20 PUSH1 0x0 KECCAK256 SWAP1 PUSH1 0x0 JUMPDEST DUP2 DUP2 LT PUSH2 0x3C25 JUMPI POP POP POP SWAP1 JUMP JUMPDEST DUP3 SLOAD DUP5 MSTORE PUSH1 0x20 SWAP1 SWAP4 ADD SWAP3 PUSH1 0x1 SWAP3 DUP4 ADD SWAP3 ADD PUSH2 0x3C18 JUMP JUMPDEST SWAP2 SWAP1 DUP2 LT ISZERO PUSH2 0x3491 JUMPI PUSH1 0x5 SHL ADD SWAP1 JUMP JUMPDEST CALLDATALOAD PUSH1 0x1 PUSH1 0x1 PUSH1 0xA0 SHL SUB DUP2 AND DUP2 SUB PUSH2 0x301 JUMPI SWAP1 JUMP JUMPDEST SWAP2 DUP2 DUP2 LT PUSH2 0x3C6C JUMPI POP POP POP JUMP JUMPDEST PUSH2 0x378D SWAP3 PUSH1 0x0 MSTORE PUSH1 0x20 PUSH1 0x0 KECCAK256 SWAP2 DUP3 ADD SWAP2 ADD PUSH2 0x373B JUMP JUMPDEST CALLER PUSH1 0x0 SWAP1 DUP2 MSTORE PUSH1 0x0 DUP1 MLOAD PUSH1 0x20 PUSH2 0x42F1 DUP4 CODECOPY DUP2 MLOAD SWAP2 MSTORE PUSH1 0x20 MSTORE PUSH1 0x40 SWAP1 KECCAK256 SLOAD PUSH1 0xFF AND ISZERO PUSH2 0x3CA9 JUMPI JUMP JUMPDEST PUSH4 0xE2517D3F PUSH1 0xE0 SHL PUSH1 0x0 MSTORE CALLER PUSH1 0x4 MSTORE PUSH1 0x0 DUP1 MLOAD PUSH1 0x20 PUSH2 0x4311 DUP4 CODECOPY DUP2 MLOAD SWAP2 MSTORE PUSH1 0x24 MSTORE PUSH1 0x44 PUSH1 0x0 REVERT JUMPDEST PUSH1 0x0 DUP2 DUP2 MSTORE PUSH1 0x1 PUSH1 0x20 SWAP1 DUP2 MSTORE PUSH1 0x40 DUP1 DUP4 KECCAK256 CALLER DUP5 MSTORE SWAP1 SWAP2 MSTORE SWAP1 KECCAK256 SLOAD PUSH1 0xFF AND ISZERO PUSH2 0x3CF5 JUMPI POP JUMP JUMPDEST PUSH4 0xE2517D3F PUSH1 0xE0 SHL PUSH1 0x0 MSTORE CALLER PUSH1 0x4 MSTORE PUSH1 0x24 MSTORE PUSH1 0x44 PUSH1 0x0 REVERT JUMPDEST DUP1 PUSH1 0x0 MSTORE PUSH1 0xC PUSH1 0x20 MSTORE PUSH1 0x40 PUSH1 0x0 KECCAK256 PUSH1 0xB DUP2 ADD SWAP1 PUSH2 0x3D33 PUSH1 0xFF DUP4 SLOAD PUSH2 0x2AAF DUP3 DUP3 AND ISZERO PUSH2 0x3A76 JUMP JUMPDEST PUSH2 0x3D44 PUSH1 0xFF PUSH1 0xE DUP4 ADD SLOAD AND ISZERO PUSH2 0x3B82 JUMP JUMPDEST PUSH1 0xD DUP2 ADD SLOAD PUSH3 0x93A80 DUP2 ADD DUP1 SWAP2 GT PUSH2 0x1672 JUMPI PUSH2 0x3D62 SWAP1 TIMESTAMP GT ISZERO PUSH2 0x3AB5 JUMP JUMPDEST PUSH1 0xC ADD DUP1 SLOAD PUSH1 0x0 JUMPDEST DUP2 DUP2 LT PUSH2 0x3E16 JUMPI POP POP DUP1 SLOAD SWAP1 PUSH1 0x1 PUSH1 0x40 SHL DUP3 LT ISZERO PUSH2 0x8A2 JUMPI DUP2 PUSH2 0x3D95 SWAP2 PUSH1 0x1 PUSH2 0x3DB3 SWAP5 ADD DUP2 SSTORE PUSH2 0x34C2 JUMP JUMPDEST DUP2 SLOAD PUSH1 0x1 PUSH1 0x1 PUSH1 0xA0 SHL SUB PUSH1 0x3 SWAP3 SWAP1 SWAP3 SHL SWAP2 DUP3 SHL NOT AND CALLER SWAP1 SWAP2 SHL OR SWAP1 SSTORE JUMP JUMPDEST DUP1 SLOAD SWAP2 PUSH1 0xFF DUP4 PUSH1 0x10 SHR AND SWAP2 PUSH1 0xFF DUP4 EQ PUSH2 0x1672 JUMPI PUSH3 0xFF0000 NOT SWAP4 SWAP1 SWAP4 AND PUSH1 0x1 SWAP3 SWAP1 SWAP3 ADD PUSH1 0x10 SHL PUSH3 0xFF0000 AND SWAP2 SWAP1 SWAP2 OR SWAP1 SWAP2 SSTORE PUSH1 0x40 DUP1 MLOAD SWAP2 DUP3 MSTORE CALLER PUSH1 0x20 DUP4 ADD MSTORE PUSH32 0x13F5ED40F1478EB39CCC91C62E3E395DB4EA1B1AFC8928825652B67136B06044 SWAP2 LOG1 JUMP JUMPDEST PUSH2 0x3E20 DUP2 DUP5 PUSH2 0x34C2 JUMP JUMPDEST SWAP1 SLOAD PUSH1 0x3 SWAP2 SWAP1 SWAP2 SHL SHR PUSH1 0x1 PUSH1 0x1 PUSH1 0xA0 SHL SUB AND CALLER EQ PUSH2 0x3E40 JUMPI PUSH1 0x1 ADD PUSH2 0x3D6A JUMP JUMPDEST PUSH1 0x40 MLOAD PUSH3 0x461BCD PUSH1 0xE5 SHL DUP2 MSTORE PUSH1 0x20 PUSH1 0x4 DUP3 ADD MSTORE PUSH1 0x10 PUSH1 0x24 DUP3 ADD MSTORE PUSH16 0x105B1C9958591E48185C1C1C9BDD9959 PUSH1 0x82 SHL PUSH1 0x44 DUP3 ADD MSTORE PUSH1 0x64 SWAP1 REVERT JUMPDEST PUSH1 0x1 PUSH1 0x1 PUSH1 0xA0 SHL SUB DUP2 AND PUSH1 0x0 SWAP1 DUP2 MSTORE PUSH1 0x0 DUP1 MLOAD PUSH1 0x20 PUSH2 0x42F1 DUP4 CODECOPY DUP2 MLOAD SWAP2 MSTORE PUSH1 0x20 MSTORE PUSH1 0x40 SWAP1 KECCAK256 SLOAD PUSH1 0xFF AND PUSH2 0x3F10 JUMPI PUSH1 0x1 PUSH1 0x1 PUSH1 0xA0 SHL SUB AND PUSH1 0x0 DUP2 DUP2 MSTORE PUSH1 0x0 DUP1 MLOAD PUSH1 0x20 PUSH2 0x42F1 DUP4 CODECOPY DUP2 MLOAD SWAP2 MSTORE PUSH1 0x20 MSTORE PUSH1 0x40 DUP2 KECCAK256 DUP1 SLOAD PUSH1 0xFF NOT AND PUSH1 0x1 OR SWAP1 SSTORE CALLER SWAP2 SWAP1 PUSH1 0x0 DUP1 MLOAD PUSH1 0x20 PUSH2 0x4311 DUP4 CODECOPY DUP2 MLOAD SWAP2 MSTORE SWAP1 PUSH32 0x2F8788117E7EFF1D82E926EC794901D17C78024A50270940304540A733656F0D SWAP1 DUP1 LOG4 PUSH1 0x1 SWAP1 JUMP JUMPDEST POP PUSH1 0x0 SWAP1 JUMP JUMPDEST PUSH1 0x0 DUP2 DUP2 MSTORE PUSH1 0x1 PUSH1 0x20 SWAP1 DUP2 MSTORE PUSH1 0x40 DUP1 DUP4 KECCAK256 PUSH1 0x1 PUSH1 0x1 PUSH1 0xA0 SHL SUB DUP7 AND DUP5 MSTORE SWAP1 SWAP2 MSTORE SWAP1 KECCAK256 SLOAD PUSH1 0xFF AND PUSH2 0x3F9E JUMPI PUSH1 0x0 DUP2 DUP2 MSTORE PUSH1 0x1 PUSH1 0x20 DUP2 DUP2 MSTORE PUSH1 0x40 DUP1 DUP5 KECCAK256 PUSH1 0x1 PUSH1 0x1 PUSH1 0xA0 SHL SUB SWAP7 SWAP1 SWAP7 AND DUP1 DUP6 MSTORE SWAP6 SWAP1 SWAP2 MSTORE DUP3 KECCAK256 DUP1 SLOAD PUSH1 0xFF NOT AND SWAP1 SWAP2 OR SWAP1 SSTORE CALLER SWAP3 SWAP2 SWAP1 PUSH32 0x2F8788117E7EFF1D82E926EC794901D17C78024A50270940304540A733656F0D SWAP1 DUP1 LOG4 PUSH1 0x1 SWAP1 JUMP JUMPDEST POP POP PUSH1 0x0 SWAP1 JUMP JUMPDEST PUSH1 0x1 PUSH1 0x1 PUSH1 0xA0 SHL SUB DUP2 AND PUSH1 0x0 SWAP1 DUP2 MSTORE PUSH1 0x0 DUP1 MLOAD PUSH1 0x20 PUSH2 0x42F1 DUP4 CODECOPY DUP2 MLOAD SWAP2 MSTORE PUSH1 0x20 MSTORE PUSH1 0x40 SWAP1 KECCAK256 SLOAD PUSH1 0xFF AND ISZERO PUSH2 0x3F10 JUMPI PUSH1 0x1 PUSH1 0x1 PUSH1 0xA0 SHL SUB AND PUSH1 0x0 DUP2 DUP2 MSTORE PUSH1 0x0 DUP1 MLOAD PUSH1 0x20 PUSH2 0x42F1 DUP4 CODECOPY DUP2 MLOAD SWAP2 MSTORE PUSH1 0x20 MSTORE PUSH1 0x40 DUP2 KECCAK256 DUP1 SLOAD PUSH1 0xFF NOT AND SWAP1 SSTORE CALLER SWAP2 SWAP1 PUSH1 0x0 DUP1 MLOAD PUSH1 0x20 PUSH2 0x4311 DUP4 CODECOPY DUP2 MLOAD SWAP2 MSTORE SWAP1 PUSH32 0xF6391F5C32D9C69D2A47EA670B442974B53935D1EDC7FD64EB21E047A839171B SWAP1 DUP1 LOG4 PUSH1 0x1 SWAP1 JUMP JUMPDEST PUSH1 0x0 DUP2 DUP2 MSTORE PUSH1 0x1 PUSH1 0x20 SWAP1 DUP2 MSTORE PUSH1 0x40 DUP1 DUP4 KECCAK256 PUSH1 0x1 PUSH1 0x1 PUSH1 0xA0 SHL SUB DUP7 AND DUP5 MSTORE SWAP1 SWAP2 MSTORE SWAP1 KECCAK256 SLOAD PUSH1 0xFF AND ISZERO PUSH2 0x3F9E JUMPI PUSH1 0x0 DUP2 DUP2 MSTORE PUSH1 0x1 PUSH1 0x20 SWAP1 DUP2 MSTORE PUSH1 0x40 DUP1 DUP4 KECCAK256 PUSH1 0x1 PUSH1 0x1 PUSH1 0xA0 SHL SUB SWAP6 SWAP1 SWAP6 AND DUP1 DUP5 MSTORE SWAP5 SWAP1 SWAP2 MSTORE DUP2 KECCAK256 DUP1 SLOAD PUSH1 0xFF NOT AND SWAP1 SSTORE CALLER SWAP3 SWAP2 SWAP1 PUSH32 0xF6391F5C32D9C69D2A47EA670B442974B53935D1EDC7FD64EB21E047A839171B SWAP1 DUP1 LOG4 PUSH1 0x1 SWAP1 JUMP JUMPDEST PUSH1 0x2 PUSH1 0x0 SLOAD EQ PUSH2 0x40D2 JUMPI PUSH1 0x2 PUSH1 0x0 SSTORE JUMP JUMPDEST PUSH4 0x3EE5AEB5 PUSH1 0xE0 SHL PUSH1 0x0 MSTORE PUSH1 0x4 PUSH1 0x0 REVERT JUMPDEST PUSH1 0x40 MLOAD PUSH4 0x70A08231 PUSH1 0xE0 SHL DUP2 MSTORE ADDRESS PUSH1 0x4 DUP3 ADD MSTORE PUSH1 0x1 PUSH1 0x1 PUSH1 0xA0 SHL SUB SWAP2 SWAP1 SWAP2 AND SWAP1 PUSH1 0x20 DUP2 PUSH1 0x24 DUP2 DUP6 GAS STATICCALL SWAP1 DUP2 ISZERO PUSH2 0x16BA JUMPI PUSH1 0x0 SWAP2 PUSH2 0x41EA JUMPI JUMPDEST POP DUP2 PUSH1 0x0 MSTORE PUSH1 0x9 PUSH1 0x20 MSTORE PUSH2 0x4134 PUSH1 0x40 PUSH1 0x0 KECCAK256 SLOAD TIMESTAMP PUSH2 0x3799 JUMP JUMPDEST DUP2 ISZERO ISZERO DUP1 PUSH2 0x41E1 JUMPI JUMPDEST DUP1 PUSH2 0x41D6 JUMPI JUMPDEST PUSH2 0x415B JUMPI JUMPDEST POP POP PUSH1 0x0 MSTORE PUSH1 0x9 PUSH1 0x20 MSTORE TIMESTAMP PUSH1 0x40 PUSH1 0x0 KECCAK256 SSTORE JUMP JUMPDEST PUSH2 0x38B4 PUSH2 0x4171 PUSH2 0x4189 SWAP3 PUSH2 0xE10 PUSH1 0x3 SLOAD DIV PUSH2 0x37C6 JUMP JUMPDEST DUP5 PUSH1 0x0 MSTORE PUSH1 0x4 PUSH1 0x20 MSTORE PUSH1 0x3 PUSH1 0x40 PUSH1 0x0 KECCAK256 ADD SLOAD SWAP1 PUSH2 0x37C6 JUMP JUMPDEST SWAP1 PUSH8 0xDE0B6B3A7640000 DUP3 MUL SWAP2 DUP1 DUP4 DIV PUSH8 0xDE0B6B3A7640000 EQ SWAP1 ISZERO OR ISZERO PUSH2 0x1672 JUMPI PUSH2 0x41B4 SWAP2 PUSH2 0x37A6 JUMP JUMPDEST DUP2 PUSH1 0x0 MSTORE PUSH1 0x8 PUSH1 0x20 MSTORE PUSH2 0x41CD PUSH1 0x40 PUSH1 0x0 KECCAK256 SWAP2 DUP3 SLOAD PUSH2 0x37D9 JUMP JUMPDEST SWAP1 SSTORE CODESIZE DUP1 PUSH2 0x4148 JUMP JUMPDEST POP PUSH1 0xA SLOAD ISZERO ISZERO PUSH2 0x4143 JUMP JUMPDEST POP DUP1 ISZERO ISZERO PUSH2 0x413D JUMP JUMPDEST SWAP1 PUSH1 0x20 DUP3 RETURNDATASIZE PUSH1 0x20 GT PUSH2 0x4214 JUMPI JUMPDEST DUP2 PUSH2 0x4204 PUSH1 0x20 SWAP4 DUP4 PUSH2 0x3651 JUMP JUMPDEST DUP2 ADD SUB SLT PUSH2 0x1927 JUMPI POP MLOAD CODESIZE PUSH2 0x411B JUMP JUMPDEST RETURNDATASIZE SWAP2 POP PUSH2 0x41F7 JUMP JUMPDEST PUSH1 0x40 MLOAD PUSH4 0xA9059CBB PUSH1 0xE0 SHL PUSH1 0x20 DUP3 ADD MSTORE PUSH1 0x1 PUSH1 0x1 PUSH1 0xA0 SHL SUB SWAP1 SWAP3 AND PUSH1 0x24 DUP4 ADD MSTORE PUSH1 0x44 DUP3 ADD SWAP3 SWAP1 SWAP3 MSTORE PUSH2 0x378D SWAP2 PUSH2 0x1B92 DUP3 PUSH1 0x64 DUP2 ADD PUSH2 0x1B84 JUMP JUMPDEST SWAP1 PUSH1 0x0 PUSH1 0x20 SWAP2 DUP3 DUP2 MLOAD SWAP2 ADD DUP3 DUP6 GAS CALL ISZERO PUSH2 0x16BA JUMPI PUSH1 0x0 MLOAD RETURNDATASIZE PUSH2 0x42A7 JUMPI POP PUSH1 0x1 PUSH1 0x1 PUSH1 0xA0 SHL SUB DUP2 AND EXTCODESIZE ISZERO JUMPDEST PUSH2 0x4286 JUMPI POP JUMP JUMPDEST PUSH4 0x5274AFE7 PUSH1 0xE0 SHL PUSH1 0x0 SWAP1 DUP2 MSTORE PUSH1 0x1 PUSH1 0x1 PUSH1 0xA0 SHL SUB SWAP2 SWAP1 SWAP2 AND PUSH1 0x4 MSTORE PUSH1 0x24 SWAP1 REVERT JUMPDEST PUSH1 0x1 EQ ISZERO PUSH2 0x427F JUMP INVALID PUSH29 0xD79380F59DCB9A2E87DB5E49009E2CB7FF8A3175BF8DB0137C71BD7ABE PUSH18 0x43FF1F23BC7538EF354DA69561506EEDC807 DUP11 PUSH28 0xCE7B70EF9877B7BBAD4F7CA37850EFBDE2D46C37E9785F1791697F77 0xE9 0x4B 0xB7 0xB7 ADD 0xE1 SWAP16 NOT ADDRESS 0xA6 PUSH9 0x820722D37694A49807 KECCAK256 TLOAD 0xE4 0xD3 SSTORE MULMOD 0x2E CREATE2 0xA8 LOG1 DUP16 JUMP 0xE8 SWAP2 EXTCODECOPY DELEGATECALL LOG2 ADD 0xFB 0xE2 DUP8 DUP3 JUMPDEST MULMOD JUMP SWAP4 0xC2 OR PUSH22 0xA2646970667358221220592DF8E9D7BC84890988C6D7 DUP9 0xD2 0xE1 0xB0 SUB 0xA6 0xC8 LOG4 PUSH31 0x21CE9B0CB766E04D29266264736F6C634300081C00332F8788117E7EFF1D82 0xE9 0x26 0xEC PUSH26 0x4901D17C78024A50270940304540A733656F0DB98FEA3292A51D PUSH12 0xA303DD5EF6120A65C5E45F14 EXP 0x21 PUSH4 0xA75DE31 SUB TSTORE 0xB0 0xB1 SWAP10 POP 0xEF 0xBD 0xE2 0xD4 PUSH13 0x37E9785F1791697F77E94BB7B7 ADD 0xE1 SWAP16 NOT ADDRESS 0xA6 PUSH9 0x820722D37694000000 "
        },
        "methodIdentifiers": {
          "ADMIN_ROLE()": "75b238fc",
          "DEFAULT_ADMIN_ROLE()": "a217fddf",
          "MAX_PAIRS()": "996cf233",
          "MAX_WEIGHT()": "e4a28a52",
          "MIN_STAKE()": "cb1c2b5c",
          "OWNER_APPROVER_ROLE()": "3033c090",
          "PRECISION()": "aaf5eb68",
          "REQUIRED_APPROVALS()": "599c5533",
          "actionCounter()": "fdbd98b0",
          "actions(uint256)": "83240f83",
          "activePairs(uint256)": "28119ffa",
          "approveAction(uint256)": "3f8a46ee",
          "claimRewards(address)": "ef5cfb8c",
          "cleanupExpiredActions()": "7b9736b8",
          "earned(address,address)": "211dc32d",
          "executeAction(uint256)": "c0c1cf55",
          "getActionApproval(uint256)": "f80f4023",
          "getActionPairs(uint256)": "263a8c68",
          "getActionWeights(uint256)": "fafbc0f6",
          "getActivePairs()": "602baccc",
          "getPairInfo(address)": "d4ff73f7",
          "getPairs()": "767eb5ef",
          "getRoleAdmin(bytes32)": "248a9ca3",
          "getSigners()": "94cf795e",
          "getUserStakeInfo(address,address)": "d785b595",
          "getUserStakes(address)": "842e2981",
          "grantRole(bytes32,address)": "2f2ff15d",
          "handleExpiredAction(uint256)": "343a0b1c",
          "hasRole(bytes32,address)": "91d14854",
          "hourlyRewardRate()": "70ec86d5",
          "isActionExpired(uint256)": "69c28f7b",
          "lastUpdateTime(address)": "2ce9aead",
          "pairs(address)": "fe33b302",
          "proposeAddPair(address,string,string,uint256)": "170c3898",
          "proposeChangeSigner(address,address)": "f33d5647",
          "proposeRemovePair(address)": "53d61813",
          "proposeSetHourlyRewardRate(uint256)": "1a8254f5",
          "proposeUpdatePairWeights(address[],uint256[])": "e65f55b9",
          "proposeWithdrawRewards(address,uint256)": "14b9af55",
          "rejectAction(uint256)": "2b4b16b1",
          "renounceRole(bytes32,address)": "36568abe",
          "revokeRole(bytes32,address)": "d547741f",
          "rewardPerTokenStored(address)": "9ce43f90",
          "rewardToken()": "f7c618c1",
          "signers(uint256)": "2079fb9a",
          "stake(address,uint256)": "adc9772e",
          "supportsInterface(bytes4)": "01ffc9a7",
          "totalWeight()": "96c82e57",
          "unstake(address,uint256)": "c2a672e0",
          "userStakes(address,address)": "862d2d7c"
        }
      }
    }
  }
}