{
  "contracts/LPStaking.sol": {
    "LPStaking": {
      "abi": [
        {
          "inputs": [
            {
              "internalType": "address",
              "name": "_rewardToken",
              "type": "address"
            },
            {
              "internalType": "address[]",
              "name": "_initialSigners",
              "type": "address[]"
            }
          ],
          "stateMutability": "nonpayable",
          "type": "constructor"
        },
        {
          "inputs": [],
          "name": "AccessControlBadConfirmation",
          "type": "error"
        },
        {
          "inputs": [
            {
              "internalType": "address",
              "name": "account",
              "type": "address"
            },
            {
              "internalType": "bytes32",
              "name": "neededRole",
              "type": "bytes32"
            }
          ],
          "name": "AccessControlUnauthorizedAccount",
          "type": "error"
        },
        {
          "inputs": [],
          "name": "ReentrancyGuardReentrantCall",
          "type": "error"
        },
        {
          "inputs": [
            {
              "internalType": "address",
              "name": "token",
              "type": "address"
            }
          ],
          "name": "SafeERC20FailedOperation",
          "type": "error"
        },
        {
          "anonymous": false,
          "inputs": [
            {
              "indexed": false,
              "internalType": "uint256",
              "name": "actionId",
              "type": "uint256"
            },
            {
              "indexed": false,
              "internalType": "address",
              "name": "approver",
              "type": "address"
            }
          ],
          "name": "ActionApproved",
          "type": "event"
        },
        {
          "anonymous": false,
          "inputs": [
            {
              "indexed": false,
              "internalType": "uint256",
              "name": "actionId",
              "type": "uint256"
            }
          ],
          "name": "ActionExecuted",
          "type": "event"
        },
        {
          "anonymous": false,
          "inputs": [
            {
              "indexed": false,
              "internalType": "uint256",
              "name": "actionId",
              "type": "uint256"
            }
          ],
          "name": "ActionExpired",
          "type": "event"
        },
        {
          "anonymous": false,
          "inputs": [
            {
              "indexed": false,
              "internalType": "uint256",
              "name": "actionId",
              "type": "uint256"
            },
            {
              "indexed": false,
              "internalType": "address",
              "name": "proposer",
              "type": "address"
            },
            {
              "indexed": false,
              "internalType": "enum LPStaking.ActionType",
              "name": "actionType",
              "type": "uint8"
            }
          ],
          "name": "ActionProposed",
          "type": "event"
        },
        {
          "anonymous": false,
          "inputs": [
            {
              "indexed": false,
              "internalType": "uint256",
              "name": "actionId",
              "type": "uint256"
            },
            {
              "indexed": false,
              "internalType": "address",
              "name": "rejecter",
              "type": "address"
            }
          ],
          "name": "ActionRejected",
          "type": "event"
        },
        {
          "anonymous": false,
          "inputs": [
            {
              "indexed": false,
              "internalType": "uint256",
              "name": "newRate",
              "type": "uint256"
            }
          ],
          "name": "HourlyRateUpdated",
          "type": "event"
        },
        {
          "anonymous": false,
          "inputs": [
            {
              "indexed": false,
              "internalType": "address",
              "name": "lpToken",
              "type": "address"
            },
            {
              "indexed": false,
              "internalType": "string",
              "name": "platform",
              "type": "string"
            },
            {
              "indexed": false,
              "internalType": "uint256",
              "name": "weight",
              "type": "uint256"
            }
          ],
          "name": "PairAdded",
          "type": "event"
        },
        {
          "anonymous": false,
          "inputs": [
            {
              "indexed": false,
              "internalType": "address",
              "name": "lpToken",
              "type": "address"
            },
            {
              "indexed": false,
              "internalType": "string",
              "name": "pairName",
              "type": "string"
            }
          ],
          "name": "PairRemoved",
          "type": "event"
        },
        {
          "anonymous": false,
          "inputs": [
            {
              "indexed": false,
              "internalType": "address",
              "name": "user",
              "type": "address"
            },
            {
              "indexed": false,
              "internalType": "address",
              "name": "lpToken",
              "type": "address"
            },
            {
              "indexed": false,
              "internalType": "uint256",
              "name": "amount",
              "type": "uint256"
            }
          ],
          "name": "RewardsClaimed",
          "type": "event"
        },
        {
          "anonymous": false,
          "inputs": [
            {
              "indexed": false,
              "internalType": "address",
              "name": "recipient",
              "type": "address"
            },
            {
              "indexed": false,
              "internalType": "uint256",
              "name": "amount",
              "type": "uint256"
            }
          ],
          "name": "RewardsWithdrawn",
          "type": "event"
        },
        {
          "anonymous": false,
          "inputs": [
            {
              "indexed": true,
              "internalType": "bytes32",
              "name": "role",
              "type": "bytes32"
            },
            {
              "indexed": true,
              "internalType": "bytes32",
              "name": "previousAdminRole",
              "type": "bytes32"
            },
            {
              "indexed": true,
              "internalType": "bytes32",
              "name": "newAdminRole",
              "type": "bytes32"
            }
          ],
          "name": "RoleAdminChanged",
          "type": "event"
        },
        {
          "anonymous": false,
          "inputs": [
            {
              "indexed": true,
              "internalType": "bytes32",
              "name": "role",
              "type": "bytes32"
            },
            {
              "indexed": true,
              "internalType": "address",
              "name": "account",
              "type": "address"
            },
            {
              "indexed": true,
              "internalType": "address",
              "name": "sender",
              "type": "address"
            }
          ],
          "name": "RoleGranted",
          "type": "event"
        },
        {
          "anonymous": false,
          "inputs": [
            {
              "indexed": true,
              "internalType": "bytes32",
              "name": "role",
              "type": "bytes32"
            },
            {
              "indexed": true,
              "internalType": "address",
              "name": "account",
              "type": "address"
            },
            {
              "indexed": true,
              "internalType": "address",
              "name": "sender",
              "type": "address"
            }
          ],
          "name": "RoleRevoked",
          "type": "event"
        },
        {
          "anonymous": false,
          "inputs": [
            {
              "indexed": false,
              "internalType": "address",
              "name": "oldSigner",
              "type": "address"
            },
            {
              "indexed": false,
              "internalType": "address",
              "name": "newSigner",
              "type": "address"
            }
          ],
          "name": "SignerChanged",
          "type": "event"
        },
        {
          "anonymous": false,
          "inputs": [
            {
              "indexed": false,
              "internalType": "address",
              "name": "user",
              "type": "address"
            },
            {
              "indexed": false,
              "internalType": "address",
              "name": "lpToken",
              "type": "address"
            },
            {
              "indexed": false,
              "internalType": "uint256",
              "name": "amount",
              "type": "uint256"
            }
          ],
          "name": "StakeAdded",
          "type": "event"
        },
        {
          "anonymous": false,
          "inputs": [
            {
              "indexed": false,
              "internalType": "address",
              "name": "user",
              "type": "address"
            },
            {
              "indexed": false,
              "internalType": "address",
              "name": "lpToken",
              "type": "address"
            },
            {
              "indexed": false,
              "internalType": "uint256",
              "name": "amount",
              "type": "uint256"
            }
          ],
          "name": "StakeRemoved",
          "type": "event"
        },
        {
          "anonymous": false,
          "inputs": [
            {
              "indexed": false,
              "internalType": "address[]",
              "name": "pairs",
              "type": "address[]"
            },
            {
              "indexed": false,
              "internalType": "uint256[]",
              "name": "weights",
              "type": "uint256[]"
            }
          ],
          "name": "WeightsUpdated",
          "type": "event"
        },
        {
          "inputs": [],
          "name": "ADMIN_ROLE",
          "outputs": [
            {
              "internalType": "bytes32",
              "name": "",
              "type": "bytes32"
            }
          ],
          "stateMutability": "view",
          "type": "function"
        },
        {
          "inputs": [],
          "name": "DEFAULT_ADMIN_ROLE",
          "outputs": [
            {
              "internalType": "bytes32",
              "name": "",
              "type": "bytes32"
            }
          ],
          "stateMutability": "view",
          "type": "function"
        },
        {
          "inputs": [],
          "name": "MAX_PAIRS",
          "outputs": [
            {
              "internalType": "uint256",
              "name": "",
              "type": "uint256"
            }
          ],
          "stateMutability": "view",
          "type": "function"
        },
        {
          "inputs": [],
          "name": "MAX_WEIGHT",
          "outputs": [
            {
              "internalType": "uint256",
              "name": "",
              "type": "uint256"
            }
          ],
          "stateMutability": "view",
          "type": "function"
        },
        {
          "inputs": [],
          "name": "MIN_STAKE",
          "outputs": [
            {
              "internalType": "uint256",
              "name": "",
              "type": "uint256"
            }
          ],
          "stateMutability": "view",
          "type": "function"
        },
        {
          "inputs": [],
          "name": "OWNER_APPROVER_ROLE",
          "outputs": [
            {
              "internalType": "bytes32",
              "name": "",
              "type": "bytes32"
            }
          ],
          "stateMutability": "view",
          "type": "function"
        },
        {
          "inputs": [],
          "name": "PRECISION",
          "outputs": [
            {
              "internalType": "uint256",
              "name": "",
              "type": "uint256"
            }
          ],
          "stateMutability": "view",
          "type": "function"
        },
        {
          "inputs": [],
          "name": "REQUIRED_APPROVALS",
          "outputs": [
            {
              "internalType": "uint256",
              "name": "",
              "type": "uint256"
            }
          ],
          "stateMutability": "view",
          "type": "function"
        },
        {
          "inputs": [],
          "name": "actionCounter",
          "outputs": [
            {
              "internalType": "uint256",
              "name": "",
              "type": "uint256"
            }
          ],
          "stateMutability": "view",
          "type": "function"
        },
        {
          "inputs": [
            {
              "internalType": "uint256",
              "name": "",
              "type": "uint256"
            }
          ],
          "name": "actions",
          "outputs": [
            {
              "internalType": "enum LPStaking.ActionType",
              "name": "actionType",
              "type": "uint8"
            },
            {
              "internalType": "uint256",
              "name": "newHourlyRewardRate",
              "type": "uint256"
            },
            {
              "internalType": "address",
              "name": "pairToAdd",
              "type": "address"
            },
            {
              "internalType": "string",
              "name": "pairNameToAdd",
              "type": "string"
            },
            {
              "internalType": "string",
              "name": "platformToAdd",
              "type": "string"
            },
            {
              "internalType": "uint256",
              "name": "weightToAdd",
              "type": "uint256"
            },
            {
              "internalType": "address",
              "name": "pairToRemove",
              "type": "address"
            },
            {
              "internalType": "address",
              "name": "recipient",
              "type": "address"
            },
            {
              "internalType": "uint256",
              "name": "withdrawAmount",
              "type": "uint256"
            },
            {
              "internalType": "bool",
              "name": "executed",
              "type": "bool"
            },
            {
              "internalType": "bool",
              "name": "expired",
              "type": "bool"
            },
            {
              "internalType": "uint8",
              "name": "approvals",
              "type": "uint8"
            },
            {
              "internalType": "uint256",
              "name": "proposedTime",
              "type": "uint256"
            },
            {
              "internalType": "bool",
              "name": "rejected",
              "type": "bool"
            }
          ],
          "stateMutability": "view",
          "type": "function"
        },
        {
          "inputs": [
            {
              "internalType": "uint256",
              "name": "",
              "type": "uint256"
            }
          ],
          "name": "activePairs",
          "outputs": [
            {
              "internalType": "address",
              "name": "",
              "type": "address"
            }
          ],
          "stateMutability": "view",
          "type": "function"
        },
        {
          "inputs": [
            {
              "internalType": "uint256",
              "name": "actionId",
              "type": "uint256"
            }
          ],
          "name": "approveAction",
          "outputs": [],
          "stateMutability": "nonpayable",
          "type": "function"
        },
        {
          "inputs": [
            {
              "internalType": "address",
              "name": "lpToken",
              "type": "address"
            }
          ],
          "name": "claimRewards",
          "outputs": [],
          "stateMutability": "nonpayable",
          "type": "function"
        },
        {
          "inputs": [],
          "name": "cleanupExpiredActions",
          "outputs": [],
          "stateMutability": "nonpayable",
          "type": "function"
        },
        {
          "inputs": [
            {
              "internalType": "address",
              "name": "user",
              "type": "address"
            },
            {
              "internalType": "address",
              "name": "lpToken",
              "type": "address"
            }
          ],
          "name": "earned",
          "outputs": [
            {
              "internalType": "uint256",
              "name": "",
              "type": "uint256"
            }
          ],
          "stateMutability": "view",
          "type": "function"
        },
        {
          "inputs": [
            {
              "internalType": "uint256",
              "name": "actionId",
              "type": "uint256"
            }
          ],
          "name": "executeAction",
          "outputs": [],
          "stateMutability": "nonpayable",
          "type": "function"
        },
        {
          "inputs": [
            {
              "internalType": "uint256",
              "name": "actionId",
              "type": "uint256"
            }
          ],
          "name": "getActionApproval",
          "outputs": [
            {
              "internalType": "address[]",
              "name": "",
              "type": "address[]"
            }
          ],
          "stateMutability": "view",
          "type": "function"
        },
        {
          "inputs": [
            {
              "internalType": "uint256",
              "name": "actionId",
              "type": "uint256"
            }
          ],
          "name": "getActionPairs",
          "outputs": [
            {
              "internalType": "address[]",
              "name": "",
              "type": "address[]"
            }
          ],
          "stateMutability": "view",
          "type": "function"
        },
        {
          "inputs": [
            {
              "internalType": "uint256",
              "name": "actionId",
              "type": "uint256"
            }
          ],
          "name": "getActionWeights",
          "outputs": [
            {
              "internalType": "uint256[]",
              "name": "",
              "type": "uint256[]"
            }
          ],
          "stateMutability": "view",
          "type": "function"
        },
        {
          "inputs": [],
          "name": "getActivePairs",
          "outputs": [
            {
              "internalType": "address[]",
              "name": "",
              "type": "address[]"
            }
          ],
          "stateMutability": "view",
          "type": "function"
        },
        {
          "inputs": [
            {
              "internalType": "address",
              "name": "lpToken",
              "type": "address"
            }
          ],
          "name": "getPairInfo",
          "outputs": [
            {
              "internalType": "contract IERC20",
              "name": "token",
              "type": "address"
            },
            {
              "internalType": "string",
              "name": "platform",
              "type": "string"
            },
            {
              "internalType": "uint256",
              "name": "weight",
              "type": "uint256"
            },
            {
              "internalType": "bool",
              "name": "isActive",
              "type": "bool"
            }
          ],
          "stateMutability": "view",
          "type": "function"
        },
        {
          "inputs": [],
          "name": "getPairs",
          "outputs": [
            {
              "components": [
                {
                  "internalType": "contract IERC20",
                  "name": "lpToken",
                  "type": "address"
                },
                {
                  "internalType": "string",
                  "name": "pairName",
                  "type": "string"
                },
                {
                  "internalType": "string",
                  "name": "platform",
                  "type": "string"
                },
                {
                  "internalType": "uint256",
                  "name": "weight",
                  "type": "uint256"
                },
                {
                  "internalType": "bool",
                  "name": "isActive",
                  "type": "bool"
                }
              ],
              "internalType": "struct LPStaking.LiquidityPair[]",
              "name": "",
              "type": "tuple[]"
            }
          ],
          "stateMutability": "view",
          "type": "function"
        },
        {
          "inputs": [
            {
              "internalType": "bytes32",
              "name": "role",
              "type": "bytes32"
            }
          ],
          "name": "getRoleAdmin",
          "outputs": [
            {
              "internalType": "bytes32",
              "name": "",
              "type": "bytes32"
            }
          ],
          "stateMutability": "view",
          "type": "function"
        },
        {
          "inputs": [],
          "name": "getSigners",
          "outputs": [
            {
              "internalType": "address[]",
              "name": "",
              "type": "address[]"
            }
          ],
          "stateMutability": "view",
          "type": "function"
        },
        {
          "inputs": [
            {
              "internalType": "address",
              "name": "user",
              "type": "address"
            },
            {
              "internalType": "address",
              "name": "lpToken",
              "type": "address"
            }
          ],
          "name": "getUserStakeInfo",
          "outputs": [
            {
              "internalType": "uint256",
              "name": "amount",
              "type": "uint256"
            },
            {
              "internalType": "uint256",
              "name": "pendingRewards",
              "type": "uint256"
            },
            {
              "internalType": "uint256",
              "name": "lastRewardTime",
              "type": "uint256"
            }
          ],
          "stateMutability": "view",
          "type": "function"
        },
        {
          "inputs": [
            {
              "internalType": "address",
              "name": "user",
              "type": "address"
            }
          ],
          "name": "getUserStakes",
          "outputs": [
            {
              "components": [
                {
                  "internalType": "uint256",
                  "name": "amount",
                  "type": "uint256"
                },
                {
                  "internalType": "uint256",
                  "name": "lastRewardTime",
                  "type": "uint256"
                },
                {
                  "internalType": "uint256",
                  "name": "pendingRewards",
                  "type": "uint256"
                },
                {
                  "internalType": "uint256",
                  "name": "rewardPerTokenPaid",
                  "type": "uint256"
                }
              ],
              "internalType": "struct LPStaking.UserStake[]",
              "name": "",
              "type": "tuple[]"
            }
          ],
          "stateMutability": "view",
          "type": "function"
        },
        {
          "inputs": [
            {
              "internalType": "bytes32",
              "name": "role",
              "type": "bytes32"
            },
            {
              "internalType": "address",
              "name": "account",
              "type": "address"
            }
          ],
          "name": "grantRole",
          "outputs": [],
          "stateMutability": "nonpayable",
          "type": "function"
        },
        {
          "inputs": [
            {
              "internalType": "uint256",
              "name": "actionId",
              "type": "uint256"
            }
          ],
          "name": "handleExpiredAction",
          "outputs": [],
          "stateMutability": "nonpayable",
          "type": "function"
        },
        {
          "inputs": [
            {
              "internalType": "bytes32",
              "name": "role",
              "type": "bytes32"
            },
            {
              "internalType": "address",
              "name": "account",
              "type": "address"
            }
          ],
          "name": "hasRole",
          "outputs": [
            {
              "internalType": "bool",
              "name": "",
              "type": "bool"
            }
          ],
          "stateMutability": "view",
          "type": "function"
        },
        {
          "inputs": [],
          "name": "hourlyRewardRate",
          "outputs": [
            {
              "internalType": "uint256",
              "name": "",
              "type": "uint256"
            }
          ],
          "stateMutability": "view",
          "type": "function"
        },
        {
          "inputs": [
            {
              "internalType": "uint256",
              "name": "actionId",
              "type": "uint256"
            }
          ],
          "name": "isActionExpired",
          "outputs": [
            {
              "internalType": "bool",
              "name": "",
              "type": "bool"
            }
          ],
          "stateMutability": "view",
          "type": "function"
        },
        {
          "inputs": [
            {
              "internalType": "address",
              "name": "",
              "type": "address"
            }
          ],
          "name": "lastUpdateTime",
          "outputs": [
            {
              "internalType": "uint256",
              "name": "",
              "type": "uint256"
            }
          ],
          "stateMutability": "view",
          "type": "function"
        },
        {
          "inputs": [
            {
              "internalType": "address",
              "name": "",
              "type": "address"
            }
          ],
          "name": "pairs",
          "outputs": [
            {
              "internalType": "contract IERC20",
              "name": "lpToken",
              "type": "address"
            },
            {
              "internalType": "string",
              "name": "pairName",
              "type": "string"
            },
            {
              "internalType": "string",
              "name": "platform",
              "type": "string"
            },
            {
              "internalType": "uint256",
              "name": "weight",
              "type": "uint256"
            },
            {
              "internalType": "bool",
              "name": "isActive",
              "type": "bool"
            }
          ],
          "stateMutability": "view",
          "type": "function"
        },
        {
          "inputs": [
            {
              "internalType": "address",
              "name": "lpToken",
              "type": "address"
            },
            {
              "internalType": "string",
              "name": "pairName",
              "type": "string"
            },
            {
              "internalType": "string",
              "name": "platform",
              "type": "string"
            },
            {
              "internalType": "uint256",
              "name": "weight",
              "type": "uint256"
            }
          ],
          "name": "proposeAddPair",
          "outputs": [
            {
              "internalType": "uint256",
              "name": "",
              "type": "uint256"
            }
          ],
          "stateMutability": "nonpayable",
          "type": "function"
        },
        {
          "inputs": [
            {
              "internalType": "address",
              "name": "oldSigner",
              "type": "address"
            },
            {
              "internalType": "address",
              "name": "newSigner",
              "type": "address"
            }
          ],
          "name": "proposeChangeSigner",
          "outputs": [
            {
              "internalType": "uint256",
              "name": "",
              "type": "uint256"
            }
          ],
          "stateMutability": "nonpayable",
          "type": "function"
        },
        {
          "inputs": [
            {
              "internalType": "address",
              "name": "lpToken",
              "type": "address"
            }
          ],
          "name": "proposeRemovePair",
          "outputs": [
            {
              "internalType": "uint256",
              "name": "",
              "type": "uint256"
            }
          ],
          "stateMutability": "nonpayable",
          "type": "function"
        },
        {
          "inputs": [
            {
              "internalType": "uint256",
              "name": "newRate",
              "type": "uint256"
            }
          ],
          "name": "proposeSetHourlyRewardRate",
          "outputs": [
            {
              "internalType": "uint256",
              "name": "",
              "type": "uint256"
            }
          ],
          "stateMutability": "nonpayable",
          "type": "function"
        },
        {
          "inputs": [
            {
              "internalType": "address[]",
              "name": "lpTokens",
              "type": "address[]"
            },
            {
              "internalType": "uint256[]",
              "name": "weights",
              "type": "uint256[]"
            }
          ],
          "name": "proposeUpdatePairWeights",
          "outputs": [
            {
              "internalType": "uint256",
              "name": "",
              "type": "uint256"
            }
          ],
          "stateMutability": "nonpayable",
          "type": "function"
        },
        {
          "inputs": [
            {
              "internalType": "address",
              "name": "recipient",
              "type": "address"
            },
            {
              "internalType": "uint256",
              "name": "amount",
              "type": "uint256"
            }
          ],
          "name": "proposeWithdrawRewards",
          "outputs": [
            {
              "internalType": "uint256",
              "name": "",
              "type": "uint256"
            }
          ],
          "stateMutability": "nonpayable",
          "type": "function"
        },
        {
          "inputs": [
            {
              "internalType": "uint256",
              "name": "actionId",
              "type": "uint256"
            }
          ],
          "name": "rejectAction",
          "outputs": [],
          "stateMutability": "nonpayable",
          "type": "function"
        },
        {
          "inputs": [
            {
              "internalType": "bytes32",
              "name": "role",
              "type": "bytes32"
            },
            {
              "internalType": "address",
              "name": "callerConfirmation",
              "type": "address"
            }
          ],
          "name": "renounceRole",
          "outputs": [],
          "stateMutability": "nonpayable",
          "type": "function"
        },
        {
          "inputs": [
            {
              "internalType": "bytes32",
              "name": "role",
              "type": "bytes32"
            },
            {
              "internalType": "address",
              "name": "account",
              "type": "address"
            }
          ],
          "name": "revokeRole",
          "outputs": [],
          "stateMutability": "nonpayable",
          "type": "function"
        },
        {
          "inputs": [
            {
              "internalType": "address",
              "name": "",
              "type": "address"
            }
          ],
          "name": "rewardPerTokenStored",
          "outputs": [
            {
              "internalType": "uint256",
              "name": "",
              "type": "uint256"
            }
          ],
          "stateMutability": "view",
          "type": "function"
        },
        {
          "inputs": [],
          "name": "rewardToken",
          "outputs": [
            {
              "internalType": "contract IERC20",
              "name": "",
              "type": "address"
            }
          ],
          "stateMutability": "view",
          "type": "function"
        },
        {
          "inputs": [
            {
              "internalType": "uint256",
              "name": "",
              "type": "uint256"
            }
          ],
          "name": "signers",
          "outputs": [
            {
              "internalType": "address",
              "name": "",
              "type": "address"
            }
          ],
          "stateMutability": "view",
          "type": "function"
        },
        {
          "inputs": [
            {
              "internalType": "address",
              "name": "lpToken",
              "type": "address"
            },
            {
              "internalType": "uint256",
              "name": "amount",
              "type": "uint256"
            }
          ],
          "name": "stake",
          "outputs": [],
          "stateMutability": "nonpayable",
          "type": "function"
        },
        {
          "inputs": [
            {
              "internalType": "bytes4",
              "name": "interfaceId",
              "type": "bytes4"
            }
          ],
          "name": "supportsInterface",
          "outputs": [
            {
              "internalType": "bool",
              "name": "",
              "type": "bool"
            }
          ],
          "stateMutability": "view",
          "type": "function"
        },
        {
          "inputs": [],
          "name": "totalWeight",
          "outputs": [
            {
              "internalType": "uint256",
              "name": "",
              "type": "uint256"
            }
          ],
          "stateMutability": "view",
          "type": "function"
        },
        {
          "inputs": [
            {
              "internalType": "address",
              "name": "lpToken",
              "type": "address"
            },
            {
              "internalType": "uint256",
              "name": "amount",
              "type": "uint256"
            }
          ],
          "name": "unstake",
          "outputs": [],
          "stateMutability": "nonpayable",
          "type": "function"
        },
        {
          "inputs": [
            {
              "internalType": "address",
              "name": "",
              "type": "address"
            },
            {
              "internalType": "address",
              "name": "",
              "type": "address"
            }
          ],
          "name": "userStakes",
          "outputs": [
            {
              "internalType": "uint256",
              "name": "amount",
              "type": "uint256"
            },
            {
              "internalType": "uint256",
              "name": "lastRewardTime",
              "type": "uint256"
            },
            {
              "internalType": "uint256",
              "name": "pendingRewards",
              "type": "uint256"
            },
            {
              "internalType": "uint256",
              "name": "rewardPerTokenPaid",
              "type": "uint256"
            }
          ],
          "stateMutability": "view",
          "type": "function"
        }
      ],
      "evm": {
        "bytecode": {
          "linkReferences": {},
          "object": "6080604052346102d55761494180380380610019816102da565b9283398101906040818303126102d557610032816102ff565b602082015190916001600160401b0382116102d557019082601f830112156102d5578151926001600160401b03841161021d578360051b9260206100778186016102da565b809681520190602082958201019283116102d557602001905b8282106102bd5750505060016000556004835103610278576001600160a01b0316801561023357600280546001600160a01b0319169190911790558151906001600160401b03821161021d5768010000000000000000821161021d57600754826007558083106101d7575b506007600052602060002060005b8381106101ba578461011a3361033d565b5060005b81518110156101ab576001600160a01b036101398284610313565b5116156101665760019061015f6001600160a01b036101588386610313565b51166103db565b500161011e565b60405162461bcd60e51b815260206004820152601660248201527f496e76616c6964207369676e65722061646472657373000000000000000000006044820152606490fd5b60405161446d90816104748239f35b82516001600160a01b031681830155602090920191600101610109565b60076000527fa66cc928b5edb82af9bd49922954155ab7b0942694bea4ce44661d9a8736c6889081019083015b81811061021157506100fb565b60008155600101610204565b634e487b7160e01b600052604160045260246000fd5b60405162461bcd60e51b815260206004820152601c60248201527f496e76616c69642072657761726420746f6b656e2061646472657373000000006044820152606490fd5b60405162461bcd60e51b815260206004820152601e60248201527f4d7573742070726f766964652065786163746c792034207369676e65727300006044820152606490fd5b602080916102ca846102ff565b815201910190610090565b600080fd5b6040519190601f01601f191682016001600160401b0381118382101761021d57604052565b51906001600160a01b03821682036102d557565b80518210156103275760209160051b010190565b634e487b7160e01b600052603260045260246000fd5b6001600160a01b0381166000908152600080516020614901833981519152602052604090205460ff166103d5576001600160a01b0316600081815260008051602061490183398151915260205260408120805460ff191660011790553391907fd59b2497ebc6a7b17400211976b8406e1f8b300d75ef805d3c4031ae66dcdf1e906000805160206148e18339815191529080a4600190565b50600090565b6001600160a01b0381166000908152600080516020614921833981519152602052604090205460ff166103d5576001600160a01b0316600081815260008051602061492183398151915260205260408120805460ff191660011790553391907fa49807205ce4d355092ef5a8a18f56e8913cf4a201fbe287825b095693c21775906000805160206148e18339815191529080a460019056fe608080604052600436101561001357600080fd5b60003560e01c90816301ffc9a7146133f55750806314b9af55146131b3578063170c389814612dcc5780631a8254f514612d0d5780632079fb9a14612ce4578063211dc32d14612cb8578063248a9ca314612c83578063263a8c6814612c5457806328119ffa14612c125780632b4b16b114612a885780632ce9aead14612a4e5780632f2ff15d14612a0e5780633033c090146129d3578063343a0b1c1461286257806336568abe1461281c5780633f8a46ee1461268857806353d618131461252d578063599c553314612511578063602baccc146124ae57806369c28f7b1461248657806370ec86d51461246857806375b238fc1461243f578063767eb5ef146122635780637b9736b8146121ab57806383240f831461207b578063842e298114611e47578063862d2d7c14611dd157806391d1485414611d8457806394cf795e14611d2157806396c82e5714611d03578063996cf23314611ce75780639ce43f9014611cad578063a217fddf14611c91578063aaf5eb6814611c6e578063adc9772e14611a70578063c0c1cf5514610d6b578063c2a672e014610b7b578063cb1c2b5c14610b59578063d4ff73f714610ac7578063d547741f14610a80578063d785b59514610a0f578063e4a28a52146109eb578063e65f55b91461072e578063ef5cfb8c146105fc578063f33d564714610407578063f7c618c1146103de578063f80f40231461039f578063fafbc0f614610324578063fdbd98b0146103065763fe33b3021461024557600080fd5b34610301576020366003190112610301576001600160a01b03610266613448565b166000526004602052604060002060018060a01b038154166040519161029a8361029381600185016135c3565b038461367c565b6040516102b5816102ae81600286016135c3565b038261367c565b6102f060ff6004600385015494015416916102e2604051968796875260a0602088015260a0870190613548565b908582036040870152613548565b916060840152151560808301520390f35b600080fd5b34610301576000366003190112610301576020600b54604051908152f35b3461030157602036600319011261030157600435600052600c6020526102ae61035a600360406000200160405192838092613d08565b60405180916020820160208352815180915260206040840192019060005b818110610386575050500390f35b8251845285945060209384019390920191600101610378565b3461030157602036600319011261030157600435600052600c6020526103da6103ce600c604060002001613a0e565b60405191829182613505565b0390f35b34610301576000366003190112610301576002546040516001600160a01b039091168152602090f35b3461030157604036600319011261030157610420613448565b61042861345e565b610430613d89565b6001600160a01b03821660009081526000805160206143f8833981519152602052604090205460ff16156105c0576001600160a01b03811660009081526000805160206143f8833981519152602052604090205460ff1661057b576001600160a01b03811615610541576104a5600b546136cd565b80600b55600052600c602052604060002091600460ff19845416178355600483019060018060a01b03166001600160601b0360a01b825416179055600882019060018060a01b03166001600160601b0360a01b825416179055600d42910155610534600b546000805160206143d8833981519152606060405183815233602082015260046040820152a1613e14565b6020600b54604051908152f35b60405162461bcd60e51b815260206004820152601260248201527124b73b30b634b2103732bb9039b4b3b732b960711b6044820152606490fd5b60405162461bcd60e51b815260206004820152601960248201527f4e6577207369676e657220616c726561647920657869737473000000000000006044820152606490fd5b60405162461bcd60e51b815260206004820152601460248201527313db19081cda59db995c881b9bdd08199bdd5b9960621b6044820152606490fd5b3461030157602036600319011261030157610615613448565b61061d6141c8565b60018060a01b0381169081600052600460205261064460ff60046040600020015416613c4b565b61064d816141ea565b6106578133613811565b9081156106f3577f9310ccfcb8de723f578a9e4282ea9f521f05ae40dc08f3068dfad528a65ee3c79233600052600560205260406000208160005260205260406000209060006002830155600052600860205260036040600020549101556106ca823360018060a01b0360025416614323565b604080513381526001600160a01b03929092166020830152810191909152606090a16001600055005b60405162461bcd60e51b81526020600482015260136024820152724e6f207265776172647320746f20636c61696d60681b6044820152606490fd5b34610301576040366003190112610301576004356001600160401b0381116103015761075e90369060040161369d565b6024356001600160401b0381116103015761077d90369060040161369d565b91610786613d89565b8281036109a6578015610961576107a06064821115613ccb565b60005b8381106108d357506107b6600b546136cd565b80600b55600052600c602052604060002093600160ff1986541617855560028501906001600160401b0383116108a257600160401b83116108a25761080083835481855584613d66565b90600052602060002060005b8381106108b8575050505060038301906001600160401b0383116108a257600160401b83116108a25761084483835481855584613d66565b90600052602060002060005b83811061088e5784600d42910155610534600b546000805160206143d8833981519152606060405183815233602082015260016040820152a1613e14565b600190602084359401938184015501610850565b634e487b7160e01b600052604160045260246000fd5b60019060206108c685613d52565b940193818401550161080c565b6108f3683635c9adc5dea000006108eb838787613d42565b3511156136dc565b6001600160a01b0361090e610909838589613d42565b613d52565b161561091c576001016107a3565b60405162461bcd60e51b815260206004820152601860248201527f496e76616c6964204c5020746f6b656e206164647265737300000000000000006044820152606490fd5b60405162461bcd60e51b815260206004820152601860248201527f456d70747920617272617973206e6f7420616c6c6f77656400000000000000006044820152606490fd5b60405162461bcd60e51b815260206004820152601860248201527f4172726179206c656e67746873206d757374206d6174636800000000000000006044820152606490fd5b34610301576000366003190112610301576020604051683635c9adc5dea000008152f35b34610301576040366003190112610301576060610a2a613448565b610a3261345e565b60018060a01b0382166000526005602052604060002060018060a01b0382166000526020526001610a6a604060002092835494613811565b9101549060405192835260208301526040820152f35b3461030157604036600319011261030157610ac5600435610a9f61345e565b90610ac0610abb82600052600160205260016040600020015490565b613dd7565b614142565b005b34610301576020366003190112610301576001600160a01b03610ae8613448565b1660005260046020526002604060002060018060a01b0381541690600381015490610b2c60ff60048301541691610b2560405180978193016135c3565b038561367c565b610b486040519485948552608060208601526080850190613548565b916040840152151560608301520390f35b3461030157600036600319011261030157602060405166038d7ea4c680008152f35b3461030157604036600319011261030157610b94613448565b602435610b9f6141c8565b60018060a01b03821690816000526004602052610bc660ff60046040600020015416613c4b565b3360005260056020526040806000206000908482526020522081815410610d31577fc970f16cd3ec5b32f311b9501d3274f497db81bb41ef2937fad509e835bbd25191610c8591610c16866141ea565b81610c218733613811565b956000600284015580600052600860205260406000205460038401558254808314600014610cfb57506000610c5893553390614323565b83610cdd575b604080513381526001600160a01b0387166020820152908101919091529081906060820190565b0390a180610c95575b6001600055005b604080513381526001600160a01b039390931660208401528201527f9310ccfcb8de723f578a9e4282ea9f521f05ae40dc08f3068dfad528a65ee3c790606090a18080610c8e565b600254610cf690859033906001600160a01b0316614323565b610c5e565b92610d0983610d12956137c4565b90553390614323565b8315610c5e57600254610cf690859033906001600160a01b0316614323565b60405162461bcd60e51b8152602060048201526012602482015271496e73756666696369656e74207374616b6560701b6044820152606490fd5b3461030157602036600319011261030157600435610d87613d89565b80151580611a64575b610d9990613a62565b80600052600c602052604060002090600b820191600360ff8454610dbf82821615613aa1565b610dce828260081c1615613ae0565b610dde82600e8601541615613c89565b60101c1610611a2857600d81015462093a80810180911161168057610e0590421115613ae0565b60ff815416600681101590816119855760028114918215611a1c575b8215611a0b575b82156119fa575b505061199b575b60ff81541660068110156119855780610ea45750906000805160206143b8833981519152927fb03a67404ead580ad77cfd64b1f08197269fa5180fccb88d6615bdc8aa91e620602060018195015480600355604051908152a15b805460ff19166001179055604051908152a1005b909190600060018203611068575050600282019283546000600a55600360009401935b818110610fb957505060005b600654811015610f1c5780610ee96001926134d2565b838060a01b0391549060031b1c166000526004602052610f13600360406000200154600a54613804565b600a5501610ed3565b5090916040519060408201604083528554809152606083019560005260206000209060005b818110610f9a575050508180610f92877f7f9d3b855249ef24ed9613191786a1fc8d2afafdc45ab1ec9c1a051589d7837c9460209897966000805160206143b88339815191529a0389850152613d08565b0390a1610e90565b82546001600160a01b0316885260209097019660019283019201610f41565b610fc381876134ed565b90546001600160a01b0360039290921b1c8116600090815260046020526040902054161561102e5780610ff8600192876134ed565b90549060031b1c61100982896134ed565b848060a01b0391549060031b1c16600052600460205260036040600020015501610ec7565b60405162461bcd60e51b815260206004820152601260248201527114185a5c88191bd95cdb89dd08195e1a5cdd60721b6044820152606490fd5b506002810361146f5750600482019260018060a01b038454169283600052600460205260018060a01b0360406000205416611434576110ab606460065410613ccb565b6007810193845491683635c9adc5dea0000083116113fd5760068101926110de60206110d78654613589565b1115613721565b6005611103604051936110f085613646565b8585526102ae60405180948193016135c3565b60208301908152604051906111238261111c81896135c3565b038361367c565b6040848101928352606085019384526001608086018181526000978852600460205291909620945185546001600160a01b0319166001600160a01b0391909116178555905180519195850191906001600160401b0382116108a2576111928261118c8554613589565b8561377d565b602090601f8311600114611396576111c392916000918361131f575b50508160011b916000199060031b1c19161790565b90555b51805160028401916001600160401b0382116108a2576111ea8261118c8554613589565b602090601f831160011461132a5791806112209260049796959460009261131f5750508160011b916000199060031b1c19161790565b90555b516003820155019051151560ff8019835416911617905560018060a01b038554169060065494600160401b8610156108a2576000805160206143b8833981519152966112c27f0a75180afe57477e6f07d0789053cbdb7699cde088de468ea9e91c0e910d80ef9461129e89600160209b0160065560066134ed565b81546001600160a01b0393841660039290921b91821b9390911b1916919091179055565b6112cf8254600a54613804565b600a5560018060a01b03815416600052600987524260406000205560018060a01b039054169054611311604051938493845260608985015260608401906135c3565b9060408301520390a1610e90565b015190508d806111ae565b90601f1983169184600052816000209260005b81811061137e57509160019391856004999897969410611365575b505050811b019055611223565b015160001960f88460031b161c191690558c8080611358565b9293602060018192878601518155019501930161133d565b90601f1983169184600052816000209260005b8181106113e557509084600195949392106113cc575b505050811b0190556111c6565b015160001960f88460031b161c191690558c80806113bf565b929360206001819287860151815501950193016113a9565b60405162461bcd60e51b815260206004820152600f60248201526e0aecad2ced0e840e8dede40d0d2ced608b1b6044820152606490fd5b60405162461bcd60e51b81526020600482015260136024820152725061697220616c72656164792065786973747360681b6044820152606490fd5b9192916000600382036116d45750509060018060a01b036008840154168060005260046020526114a960ff60046040600020015416613c4b565b8060005260046020526114c6600360406000200154600a546137c4565b600a55806000526004602052600060036040822001556040516370a0823160e01b8152306004820152602081602481855afa9081156116c857600091611696575b5015611562575b907f152583bc7de5daf42c0a52b1c07d3ed3c5ffa6fb0c2fae5c768d58cc3592212e6000805160206143b88339815191529460209493610f92604051928392835260408884015260056040840191016135c3565b60008181526004602081905260408220908101805460ff1916905580546001600160a01b0319169055600654905b81811061159f575b505061150e565b826115a9826134d2565b905460039190911b1c6001600160a01b0316146115c857600101611590565b9193929160001982019182116116805761129e6115e76115ff936134d2565b905460039190911b1c6001600160a01b0316916134d2565b600654801561166a576000805160206143b8833981519152946020947f152583bc7de5daf42c0a52b1c07d3ed3c5ffa6fb0c2fae5c768d58cc3592212e926000190161164a816134d2565b81549060018060a01b039060031b1b191690556006559293945094611598565b634e487b7160e01b600052603160045260246000fd5b634e487b7160e01b600052601160045260246000fd5b90506020813d6020116116c0575b816116b16020938361367c565b81010312610301575185611507565b3d91506116a4565b6040513d6000823e3d90fd5b50600481036117cf575060048301546008909301546001600160a01b03938416931691611700846140ac565b5061170a83613f7f565b5060005b6007548110156117935784611722826134a1565b905460039190911b1c6001600160a01b0316146117415760010161170e565b60406000805160206143b8833981519152958561178460209761129e7feeb293e1f8f3a9db91ade748726387ed1352ca78f5430c5f06fe3d1e1ad50579966134a1565b825191825286820152a1610e90565b507feeb293e1f8f3a9db91ade748726387ed1352ca78f5430c5f06fe3d1e1ad5057960406000805160206143b883398151915295602095611784565b600560009492939491146117f8575b50506020906000805160206143b883398151915292610e90565b60098201805492949193926001600160a01b031690811561194c576002546040516370a0823160e01b81523060048201526001600160a01b0390911696906020816024818b5afa968715611940578097611905575b5050600a019081548096106118c0576118996020967f8a43c4352486ec339f487f64af78ca5cbf06cd47833f073d3baf3a193e503161946000805160206143b883398151915299614323565b549054604080516001600160a01b039093168352602083019190915290a1928192506117de565b60405162461bcd60e51b815260206004820152601d60248201527f496e73756666696369656e7420636f6e74726163742062616c616e63650000006044820152606490fd5b909196506020823d602011611938575b816119226020938361367c565b8101031261193557505194600a8861184d565b80fd5b3d9150611915565b604051903d90823e3d90fd5b60405162461bcd60e51b8152602060048201526011602482015270125b9d985b1a59081c9958da5c1a595b9d607a1b6044820152606490fd5b634e487b7160e01b600052602160045260246000fd5b9060005b6006548110156119f357806119b56001926134d2565b838060a01b0391549060031b1c1680600052600460205260ff600460406000200154166119e4575b500161199f565b6119ed906141ea565b856119dd565b5090610e36565b909150611985576003148480610e2f565b809250611985576001811491610e28565b50801591506000610e21565b60405162461bcd60e51b81526020600482015260146024820152734e6f7420656e6f75676820617070726f76616c7360601b6044820152606490fd5b50600b54811115610d90565b3461030157604036600319011261030157611a89613448565b602435611a946141c8565b60018060a01b0382169182600052600460205260036040600020611abe60ff600483015416613c4b565b015415611c325766038d7ea4c680008210611bf6576001600160801b038211611bb9576106ca7ffb8efd70c9f0ca009bfc9f2ca8a9256a5aefbc720bdb8d838e4bcd42c241b9eb93611b0f836141ea565b33600052600560205260408060002060009083825260205220611b3885825480611ba557613804565b8155600082815260086020908152604091829020546003840155426001600160401b0316600190930192909255516323b872dd60e01b918101919091523360248201523060448201526064810185905290611ba082608481015b03601f19810184528361367c565b61435c565b611baf8733613811565b6002850155613804565b60405162461bcd60e51b81526020600482015260156024820152740a6e8c2d6ca40c2dadeeadce840e8dede40d0d2ced605b1b6044820152606490fd5b60405162461bcd60e51b81526020600482015260146024820152735374616b6520616d6f756e7420746f6f206c6f7760601b6044820152606490fd5b60405162461bcd60e51b815260206004820152601460248201527314185a5c881a185cc81e995c9bc81dd95a59da1d60621b6044820152606490fd5b34610301576000366003190112610301576020604051670de0b6b3a76400008152f35b3461030157600036600319011261030157602060405160008152f35b34610301576020366003190112610301576001600160a01b03611cce613448565b1660005260086020526020604060002054604051908152f35b3461030157600036600319011261030157602060405160648152f35b34610301576000366003190112610301576020600a54604051908152f35b34610301576000366003190112610301576040516007548082526020820190600760005260206000209060005b818110611d65576103da856103ce8187038261367c565b82546001600160a01b0316845260209093019260019283019201611d4e565b3461030157604036600319011261030157611d9d61345e565b600435600052600160205260406000209060018060a01b0316600052602052602060ff604060002054166040519015158152f35b346103015760403660031901126103015760806040611dee613448565b611df661345e565b9060018060a01b031660005260056020528160002060009160018060a01b03168252602052208054906001810154906003600282015491015491604051938452602084015260408301526060820152f35b3461030157602036600319011261030157611e60613448565b6006546000916001600160a01b0316825b8281106120235750611e8283613c20565b92611e90604051948561367c565b808452611e9f601f1991613c20565b0160005b818110611ff05750506000805b838110611f1e578460405180916020820160208352815180915260206040840192019060005b818110611ee4575050500390f35b9193509160206080600192606087518051835284810151858401526040810151604084015201516060820152019401910191849392611ed6565b826000526005602052604080600020611f36836134d2565b905460039190911b1c6001600160a01b031660009081526020919091522054611f62575b600101611eb0565b90611fe8600191846000526005602052604080600020611f81866134d2565b868060a01b0391549060031b1c1690600091868060a01b0316825260205220600360405191611faf83613661565b805483528581015460208401526002810154604084015201546060820152611fd78289613c37565b52611fe28188613c37565b506136cd565b919050611f5a565b602090604051611fff81613661565b60008152600083820152600060408201526000606082015282828801015201611ea3565b81600052600560205260408060002061203b836134d2565b905460039190911b1c6001600160a01b031660009081526020919091522054612067575b600101611e71565b926120736001916136cd565b93905061205f565b3461030157602036600319011261030157600435600052600c602052604060002060ff8154169060018101549160018060a01b03600483015416604051926120ca84610b2581600585016135c3565b604051916120df8361029381600686016135c3565b60078201549360018060a01b0360088401541660018060a01b03600985015416600a85015491600b8601549360ff600e600d89015498015416976040519b6006831015611985578c9b6101c060608e60ff9b612152956121609883526020830152604082015201526101c08d0190613548565b908b820360808d0152613548565b9760a08a015260c089015260e08801526101008701528181161515610120870152818160081c16151561014087015260101c1661016085015261018084015215156101a08301520390f35b34610301576000366003190112610301576121c4613d89565b60015b600b548111610ac5578061220491600052600c602052600b604060002001805460ff81161580612255575b80612246575b612209575b50506136cd565b6121c7565b6101009061ff0019161790557f7d919bd8ec97e857ec355cca68a0882119b700d30b815f9939a75e824cad9a9b6020604051838152a182806121fd565b5061225083613bfd565b6121f8565b5060ff8160081c16156121f2565b346103015760003660031901126103015760065461228081613c20565b9061228e604051928361367c565b808252601f1961229d82613c20565b0160005b81811061240557505060005b81811061236157826040518091602082016020835281518091526040830190602060408260051b8601019301916000905b8282106122ed57505050500390f35b919360019193955060208091603f19898203018552875190848060a01b03825116815260808061233f61232d8686015160a08887015260a0860190613548565b60408601518582036040870152613548565b93606081015160608501520151151591015296019201920185949391926122de565b8061236d6001926134d2565b838060a01b0391549060031b1c166000526004602052604060002060ff60046040519261239984613646565b858060a01b0381541684526040516123b7816102ae818a86016135c3565b60208501526040516123d0816102ae81600286016135c3565b604085015260038101546060850152015416151560808201526123f38286613c37565b526123fe8185613c37565b50016122ad565b60209060405161241481613646565b60008152606083820152606060408201526000606082015260006080820152828287010152016122a1565b346103015760003660031901126103015760206040516000805160206144188339815191528152f35b34610301576000366003190112610301576020600354604051908152f35b346103015760203660031901126103015760206124a4600435613bfd565b6040519015158152f35b34610301576000366003190112610301576040516006548082526020820190600660005260206000209060005b8181106124f2576103da856103ce8187038261367c565b82546001600160a01b03168452602090930192600192830192016124db565b3461030157600036600319011261030157602060405160038152f35b3461030157602036600319011261030157612546613448565b61254e613d89565b6001600160a01b0316801561264c5780600052600460205260ff6004604060002001541615612608576125d890612586600b546136cd565b80600b55600052600c602052604060002090600360ff1983541617825560088201816001600160601b0360a01b82541617905542600d8301556000526004602052600560016040600020019101613b21565b610534600b546000805160206143d8833981519152606060405183815233602082015260036040820152a1613e14565b606460405162461bcd60e51b815260206004820152602060248201527f50616972206e6f7420616374697665206f7220646f65736e27742065786973746044820152fd5b60405162461bcd60e51b8152602060048201526014602482015273496e76616c69642070616972206164647265737360601b6044820152606490fd5b346103015760203660031901126103015760043580151580612810575b6126ae90613a62565b80600052600c60205260ff6040600020541660068110156119855760040361279d573360009081526000805160206143f8833981519152602052604090205460ff168015612765575b1561270557610ac590613e14565b60405162461bcd60e51b815260206004820152603260248201527f43616c6c6572206d75737420686176652041444d494e5f524f4c45206f72204f604482015271574e45525f415050524f5645525f524f4c4560701b6064820152608490fd5b503360009081527fb98fea3292a51d6ba303dd5ef6120a65c5e45f140a21630a75de31035db0b199602052604090205460ff166126f7565b3360009081526000805160206143f8833981519152602052604090205460ff16156127cb57610ac590613e14565b60405162461bcd60e51b815260206004820152601b60248201527f43616c6c6572206d75737420686176652041444d494e5f524f4c4500000000006044820152606490fd5b50600b548111156126a5565b346103015760403660031901126103015761283561345e565b336001600160a01b0382160361285157610ac590600435614142565b63334bd91960e11b60005260046000fd5b346103015760203660031901126103015760043561287e613d89565b801515806129c7575b61289090613a62565b80600052600c602052600b6040600020019081549060ff82166129825760ff8260081c1661293d576128c181613bfd565b156128ff577f7d919bd8ec97e857ec355cca68a0882119b700d30b815f9939a75e824cad9a9b9261010060209361ff001916179055604051908152a1005b60405162461bcd60e51b81526020600482015260166024820152751058dd1a5bdb881b9bdd08195e1c1a5c9959081e595d60521b6044820152606490fd5b60405162461bcd60e51b815260206004820152601d60248201527f416374696f6e20616c7265616479206d61726b656420657870697265640000006044820152606490fd5b60405162461bcd60e51b815260206004820152601760248201527f416374696f6e20616c72656164792065786563757465640000000000000000006044820152606490fd5b50600b54811115612887565b346103015760003660031901126103015760206040517fd59b2497ebc6a7b17400211976b8406e1f8b300d75ef805d3c4031ae66dcdf1e8152f35b3461030157604036600319011261030157610ac5600435612a2d61345e565b90612a49610abb82600052600160205260016040600020015490565b61401d565b34610301576020366003190112610301576001600160a01b03612a6f613448565b1660005260096020526020604060002054604051908152f35b3461030157602036600319011261030157600435612aa4613d89565b80151580612c06575b612ab690613a62565b80600052600c6020526040600020612ae460ff600b830154612ada82821615613aa1565b60081c1615613ae0565b600e81019081549060ff8216612bce57600d81015462093a80810180911161168057612b1290421115613ae0565b600c0180549060005b828110612b5f57600160ff198516178555604080518781523360208201527f56bdda336a8bb949a57770a7cde5b62bd8913d11d9dde767735db889a609692f9190a1005b612b6981836134ed565b905460039190911b1c6001600160a01b03163314612b8957600101612b1b565b60405162461bcd60e51b815260206004820152601d60248201527f43616e6e6f742072656a65637420616674657220617070726f76696e670000006044820152606490fd5b60405162461bcd60e51b815260206004820152601060248201526f105b1c9958591e481c995a9958dd195960821b6044820152606490fd5b50600b54811115612aad565b346103015760203660031901126103015760043560065481101561030157612c3b6020916134d2565b905460405160039290921b1c6001600160a01b03168152f35b3461030157602036600319011261030157600435600052600c6020526103da6103ce6002604060002001613a0e565b34610301576020366003190112610301576020612cb0600435600052600160205260016040600020015490565b604051908152f35b34610301576040366003190112610301576020612cb0612cd6613448565b612cde61345e565b90613811565b346103015760203660031901126103015760043560075481101561030157612c3b6020916134a1565b3461030157602036600319011261030157600435612d29613d89565b6001600160801b038111612d9757612d42600b546136cd565b80600b55600052600c60205260406000209060ff1982541682556001820155600d42910155610534600b546000805160206143d8833981519152606060405183815233602082015260006040820152a1613e14565b60405162461bcd60e51b815260206004820152600d60248201526c0a4c2e8ca40e8dede40d0d2ced609b1b6044820152606490fd5b3461030157608036600319011261030157612de5613448565b6024356001600160401b03811161030157612e04903690600401613474565b6044929192356001600160401b03811161030157612e26903690600401613474565b909360643592612e34613d89565b6001600160a01b0385161561317f57831561313a57612e5e683635c9adc5dea000008511156136dc565b801561310357602081116130c957821561308e57612e7f6020841115613721565b612e8a600b546136cd565b80600b55600052600c602052604060002094600260ff19875416178655600486019060018060a01b03166001600160601b0360a01b82541617905560058501916001600160401b0382116108a257612ee68261118c8554613589565b600090601f831160011461302a57612f1692916000918361301f5750508160011b916000199060031b1c19161790565b90555b60068301906001600160401b0381116108a257612f4081612f3a8454613589565b8461377d565b6000601f8211600114612fbb578190612f7293949596600092612fb05750508160011b916000199060031b1c19161790565b90555b6007820155600d42910155610534600b546000805160206143d8833981519152606060405183815233602082015260026040820152a1613e14565b0135905086806111ae565b601f198216958382526020822091805b88811061300757508360019596979810612fed575b505050811b019055612f75565b0135600019600384901b60f8161c19169055858080612fe0565b90926020600181928686013581550194019101612fcb565b0135905088806111ae565b8382526020822091601f198416815b818110613076575090846001959493921061305c575b505050811b019055612f19565b0135600019600384901b60f8161c1916905587808061304f565b91936020600181928787013581550195019201613039565b60405162461bcd60e51b8152602060048201526013602482015272456d70747920706c6174666f726d206e616d6560681b6044820152606490fd5b60405162461bcd60e51b815260206004820152601260248201527150616972206e616d6520746f6f206c6f6e6760701b6044820152606490fd5b60405162461bcd60e51b815260206004820152600f60248201526e456d7074792070616972206e616d6560881b6044820152606490fd5b60405162461bcd60e51b815260206004820152601d60248201527f576569676874206d7573742062652067726561746572207468616e20300000006044820152606490fd5b60405162461bcd60e51b815260206004820152600c60248201526b24b73b30b634b2103830b4b960a11b6044820152606490fd5b34610301576040366003190112610301576131cc613448565b6024356131d7613d89565b6001600160a01b038216156133b057801561336c576002546040516370a0823160e01b815230600482015290602090829060249082906001600160a01b03165afa9081156116c85760009161333a575b5081116132f5576001600160801b0381116132bd57613247600b546136cd565b80600b55600052600c602052604060002091600560ff19845416178355600983019060018060a01b03166001600160601b0360a01b825416179055600a820155600d42910155610534600b546000805160206143d8833981519152606060405183815233602082015260056040820152a1613e14565b60405162461bcd60e51b815260206004820152601060248201526f416d6f756e7420746f6f206c6172676560801b6044820152606490fd5b60405162461bcd60e51b815260206004820152601f60248201527f416d6f756e74206578636565647320636f6e74726163742062616c616e6365006044820152606490fd5b90506020813d602011613364575b816133556020938361367c565b81010312610301575183613227565b3d9150613348565b606460405162461bcd60e51b815260206004820152602060248201527f416d6f756e74206d7573742062652067726561746572207468616e207a65726f6044820152fd5b60405162461bcd60e51b815260206004820152601960248201527f496e76616c696420726563697069656e742061646472657373000000000000006044820152606490fd5b34610301576020366003190112610301576004359063ffffffff60e01b821680920361030157602091637965db0b60e01b8114908115613437575b5015158152f35b6301ffc9a760e01b14905083613430565b600435906001600160a01b038216820361030157565b602435906001600160a01b038216820361030157565b9181601f84011215610301578235916001600160401b038311610301576020838186019501011161030157565b6007548110156134bc57600760005260206000200190600090565b634e487b7160e01b600052603260045260246000fd5b6006548110156134bc57600660005260206000200190600090565b80548210156134bc5760005260206000200190600090565b602060408183019282815284518094520192019060005b8181106135295750505090565b82516001600160a01b031684526020938401939092019160010161351c565b919082519283825260005b848110613574575050826000602080949584010152601f8019910116010190565b80602080928401015182828601015201613553565b90600182811c921680156135b9575b60208310146135a357565b634e487b7160e01b600052602260045260246000fd5b91607f1691613598565b600092918154916135d383613589565b808352926001811690811561362957506001146135ef57505050565b60009081526020812093945091925b83831061360f575060209250010190565b6001816020929493945483858701015201910191906135fe565b915050602093945060ff929192191683830152151560051b010190565b60a081019081106001600160401b038211176108a257604052565b608081019081106001600160401b038211176108a257604052565b90601f801991011681019081106001600160401b038211176108a257604052565b9181601f84011215610301578235916001600160401b038311610301576020808501948460051b01011161030157565b60001981146116805760010190565b156136e357565b60405162461bcd60e51b81526020600482015260166024820152755765696768742065786365656473206d6178696d756d60501b6044820152606490fd5b1561372857565b60405162461bcd60e51b8152602060048201526016602482015275506c6174666f726d206e616d6520746f6f206c6f6e6760501b6044820152606490fd5b818110613771575050565b60008155600101613766565b9190601f811161378c57505050565b6137b8926000526020600020906020601f840160051c830193106137ba575b601f0160051c0190613766565b565b90915081906137ab565b9190820391821161168057565b81156137db570490565b634e487b7160e01b600052601260045260246000fd5b8181029291811591840414171561168057565b9190820180921161168057565b6001600160a01b039081166000908152600560209081526040808320949093168083529381528282206008825283832054600990925292909120549092904211806139a8575b8061399d575b613899575b506002670de0b6b3a764000061388c613896946138868554916003870154906137c4565b906137f1565b0491015490613804565b90565b918260005260096020526138e86138df6138c76138bb604060002054426137c4565b610e10600354046137f1565b856000526004602052600360406000200154906137f1565b600a54906137d1565b670de0b6b3a7640000810290808204670de0b6b3a76400001490151715611680576020602494604051958680926370a0823160e01b82523060048301525afa9384156116c857600094613965575b5061388c61395c60029361395661389697670de0b6b3a7640000956137d1565b90613804565b94505050613862565b9350906020843d602011613995575b816139816020938361367c565b81010312610301579251929061388c613936565b3d9150613974565b50600a54151561385d565b506040516370a0823160e01b8152306004820152602081602481855afa9081156116c8576000916139dc575b501515613857565b90506020813d602011613a06575b816139f76020938361367c565b810103126103015751386139d4565b3d91506139ea565b906040519182815491828252602082019060005260206000209260005b818110613a405750506137b89250038361367c565b84546001600160a01b0316835260019485019487945060209093019201613a2b565b15613a6957565b60405162461bcd60e51b815260206004820152601060248201526f125b9d985b1a59081858dd1a5bdb925960821b6044820152606490fd5b15613aa857565b60405162461bcd60e51b815260206004820152601060248201526f105b1c9958591e48195e1958dd5d195960821b6044820152606490fd5b15613ae757565b60405162461bcd60e51b81526020600482015260126024820152711058dd1a5bdb881a185cc8195e1c1a5c995960721b6044820152606490fd5b919091828114613bf857613b358354613589565b6001600160401b0381116108a257613b5181612f3a8454613589565b600093601f8211600114613b9257613b839293948291600092613b875750508160011b916000199060031b1c19161790565b9055565b0154905038806111ae565b845260208085208386529085209094601f198316815b818110613be057509583600195969710613bc7575b505050811b019055565b015460001960f88460031b161c19169055388080613bbd565b9192600180602092868b015481550194019201613ba8565b509050565b600052600c602052600d6040600020015462093a80810180911161168057421190565b6001600160401b0381116108a25760051b60200190565b80518210156134bc5760209160051b010190565b15613c5257565b60405162461bcd60e51b815260206004820152600f60248201526e50616972206e6f742061637469766560881b6044820152606490fd5b15613c9057565b60405162461bcd60e51b81526020600482015260136024820152721058dd1a5bdb881dd85cc81c995a9958dd1959606a1b6044820152606490fd5b15613cd257565b60405162461bcd60e51b815260206004820152600e60248201526d546f6f206d616e7920706169727360901b6044820152606490fd5b906020825491828152019160005260206000209060005b818110613d2c5750505090565b8254845260209093019260019283019201613d1f565b91908110156134bc5760051b0190565b356001600160a01b03811681036103015790565b91818110613d7357505050565b6137b89260005260206000209182019101613766565b3360009081526000805160206143f8833981519152602052604090205460ff1615613db057565b63e2517d3f60e01b6000523360045260008051602061441883398151915260245260446000fd5b600081815260016020908152604080832033845290915290205460ff1615613dfc5750565b63e2517d3f60e01b6000523360045260245260446000fd5b80600052600c6020526040600020600b810190613e3a60ff8354612ada82821615613aa1565b613e4b60ff600e8301541615613c89565b600d81015462093a80810180911161168057613e6990421115613ae0565b600c01805460005b818110613f1d575050805490600160401b8210156108a25781613e9c916001613eba940181556134ed565b81546001600160a01b0360039290921b91821b19163390911b179055565b80549160ff8360101c169160ff83146116805762ff0000199390931660019290920160101b62ff00001691909117909155604080519182523360208301527f13f5ed40f1478eb39ccc91c62e3e395db4ea1b1afc8928825652b67136b0604491a1565b613f2781846134ed565b905460039190911b1c6001600160a01b03163314613f4757600101613e71565b60405162461bcd60e51b815260206004820152601060248201526f105b1c9958591e48185c1c1c9bdd995960821b6044820152606490fd5b6001600160a01b03811660009081526000805160206143f8833981519152602052604090205460ff16614017576001600160a01b031660008181526000805160206143f883398151915260205260408120805460ff19166001179055339190600080516020614418833981519152907f2f8788117e7eff1d82e926ec794901d17c78024a50270940304540a733656f0d9080a4600190565b50600090565b60008181526001602090815260408083206001600160a01b038616845290915290205460ff166140a55760008181526001602081815260408084206001600160a01b0396909616808552959091528220805460ff19169091179055339291907f2f8788117e7eff1d82e926ec794901d17c78024a50270940304540a733656f0d9080a4600190565b5050600090565b6001600160a01b03811660009081526000805160206143f8833981519152602052604090205460ff1615614017576001600160a01b031660008181526000805160206143f883398151915260205260408120805460ff19169055339190600080516020614418833981519152907ff6391f5c32d9c69d2a47ea670b442974b53935d1edc7fd64eb21e047a839171b9080a4600190565b60008181526001602090815260408083206001600160a01b038616845290915290205460ff16156140a55760008181526001602090815260408083206001600160a01b0395909516808452949091528120805460ff19169055339291907ff6391f5c32d9c69d2a47ea670b442974b53935d1edc7fd64eb21e047a839171b9080a4600190565b6002600054146141d9576002600055565b633ee5aeb560e01b60005260046000fd5b6040516370a0823160e01b81523060048201526001600160a01b039190911690602081602481855afa9081156116c8576000916142f1575b5081600052600960205261423b604060002054426137c4565b811515806142e8575b806142dd575b614262575b5050600052600960205242604060002055565b6138df61427861429092610e10600354046137f1565b846000526004602052600360406000200154906137f1565b90670de0b6b3a7640000820291808304670de0b6b3a76400001490151715611680576142bb916137d1565b8160005260086020526142d46040600020918254613804565b9055388061424f565b50600a54151561424a565b50801515614244565b906020823d60201161431b575b8161430b6020938361367c565b8101031261193557505138614222565b3d91506142fe565b60405163a9059cbb60e01b60208201526001600160a01b03909216602483015260448201929092526137b891611ba08260648101611b92565b906000602091828151910182855af1156116c8576000513d6143ae57506001600160a01b0381163b155b61438d5750565b635274afe760e01b60009081526001600160a01b0391909116600452602490fd5b6001141561438656fe7cd79380f59dcb9a2e87db5e49009e2cb7ff8a3175bf8db0137c71bd7abe7143ff1f23bc7538ef354da69561506eedc8078a7bce7b70ef9877b7bbad4f7ca37850efbde2d46c37e9785f1791697f77e94bb7b701e19f1930a668820722d37694a49807205ce4d355092ef5a8a18f56e8913cf4a201fbe287825b095693c21775a26469706673582212209c4d17af9d7bdd7e0d02781965474e7404790bc7cae572c5db5589a4d16ae56564736f6c634300081c00332f8788117e7eff1d82e926ec794901d17c78024a50270940304540a733656f0db98fea3292a51d6ba303dd5ef6120a65c5e45f140a21630a75de31035db0b19950efbde2d46c37e9785f1791697f77e94bb7b701e19f1930a668820722d37694",
          "opcodes": "PUSH1 0x80 PUSH1 0x40 MSTORE CALLVALUE PUSH2 0x2D5 JUMPI PUSH2 0x4941 DUP1 CODESIZE SUB DUP1 PUSH2 0x19 DUP2 PUSH2 0x2DA JUMP JUMPDEST SWAP3 DUP4 CODECOPY DUP2 ADD SWAP1 PUSH1 0x40 DUP2 DUP4 SUB SLT PUSH2 0x2D5 JUMPI PUSH2 0x32 DUP2 PUSH2 0x2FF JUMP JUMPDEST PUSH1 0x20 DUP3 ADD MLOAD SWAP1 SWAP2 PUSH1 0x1 PUSH1 0x1 PUSH1 0x40 SHL SUB DUP3 GT PUSH2 0x2D5 JUMPI ADD SWAP1 DUP3 PUSH1 0x1F DUP4 ADD SLT ISZERO PUSH2 0x2D5 JUMPI DUP2 MLOAD SWAP3 PUSH1 0x1 PUSH1 0x1 PUSH1 0x40 SHL SUB DUP5 GT PUSH2 0x21D JUMPI DUP4 PUSH1 0x5 SHL SWAP3 PUSH1 0x20 PUSH2 0x77 DUP2 DUP7 ADD PUSH2 0x2DA JUMP JUMPDEST DUP1 SWAP7 DUP2 MSTORE ADD SWAP1 PUSH1 0x20 DUP3 SWAP6 DUP3 ADD ADD SWAP3 DUP4 GT PUSH2 0x2D5 JUMPI PUSH1 0x20 ADD SWAP1 JUMPDEST DUP3 DUP3 LT PUSH2 0x2BD JUMPI POP POP POP PUSH1 0x1 PUSH1 0x0 SSTORE PUSH1 0x4 DUP4 MLOAD SUB PUSH2 0x278 JUMPI PUSH1 0x1 PUSH1 0x1 PUSH1 0xA0 SHL SUB AND DUP1 ISZERO PUSH2 0x233 JUMPI PUSH1 0x2 DUP1 SLOAD PUSH1 0x1 PUSH1 0x1 PUSH1 0xA0 SHL SUB NOT AND SWAP2 SWAP1 SWAP2 OR SWAP1 SSTORE DUP2 MLOAD SWAP1 PUSH1 0x1 PUSH1 0x1 PUSH1 0x40 SHL SUB DUP3 GT PUSH2 0x21D JUMPI PUSH9 0x10000000000000000 DUP3 GT PUSH2 0x21D JUMPI PUSH1 0x7 SLOAD DUP3 PUSH1 0x7 SSTORE DUP1 DUP4 LT PUSH2 0x1D7 JUMPI JUMPDEST POP PUSH1 0x7 PUSH1 0x0 MSTORE PUSH1 0x20 PUSH1 0x0 KECCAK256 PUSH1 0x0 JUMPDEST DUP4 DUP2 LT PUSH2 0x1BA JUMPI DUP5 PUSH2 0x11A CALLER PUSH2 0x33D JUMP JUMPDEST POP PUSH1 0x0 JUMPDEST DUP2 MLOAD DUP2 LT ISZERO PUSH2 0x1AB JUMPI PUSH1 0x1 PUSH1 0x1 PUSH1 0xA0 SHL SUB PUSH2 0x139 DUP3 DUP5 PUSH2 0x313 JUMP JUMPDEST MLOAD AND ISZERO PUSH2 0x166 JUMPI PUSH1 0x1 SWAP1 PUSH2 0x15F PUSH1 0x1 PUSH1 0x1 PUSH1 0xA0 SHL SUB PUSH2 0x158 DUP4 DUP7 PUSH2 0x313 JUMP JUMPDEST MLOAD AND PUSH2 0x3DB JUMP JUMPDEST POP ADD PUSH2 0x11E JUMP JUMPDEST PUSH1 0x40 MLOAD PUSH3 0x461BCD PUSH1 0xE5 SHL DUP2 MSTORE PUSH1 0x20 PUSH1 0x4 DUP3 ADD MSTORE PUSH1 0x16 PUSH1 0x24 DUP3 ADD MSTORE PUSH32 0x496E76616C6964207369676E6572206164647265737300000000000000000000 PUSH1 0x44 DUP3 ADD MSTORE PUSH1 0x64 SWAP1 REVERT JUMPDEST PUSH1 0x40 MLOAD PUSH2 0x446D SWAP1 DUP2 PUSH2 0x474 DUP3 CODECOPY RETURN JUMPDEST DUP3 MLOAD PUSH1 0x1 PUSH1 0x1 PUSH1 0xA0 SHL SUB AND DUP2 DUP4 ADD SSTORE PUSH1 0x20 SWAP1 SWAP3 ADD SWAP2 PUSH1 0x1 ADD PUSH2 0x109 JUMP JUMPDEST PUSH1 0x7 PUSH1 0x0 MSTORE PUSH32 0xA66CC928B5EDB82AF9BD49922954155AB7B0942694BEA4CE44661D9A8736C688 SWAP1 DUP2 ADD SWAP1 DUP4 ADD JUMPDEST DUP2 DUP2 LT PUSH2 0x211 JUMPI POP PUSH2 0xFB JUMP JUMPDEST PUSH1 0x0 DUP2 SSTORE PUSH1 0x1 ADD PUSH2 0x204 JUMP JUMPDEST PUSH4 0x4E487B71 PUSH1 0xE0 SHL PUSH1 0x0 MSTORE PUSH1 0x41 PUSH1 0x4 MSTORE PUSH1 0x24 PUSH1 0x0 REVERT JUMPDEST PUSH1 0x40 MLOAD PUSH3 0x461BCD PUSH1 0xE5 SHL DUP2 MSTORE PUSH1 0x20 PUSH1 0x4 DUP3 ADD MSTORE PUSH1 0x1C PUSH1 0x24 DUP3 ADD MSTORE PUSH32 0x496E76616C69642072657761726420746F6B656E206164647265737300000000 PUSH1 0x44 DUP3 ADD MSTORE PUSH1 0x64 SWAP1 REVERT JUMPDEST PUSH1 0x40 MLOAD PUSH3 0x461BCD PUSH1 0xE5 SHL DUP2 MSTORE PUSH1 0x20 PUSH1 0x4 DUP3 ADD MSTORE PUSH1 0x1E PUSH1 0x24 DUP3 ADD MSTORE PUSH32 0x4D7573742070726F766964652065786163746C792034207369676E6572730000 PUSH1 0x44 DUP3 ADD MSTORE PUSH1 0x64 SWAP1 REVERT JUMPDEST PUSH1 0x20 DUP1 SWAP2 PUSH2 0x2CA DUP5 PUSH2 0x2FF JUMP JUMPDEST DUP2 MSTORE ADD SWAP2 ADD SWAP1 PUSH2 0x90 JUMP JUMPDEST PUSH1 0x0 DUP1 REVERT JUMPDEST PUSH1 0x40 MLOAD SWAP2 SWAP1 PUSH1 0x1F ADD PUSH1 0x1F NOT AND DUP3 ADD PUSH1 0x1 PUSH1 0x1 PUSH1 0x40 SHL SUB DUP2 GT DUP4 DUP3 LT OR PUSH2 0x21D JUMPI PUSH1 0x40 MSTORE JUMP JUMPDEST MLOAD SWAP1 PUSH1 0x1 PUSH1 0x1 PUSH1 0xA0 SHL SUB DUP3 AND DUP3 SUB PUSH2 0x2D5 JUMPI JUMP JUMPDEST DUP1 MLOAD DUP3 LT ISZERO PUSH2 0x327 JUMPI PUSH1 0x20 SWAP2 PUSH1 0x5 SHL ADD ADD SWAP1 JUMP JUMPDEST PUSH4 0x4E487B71 PUSH1 0xE0 SHL PUSH1 0x0 MSTORE PUSH1 0x32 PUSH1 0x4 MSTORE PUSH1 0x24 PUSH1 0x0 REVERT JUMPDEST PUSH1 0x1 PUSH1 0x1 PUSH1 0xA0 SHL SUB DUP2 AND PUSH1 0x0 SWAP1 DUP2 MSTORE PUSH1 0x0 DUP1 MLOAD PUSH1 0x20 PUSH2 0x4901 DUP4 CODECOPY DUP2 MLOAD SWAP2 MSTORE PUSH1 0x20 MSTORE PUSH1 0x40 SWAP1 KECCAK256 SLOAD PUSH1 0xFF AND PUSH2 0x3D5 JUMPI PUSH1 0x1 PUSH1 0x1 PUSH1 0xA0 SHL SUB AND PUSH1 0x0 DUP2 DUP2 MSTORE PUSH1 0x0 DUP1 MLOAD PUSH1 0x20 PUSH2 0x4901 DUP4 CODECOPY DUP2 MLOAD SWAP2 MSTORE PUSH1 0x20 MSTORE PUSH1 0x40 DUP2 KECCAK256 DUP1 SLOAD PUSH1 0xFF NOT AND PUSH1 0x1 OR SWAP1 SSTORE CALLER SWAP2 SWAP1 PUSH32 0xD59B2497EBC6A7B17400211976B8406E1F8B300D75EF805D3C4031AE66DCDF1E SWAP1 PUSH1 0x0 DUP1 MLOAD PUSH1 0x20 PUSH2 0x48E1 DUP4 CODECOPY DUP2 MLOAD SWAP2 MSTORE SWAP1 DUP1 LOG4 PUSH1 0x1 SWAP1 JUMP JUMPDEST POP PUSH1 0x0 SWAP1 JUMP JUMPDEST PUSH1 0x1 PUSH1 0x1 PUSH1 0xA0 SHL SUB DUP2 AND PUSH1 0x0 SWAP1 DUP2 MSTORE PUSH1 0x0 DUP1 MLOAD PUSH1 0x20 PUSH2 0x4921 DUP4 CODECOPY DUP2 MLOAD SWAP2 MSTORE PUSH1 0x20 MSTORE PUSH1 0x40 SWAP1 KECCAK256 SLOAD PUSH1 0xFF AND PUSH2 0x3D5 JUMPI PUSH1 0x1 PUSH1 0x1 PUSH1 0xA0 SHL SUB AND PUSH1 0x0 DUP2 DUP2 MSTORE PUSH1 0x0 DUP1 MLOAD PUSH1 0x20 PUSH2 0x4921 DUP4 CODECOPY DUP2 MLOAD SWAP2 MSTORE PUSH1 0x20 MSTORE PUSH1 0x40 DUP2 KECCAK256 DUP1 SLOAD PUSH1 0xFF NOT AND PUSH1 0x1 OR SWAP1 SSTORE CALLER SWAP2 SWAP1 PUSH32 0xA49807205CE4D355092EF5A8A18F56E8913CF4A201FBE287825B095693C21775 SWAP1 PUSH1 0x0 DUP1 MLOAD PUSH1 0x20 PUSH2 0x48E1 DUP4 CODECOPY DUP2 MLOAD SWAP2 MSTORE SWAP1 DUP1 LOG4 PUSH1 0x1 SWAP1 JUMP INVALID PUSH1 0x80 DUP1 PUSH1 0x40 MSTORE PUSH1 0x4 CALLDATASIZE LT ISZERO PUSH2 0x13 JUMPI PUSH1 0x0 DUP1 REVERT JUMPDEST PUSH1 0x0 CALLDATALOAD PUSH1 0xE0 SHR SWAP1 DUP2 PUSH4 0x1FFC9A7 EQ PUSH2 0x33F5 JUMPI POP DUP1 PUSH4 0x14B9AF55 EQ PUSH2 0x31B3 JUMPI DUP1 PUSH4 0x170C3898 EQ PUSH2 0x2DCC JUMPI DUP1 PUSH4 0x1A8254F5 EQ PUSH2 0x2D0D JUMPI DUP1 PUSH4 0x2079FB9A EQ PUSH2 0x2CE4 JUMPI DUP1 PUSH4 0x211DC32D EQ PUSH2 0x2CB8 JUMPI DUP1 PUSH4 0x248A9CA3 EQ PUSH2 0x2C83 JUMPI DUP1 PUSH4 0x263A8C68 EQ PUSH2 0x2C54 JUMPI DUP1 PUSH4 0x28119FFA EQ PUSH2 0x2C12 JUMPI DUP1 PUSH4 0x2B4B16B1 EQ PUSH2 0x2A88 JUMPI DUP1 PUSH4 0x2CE9AEAD EQ PUSH2 0x2A4E JUMPI DUP1 PUSH4 0x2F2FF15D EQ PUSH2 0x2A0E JUMPI DUP1 PUSH4 0x3033C090 EQ PUSH2 0x29D3 JUMPI DUP1 PUSH4 0x343A0B1C EQ PUSH2 0x2862 JUMPI DUP1 PUSH4 0x36568ABE EQ PUSH2 0x281C JUMPI DUP1 PUSH4 0x3F8A46EE EQ PUSH2 0x2688 JUMPI DUP1 PUSH4 0x53D61813 EQ PUSH2 0x252D JUMPI DUP1 PUSH4 0x599C5533 EQ PUSH2 0x2511 JUMPI DUP1 PUSH4 0x602BACCC EQ PUSH2 0x24AE JUMPI DUP1 PUSH4 0x69C28F7B EQ PUSH2 0x2486 JUMPI DUP1 PUSH4 0x70EC86D5 EQ PUSH2 0x2468 JUMPI DUP1 PUSH4 0x75B238FC EQ PUSH2 0x243F JUMPI DUP1 PUSH4 0x767EB5EF EQ PUSH2 0x2263 JUMPI DUP1 PUSH4 0x7B9736B8 EQ PUSH2 0x21AB JUMPI DUP1 PUSH4 0x83240F83 EQ PUSH2 0x207B JUMPI DUP1 PUSH4 0x842E2981 EQ PUSH2 0x1E47 JUMPI DUP1 PUSH4 0x862D2D7C EQ PUSH2 0x1DD1 JUMPI DUP1 PUSH4 0x91D14854 EQ PUSH2 0x1D84 JUMPI DUP1 PUSH4 0x94CF795E EQ PUSH2 0x1D21 JUMPI DUP1 PUSH4 0x96C82E57 EQ PUSH2 0x1D03 JUMPI DUP1 PUSH4 0x996CF233 EQ PUSH2 0x1CE7 JUMPI DUP1 PUSH4 0x9CE43F90 EQ PUSH2 0x1CAD JUMPI DUP1 PUSH4 0xA217FDDF EQ PUSH2 0x1C91 JUMPI DUP1 PUSH4 0xAAF5EB68 EQ PUSH2 0x1C6E JUMPI DUP1 PUSH4 0xADC9772E EQ PUSH2 0x1A70 JUMPI DUP1 PUSH4 0xC0C1CF55 EQ PUSH2 0xD6B JUMPI DUP1 PUSH4 0xC2A672E0 EQ PUSH2 0xB7B JUMPI DUP1 PUSH4 0xCB1C2B5C EQ PUSH2 0xB59 JUMPI DUP1 PUSH4 0xD4FF73F7 EQ PUSH2 0xAC7 JUMPI DUP1 PUSH4 0xD547741F EQ PUSH2 0xA80 JUMPI DUP1 PUSH4 0xD785B595 EQ PUSH2 0xA0F JUMPI DUP1 PUSH4 0xE4A28A52 EQ PUSH2 0x9EB JUMPI DUP1 PUSH4 0xE65F55B9 EQ PUSH2 0x72E JUMPI DUP1 PUSH4 0xEF5CFB8C EQ PUSH2 0x5FC JUMPI DUP1 PUSH4 0xF33D5647 EQ PUSH2 0x407 JUMPI DUP1 PUSH4 0xF7C618C1 EQ PUSH2 0x3DE JUMPI DUP1 PUSH4 0xF80F4023 EQ PUSH2 0x39F JUMPI DUP1 PUSH4 0xFAFBC0F6 EQ PUSH2 0x324 JUMPI DUP1 PUSH4 0xFDBD98B0 EQ PUSH2 0x306 JUMPI PUSH4 0xFE33B302 EQ PUSH2 0x245 JUMPI PUSH1 0x0 DUP1 REVERT JUMPDEST CALLVALUE PUSH2 0x301 JUMPI PUSH1 0x20 CALLDATASIZE PUSH1 0x3 NOT ADD SLT PUSH2 0x301 JUMPI PUSH1 0x1 PUSH1 0x1 PUSH1 0xA0 SHL SUB PUSH2 0x266 PUSH2 0x3448 JUMP JUMPDEST AND PUSH1 0x0 MSTORE PUSH1 0x4 PUSH1 0x20 MSTORE PUSH1 0x40 PUSH1 0x0 KECCAK256 PUSH1 0x1 DUP1 PUSH1 0xA0 SHL SUB DUP2 SLOAD AND PUSH1 0x40 MLOAD SWAP2 PUSH2 0x29A DUP4 PUSH2 0x293 DUP2 PUSH1 0x1 DUP6 ADD PUSH2 0x35C3 JUMP JUMPDEST SUB DUP5 PUSH2 0x367C JUMP JUMPDEST PUSH1 0x40 MLOAD PUSH2 0x2B5 DUP2 PUSH2 0x2AE DUP2 PUSH1 0x2 DUP7 ADD PUSH2 0x35C3 JUMP JUMPDEST SUB DUP3 PUSH2 0x367C JUMP JUMPDEST PUSH2 0x2F0 PUSH1 0xFF PUSH1 0x4 PUSH1 0x3 DUP6 ADD SLOAD SWAP5 ADD SLOAD AND SWAP2 PUSH2 0x2E2 PUSH1 0x40 MLOAD SWAP7 DUP8 SWAP7 DUP8 MSTORE PUSH1 0xA0 PUSH1 0x20 DUP9 ADD MSTORE PUSH1 0xA0 DUP8 ADD SWAP1 PUSH2 0x3548 JUMP JUMPDEST SWAP1 DUP6 DUP3 SUB PUSH1 0x40 DUP8 ADD MSTORE PUSH2 0x3548 JUMP JUMPDEST SWAP2 PUSH1 0x60 DUP5 ADD MSTORE ISZERO ISZERO PUSH1 0x80 DUP4 ADD MSTORE SUB SWAP1 RETURN JUMPDEST PUSH1 0x0 DUP1 REVERT JUMPDEST CALLVALUE PUSH2 0x301 JUMPI PUSH1 0x0 CALLDATASIZE PUSH1 0x3 NOT ADD SLT PUSH2 0x301 JUMPI PUSH1 0x20 PUSH1 0xB SLOAD PUSH1 0x40 MLOAD SWAP1 DUP2 MSTORE RETURN JUMPDEST CALLVALUE PUSH2 0x301 JUMPI PUSH1 0x20 CALLDATASIZE PUSH1 0x3 NOT ADD SLT PUSH2 0x301 JUMPI PUSH1 0x4 CALLDATALOAD PUSH1 0x0 MSTORE PUSH1 0xC PUSH1 0x20 MSTORE PUSH2 0x2AE PUSH2 0x35A PUSH1 0x3 PUSH1 0x40 PUSH1 0x0 KECCAK256 ADD PUSH1 0x40 MLOAD SWAP3 DUP4 DUP1 SWAP3 PUSH2 0x3D08 JUMP JUMPDEST PUSH1 0x40 MLOAD DUP1 SWAP2 PUSH1 0x20 DUP3 ADD PUSH1 0x20 DUP4 MSTORE DUP2 MLOAD DUP1 SWAP2 MSTORE PUSH1 0x20 PUSH1 0x40 DUP5 ADD SWAP3 ADD SWAP1 PUSH1 0x0 JUMPDEST DUP2 DUP2 LT PUSH2 0x386 JUMPI POP POP POP SUB SWAP1 RETURN JUMPDEST DUP3 MLOAD DUP5 MSTORE DUP6 SWAP5 POP PUSH1 0x20 SWAP4 DUP5 ADD SWAP4 SWAP1 SWAP3 ADD SWAP2 PUSH1 0x1 ADD PUSH2 0x378 JUMP JUMPDEST CALLVALUE PUSH2 0x301 JUMPI PUSH1 0x20 CALLDATASIZE PUSH1 0x3 NOT ADD SLT PUSH2 0x301 JUMPI PUSH1 0x4 CALLDATALOAD PUSH1 0x0 MSTORE PUSH1 0xC PUSH1 0x20 MSTORE PUSH2 0x3DA PUSH2 0x3CE PUSH1 0xC PUSH1 0x40 PUSH1 0x0 KECCAK256 ADD PUSH2 0x3A0E JUMP JUMPDEST PUSH1 0x40 MLOAD SWAP2 DUP3 SWAP2 DUP3 PUSH2 0x3505 JUMP JUMPDEST SUB SWAP1 RETURN JUMPDEST CALLVALUE PUSH2 0x301 JUMPI PUSH1 0x0 CALLDATASIZE PUSH1 0x3 NOT ADD SLT PUSH2 0x301 JUMPI PUSH1 0x2 SLOAD PUSH1 0x40 MLOAD PUSH1 0x1 PUSH1 0x1 PUSH1 0xA0 SHL SUB SWAP1 SWAP2 AND DUP2 MSTORE PUSH1 0x20 SWAP1 RETURN JUMPDEST CALLVALUE PUSH2 0x301 JUMPI PUSH1 0x40 CALLDATASIZE PUSH1 0x3 NOT ADD SLT PUSH2 0x301 JUMPI PUSH2 0x420 PUSH2 0x3448 JUMP JUMPDEST PUSH2 0x428 PUSH2 0x345E JUMP JUMPDEST PUSH2 0x430 PUSH2 0x3D89 JUMP JUMPDEST PUSH1 0x1 PUSH1 0x1 PUSH1 0xA0 SHL SUB DUP3 AND PUSH1 0x0 SWAP1 DUP2 MSTORE PUSH1 0x0 DUP1 MLOAD PUSH1 0x20 PUSH2 0x43F8 DUP4 CODECOPY DUP2 MLOAD SWAP2 MSTORE PUSH1 0x20 MSTORE PUSH1 0x40 SWAP1 KECCAK256 SLOAD PUSH1 0xFF AND ISZERO PUSH2 0x5C0 JUMPI PUSH1 0x1 PUSH1 0x1 PUSH1 0xA0 SHL SUB DUP2 AND PUSH1 0x0 SWAP1 DUP2 MSTORE PUSH1 0x0 DUP1 MLOAD PUSH1 0x20 PUSH2 0x43F8 DUP4 CODECOPY DUP2 MLOAD SWAP2 MSTORE PUSH1 0x20 MSTORE PUSH1 0x40 SWAP1 KECCAK256 SLOAD PUSH1 0xFF AND PUSH2 0x57B JUMPI PUSH1 0x1 PUSH1 0x1 PUSH1 0xA0 SHL SUB DUP2 AND ISZERO PUSH2 0x541 JUMPI PUSH2 0x4A5 PUSH1 0xB SLOAD PUSH2 0x36CD JUMP JUMPDEST DUP1 PUSH1 0xB SSTORE PUSH1 0x0 MSTORE PUSH1 0xC PUSH1 0x20 MSTORE PUSH1 0x40 PUSH1 0x0 KECCAK256 SWAP2 PUSH1 0x4 PUSH1 0xFF NOT DUP5 SLOAD AND OR DUP4 SSTORE PUSH1 0x4 DUP4 ADD SWAP1 PUSH1 0x1 DUP1 PUSH1 0xA0 SHL SUB AND PUSH1 0x1 PUSH1 0x1 PUSH1 0x60 SHL SUB PUSH1 0xA0 SHL DUP3 SLOAD AND OR SWAP1 SSTORE PUSH1 0x8 DUP3 ADD SWAP1 PUSH1 0x1 DUP1 PUSH1 0xA0 SHL SUB AND PUSH1 0x1 PUSH1 0x1 PUSH1 0x60 SHL SUB PUSH1 0xA0 SHL DUP3 SLOAD AND OR SWAP1 SSTORE PUSH1 0xD TIMESTAMP SWAP2 ADD SSTORE PUSH2 0x534 PUSH1 0xB SLOAD PUSH1 0x0 DUP1 MLOAD PUSH1 0x20 PUSH2 0x43D8 DUP4 CODECOPY DUP2 MLOAD SWAP2 MSTORE PUSH1 0x60 PUSH1 0x40 MLOAD DUP4 DUP2 MSTORE CALLER PUSH1 0x20 DUP3 ADD MSTORE PUSH1 0x4 PUSH1 0x40 DUP3 ADD MSTORE LOG1 PUSH2 0x3E14 JUMP JUMPDEST PUSH1 0x20 PUSH1 0xB SLOAD PUSH1 0x40 MLOAD SWAP1 DUP2 MSTORE RETURN JUMPDEST PUSH1 0x40 MLOAD PUSH3 0x461BCD PUSH1 0xE5 SHL DUP2 MSTORE PUSH1 0x20 PUSH1 0x4 DUP3 ADD MSTORE PUSH1 0x12 PUSH1 0x24 DUP3 ADD MSTORE PUSH18 0x24B73B30B634B2103732BB9039B4B3B732B9 PUSH1 0x71 SHL PUSH1 0x44 DUP3 ADD MSTORE PUSH1 0x64 SWAP1 REVERT JUMPDEST PUSH1 0x40 MLOAD PUSH3 0x461BCD PUSH1 0xE5 SHL DUP2 MSTORE PUSH1 0x20 PUSH1 0x4 DUP3 ADD MSTORE PUSH1 0x19 PUSH1 0x24 DUP3 ADD MSTORE PUSH32 0x4E6577207369676E657220616C72656164792065786973747300000000000000 PUSH1 0x44 DUP3 ADD MSTORE PUSH1 0x64 SWAP1 REVERT JUMPDEST PUSH1 0x40 MLOAD PUSH3 0x461BCD PUSH1 0xE5 SHL DUP2 MSTORE PUSH1 0x20 PUSH1 0x4 DUP3 ADD MSTORE PUSH1 0x14 PUSH1 0x24 DUP3 ADD MSTORE PUSH20 0x13DB19081CDA59DB995C881B9BDD08199BDD5B99 PUSH1 0x62 SHL PUSH1 0x44 DUP3 ADD MSTORE PUSH1 0x64 SWAP1 REVERT JUMPDEST CALLVALUE PUSH2 0x301 JUMPI PUSH1 0x20 CALLDATASIZE PUSH1 0x3 NOT ADD SLT PUSH2 0x301 JUMPI PUSH2 0x615 PUSH2 0x3448 JUMP JUMPDEST PUSH2 0x61D PUSH2 0x41C8 JUMP JUMPDEST PUSH1 0x1 DUP1 PUSH1 0xA0 SHL SUB DUP2 AND SWAP1 DUP2 PUSH1 0x0 MSTORE PUSH1 0x4 PUSH1 0x20 MSTORE PUSH2 0x644 PUSH1 0xFF PUSH1 0x4 PUSH1 0x40 PUSH1 0x0 KECCAK256 ADD SLOAD AND PUSH2 0x3C4B JUMP JUMPDEST PUSH2 0x64D DUP2 PUSH2 0x41EA JUMP JUMPDEST PUSH2 0x657 DUP2 CALLER PUSH2 0x3811 JUMP JUMPDEST SWAP1 DUP2 ISZERO PUSH2 0x6F3 JUMPI PUSH32 0x9310CCFCB8DE723F578A9E4282EA9F521F05AE40DC08F3068DFAD528A65EE3C7 SWAP3 CALLER PUSH1 0x0 MSTORE PUSH1 0x5 PUSH1 0x20 MSTORE PUSH1 0x40 PUSH1 0x0 KECCAK256 DUP2 PUSH1 0x0 MSTORE PUSH1 0x20 MSTORE PUSH1 0x40 PUSH1 0x0 KECCAK256 SWAP1 PUSH1 0x0 PUSH1 0x2 DUP4 ADD SSTORE PUSH1 0x0 MSTORE PUSH1 0x8 PUSH1 0x20 MSTORE PUSH1 0x3 PUSH1 0x40 PUSH1 0x0 KECCAK256 SLOAD SWAP2 ADD SSTORE PUSH2 0x6CA DUP3 CALLER PUSH1 0x1 DUP1 PUSH1 0xA0 SHL SUB PUSH1 0x2 SLOAD AND PUSH2 0x4323 JUMP JUMPDEST PUSH1 0x40 DUP1 MLOAD CALLER DUP2 MSTORE PUSH1 0x1 PUSH1 0x1 PUSH1 0xA0 SHL SUB SWAP3 SWAP1 SWAP3 AND PUSH1 0x20 DUP4 ADD MSTORE DUP2 ADD SWAP2 SWAP1 SWAP2 MSTORE PUSH1 0x60 SWAP1 LOG1 PUSH1 0x1 PUSH1 0x0 SSTORE STOP JUMPDEST PUSH1 0x40 MLOAD PUSH3 0x461BCD PUSH1 0xE5 SHL DUP2 MSTORE PUSH1 0x20 PUSH1 0x4 DUP3 ADD MSTORE PUSH1 0x13 PUSH1 0x24 DUP3 ADD MSTORE PUSH19 0x4E6F207265776172647320746F20636C61696D PUSH1 0x68 SHL PUSH1 0x44 DUP3 ADD MSTORE PUSH1 0x64 SWAP1 REVERT JUMPDEST CALLVALUE PUSH2 0x301 JUMPI PUSH1 0x40 CALLDATASIZE PUSH1 0x3 NOT ADD SLT PUSH2 0x301 JUMPI PUSH1 0x4 CALLDATALOAD PUSH1 0x1 PUSH1 0x1 PUSH1 0x40 SHL SUB DUP2 GT PUSH2 0x301 JUMPI PUSH2 0x75E SWAP1 CALLDATASIZE SWAP1 PUSH1 0x4 ADD PUSH2 0x369D JUMP JUMPDEST PUSH1 0x24 CALLDATALOAD PUSH1 0x1 PUSH1 0x1 PUSH1 0x40 SHL SUB DUP2 GT PUSH2 0x301 JUMPI PUSH2 0x77D SWAP1 CALLDATASIZE SWAP1 PUSH1 0x4 ADD PUSH2 0x369D JUMP JUMPDEST SWAP2 PUSH2 0x786 PUSH2 0x3D89 JUMP JUMPDEST DUP3 DUP2 SUB PUSH2 0x9A6 JUMPI DUP1 ISZERO PUSH2 0x961 JUMPI PUSH2 0x7A0 PUSH1 0x64 DUP3 GT ISZERO PUSH2 0x3CCB JUMP JUMPDEST PUSH1 0x0 JUMPDEST DUP4 DUP2 LT PUSH2 0x8D3 JUMPI POP PUSH2 0x7B6 PUSH1 0xB SLOAD PUSH2 0x36CD JUMP JUMPDEST DUP1 PUSH1 0xB SSTORE PUSH1 0x0 MSTORE PUSH1 0xC PUSH1 0x20 MSTORE PUSH1 0x40 PUSH1 0x0 KECCAK256 SWAP4 PUSH1 0x1 PUSH1 0xFF NOT DUP7 SLOAD AND OR DUP6 SSTORE PUSH1 0x2 DUP6 ADD SWAP1 PUSH1 0x1 PUSH1 0x1 PUSH1 0x40 SHL SUB DUP4 GT PUSH2 0x8A2 JUMPI PUSH1 0x1 PUSH1 0x40 SHL DUP4 GT PUSH2 0x8A2 JUMPI PUSH2 0x800 DUP4 DUP4 SLOAD DUP2 DUP6 SSTORE DUP5 PUSH2 0x3D66 JUMP JUMPDEST SWAP1 PUSH1 0x0 MSTORE PUSH1 0x20 PUSH1 0x0 KECCAK256 PUSH1 0x0 JUMPDEST DUP4 DUP2 LT PUSH2 0x8B8 JUMPI POP POP POP POP PUSH1 0x3 DUP4 ADD SWAP1 PUSH1 0x1 PUSH1 0x1 PUSH1 0x40 SHL SUB DUP4 GT PUSH2 0x8A2 JUMPI PUSH1 0x1 PUSH1 0x40 SHL DUP4 GT PUSH2 0x8A2 JUMPI PUSH2 0x844 DUP4 DUP4 SLOAD DUP2 DUP6 SSTORE DUP5 PUSH2 0x3D66 JUMP JUMPDEST SWAP1 PUSH1 0x0 MSTORE PUSH1 0x20 PUSH1 0x0 KECCAK256 PUSH1 0x0 JUMPDEST DUP4 DUP2 LT PUSH2 0x88E JUMPI DUP5 PUSH1 0xD TIMESTAMP SWAP2 ADD SSTORE PUSH2 0x534 PUSH1 0xB SLOAD PUSH1 0x0 DUP1 MLOAD PUSH1 0x20 PUSH2 0x43D8 DUP4 CODECOPY DUP2 MLOAD SWAP2 MSTORE PUSH1 0x60 PUSH1 0x40 MLOAD DUP4 DUP2 MSTORE CALLER PUSH1 0x20 DUP3 ADD MSTORE PUSH1 0x1 PUSH1 0x40 DUP3 ADD MSTORE LOG1 PUSH2 0x3E14 JUMP JUMPDEST PUSH1 0x1 SWAP1 PUSH1 0x20 DUP5 CALLDATALOAD SWAP5 ADD SWAP4 DUP2 DUP5 ADD SSTORE ADD PUSH2 0x850 JUMP JUMPDEST PUSH4 0x4E487B71 PUSH1 0xE0 SHL PUSH1 0x0 MSTORE PUSH1 0x41 PUSH1 0x4 MSTORE PUSH1 0x24 PUSH1 0x0 REVERT JUMPDEST PUSH1 0x1 SWAP1 PUSH1 0x20 PUSH2 0x8C6 DUP6 PUSH2 0x3D52 JUMP JUMPDEST SWAP5 ADD SWAP4 DUP2 DUP5 ADD SSTORE ADD PUSH2 0x80C JUMP JUMPDEST PUSH2 0x8F3 PUSH9 0x3635C9ADC5DEA00000 PUSH2 0x8EB DUP4 DUP8 DUP8 PUSH2 0x3D42 JUMP JUMPDEST CALLDATALOAD GT ISZERO PUSH2 0x36DC JUMP JUMPDEST PUSH1 0x1 PUSH1 0x1 PUSH1 0xA0 SHL SUB PUSH2 0x90E PUSH2 0x909 DUP4 DUP6 DUP10 PUSH2 0x3D42 JUMP JUMPDEST PUSH2 0x3D52 JUMP JUMPDEST AND ISZERO PUSH2 0x91C JUMPI PUSH1 0x1 ADD PUSH2 0x7A3 JUMP JUMPDEST PUSH1 0x40 MLOAD PUSH3 0x461BCD PUSH1 0xE5 SHL DUP2 MSTORE PUSH1 0x20 PUSH1 0x4 DUP3 ADD MSTORE PUSH1 0x18 PUSH1 0x24 DUP3 ADD MSTORE PUSH32 0x496E76616C6964204C5020746F6B656E20616464726573730000000000000000 PUSH1 0x44 DUP3 ADD MSTORE PUSH1 0x64 SWAP1 REVERT JUMPDEST PUSH1 0x40 MLOAD PUSH3 0x461BCD PUSH1 0xE5 SHL DUP2 MSTORE PUSH1 0x20 PUSH1 0x4 DUP3 ADD MSTORE PUSH1 0x18 PUSH1 0x24 DUP3 ADD MSTORE PUSH32 0x456D70747920617272617973206E6F7420616C6C6F7765640000000000000000 PUSH1 0x44 DUP3 ADD MSTORE PUSH1 0x64 SWAP1 REVERT JUMPDEST PUSH1 0x40 MLOAD PUSH3 0x461BCD PUSH1 0xE5 SHL DUP2 MSTORE PUSH1 0x20 PUSH1 0x4 DUP3 ADD MSTORE PUSH1 0x18 PUSH1 0x24 DUP3 ADD MSTORE PUSH32 0x4172726179206C656E67746873206D757374206D617463680000000000000000 PUSH1 0x44 DUP3 ADD MSTORE PUSH1 0x64 SWAP1 REVERT JUMPDEST CALLVALUE PUSH2 0x301 JUMPI PUSH1 0x0 CALLDATASIZE PUSH1 0x3 NOT ADD SLT PUSH2 0x301 JUMPI PUSH1 0x20 PUSH1 0x40 MLOAD PUSH9 0x3635C9ADC5DEA00000 DUP2 MSTORE RETURN JUMPDEST CALLVALUE PUSH2 0x301 JUMPI PUSH1 0x40 CALLDATASIZE PUSH1 0x3 NOT ADD SLT PUSH2 0x301 JUMPI PUSH1 0x60 PUSH2 0xA2A PUSH2 0x3448 JUMP JUMPDEST PUSH2 0xA32 PUSH2 0x345E JUMP JUMPDEST PUSH1 0x1 DUP1 PUSH1 0xA0 SHL SUB DUP3 AND PUSH1 0x0 MSTORE PUSH1 0x5 PUSH1 0x20 MSTORE PUSH1 0x40 PUSH1 0x0 KECCAK256 PUSH1 0x1 DUP1 PUSH1 0xA0 SHL SUB DUP3 AND PUSH1 0x0 MSTORE PUSH1 0x20 MSTORE PUSH1 0x1 PUSH2 0xA6A PUSH1 0x40 PUSH1 0x0 KECCAK256 SWAP3 DUP4 SLOAD SWAP5 PUSH2 0x3811 JUMP JUMPDEST SWAP2 ADD SLOAD SWAP1 PUSH1 0x40 MLOAD SWAP3 DUP4 MSTORE PUSH1 0x20 DUP4 ADD MSTORE PUSH1 0x40 DUP3 ADD MSTORE RETURN JUMPDEST CALLVALUE PUSH2 0x301 JUMPI PUSH1 0x40 CALLDATASIZE PUSH1 0x3 NOT ADD SLT PUSH2 0x301 JUMPI PUSH2 0xAC5 PUSH1 0x4 CALLDATALOAD PUSH2 0xA9F PUSH2 0x345E JUMP JUMPDEST SWAP1 PUSH2 0xAC0 PUSH2 0xABB DUP3 PUSH1 0x0 MSTORE PUSH1 0x1 PUSH1 0x20 MSTORE PUSH1 0x1 PUSH1 0x40 PUSH1 0x0 KECCAK256 ADD SLOAD SWAP1 JUMP JUMPDEST PUSH2 0x3DD7 JUMP JUMPDEST PUSH2 0x4142 JUMP JUMPDEST STOP JUMPDEST CALLVALUE PUSH2 0x301 JUMPI PUSH1 0x20 CALLDATASIZE PUSH1 0x3 NOT ADD SLT PUSH2 0x301 JUMPI PUSH1 0x1 PUSH1 0x1 PUSH1 0xA0 SHL SUB PUSH2 0xAE8 PUSH2 0x3448 JUMP JUMPDEST AND PUSH1 0x0 MSTORE PUSH1 0x4 PUSH1 0x20 MSTORE PUSH1 0x2 PUSH1 0x40 PUSH1 0x0 KECCAK256 PUSH1 0x1 DUP1 PUSH1 0xA0 SHL SUB DUP2 SLOAD AND SWAP1 PUSH1 0x3 DUP2 ADD SLOAD SWAP1 PUSH2 0xB2C PUSH1 0xFF PUSH1 0x4 DUP4 ADD SLOAD AND SWAP2 PUSH2 0xB25 PUSH1 0x40 MLOAD DUP1 SWAP8 DUP2 SWAP4 ADD PUSH2 0x35C3 JUMP JUMPDEST SUB DUP6 PUSH2 0x367C JUMP JUMPDEST PUSH2 0xB48 PUSH1 0x40 MLOAD SWAP5 DUP6 SWAP5 DUP6 MSTORE PUSH1 0x80 PUSH1 0x20 DUP7 ADD MSTORE PUSH1 0x80 DUP6 ADD SWAP1 PUSH2 0x3548 JUMP JUMPDEST SWAP2 PUSH1 0x40 DUP5 ADD MSTORE ISZERO ISZERO PUSH1 0x60 DUP4 ADD MSTORE SUB SWAP1 RETURN JUMPDEST CALLVALUE PUSH2 0x301 JUMPI PUSH1 0x0 CALLDATASIZE PUSH1 0x3 NOT ADD SLT PUSH2 0x301 JUMPI PUSH1 0x20 PUSH1 0x40 MLOAD PUSH7 0x38D7EA4C68000 DUP2 MSTORE RETURN JUMPDEST CALLVALUE PUSH2 0x301 JUMPI PUSH1 0x40 CALLDATASIZE PUSH1 0x3 NOT ADD SLT PUSH2 0x301 JUMPI PUSH2 0xB94 PUSH2 0x3448 JUMP JUMPDEST PUSH1 0x24 CALLDATALOAD PUSH2 0xB9F PUSH2 0x41C8 JUMP JUMPDEST PUSH1 0x1 DUP1 PUSH1 0xA0 SHL SUB DUP3 AND SWAP1 DUP2 PUSH1 0x0 MSTORE PUSH1 0x4 PUSH1 0x20 MSTORE PUSH2 0xBC6 PUSH1 0xFF PUSH1 0x4 PUSH1 0x40 PUSH1 0x0 KECCAK256 ADD SLOAD AND PUSH2 0x3C4B JUMP JUMPDEST CALLER PUSH1 0x0 MSTORE PUSH1 0x5 PUSH1 0x20 MSTORE PUSH1 0x40 DUP1 PUSH1 0x0 KECCAK256 PUSH1 0x0 SWAP1 DUP5 DUP3 MSTORE PUSH1 0x20 MSTORE KECCAK256 DUP2 DUP2 SLOAD LT PUSH2 0xD31 JUMPI PUSH32 0xC970F16CD3EC5B32F311B9501D3274F497DB81BB41EF2937FAD509E835BBD251 SWAP2 PUSH2 0xC85 SWAP2 PUSH2 0xC16 DUP7 PUSH2 0x41EA JUMP JUMPDEST DUP2 PUSH2 0xC21 DUP8 CALLER PUSH2 0x3811 JUMP JUMPDEST SWAP6 PUSH1 0x0 PUSH1 0x2 DUP5 ADD SSTORE DUP1 PUSH1 0x0 MSTORE PUSH1 0x8 PUSH1 0x20 MSTORE PUSH1 0x40 PUSH1 0x0 KECCAK256 SLOAD PUSH1 0x3 DUP5 ADD SSTORE DUP3 SLOAD DUP1 DUP4 EQ PUSH1 0x0 EQ PUSH2 0xCFB JUMPI POP PUSH1 0x0 PUSH2 0xC58 SWAP4 SSTORE CALLER SWAP1 PUSH2 0x4323 JUMP JUMPDEST DUP4 PUSH2 0xCDD JUMPI JUMPDEST PUSH1 0x40 DUP1 MLOAD CALLER DUP2 MSTORE PUSH1 0x1 PUSH1 0x1 PUSH1 0xA0 SHL SUB DUP8 AND PUSH1 0x20 DUP3 ADD MSTORE SWAP1 DUP2 ADD SWAP2 SWAP1 SWAP2 MSTORE SWAP1 DUP2 SWAP1 PUSH1 0x60 DUP3 ADD SWAP1 JUMP JUMPDEST SUB SWAP1 LOG1 DUP1 PUSH2 0xC95 JUMPI JUMPDEST PUSH1 0x1 PUSH1 0x0 SSTORE STOP JUMPDEST PUSH1 0x40 DUP1 MLOAD CALLER DUP2 MSTORE PUSH1 0x1 PUSH1 0x1 PUSH1 0xA0 SHL SUB SWAP4 SWAP1 SWAP4 AND PUSH1 0x20 DUP5 ADD MSTORE DUP3 ADD MSTORE PUSH32 0x9310CCFCB8DE723F578A9E4282EA9F521F05AE40DC08F3068DFAD528A65EE3C7 SWAP1 PUSH1 0x60 SWAP1 LOG1 DUP1 DUP1 PUSH2 0xC8E JUMP JUMPDEST PUSH1 0x2 SLOAD PUSH2 0xCF6 SWAP1 DUP6 SWAP1 CALLER SWAP1 PUSH1 0x1 PUSH1 0x1 PUSH1 0xA0 SHL SUB AND PUSH2 0x4323 JUMP JUMPDEST PUSH2 0xC5E JUMP JUMPDEST SWAP3 PUSH2 0xD09 DUP4 PUSH2 0xD12 SWAP6 PUSH2 0x37C4 JUMP JUMPDEST SWAP1 SSTORE CALLER SWAP1 PUSH2 0x4323 JUMP JUMPDEST DUP4 ISZERO PUSH2 0xC5E JUMPI PUSH1 0x2 SLOAD PUSH2 0xCF6 SWAP1 DUP6 SWAP1 CALLER SWAP1 PUSH1 0x1 PUSH1 0x1 PUSH1 0xA0 SHL SUB AND PUSH2 0x4323 JUMP JUMPDEST PUSH1 0x40 MLOAD PUSH3 0x461BCD PUSH1 0xE5 SHL DUP2 MSTORE PUSH1 0x20 PUSH1 0x4 DUP3 ADD MSTORE PUSH1 0x12 PUSH1 0x24 DUP3 ADD MSTORE PUSH18 0x496E73756666696369656E74207374616B65 PUSH1 0x70 SHL PUSH1 0x44 DUP3 ADD MSTORE PUSH1 0x64 SWAP1 REVERT JUMPDEST CALLVALUE PUSH2 0x301 JUMPI PUSH1 0x20 CALLDATASIZE PUSH1 0x3 NOT ADD SLT PUSH2 0x301 JUMPI PUSH1 0x4 CALLDATALOAD PUSH2 0xD87 PUSH2 0x3D89 JUMP JUMPDEST DUP1 ISZERO ISZERO DUP1 PUSH2 0x1A64 JUMPI JUMPDEST PUSH2 0xD99 SWAP1 PUSH2 0x3A62 JUMP JUMPDEST DUP1 PUSH1 0x0 MSTORE PUSH1 0xC PUSH1 0x20 MSTORE PUSH1 0x40 PUSH1 0x0 KECCAK256 SWAP1 PUSH1 0xB DUP3 ADD SWAP2 PUSH1 0x3 PUSH1 0xFF DUP5 SLOAD PUSH2 0xDBF DUP3 DUP3 AND ISZERO PUSH2 0x3AA1 JUMP JUMPDEST PUSH2 0xDCE DUP3 DUP3 PUSH1 0x8 SHR AND ISZERO PUSH2 0x3AE0 JUMP JUMPDEST PUSH2 0xDDE DUP3 PUSH1 0xE DUP7 ADD SLOAD AND ISZERO PUSH2 0x3C89 JUMP JUMPDEST PUSH1 0x10 SHR AND LT PUSH2 0x1A28 JUMPI PUSH1 0xD DUP2 ADD SLOAD PUSH3 0x93A80 DUP2 ADD DUP1 SWAP2 GT PUSH2 0x1680 JUMPI PUSH2 0xE05 SWAP1 TIMESTAMP GT ISZERO PUSH2 0x3AE0 JUMP JUMPDEST PUSH1 0xFF DUP2 SLOAD AND PUSH1 0x6 DUP2 LT ISZERO SWAP1 DUP2 PUSH2 0x1985 JUMPI PUSH1 0x2 DUP2 EQ SWAP2 DUP3 ISZERO PUSH2 0x1A1C JUMPI JUMPDEST DUP3 ISZERO PUSH2 0x1A0B JUMPI JUMPDEST DUP3 ISZERO PUSH2 0x19FA JUMPI JUMPDEST POP POP PUSH2 0x199B JUMPI JUMPDEST PUSH1 0xFF DUP2 SLOAD AND PUSH1 0x6 DUP2 LT ISZERO PUSH2 0x1985 JUMPI DUP1 PUSH2 0xEA4 JUMPI POP SWAP1 PUSH1 0x0 DUP1 MLOAD PUSH1 0x20 PUSH2 0x43B8 DUP4 CODECOPY DUP2 MLOAD SWAP2 MSTORE SWAP3 PUSH32 0xB03A67404EAD580AD77CFD64B1F08197269FA5180FCCB88D6615BDC8AA91E620 PUSH1 0x20 PUSH1 0x1 DUP2 SWAP6 ADD SLOAD DUP1 PUSH1 0x3 SSTORE PUSH1 0x40 MLOAD SWAP1 DUP2 MSTORE LOG1 JUMPDEST DUP1 SLOAD PUSH1 0xFF NOT AND PUSH1 0x1 OR SWAP1 SSTORE PUSH1 0x40 MLOAD SWAP1 DUP2 MSTORE LOG1 STOP JUMPDEST SWAP1 SWAP2 SWAP1 PUSH1 0x0 PUSH1 0x1 DUP3 SUB PUSH2 0x1068 JUMPI POP POP PUSH1 0x2 DUP3 ADD SWAP3 DUP4 SLOAD PUSH1 0x0 PUSH1 0xA SSTORE PUSH1 0x3 PUSH1 0x0 SWAP5 ADD SWAP4 JUMPDEST DUP2 DUP2 LT PUSH2 0xFB9 JUMPI POP POP PUSH1 0x0 JUMPDEST PUSH1 0x6 SLOAD DUP2 LT ISZERO PUSH2 0xF1C JUMPI DUP1 PUSH2 0xEE9 PUSH1 0x1 SWAP3 PUSH2 0x34D2 JUMP JUMPDEST DUP4 DUP1 PUSH1 0xA0 SHL SUB SWAP2 SLOAD SWAP1 PUSH1 0x3 SHL SHR AND PUSH1 0x0 MSTORE PUSH1 0x4 PUSH1 0x20 MSTORE PUSH2 0xF13 PUSH1 0x3 PUSH1 0x40 PUSH1 0x0 KECCAK256 ADD SLOAD PUSH1 0xA SLOAD PUSH2 0x3804 JUMP JUMPDEST PUSH1 0xA SSTORE ADD PUSH2 0xED3 JUMP JUMPDEST POP SWAP1 SWAP2 PUSH1 0x40 MLOAD SWAP1 PUSH1 0x40 DUP3 ADD PUSH1 0x40 DUP4 MSTORE DUP6 SLOAD DUP1 SWAP2 MSTORE PUSH1 0x60 DUP4 ADD SWAP6 PUSH1 0x0 MSTORE PUSH1 0x20 PUSH1 0x0 KECCAK256 SWAP1 PUSH1 0x0 JUMPDEST DUP2 DUP2 LT PUSH2 0xF9A JUMPI POP POP POP DUP2 DUP1 PUSH2 0xF92 DUP8 PUSH32 0x7F9D3B855249EF24ED9613191786A1FC8D2AFAFDC45AB1EC9C1A051589D7837C SWAP5 PUSH1 0x20 SWAP9 SWAP8 SWAP7 PUSH1 0x0 DUP1 MLOAD PUSH1 0x20 PUSH2 0x43B8 DUP4 CODECOPY DUP2 MLOAD SWAP2 MSTORE SWAP11 SUB DUP10 DUP6 ADD MSTORE PUSH2 0x3D08 JUMP JUMPDEST SUB SWAP1 LOG1 PUSH2 0xE90 JUMP JUMPDEST DUP3 SLOAD PUSH1 0x1 PUSH1 0x1 PUSH1 0xA0 SHL SUB AND DUP9 MSTORE PUSH1 0x20 SWAP1 SWAP8 ADD SWAP7 PUSH1 0x1 SWAP3 DUP4 ADD SWAP3 ADD PUSH2 0xF41 JUMP JUMPDEST PUSH2 0xFC3 DUP2 DUP8 PUSH2 0x34ED JUMP JUMPDEST SWAP1 SLOAD PUSH1 0x1 PUSH1 0x1 PUSH1 0xA0 SHL SUB PUSH1 0x3 SWAP3 SWAP1 SWAP3 SHL SHR DUP2 AND PUSH1 0x0 SWAP1 DUP2 MSTORE PUSH1 0x4 PUSH1 0x20 MSTORE PUSH1 0x40 SWAP1 KECCAK256 SLOAD AND ISZERO PUSH2 0x102E JUMPI DUP1 PUSH2 0xFF8 PUSH1 0x1 SWAP3 DUP8 PUSH2 0x34ED JUMP JUMPDEST SWAP1 SLOAD SWAP1 PUSH1 0x3 SHL SHR PUSH2 0x1009 DUP3 DUP10 PUSH2 0x34ED JUMP JUMPDEST DUP5 DUP1 PUSH1 0xA0 SHL SUB SWAP2 SLOAD SWAP1 PUSH1 0x3 SHL SHR AND PUSH1 0x0 MSTORE PUSH1 0x4 PUSH1 0x20 MSTORE PUSH1 0x3 PUSH1 0x40 PUSH1 0x0 KECCAK256 ADD SSTORE ADD PUSH2 0xEC7 JUMP JUMPDEST PUSH1 0x40 MLOAD PUSH3 0x461BCD PUSH1 0xE5 SHL DUP2 MSTORE PUSH1 0x20 PUSH1 0x4 DUP3 ADD MSTORE PUSH1 0x12 PUSH1 0x24 DUP3 ADD MSTORE PUSH18 0x14185A5C88191BD95CDB89DD08195E1A5CDD PUSH1 0x72 SHL PUSH1 0x44 DUP3 ADD MSTORE PUSH1 0x64 SWAP1 REVERT JUMPDEST POP PUSH1 0x2 DUP2 SUB PUSH2 0x146F JUMPI POP PUSH1 0x4 DUP3 ADD SWAP3 PUSH1 0x1 DUP1 PUSH1 0xA0 SHL SUB DUP5 SLOAD AND SWAP3 DUP4 PUSH1 0x0 MSTORE PUSH1 0x4 PUSH1 0x20 MSTORE PUSH1 0x1 DUP1 PUSH1 0xA0 SHL SUB PUSH1 0x40 PUSH1 0x0 KECCAK256 SLOAD AND PUSH2 0x1434 JUMPI PUSH2 0x10AB PUSH1 0x64 PUSH1 0x6 SLOAD LT PUSH2 0x3CCB JUMP JUMPDEST PUSH1 0x7 DUP2 ADD SWAP4 DUP5 SLOAD SWAP2 PUSH9 0x3635C9ADC5DEA00000 DUP4 GT PUSH2 0x13FD JUMPI PUSH1 0x6 DUP2 ADD SWAP3 PUSH2 0x10DE PUSH1 0x20 PUSH2 0x10D7 DUP7 SLOAD PUSH2 0x3589 JUMP JUMPDEST GT ISZERO PUSH2 0x3721 JUMP JUMPDEST PUSH1 0x5 PUSH2 0x1103 PUSH1 0x40 MLOAD SWAP4 PUSH2 0x10F0 DUP6 PUSH2 0x3646 JUMP JUMPDEST DUP6 DUP6 MSTORE PUSH2 0x2AE PUSH1 0x40 MLOAD DUP1 SWAP5 DUP2 SWAP4 ADD PUSH2 0x35C3 JUMP JUMPDEST PUSH1 0x20 DUP4 ADD SWAP1 DUP2 MSTORE PUSH1 0x40 MLOAD SWAP1 PUSH2 0x1123 DUP3 PUSH2 0x111C DUP2 DUP10 PUSH2 0x35C3 JUMP JUMPDEST SUB DUP4 PUSH2 0x367C JUMP JUMPDEST PUSH1 0x40 DUP5 DUP2 ADD SWAP3 DUP4 MSTORE PUSH1 0x60 DUP6 ADD SWAP4 DUP5 MSTORE PUSH1 0x1 PUSH1 0x80 DUP7 ADD DUP2 DUP2 MSTORE PUSH1 0x0 SWAP8 DUP9 MSTORE PUSH1 0x4 PUSH1 0x20 MSTORE SWAP2 SWAP1 SWAP7 KECCAK256 SWAP5 MLOAD DUP6 SLOAD PUSH1 0x1 PUSH1 0x1 PUSH1 0xA0 SHL SUB NOT AND PUSH1 0x1 PUSH1 0x1 PUSH1 0xA0 SHL SUB SWAP2 SWAP1 SWAP2 AND OR DUP6 SSTORE SWAP1 MLOAD DUP1 MLOAD SWAP2 SWAP6 DUP6 ADD SWAP2 SWAP1 PUSH1 0x1 PUSH1 0x1 PUSH1 0x40 SHL SUB DUP3 GT PUSH2 0x8A2 JUMPI PUSH2 0x1192 DUP3 PUSH2 0x118C DUP6 SLOAD PUSH2 0x3589 JUMP JUMPDEST DUP6 PUSH2 0x377D JUMP JUMPDEST PUSH1 0x20 SWAP1 PUSH1 0x1F DUP4 GT PUSH1 0x1 EQ PUSH2 0x1396 JUMPI PUSH2 0x11C3 SWAP3 SWAP2 PUSH1 0x0 SWAP2 DUP4 PUSH2 0x131F JUMPI JUMPDEST POP POP DUP2 PUSH1 0x1 SHL SWAP2 PUSH1 0x0 NOT SWAP1 PUSH1 0x3 SHL SHR NOT AND OR SWAP1 JUMP JUMPDEST SWAP1 SSTORE JUMPDEST MLOAD DUP1 MLOAD PUSH1 0x2 DUP5 ADD SWAP2 PUSH1 0x1 PUSH1 0x1 PUSH1 0x40 SHL SUB DUP3 GT PUSH2 0x8A2 JUMPI PUSH2 0x11EA DUP3 PUSH2 0x118C DUP6 SLOAD PUSH2 0x3589 JUMP JUMPDEST PUSH1 0x20 SWAP1 PUSH1 0x1F DUP4 GT PUSH1 0x1 EQ PUSH2 0x132A JUMPI SWAP2 DUP1 PUSH2 0x1220 SWAP3 PUSH1 0x4 SWAP8 SWAP7 SWAP6 SWAP5 PUSH1 0x0 SWAP3 PUSH2 0x131F JUMPI POP POP DUP2 PUSH1 0x1 SHL SWAP2 PUSH1 0x0 NOT SWAP1 PUSH1 0x3 SHL SHR NOT AND OR SWAP1 JUMP JUMPDEST SWAP1 SSTORE JUMPDEST MLOAD PUSH1 0x3 DUP3 ADD SSTORE ADD SWAP1 MLOAD ISZERO ISZERO PUSH1 0xFF DUP1 NOT DUP4 SLOAD AND SWAP2 AND OR SWAP1 SSTORE PUSH1 0x1 DUP1 PUSH1 0xA0 SHL SUB DUP6 SLOAD AND SWAP1 PUSH1 0x6 SLOAD SWAP5 PUSH1 0x1 PUSH1 0x40 SHL DUP7 LT ISZERO PUSH2 0x8A2 JUMPI PUSH1 0x0 DUP1 MLOAD PUSH1 0x20 PUSH2 0x43B8 DUP4 CODECOPY DUP2 MLOAD SWAP2 MSTORE SWAP7 PUSH2 0x12C2 PUSH32 0xA75180AFE57477E6F07D0789053CBDB7699CDE088DE468EA9E91C0E910D80EF SWAP5 PUSH2 0x129E DUP10 PUSH1 0x1 PUSH1 0x20 SWAP12 ADD PUSH1 0x6 SSTORE PUSH1 0x6 PUSH2 0x34ED JUMP JUMPDEST DUP2 SLOAD PUSH1 0x1 PUSH1 0x1 PUSH1 0xA0 SHL SUB SWAP4 DUP5 AND PUSH1 0x3 SWAP3 SWAP1 SWAP3 SHL SWAP2 DUP3 SHL SWAP4 SWAP1 SWAP2 SHL NOT AND SWAP2 SWAP1 SWAP2 OR SWAP1 SSTORE JUMP JUMPDEST PUSH2 0x12CF DUP3 SLOAD PUSH1 0xA SLOAD PUSH2 0x3804 JUMP JUMPDEST PUSH1 0xA SSTORE PUSH1 0x1 DUP1 PUSH1 0xA0 SHL SUB DUP2 SLOAD AND PUSH1 0x0 MSTORE PUSH1 0x9 DUP8 MSTORE TIMESTAMP PUSH1 0x40 PUSH1 0x0 KECCAK256 SSTORE PUSH1 0x1 DUP1 PUSH1 0xA0 SHL SUB SWAP1 SLOAD AND SWAP1 SLOAD PUSH2 0x1311 PUSH1 0x40 MLOAD SWAP4 DUP5 SWAP4 DUP5 MSTORE PUSH1 0x60 DUP10 DUP6 ADD MSTORE PUSH1 0x60 DUP5 ADD SWAP1 PUSH2 0x35C3 JUMP JUMPDEST SWAP1 PUSH1 0x40 DUP4 ADD MSTORE SUB SWAP1 LOG1 PUSH2 0xE90 JUMP JUMPDEST ADD MLOAD SWAP1 POP DUP14 DUP1 PUSH2 0x11AE JUMP JUMPDEST SWAP1 PUSH1 0x1F NOT DUP4 AND SWAP2 DUP5 PUSH1 0x0 MSTORE DUP2 PUSH1 0x0 KECCAK256 SWAP3 PUSH1 0x0 JUMPDEST DUP2 DUP2 LT PUSH2 0x137E JUMPI POP SWAP2 PUSH1 0x1 SWAP4 SWAP2 DUP6 PUSH1 0x4 SWAP10 SWAP9 SWAP8 SWAP7 SWAP5 LT PUSH2 0x1365 JUMPI JUMPDEST POP POP POP DUP2 SHL ADD SWAP1 SSTORE PUSH2 0x1223 JUMP JUMPDEST ADD MLOAD PUSH1 0x0 NOT PUSH1 0xF8 DUP5 PUSH1 0x3 SHL AND SHR NOT AND SWAP1 SSTORE DUP13 DUP1 DUP1 PUSH2 0x1358 JUMP JUMPDEST SWAP3 SWAP4 PUSH1 0x20 PUSH1 0x1 DUP2 SWAP3 DUP8 DUP7 ADD MLOAD DUP2 SSTORE ADD SWAP6 ADD SWAP4 ADD PUSH2 0x133D JUMP JUMPDEST SWAP1 PUSH1 0x1F NOT DUP4 AND SWAP2 DUP5 PUSH1 0x0 MSTORE DUP2 PUSH1 0x0 KECCAK256 SWAP3 PUSH1 0x0 JUMPDEST DUP2 DUP2 LT PUSH2 0x13E5 JUMPI POP SWAP1 DUP5 PUSH1 0x1 SWAP6 SWAP5 SWAP4 SWAP3 LT PUSH2 0x13CC JUMPI JUMPDEST POP POP POP DUP2 SHL ADD SWAP1 SSTORE PUSH2 0x11C6 JUMP JUMPDEST ADD MLOAD PUSH1 0x0 NOT PUSH1 0xF8 DUP5 PUSH1 0x3 SHL AND SHR NOT AND SWAP1 SSTORE DUP13 DUP1 DUP1 PUSH2 0x13BF JUMP JUMPDEST SWAP3 SWAP4 PUSH1 0x20 PUSH1 0x1 DUP2 SWAP3 DUP8 DUP7 ADD MLOAD DUP2 SSTORE ADD SWAP6 ADD SWAP4 ADD PUSH2 0x13A9 JUMP JUMPDEST PUSH1 0x40 MLOAD PUSH3 0x461BCD PUSH1 0xE5 SHL DUP2 MSTORE PUSH1 0x20 PUSH1 0x4 DUP3 ADD MSTORE PUSH1 0xF PUSH1 0x24 DUP3 ADD MSTORE PUSH15 0xAECAD2CED0E840E8DEDE40D0D2CED PUSH1 0x8B SHL PUSH1 0x44 DUP3 ADD MSTORE PUSH1 0x64 SWAP1 REVERT JUMPDEST PUSH1 0x40 MLOAD PUSH3 0x461BCD PUSH1 0xE5 SHL DUP2 MSTORE PUSH1 0x20 PUSH1 0x4 DUP3 ADD MSTORE PUSH1 0x13 PUSH1 0x24 DUP3 ADD MSTORE PUSH19 0x5061697220616C726561647920657869737473 PUSH1 0x68 SHL PUSH1 0x44 DUP3 ADD MSTORE PUSH1 0x64 SWAP1 REVERT JUMPDEST SWAP2 SWAP3 SWAP2 PUSH1 0x0 PUSH1 0x3 DUP3 SUB PUSH2 0x16D4 JUMPI POP POP SWAP1 PUSH1 0x1 DUP1 PUSH1 0xA0 SHL SUB PUSH1 0x8 DUP5 ADD SLOAD AND DUP1 PUSH1 0x0 MSTORE PUSH1 0x4 PUSH1 0x20 MSTORE PUSH2 0x14A9 PUSH1 0xFF PUSH1 0x4 PUSH1 0x40 PUSH1 0x0 KECCAK256 ADD SLOAD AND PUSH2 0x3C4B JUMP JUMPDEST DUP1 PUSH1 0x0 MSTORE PUSH1 0x4 PUSH1 0x20 MSTORE PUSH2 0x14C6 PUSH1 0x3 PUSH1 0x40 PUSH1 0x0 KECCAK256 ADD SLOAD PUSH1 0xA SLOAD PUSH2 0x37C4 JUMP JUMPDEST PUSH1 0xA SSTORE DUP1 PUSH1 0x0 MSTORE PUSH1 0x4 PUSH1 0x20 MSTORE PUSH1 0x0 PUSH1 0x3 PUSH1 0x40 DUP3 KECCAK256 ADD SSTORE PUSH1 0x40 MLOAD PUSH4 0x70A08231 PUSH1 0xE0 SHL DUP2 MSTORE ADDRESS PUSH1 0x4 DUP3 ADD MSTORE PUSH1 0x20 DUP2 PUSH1 0x24 DUP2 DUP6 GAS STATICCALL SWAP1 DUP2 ISZERO PUSH2 0x16C8 JUMPI PUSH1 0x0 SWAP2 PUSH2 0x1696 JUMPI JUMPDEST POP ISZERO PUSH2 0x1562 JUMPI JUMPDEST SWAP1 PUSH32 0x152583BC7DE5DAF42C0A52B1C07D3ED3C5FFA6FB0C2FAE5C768D58CC3592212E PUSH1 0x0 DUP1 MLOAD PUSH1 0x20 PUSH2 0x43B8 DUP4 CODECOPY DUP2 MLOAD SWAP2 MSTORE SWAP5 PUSH1 0x20 SWAP5 SWAP4 PUSH2 0xF92 PUSH1 0x40 MLOAD SWAP3 DUP4 SWAP3 DUP4 MSTORE PUSH1 0x40 DUP9 DUP5 ADD MSTORE PUSH1 0x5 PUSH1 0x40 DUP5 ADD SWAP2 ADD PUSH2 0x35C3 JUMP JUMPDEST PUSH1 0x0 DUP2 DUP2 MSTORE PUSH1 0x4 PUSH1 0x20 DUP2 SWAP1 MSTORE PUSH1 0x40 DUP3 KECCAK256 SWAP1 DUP2 ADD DUP1 SLOAD PUSH1 0xFF NOT AND SWAP1 SSTORE DUP1 SLOAD PUSH1 0x1 PUSH1 0x1 PUSH1 0xA0 SHL SUB NOT AND SWAP1 SSTORE PUSH1 0x6 SLOAD SWAP1 JUMPDEST DUP2 DUP2 LT PUSH2 0x159F JUMPI JUMPDEST POP POP PUSH2 0x150E JUMP JUMPDEST DUP3 PUSH2 0x15A9 DUP3 PUSH2 0x34D2 JUMP JUMPDEST SWAP1 SLOAD PUSH1 0x3 SWAP2 SWAP1 SWAP2 SHL SHR PUSH1 0x1 PUSH1 0x1 PUSH1 0xA0 SHL SUB AND EQ PUSH2 0x15C8 JUMPI PUSH1 0x1 ADD PUSH2 0x1590 JUMP JUMPDEST SWAP2 SWAP4 SWAP3 SWAP2 PUSH1 0x0 NOT DUP3 ADD SWAP2 DUP3 GT PUSH2 0x1680 JUMPI PUSH2 0x129E PUSH2 0x15E7 PUSH2 0x15FF SWAP4 PUSH2 0x34D2 JUMP JUMPDEST SWAP1 SLOAD PUSH1 0x3 SWAP2 SWAP1 SWAP2 SHL SHR PUSH1 0x1 PUSH1 0x1 PUSH1 0xA0 SHL SUB AND SWAP2 PUSH2 0x34D2 JUMP JUMPDEST PUSH1 0x6 SLOAD DUP1 ISZERO PUSH2 0x166A JUMPI PUSH1 0x0 DUP1 MLOAD PUSH1 0x20 PUSH2 0x43B8 DUP4 CODECOPY DUP2 MLOAD SWAP2 MSTORE SWAP5 PUSH1 0x20 SWAP5 PUSH32 0x152583BC7DE5DAF42C0A52B1C07D3ED3C5FFA6FB0C2FAE5C768D58CC3592212E SWAP3 PUSH1 0x0 NOT ADD PUSH2 0x164A DUP2 PUSH2 0x34D2 JUMP JUMPDEST DUP2 SLOAD SWAP1 PUSH1 0x1 DUP1 PUSH1 0xA0 SHL SUB SWAP1 PUSH1 0x3 SHL SHL NOT AND SWAP1 SSTORE PUSH1 0x6 SSTORE SWAP3 SWAP4 SWAP5 POP SWAP5 PUSH2 0x1598 JUMP JUMPDEST PUSH4 0x4E487B71 PUSH1 0xE0 SHL PUSH1 0x0 MSTORE PUSH1 0x31 PUSH1 0x4 MSTORE PUSH1 0x24 PUSH1 0x0 REVERT JUMPDEST PUSH4 0x4E487B71 PUSH1 0xE0 SHL PUSH1 0x0 MSTORE PUSH1 0x11 PUSH1 0x4 MSTORE PUSH1 0x24 PUSH1 0x0 REVERT JUMPDEST SWAP1 POP PUSH1 0x20 DUP2 RETURNDATASIZE PUSH1 0x20 GT PUSH2 0x16C0 JUMPI JUMPDEST DUP2 PUSH2 0x16B1 PUSH1 0x20 SWAP4 DUP4 PUSH2 0x367C JUMP JUMPDEST DUP2 ADD SUB SLT PUSH2 0x301 JUMPI MLOAD DUP6 PUSH2 0x1507 JUMP JUMPDEST RETURNDATASIZE SWAP2 POP PUSH2 0x16A4 JUMP JUMPDEST PUSH1 0x40 MLOAD RETURNDATASIZE PUSH1 0x0 DUP3 RETURNDATACOPY RETURNDATASIZE SWAP1 REVERT JUMPDEST POP PUSH1 0x4 DUP2 SUB PUSH2 0x17CF JUMPI POP PUSH1 0x4 DUP4 ADD SLOAD PUSH1 0x8 SWAP1 SWAP4 ADD SLOAD PUSH1 0x1 PUSH1 0x1 PUSH1 0xA0 SHL SUB SWAP4 DUP5 AND SWAP4 AND SWAP2 PUSH2 0x1700 DUP5 PUSH2 0x40AC JUMP JUMPDEST POP PUSH2 0x170A DUP4 PUSH2 0x3F7F JUMP JUMPDEST POP PUSH1 0x0 JUMPDEST PUSH1 0x7 SLOAD DUP2 LT ISZERO PUSH2 0x1793 JUMPI DUP5 PUSH2 0x1722 DUP3 PUSH2 0x34A1 JUMP JUMPDEST SWAP1 SLOAD PUSH1 0x3 SWAP2 SWAP1 SWAP2 SHL SHR PUSH1 0x1 PUSH1 0x1 PUSH1 0xA0 SHL SUB AND EQ PUSH2 0x1741 JUMPI PUSH1 0x1 ADD PUSH2 0x170E JUMP JUMPDEST PUSH1 0x40 PUSH1 0x0 DUP1 MLOAD PUSH1 0x20 PUSH2 0x43B8 DUP4 CODECOPY DUP2 MLOAD SWAP2 MSTORE SWAP6 DUP6 PUSH2 0x1784 PUSH1 0x20 SWAP8 PUSH2 0x129E PUSH32 0xEEB293E1F8F3A9DB91ADE748726387ED1352CA78F5430C5F06FE3D1E1AD50579 SWAP7 PUSH2 0x34A1 JUMP JUMPDEST DUP3 MLOAD SWAP2 DUP3 MSTORE DUP7 DUP3 ADD MSTORE LOG1 PUSH2 0xE90 JUMP JUMPDEST POP PUSH32 0xEEB293E1F8F3A9DB91ADE748726387ED1352CA78F5430C5F06FE3D1E1AD50579 PUSH1 0x40 PUSH1 0x0 DUP1 MLOAD PUSH1 0x20 PUSH2 0x43B8 DUP4 CODECOPY DUP2 MLOAD SWAP2 MSTORE SWAP6 PUSH1 0x20 SWAP6 PUSH2 0x1784 JUMP JUMPDEST PUSH1 0x5 PUSH1 0x0 SWAP5 SWAP3 SWAP4 SWAP5 SWAP2 EQ PUSH2 0x17F8 JUMPI JUMPDEST POP POP PUSH1 0x20 SWAP1 PUSH1 0x0 DUP1 MLOAD PUSH1 0x20 PUSH2 0x43B8 DUP4 CODECOPY DUP2 MLOAD SWAP2 MSTORE SWAP3 PUSH2 0xE90 JUMP JUMPDEST PUSH1 0x9 DUP3 ADD DUP1 SLOAD SWAP3 SWAP5 SWAP2 SWAP4 SWAP3 PUSH1 0x1 PUSH1 0x1 PUSH1 0xA0 SHL SUB AND SWAP1 DUP2 ISZERO PUSH2 0x194C JUMPI PUSH1 0x2 SLOAD PUSH1 0x40 MLOAD PUSH4 0x70A08231 PUSH1 0xE0 SHL DUP2 MSTORE ADDRESS PUSH1 0x4 DUP3 ADD MSTORE PUSH1 0x1 PUSH1 0x1 PUSH1 0xA0 SHL SUB SWAP1 SWAP2 AND SWAP7 SWAP1 PUSH1 0x20 DUP2 PUSH1 0x24 DUP2 DUP12 GAS STATICCALL SWAP7 DUP8 ISZERO PUSH2 0x1940 JUMPI DUP1 SWAP8 PUSH2 0x1905 JUMPI JUMPDEST POP POP PUSH1 0xA ADD SWAP1 DUP2 SLOAD DUP1 SWAP7 LT PUSH2 0x18C0 JUMPI PUSH2 0x1899 PUSH1 0x20 SWAP7 PUSH32 0x8A43C4352486EC339F487F64AF78CA5CBF06CD47833F073D3BAF3A193E503161 SWAP5 PUSH1 0x0 DUP1 MLOAD PUSH1 0x20 PUSH2 0x43B8 DUP4 CODECOPY DUP2 MLOAD SWAP2 MSTORE SWAP10 PUSH2 0x4323 JUMP JUMPDEST SLOAD SWAP1 SLOAD PUSH1 0x40 DUP1 MLOAD PUSH1 0x1 PUSH1 0x1 PUSH1 0xA0 SHL SUB SWAP1 SWAP4 AND DUP4 MSTORE PUSH1 0x20 DUP4 ADD SWAP2 SWAP1 SWAP2 MSTORE SWAP1 LOG1 SWAP3 DUP2 SWAP3 POP PUSH2 0x17DE JUMP JUMPDEST PUSH1 0x40 MLOAD PUSH3 0x461BCD PUSH1 0xE5 SHL DUP2 MSTORE PUSH1 0x20 PUSH1 0x4 DUP3 ADD MSTORE PUSH1 0x1D PUSH1 0x24 DUP3 ADD MSTORE PUSH32 0x496E73756666696369656E7420636F6E74726163742062616C616E6365000000 PUSH1 0x44 DUP3 ADD MSTORE PUSH1 0x64 SWAP1 REVERT JUMPDEST SWAP1 SWAP2 SWAP7 POP PUSH1 0x20 DUP3 RETURNDATASIZE PUSH1 0x20 GT PUSH2 0x1938 JUMPI JUMPDEST DUP2 PUSH2 0x1922 PUSH1 0x20 SWAP4 DUP4 PUSH2 0x367C JUMP JUMPDEST DUP2 ADD SUB SLT PUSH2 0x1935 JUMPI POP MLOAD SWAP5 PUSH1 0xA DUP9 PUSH2 0x184D JUMP JUMPDEST DUP1 REVERT JUMPDEST RETURNDATASIZE SWAP2 POP PUSH2 0x1915 JUMP JUMPDEST PUSH1 0x40 MLOAD SWAP1 RETURNDATASIZE SWAP1 DUP3 RETURNDATACOPY RETURNDATASIZE SWAP1 REVERT JUMPDEST PUSH1 0x40 MLOAD PUSH3 0x461BCD PUSH1 0xE5 SHL DUP2 MSTORE PUSH1 0x20 PUSH1 0x4 DUP3 ADD MSTORE PUSH1 0x11 PUSH1 0x24 DUP3 ADD MSTORE PUSH17 0x125B9D985B1A59081C9958DA5C1A595B9D PUSH1 0x7A SHL PUSH1 0x44 DUP3 ADD MSTORE PUSH1 0x64 SWAP1 REVERT JUMPDEST PUSH4 0x4E487B71 PUSH1 0xE0 SHL PUSH1 0x0 MSTORE PUSH1 0x21 PUSH1 0x4 MSTORE PUSH1 0x24 PUSH1 0x0 REVERT JUMPDEST SWAP1 PUSH1 0x0 JUMPDEST PUSH1 0x6 SLOAD DUP2 LT ISZERO PUSH2 0x19F3 JUMPI DUP1 PUSH2 0x19B5 PUSH1 0x1 SWAP3 PUSH2 0x34D2 JUMP JUMPDEST DUP4 DUP1 PUSH1 0xA0 SHL SUB SWAP2 SLOAD SWAP1 PUSH1 0x3 SHL SHR AND DUP1 PUSH1 0x0 MSTORE PUSH1 0x4 PUSH1 0x20 MSTORE PUSH1 0xFF PUSH1 0x4 PUSH1 0x40 PUSH1 0x0 KECCAK256 ADD SLOAD AND PUSH2 0x19E4 JUMPI JUMPDEST POP ADD PUSH2 0x199F JUMP JUMPDEST PUSH2 0x19ED SWAP1 PUSH2 0x41EA JUMP JUMPDEST DUP6 PUSH2 0x19DD JUMP JUMPDEST POP SWAP1 PUSH2 0xE36 JUMP JUMPDEST SWAP1 SWAP2 POP PUSH2 0x1985 JUMPI PUSH1 0x3 EQ DUP5 DUP1 PUSH2 0xE2F JUMP JUMPDEST DUP1 SWAP3 POP PUSH2 0x1985 JUMPI PUSH1 0x1 DUP2 EQ SWAP2 PUSH2 0xE28 JUMP JUMPDEST POP DUP1 ISZERO SWAP2 POP PUSH1 0x0 PUSH2 0xE21 JUMP JUMPDEST PUSH1 0x40 MLOAD PUSH3 0x461BCD PUSH1 0xE5 SHL DUP2 MSTORE PUSH1 0x20 PUSH1 0x4 DUP3 ADD MSTORE PUSH1 0x14 PUSH1 0x24 DUP3 ADD MSTORE PUSH20 0x4E6F7420656E6F75676820617070726F76616C73 PUSH1 0x60 SHL PUSH1 0x44 DUP3 ADD MSTORE PUSH1 0x64 SWAP1 REVERT JUMPDEST POP PUSH1 0xB SLOAD DUP2 GT ISZERO PUSH2 0xD90 JUMP JUMPDEST CALLVALUE PUSH2 0x301 JUMPI PUSH1 0x40 CALLDATASIZE PUSH1 0x3 NOT ADD SLT PUSH2 0x301 JUMPI PUSH2 0x1A89 PUSH2 0x3448 JUMP JUMPDEST PUSH1 0x24 CALLDATALOAD PUSH2 0x1A94 PUSH2 0x41C8 JUMP JUMPDEST PUSH1 0x1 DUP1 PUSH1 0xA0 SHL SUB DUP3 AND SWAP2 DUP3 PUSH1 0x0 MSTORE PUSH1 0x4 PUSH1 0x20 MSTORE PUSH1 0x3 PUSH1 0x40 PUSH1 0x0 KECCAK256 PUSH2 0x1ABE PUSH1 0xFF PUSH1 0x4 DUP4 ADD SLOAD AND PUSH2 0x3C4B JUMP JUMPDEST ADD SLOAD ISZERO PUSH2 0x1C32 JUMPI PUSH7 0x38D7EA4C68000 DUP3 LT PUSH2 0x1BF6 JUMPI PUSH1 0x1 PUSH1 0x1 PUSH1 0x80 SHL SUB DUP3 GT PUSH2 0x1BB9 JUMPI PUSH2 0x6CA PUSH32 0xFB8EFD70C9F0CA009BFC9F2CA8A9256A5AEFBC720BDB8D838E4BCD42C241B9EB SWAP4 PUSH2 0x1B0F DUP4 PUSH2 0x41EA JUMP JUMPDEST CALLER PUSH1 0x0 MSTORE PUSH1 0x5 PUSH1 0x20 MSTORE PUSH1 0x40 DUP1 PUSH1 0x0 KECCAK256 PUSH1 0x0 SWAP1 DUP4 DUP3 MSTORE PUSH1 0x20 MSTORE KECCAK256 PUSH2 0x1B38 DUP6 DUP3 SLOAD DUP1 PUSH2 0x1BA5 JUMPI PUSH2 0x3804 JUMP JUMPDEST DUP2 SSTORE PUSH1 0x0 DUP3 DUP2 MSTORE PUSH1 0x8 PUSH1 0x20 SWAP1 DUP2 MSTORE PUSH1 0x40 SWAP2 DUP3 SWAP1 KECCAK256 SLOAD PUSH1 0x3 DUP5 ADD SSTORE TIMESTAMP PUSH1 0x1 PUSH1 0x1 PUSH1 0x40 SHL SUB AND PUSH1 0x1 SWAP1 SWAP4 ADD SWAP3 SWAP1 SWAP3 SSTORE MLOAD PUSH4 0x23B872DD PUSH1 0xE0 SHL SWAP2 DUP2 ADD SWAP2 SWAP1 SWAP2 MSTORE CALLER PUSH1 0x24 DUP3 ADD MSTORE ADDRESS PUSH1 0x44 DUP3 ADD MSTORE PUSH1 0x64 DUP2 ADD DUP6 SWAP1 MSTORE SWAP1 PUSH2 0x1BA0 DUP3 PUSH1 0x84 DUP2 ADD JUMPDEST SUB PUSH1 0x1F NOT DUP2 ADD DUP5 MSTORE DUP4 PUSH2 0x367C JUMP JUMPDEST PUSH2 0x435C JUMP JUMPDEST PUSH2 0x1BAF DUP8 CALLER PUSH2 0x3811 JUMP JUMPDEST PUSH1 0x2 DUP6 ADD SSTORE PUSH2 0x3804 JUMP JUMPDEST PUSH1 0x40 MLOAD PUSH3 0x461BCD PUSH1 0xE5 SHL DUP2 MSTORE PUSH1 0x20 PUSH1 0x4 DUP3 ADD MSTORE PUSH1 0x15 PUSH1 0x24 DUP3 ADD MSTORE PUSH21 0xA6E8C2D6CA40C2DADEEADCE840E8DEDE40D0D2CED PUSH1 0x5B SHL PUSH1 0x44 DUP3 ADD MSTORE PUSH1 0x64 SWAP1 REVERT JUMPDEST PUSH1 0x40 MLOAD PUSH3 0x461BCD PUSH1 0xE5 SHL DUP2 MSTORE PUSH1 0x20 PUSH1 0x4 DUP3 ADD MSTORE PUSH1 0x14 PUSH1 0x24 DUP3 ADD MSTORE PUSH20 0x5374616B6520616D6F756E7420746F6F206C6F77 PUSH1 0x60 SHL PUSH1 0x44 DUP3 ADD MSTORE PUSH1 0x64 SWAP1 REVERT JUMPDEST PUSH1 0x40 MLOAD PUSH3 0x461BCD PUSH1 0xE5 SHL DUP2 MSTORE PUSH1 0x20 PUSH1 0x4 DUP3 ADD MSTORE PUSH1 0x14 PUSH1 0x24 DUP3 ADD MSTORE PUSH20 0x14185A5C881A185CC81E995C9BC81DD95A59DA1D PUSH1 0x62 SHL PUSH1 0x44 DUP3 ADD MSTORE PUSH1 0x64 SWAP1 REVERT JUMPDEST CALLVALUE PUSH2 0x301 JUMPI PUSH1 0x0 CALLDATASIZE PUSH1 0x3 NOT ADD SLT PUSH2 0x301 JUMPI PUSH1 0x20 PUSH1 0x40 MLOAD PUSH8 0xDE0B6B3A7640000 DUP2 MSTORE RETURN JUMPDEST CALLVALUE PUSH2 0x301 JUMPI PUSH1 0x0 CALLDATASIZE PUSH1 0x3 NOT ADD SLT PUSH2 0x301 JUMPI PUSH1 0x20 PUSH1 0x40 MLOAD PUSH1 0x0 DUP2 MSTORE RETURN JUMPDEST CALLVALUE PUSH2 0x301 JUMPI PUSH1 0x20 CALLDATASIZE PUSH1 0x3 NOT ADD SLT PUSH2 0x301 JUMPI PUSH1 0x1 PUSH1 0x1 PUSH1 0xA0 SHL SUB PUSH2 0x1CCE PUSH2 0x3448 JUMP JUMPDEST AND PUSH1 0x0 MSTORE PUSH1 0x8 PUSH1 0x20 MSTORE PUSH1 0x20 PUSH1 0x40 PUSH1 0x0 KECCAK256 SLOAD PUSH1 0x40 MLOAD SWAP1 DUP2 MSTORE RETURN JUMPDEST CALLVALUE PUSH2 0x301 JUMPI PUSH1 0x0 CALLDATASIZE PUSH1 0x3 NOT ADD SLT PUSH2 0x301 JUMPI PUSH1 0x20 PUSH1 0x40 MLOAD PUSH1 0x64 DUP2 MSTORE RETURN JUMPDEST CALLVALUE PUSH2 0x301 JUMPI PUSH1 0x0 CALLDATASIZE PUSH1 0x3 NOT ADD SLT PUSH2 0x301 JUMPI PUSH1 0x20 PUSH1 0xA SLOAD PUSH1 0x40 MLOAD SWAP1 DUP2 MSTORE RETURN JUMPDEST CALLVALUE PUSH2 0x301 JUMPI PUSH1 0x0 CALLDATASIZE PUSH1 0x3 NOT ADD SLT PUSH2 0x301 JUMPI PUSH1 0x40 MLOAD PUSH1 0x7 SLOAD DUP1 DUP3 MSTORE PUSH1 0x20 DUP3 ADD SWAP1 PUSH1 0x7 PUSH1 0x0 MSTORE PUSH1 0x20 PUSH1 0x0 KECCAK256 SWAP1 PUSH1 0x0 JUMPDEST DUP2 DUP2 LT PUSH2 0x1D65 JUMPI PUSH2 0x3DA DUP6 PUSH2 0x3CE DUP2 DUP8 SUB DUP3 PUSH2 0x367C JUMP JUMPDEST DUP3 SLOAD PUSH1 0x1 PUSH1 0x1 PUSH1 0xA0 SHL SUB AND DUP5 MSTORE PUSH1 0x20 SWAP1 SWAP4 ADD SWAP3 PUSH1 0x1 SWAP3 DUP4 ADD SWAP3 ADD PUSH2 0x1D4E JUMP JUMPDEST CALLVALUE PUSH2 0x301 JUMPI PUSH1 0x40 CALLDATASIZE PUSH1 0x3 NOT ADD SLT PUSH2 0x301 JUMPI PUSH2 0x1D9D PUSH2 0x345E JUMP JUMPDEST PUSH1 0x4 CALLDATALOAD PUSH1 0x0 MSTORE PUSH1 0x1 PUSH1 0x20 MSTORE PUSH1 0x40 PUSH1 0x0 KECCAK256 SWAP1 PUSH1 0x1 DUP1 PUSH1 0xA0 SHL SUB AND PUSH1 0x0 MSTORE PUSH1 0x20 MSTORE PUSH1 0x20 PUSH1 0xFF PUSH1 0x40 PUSH1 0x0 KECCAK256 SLOAD AND PUSH1 0x40 MLOAD SWAP1 ISZERO ISZERO DUP2 MSTORE RETURN JUMPDEST CALLVALUE PUSH2 0x301 JUMPI PUSH1 0x40 CALLDATASIZE PUSH1 0x3 NOT ADD SLT PUSH2 0x301 JUMPI PUSH1 0x80 PUSH1 0x40 PUSH2 0x1DEE PUSH2 0x3448 JUMP JUMPDEST PUSH2 0x1DF6 PUSH2 0x345E JUMP JUMPDEST SWAP1 PUSH1 0x1 DUP1 PUSH1 0xA0 SHL SUB AND PUSH1 0x0 MSTORE PUSH1 0x5 PUSH1 0x20 MSTORE DUP2 PUSH1 0x0 KECCAK256 PUSH1 0x0 SWAP2 PUSH1 0x1 DUP1 PUSH1 0xA0 SHL SUB AND DUP3 MSTORE PUSH1 0x20 MSTORE KECCAK256 DUP1 SLOAD SWAP1 PUSH1 0x1 DUP2 ADD SLOAD SWAP1 PUSH1 0x3 PUSH1 0x2 DUP3 ADD SLOAD SWAP2 ADD SLOAD SWAP2 PUSH1 0x40 MLOAD SWAP4 DUP5 MSTORE PUSH1 0x20 DUP5 ADD MSTORE PUSH1 0x40 DUP4 ADD MSTORE PUSH1 0x60 DUP3 ADD MSTORE RETURN JUMPDEST CALLVALUE PUSH2 0x301 JUMPI PUSH1 0x20 CALLDATASIZE PUSH1 0x3 NOT ADD SLT PUSH2 0x301 JUMPI PUSH2 0x1E60 PUSH2 0x3448 JUMP JUMPDEST PUSH1 0x6 SLOAD PUSH1 0x0 SWAP2 PUSH1 0x1 PUSH1 0x1 PUSH1 0xA0 SHL SUB AND DUP3 JUMPDEST DUP3 DUP2 LT PUSH2 0x2023 JUMPI POP PUSH2 0x1E82 DUP4 PUSH2 0x3C20 JUMP JUMPDEST SWAP3 PUSH2 0x1E90 PUSH1 0x40 MLOAD SWAP5 DUP6 PUSH2 0x367C JUMP JUMPDEST DUP1 DUP5 MSTORE PUSH2 0x1E9F PUSH1 0x1F NOT SWAP2 PUSH2 0x3C20 JUMP JUMPDEST ADD PUSH1 0x0 JUMPDEST DUP2 DUP2 LT PUSH2 0x1FF0 JUMPI POP POP PUSH1 0x0 DUP1 JUMPDEST DUP4 DUP2 LT PUSH2 0x1F1E JUMPI DUP5 PUSH1 0x40 MLOAD DUP1 SWAP2 PUSH1 0x20 DUP3 ADD PUSH1 0x20 DUP4 MSTORE DUP2 MLOAD DUP1 SWAP2 MSTORE PUSH1 0x20 PUSH1 0x40 DUP5 ADD SWAP3 ADD SWAP1 PUSH1 0x0 JUMPDEST DUP2 DUP2 LT PUSH2 0x1EE4 JUMPI POP POP POP SUB SWAP1 RETURN JUMPDEST SWAP2 SWAP4 POP SWAP2 PUSH1 0x20 PUSH1 0x80 PUSH1 0x1 SWAP3 PUSH1 0x60 DUP8 MLOAD DUP1 MLOAD DUP4 MSTORE DUP5 DUP2 ADD MLOAD DUP6 DUP5 ADD MSTORE PUSH1 0x40 DUP2 ADD MLOAD PUSH1 0x40 DUP5 ADD MSTORE ADD MLOAD PUSH1 0x60 DUP3 ADD MSTORE ADD SWAP5 ADD SWAP2 ADD SWAP2 DUP5 SWAP4 SWAP3 PUSH2 0x1ED6 JUMP JUMPDEST DUP3 PUSH1 0x0 MSTORE PUSH1 0x5 PUSH1 0x20 MSTORE PUSH1 0x40 DUP1 PUSH1 0x0 KECCAK256 PUSH2 0x1F36 DUP4 PUSH2 0x34D2 JUMP JUMPDEST SWAP1 SLOAD PUSH1 0x3 SWAP2 SWAP1 SWAP2 SHL SHR PUSH1 0x1 PUSH1 0x1 PUSH1 0xA0 SHL SUB AND PUSH1 0x0 SWAP1 DUP2 MSTORE PUSH1 0x20 SWAP2 SWAP1 SWAP2 MSTORE KECCAK256 SLOAD PUSH2 0x1F62 JUMPI JUMPDEST PUSH1 0x1 ADD PUSH2 0x1EB0 JUMP JUMPDEST SWAP1 PUSH2 0x1FE8 PUSH1 0x1 SWAP2 DUP5 PUSH1 0x0 MSTORE PUSH1 0x5 PUSH1 0x20 MSTORE PUSH1 0x40 DUP1 PUSH1 0x0 KECCAK256 PUSH2 0x1F81 DUP7 PUSH2 0x34D2 JUMP JUMPDEST DUP7 DUP1 PUSH1 0xA0 SHL SUB SWAP2 SLOAD SWAP1 PUSH1 0x3 SHL SHR AND SWAP1 PUSH1 0x0 SWAP2 DUP7 DUP1 PUSH1 0xA0 SHL SUB AND DUP3 MSTORE PUSH1 0x20 MSTORE KECCAK256 PUSH1 0x3 PUSH1 0x40 MLOAD SWAP2 PUSH2 0x1FAF DUP4 PUSH2 0x3661 JUMP JUMPDEST DUP1 SLOAD DUP4 MSTORE DUP6 DUP2 ADD SLOAD PUSH1 0x20 DUP5 ADD MSTORE PUSH1 0x2 DUP2 ADD SLOAD PUSH1 0x40 DUP5 ADD MSTORE ADD SLOAD PUSH1 0x60 DUP3 ADD MSTORE PUSH2 0x1FD7 DUP3 DUP10 PUSH2 0x3C37 JUMP JUMPDEST MSTORE PUSH2 0x1FE2 DUP2 DUP9 PUSH2 0x3C37 JUMP JUMPDEST POP PUSH2 0x36CD JUMP JUMPDEST SWAP2 SWAP1 POP PUSH2 0x1F5A JUMP JUMPDEST PUSH1 0x20 SWAP1 PUSH1 0x40 MLOAD PUSH2 0x1FFF DUP2 PUSH2 0x3661 JUMP JUMPDEST PUSH1 0x0 DUP2 MSTORE PUSH1 0x0 DUP4 DUP3 ADD MSTORE PUSH1 0x0 PUSH1 0x40 DUP3 ADD MSTORE PUSH1 0x0 PUSH1 0x60 DUP3 ADD MSTORE DUP3 DUP3 DUP9 ADD ADD MSTORE ADD PUSH2 0x1EA3 JUMP JUMPDEST DUP2 PUSH1 0x0 MSTORE PUSH1 0x5 PUSH1 0x20 MSTORE PUSH1 0x40 DUP1 PUSH1 0x0 KECCAK256 PUSH2 0x203B DUP4 PUSH2 0x34D2 JUMP JUMPDEST SWAP1 SLOAD PUSH1 0x3 SWAP2 SWAP1 SWAP2 SHL SHR PUSH1 0x1 PUSH1 0x1 PUSH1 0xA0 SHL SUB AND PUSH1 0x0 SWAP1 DUP2 MSTORE PUSH1 0x20 SWAP2 SWAP1 SWAP2 MSTORE KECCAK256 SLOAD PUSH2 0x2067 JUMPI JUMPDEST PUSH1 0x1 ADD PUSH2 0x1E71 JUMP JUMPDEST SWAP3 PUSH2 0x2073 PUSH1 0x1 SWAP2 PUSH2 0x36CD JUMP JUMPDEST SWAP4 SWAP1 POP PUSH2 0x205F JUMP JUMPDEST CALLVALUE PUSH2 0x301 JUMPI PUSH1 0x20 CALLDATASIZE PUSH1 0x3 NOT ADD SLT PUSH2 0x301 JUMPI PUSH1 0x4 CALLDATALOAD PUSH1 0x0 MSTORE PUSH1 0xC PUSH1 0x20 MSTORE PUSH1 0x40 PUSH1 0x0 KECCAK256 PUSH1 0xFF DUP2 SLOAD AND SWAP1 PUSH1 0x1 DUP2 ADD SLOAD SWAP2 PUSH1 0x1 DUP1 PUSH1 0xA0 SHL SUB PUSH1 0x4 DUP4 ADD SLOAD AND PUSH1 0x40 MLOAD SWAP3 PUSH2 0x20CA DUP5 PUSH2 0xB25 DUP2 PUSH1 0x5 DUP6 ADD PUSH2 0x35C3 JUMP JUMPDEST PUSH1 0x40 MLOAD SWAP2 PUSH2 0x20DF DUP4 PUSH2 0x293 DUP2 PUSH1 0x6 DUP7 ADD PUSH2 0x35C3 JUMP JUMPDEST PUSH1 0x7 DUP3 ADD SLOAD SWAP4 PUSH1 0x1 DUP1 PUSH1 0xA0 SHL SUB PUSH1 0x8 DUP5 ADD SLOAD AND PUSH1 0x1 DUP1 PUSH1 0xA0 SHL SUB PUSH1 0x9 DUP6 ADD SLOAD AND PUSH1 0xA DUP6 ADD SLOAD SWAP2 PUSH1 0xB DUP7 ADD SLOAD SWAP4 PUSH1 0xFF PUSH1 0xE PUSH1 0xD DUP10 ADD SLOAD SWAP9 ADD SLOAD AND SWAP8 PUSH1 0x40 MLOAD SWAP12 PUSH1 0x6 DUP4 LT ISZERO PUSH2 0x1985 JUMPI DUP13 SWAP12 PUSH2 0x1C0 PUSH1 0x60 DUP15 PUSH1 0xFF SWAP12 PUSH2 0x2152 SWAP6 PUSH2 0x2160 SWAP9 DUP4 MSTORE PUSH1 0x20 DUP4 ADD MSTORE PUSH1 0x40 DUP3 ADD MSTORE ADD MSTORE PUSH2 0x1C0 DUP14 ADD SWAP1 PUSH2 0x3548 JUMP JUMPDEST SWAP1 DUP12 DUP3 SUB PUSH1 0x80 DUP14 ADD MSTORE PUSH2 0x3548 JUMP JUMPDEST SWAP8 PUSH1 0xA0 DUP11 ADD MSTORE PUSH1 0xC0 DUP10 ADD MSTORE PUSH1 0xE0 DUP9 ADD MSTORE PUSH2 0x100 DUP8 ADD MSTORE DUP2 DUP2 AND ISZERO ISZERO PUSH2 0x120 DUP8 ADD MSTORE DUP2 DUP2 PUSH1 0x8 SHR AND ISZERO ISZERO PUSH2 0x140 DUP8 ADD MSTORE PUSH1 0x10 SHR AND PUSH2 0x160 DUP6 ADD MSTORE PUSH2 0x180 DUP5 ADD MSTORE ISZERO ISZERO PUSH2 0x1A0 DUP4 ADD MSTORE SUB SWAP1 RETURN JUMPDEST CALLVALUE PUSH2 0x301 JUMPI PUSH1 0x0 CALLDATASIZE PUSH1 0x3 NOT ADD SLT PUSH2 0x301 JUMPI PUSH2 0x21C4 PUSH2 0x3D89 JUMP JUMPDEST PUSH1 0x1 JUMPDEST PUSH1 0xB SLOAD DUP2 GT PUSH2 0xAC5 JUMPI DUP1 PUSH2 0x2204 SWAP2 PUSH1 0x0 MSTORE PUSH1 0xC PUSH1 0x20 MSTORE PUSH1 0xB PUSH1 0x40 PUSH1 0x0 KECCAK256 ADD DUP1 SLOAD PUSH1 0xFF DUP2 AND ISZERO DUP1 PUSH2 0x2255 JUMPI JUMPDEST DUP1 PUSH2 0x2246 JUMPI JUMPDEST PUSH2 0x2209 JUMPI JUMPDEST POP POP PUSH2 0x36CD JUMP JUMPDEST PUSH2 0x21C7 JUMP JUMPDEST PUSH2 0x100 SWAP1 PUSH2 0xFF00 NOT AND OR SWAP1 SSTORE PUSH32 0x7D919BD8EC97E857EC355CCA68A0882119B700D30B815F9939A75E824CAD9A9B PUSH1 0x20 PUSH1 0x40 MLOAD DUP4 DUP2 MSTORE LOG1 DUP3 DUP1 PUSH2 0x21FD JUMP JUMPDEST POP PUSH2 0x2250 DUP4 PUSH2 0x3BFD JUMP JUMPDEST PUSH2 0x21F8 JUMP JUMPDEST POP PUSH1 0xFF DUP2 PUSH1 0x8 SHR AND ISZERO PUSH2 0x21F2 JUMP JUMPDEST CALLVALUE PUSH2 0x301 JUMPI PUSH1 0x0 CALLDATASIZE PUSH1 0x3 NOT ADD SLT PUSH2 0x301 JUMPI PUSH1 0x6 SLOAD PUSH2 0x2280 DUP2 PUSH2 0x3C20 JUMP JUMPDEST SWAP1 PUSH2 0x228E PUSH1 0x40 MLOAD SWAP3 DUP4 PUSH2 0x367C JUMP JUMPDEST DUP1 DUP3 MSTORE PUSH1 0x1F NOT PUSH2 0x229D DUP3 PUSH2 0x3C20 JUMP JUMPDEST ADD PUSH1 0x0 JUMPDEST DUP2 DUP2 LT PUSH2 0x2405 JUMPI POP POP PUSH1 0x0 JUMPDEST DUP2 DUP2 LT PUSH2 0x2361 JUMPI DUP3 PUSH1 0x40 MLOAD DUP1 SWAP2 PUSH1 0x20 DUP3 ADD PUSH1 0x20 DUP4 MSTORE DUP2 MLOAD DUP1 SWAP2 MSTORE PUSH1 0x40 DUP4 ADD SWAP1 PUSH1 0x20 PUSH1 0x40 DUP3 PUSH1 0x5 SHL DUP7 ADD ADD SWAP4 ADD SWAP2 PUSH1 0x0 SWAP1 JUMPDEST DUP3 DUP3 LT PUSH2 0x22ED JUMPI POP POP POP POP SUB SWAP1 RETURN JUMPDEST SWAP2 SWAP4 PUSH1 0x1 SWAP2 SWAP4 SWAP6 POP PUSH1 0x20 DUP1 SWAP2 PUSH1 0x3F NOT DUP10 DUP3 SUB ADD DUP6 MSTORE DUP8 MLOAD SWAP1 DUP5 DUP1 PUSH1 0xA0 SHL SUB DUP3 MLOAD AND DUP2 MSTORE PUSH1 0x80 DUP1 PUSH2 0x233F PUSH2 0x232D DUP7 DUP7 ADD MLOAD PUSH1 0xA0 DUP9 DUP8 ADD MSTORE PUSH1 0xA0 DUP7 ADD SWAP1 PUSH2 0x3548 JUMP JUMPDEST PUSH1 0x40 DUP7 ADD MLOAD DUP6 DUP3 SUB PUSH1 0x40 DUP8 ADD MSTORE PUSH2 0x3548 JUMP JUMPDEST SWAP4 PUSH1 0x60 DUP2 ADD MLOAD PUSH1 0x60 DUP6 ADD MSTORE ADD MLOAD ISZERO ISZERO SWAP2 ADD MSTORE SWAP7 ADD SWAP3 ADD SWAP3 ADD DUP6 SWAP5 SWAP4 SWAP2 SWAP3 PUSH2 0x22DE JUMP JUMPDEST DUP1 PUSH2 0x236D PUSH1 0x1 SWAP3 PUSH2 0x34D2 JUMP JUMPDEST DUP4 DUP1 PUSH1 0xA0 SHL SUB SWAP2 SLOAD SWAP1 PUSH1 0x3 SHL SHR AND PUSH1 0x0 MSTORE PUSH1 0x4 PUSH1 0x20 MSTORE PUSH1 0x40 PUSH1 0x0 KECCAK256 PUSH1 0xFF PUSH1 0x4 PUSH1 0x40 MLOAD SWAP3 PUSH2 0x2399 DUP5 PUSH2 0x3646 JUMP JUMPDEST DUP6 DUP1 PUSH1 0xA0 SHL SUB DUP2 SLOAD AND DUP5 MSTORE PUSH1 0x40 MLOAD PUSH2 0x23B7 DUP2 PUSH2 0x2AE DUP2 DUP11 DUP7 ADD PUSH2 0x35C3 JUMP JUMPDEST PUSH1 0x20 DUP6 ADD MSTORE PUSH1 0x40 MLOAD PUSH2 0x23D0 DUP2 PUSH2 0x2AE DUP2 PUSH1 0x2 DUP7 ADD PUSH2 0x35C3 JUMP JUMPDEST PUSH1 0x40 DUP6 ADD MSTORE PUSH1 0x3 DUP2 ADD SLOAD PUSH1 0x60 DUP6 ADD MSTORE ADD SLOAD AND ISZERO ISZERO PUSH1 0x80 DUP3 ADD MSTORE PUSH2 0x23F3 DUP3 DUP7 PUSH2 0x3C37 JUMP JUMPDEST MSTORE PUSH2 0x23FE DUP2 DUP6 PUSH2 0x3C37 JUMP JUMPDEST POP ADD PUSH2 0x22AD JUMP JUMPDEST PUSH1 0x20 SWAP1 PUSH1 0x40 MLOAD PUSH2 0x2414 DUP2 PUSH2 0x3646 JUMP JUMPDEST PUSH1 0x0 DUP2 MSTORE PUSH1 0x60 DUP4 DUP3 ADD MSTORE PUSH1 0x60 PUSH1 0x40 DUP3 ADD MSTORE PUSH1 0x0 PUSH1 0x60 DUP3 ADD MSTORE PUSH1 0x0 PUSH1 0x80 DUP3 ADD MSTORE DUP3 DUP3 DUP8 ADD ADD MSTORE ADD PUSH2 0x22A1 JUMP JUMPDEST CALLVALUE PUSH2 0x301 JUMPI PUSH1 0x0 CALLDATASIZE PUSH1 0x3 NOT ADD SLT PUSH2 0x301 JUMPI PUSH1 0x20 PUSH1 0x40 MLOAD PUSH1 0x0 DUP1 MLOAD PUSH1 0x20 PUSH2 0x4418 DUP4 CODECOPY DUP2 MLOAD SWAP2 MSTORE DUP2 MSTORE RETURN JUMPDEST CALLVALUE PUSH2 0x301 JUMPI PUSH1 0x0 CALLDATASIZE PUSH1 0x3 NOT ADD SLT PUSH2 0x301 JUMPI PUSH1 0x20 PUSH1 0x3 SLOAD PUSH1 0x40 MLOAD SWAP1 DUP2 MSTORE RETURN JUMPDEST CALLVALUE PUSH2 0x301 JUMPI PUSH1 0x20 CALLDATASIZE PUSH1 0x3 NOT ADD SLT PUSH2 0x301 JUMPI PUSH1 0x20 PUSH2 0x24A4 PUSH1 0x4 CALLDATALOAD PUSH2 0x3BFD JUMP JUMPDEST PUSH1 0x40 MLOAD SWAP1 ISZERO ISZERO DUP2 MSTORE RETURN JUMPDEST CALLVALUE PUSH2 0x301 JUMPI PUSH1 0x0 CALLDATASIZE PUSH1 0x3 NOT ADD SLT PUSH2 0x301 JUMPI PUSH1 0x40 MLOAD PUSH1 0x6 SLOAD DUP1 DUP3 MSTORE PUSH1 0x20 DUP3 ADD SWAP1 PUSH1 0x6 PUSH1 0x0 MSTORE PUSH1 0x20 PUSH1 0x0 KECCAK256 SWAP1 PUSH1 0x0 JUMPDEST DUP2 DUP2 LT PUSH2 0x24F2 JUMPI PUSH2 0x3DA DUP6 PUSH2 0x3CE DUP2 DUP8 SUB DUP3 PUSH2 0x367C JUMP JUMPDEST DUP3 SLOAD PUSH1 0x1 PUSH1 0x1 PUSH1 0xA0 SHL SUB AND DUP5 MSTORE PUSH1 0x20 SWAP1 SWAP4 ADD SWAP3 PUSH1 0x1 SWAP3 DUP4 ADD SWAP3 ADD PUSH2 0x24DB JUMP JUMPDEST CALLVALUE PUSH2 0x301 JUMPI PUSH1 0x0 CALLDATASIZE PUSH1 0x3 NOT ADD SLT PUSH2 0x301 JUMPI PUSH1 0x20 PUSH1 0x40 MLOAD PUSH1 0x3 DUP2 MSTORE RETURN JUMPDEST CALLVALUE PUSH2 0x301 JUMPI PUSH1 0x20 CALLDATASIZE PUSH1 0x3 NOT ADD SLT PUSH2 0x301 JUMPI PUSH2 0x2546 PUSH2 0x3448 JUMP JUMPDEST PUSH2 0x254E PUSH2 0x3D89 JUMP JUMPDEST PUSH1 0x1 PUSH1 0x1 PUSH1 0xA0 SHL SUB AND DUP1 ISZERO PUSH2 0x264C JUMPI DUP1 PUSH1 0x0 MSTORE PUSH1 0x4 PUSH1 0x20 MSTORE PUSH1 0xFF PUSH1 0x4 PUSH1 0x40 PUSH1 0x0 KECCAK256 ADD SLOAD AND ISZERO PUSH2 0x2608 JUMPI PUSH2 0x25D8 SWAP1 PUSH2 0x2586 PUSH1 0xB SLOAD PUSH2 0x36CD JUMP JUMPDEST DUP1 PUSH1 0xB SSTORE PUSH1 0x0 MSTORE PUSH1 0xC PUSH1 0x20 MSTORE PUSH1 0x40 PUSH1 0x0 KECCAK256 SWAP1 PUSH1 0x3 PUSH1 0xFF NOT DUP4 SLOAD AND OR DUP3 SSTORE PUSH1 0x8 DUP3 ADD DUP2 PUSH1 0x1 PUSH1 0x1 PUSH1 0x60 SHL SUB PUSH1 0xA0 SHL DUP3 SLOAD AND OR SWAP1 SSTORE TIMESTAMP PUSH1 0xD DUP4 ADD SSTORE PUSH1 0x0 MSTORE PUSH1 0x4 PUSH1 0x20 MSTORE PUSH1 0x5 PUSH1 0x1 PUSH1 0x40 PUSH1 0x0 KECCAK256 ADD SWAP2 ADD PUSH2 0x3B21 JUMP JUMPDEST PUSH2 0x534 PUSH1 0xB SLOAD PUSH1 0x0 DUP1 MLOAD PUSH1 0x20 PUSH2 0x43D8 DUP4 CODECOPY DUP2 MLOAD SWAP2 MSTORE PUSH1 0x60 PUSH1 0x40 MLOAD DUP4 DUP2 MSTORE CALLER PUSH1 0x20 DUP3 ADD MSTORE PUSH1 0x3 PUSH1 0x40 DUP3 ADD MSTORE LOG1 PUSH2 0x3E14 JUMP JUMPDEST PUSH1 0x64 PUSH1 0x40 MLOAD PUSH3 0x461BCD PUSH1 0xE5 SHL DUP2 MSTORE PUSH1 0x20 PUSH1 0x4 DUP3 ADD MSTORE PUSH1 0x20 PUSH1 0x24 DUP3 ADD MSTORE PUSH32 0x50616972206E6F7420616374697665206F7220646F65736E2774206578697374 PUSH1 0x44 DUP3 ADD MSTORE REVERT JUMPDEST PUSH1 0x40 MLOAD PUSH3 0x461BCD PUSH1 0xE5 SHL DUP2 MSTORE PUSH1 0x20 PUSH1 0x4 DUP3 ADD MSTORE PUSH1 0x14 PUSH1 0x24 DUP3 ADD MSTORE PUSH20 0x496E76616C696420706169722061646472657373 PUSH1 0x60 SHL PUSH1 0x44 DUP3 ADD MSTORE PUSH1 0x64 SWAP1 REVERT JUMPDEST CALLVALUE PUSH2 0x301 JUMPI PUSH1 0x20 CALLDATASIZE PUSH1 0x3 NOT ADD SLT PUSH2 0x301 JUMPI PUSH1 0x4 CALLDATALOAD DUP1 ISZERO ISZERO DUP1 PUSH2 0x2810 JUMPI JUMPDEST PUSH2 0x26AE SWAP1 PUSH2 0x3A62 JUMP JUMPDEST DUP1 PUSH1 0x0 MSTORE PUSH1 0xC PUSH1 0x20 MSTORE PUSH1 0xFF PUSH1 0x40 PUSH1 0x0 KECCAK256 SLOAD AND PUSH1 0x6 DUP2 LT ISZERO PUSH2 0x1985 JUMPI PUSH1 0x4 SUB PUSH2 0x279D JUMPI CALLER PUSH1 0x0 SWAP1 DUP2 MSTORE PUSH1 0x0 DUP1 MLOAD PUSH1 0x20 PUSH2 0x43F8 DUP4 CODECOPY DUP2 MLOAD SWAP2 MSTORE PUSH1 0x20 MSTORE PUSH1 0x40 SWAP1 KECCAK256 SLOAD PUSH1 0xFF AND DUP1 ISZERO PUSH2 0x2765 JUMPI JUMPDEST ISZERO PUSH2 0x2705 JUMPI PUSH2 0xAC5 SWAP1 PUSH2 0x3E14 JUMP JUMPDEST PUSH1 0x40 MLOAD PUSH3 0x461BCD PUSH1 0xE5 SHL DUP2 MSTORE PUSH1 0x20 PUSH1 0x4 DUP3 ADD MSTORE PUSH1 0x32 PUSH1 0x24 DUP3 ADD MSTORE PUSH32 0x43616C6C6572206D75737420686176652041444D494E5F524F4C45206F72204F PUSH1 0x44 DUP3 ADD MSTORE PUSH18 0x574E45525F415050524F5645525F524F4C45 PUSH1 0x70 SHL PUSH1 0x64 DUP3 ADD MSTORE PUSH1 0x84 SWAP1 REVERT JUMPDEST POP CALLER PUSH1 0x0 SWAP1 DUP2 MSTORE PUSH32 0xB98FEA3292A51D6BA303DD5EF6120A65C5E45F140A21630A75DE31035DB0B199 PUSH1 0x20 MSTORE PUSH1 0x40 SWAP1 KECCAK256 SLOAD PUSH1 0xFF AND PUSH2 0x26F7 JUMP JUMPDEST CALLER PUSH1 0x0 SWAP1 DUP2 MSTORE PUSH1 0x0 DUP1 MLOAD PUSH1 0x20 PUSH2 0x43F8 DUP4 CODECOPY DUP2 MLOAD SWAP2 MSTORE PUSH1 0x20 MSTORE PUSH1 0x40 SWAP1 KECCAK256 SLOAD PUSH1 0xFF AND ISZERO PUSH2 0x27CB JUMPI PUSH2 0xAC5 SWAP1 PUSH2 0x3E14 JUMP JUMPDEST PUSH1 0x40 MLOAD PUSH3 0x461BCD PUSH1 0xE5 SHL DUP2 MSTORE PUSH1 0x20 PUSH1 0x4 DUP3 ADD MSTORE PUSH1 0x1B PUSH1 0x24 DUP3 ADD MSTORE PUSH32 0x43616C6C6572206D75737420686176652041444D494E5F524F4C450000000000 PUSH1 0x44 DUP3 ADD MSTORE PUSH1 0x64 SWAP1 REVERT JUMPDEST POP PUSH1 0xB SLOAD DUP2 GT ISZERO PUSH2 0x26A5 JUMP JUMPDEST CALLVALUE PUSH2 0x301 JUMPI PUSH1 0x40 CALLDATASIZE PUSH1 0x3 NOT ADD SLT PUSH2 0x301 JUMPI PUSH2 0x2835 PUSH2 0x345E JUMP JUMPDEST CALLER PUSH1 0x1 PUSH1 0x1 PUSH1 0xA0 SHL SUB DUP3 AND SUB PUSH2 0x2851 JUMPI PUSH2 0xAC5 SWAP1 PUSH1 0x4 CALLDATALOAD PUSH2 0x4142 JUMP JUMPDEST PUSH4 0x334BD919 PUSH1 0xE1 SHL PUSH1 0x0 MSTORE PUSH1 0x4 PUSH1 0x0 REVERT JUMPDEST CALLVALUE PUSH2 0x301 JUMPI PUSH1 0x20 CALLDATASIZE PUSH1 0x3 NOT ADD SLT PUSH2 0x301 JUMPI PUSH1 0x4 CALLDATALOAD PUSH2 0x287E PUSH2 0x3D89 JUMP JUMPDEST DUP1 ISZERO ISZERO DUP1 PUSH2 0x29C7 JUMPI JUMPDEST PUSH2 0x2890 SWAP1 PUSH2 0x3A62 JUMP JUMPDEST DUP1 PUSH1 0x0 MSTORE PUSH1 0xC PUSH1 0x20 MSTORE PUSH1 0xB PUSH1 0x40 PUSH1 0x0 KECCAK256 ADD SWAP1 DUP2 SLOAD SWAP1 PUSH1 0xFF DUP3 AND PUSH2 0x2982 JUMPI PUSH1 0xFF DUP3 PUSH1 0x8 SHR AND PUSH2 0x293D JUMPI PUSH2 0x28C1 DUP2 PUSH2 0x3BFD JUMP JUMPDEST ISZERO PUSH2 0x28FF JUMPI PUSH32 0x7D919BD8EC97E857EC355CCA68A0882119B700D30B815F9939A75E824CAD9A9B SWAP3 PUSH2 0x100 PUSH1 0x20 SWAP4 PUSH2 0xFF00 NOT AND OR SWAP1 SSTORE PUSH1 0x40 MLOAD SWAP1 DUP2 MSTORE LOG1 STOP JUMPDEST PUSH1 0x40 MLOAD PUSH3 0x461BCD PUSH1 0xE5 SHL DUP2 MSTORE PUSH1 0x20 PUSH1 0x4 DUP3 ADD MSTORE PUSH1 0x16 PUSH1 0x24 DUP3 ADD MSTORE PUSH22 0x1058DD1A5BDB881B9BDD08195E1C1A5C9959081E595D PUSH1 0x52 SHL PUSH1 0x44 DUP3 ADD MSTORE PUSH1 0x64 SWAP1 REVERT JUMPDEST PUSH1 0x40 MLOAD PUSH3 0x461BCD PUSH1 0xE5 SHL DUP2 MSTORE PUSH1 0x20 PUSH1 0x4 DUP3 ADD MSTORE PUSH1 0x1D PUSH1 0x24 DUP3 ADD MSTORE PUSH32 0x416374696F6E20616C7265616479206D61726B65642065787069726564000000 PUSH1 0x44 DUP3 ADD MSTORE PUSH1 0x64 SWAP1 REVERT JUMPDEST PUSH1 0x40 MLOAD PUSH3 0x461BCD PUSH1 0xE5 SHL DUP2 MSTORE PUSH1 0x20 PUSH1 0x4 DUP3 ADD MSTORE PUSH1 0x17 PUSH1 0x24 DUP3 ADD MSTORE PUSH32 0x416374696F6E20616C7265616479206578656375746564000000000000000000 PUSH1 0x44 DUP3 ADD MSTORE PUSH1 0x64 SWAP1 REVERT JUMPDEST POP PUSH1 0xB SLOAD DUP2 GT ISZERO PUSH2 0x2887 JUMP JUMPDEST CALLVALUE PUSH2 0x301 JUMPI PUSH1 0x0 CALLDATASIZE PUSH1 0x3 NOT ADD SLT PUSH2 0x301 JUMPI PUSH1 0x20 PUSH1 0x40 MLOAD PUSH32 0xD59B2497EBC6A7B17400211976B8406E1F8B300D75EF805D3C4031AE66DCDF1E DUP2 MSTORE RETURN JUMPDEST CALLVALUE PUSH2 0x301 JUMPI PUSH1 0x40 CALLDATASIZE PUSH1 0x3 NOT ADD SLT PUSH2 0x301 JUMPI PUSH2 0xAC5 PUSH1 0x4 CALLDATALOAD PUSH2 0x2A2D PUSH2 0x345E JUMP JUMPDEST SWAP1 PUSH2 0x2A49 PUSH2 0xABB DUP3 PUSH1 0x0 MSTORE PUSH1 0x1 PUSH1 0x20 MSTORE PUSH1 0x1 PUSH1 0x40 PUSH1 0x0 KECCAK256 ADD SLOAD SWAP1 JUMP JUMPDEST PUSH2 0x401D JUMP JUMPDEST CALLVALUE PUSH2 0x301 JUMPI PUSH1 0x20 CALLDATASIZE PUSH1 0x3 NOT ADD SLT PUSH2 0x301 JUMPI PUSH1 0x1 PUSH1 0x1 PUSH1 0xA0 SHL SUB PUSH2 0x2A6F PUSH2 0x3448 JUMP JUMPDEST AND PUSH1 0x0 MSTORE PUSH1 0x9 PUSH1 0x20 MSTORE PUSH1 0x20 PUSH1 0x40 PUSH1 0x0 KECCAK256 SLOAD PUSH1 0x40 MLOAD SWAP1 DUP2 MSTORE RETURN JUMPDEST CALLVALUE PUSH2 0x301 JUMPI PUSH1 0x20 CALLDATASIZE PUSH1 0x3 NOT ADD SLT PUSH2 0x301 JUMPI PUSH1 0x4 CALLDATALOAD PUSH2 0x2AA4 PUSH2 0x3D89 JUMP JUMPDEST DUP1 ISZERO ISZERO DUP1 PUSH2 0x2C06 JUMPI JUMPDEST PUSH2 0x2AB6 SWAP1 PUSH2 0x3A62 JUMP JUMPDEST DUP1 PUSH1 0x0 MSTORE PUSH1 0xC PUSH1 0x20 MSTORE PUSH1 0x40 PUSH1 0x0 KECCAK256 PUSH2 0x2AE4 PUSH1 0xFF PUSH1 0xB DUP4 ADD SLOAD PUSH2 0x2ADA DUP3 DUP3 AND ISZERO PUSH2 0x3AA1 JUMP JUMPDEST PUSH1 0x8 SHR AND ISZERO PUSH2 0x3AE0 JUMP JUMPDEST PUSH1 0xE DUP2 ADD SWAP1 DUP2 SLOAD SWAP1 PUSH1 0xFF DUP3 AND PUSH2 0x2BCE JUMPI PUSH1 0xD DUP2 ADD SLOAD PUSH3 0x93A80 DUP2 ADD DUP1 SWAP2 GT PUSH2 0x1680 JUMPI PUSH2 0x2B12 SWAP1 TIMESTAMP GT ISZERO PUSH2 0x3AE0 JUMP JUMPDEST PUSH1 0xC ADD DUP1 SLOAD SWAP1 PUSH1 0x0 JUMPDEST DUP3 DUP2 LT PUSH2 0x2B5F JUMPI PUSH1 0x1 PUSH1 0xFF NOT DUP6 AND OR DUP6 SSTORE PUSH1 0x40 DUP1 MLOAD DUP8 DUP2 MSTORE CALLER PUSH1 0x20 DUP3 ADD MSTORE PUSH32 0x56BDDA336A8BB949A57770A7CDE5B62BD8913D11D9DDE767735DB889A609692F SWAP2 SWAP1 LOG1 STOP JUMPDEST PUSH2 0x2B69 DUP2 DUP4 PUSH2 0x34ED JUMP JUMPDEST SWAP1 SLOAD PUSH1 0x3 SWAP2 SWAP1 SWAP2 SHL SHR PUSH1 0x1 PUSH1 0x1 PUSH1 0xA0 SHL SUB AND CALLER EQ PUSH2 0x2B89 JUMPI PUSH1 0x1 ADD PUSH2 0x2B1B JUMP JUMPDEST PUSH1 0x40 MLOAD PUSH3 0x461BCD PUSH1 0xE5 SHL DUP2 MSTORE PUSH1 0x20 PUSH1 0x4 DUP3 ADD MSTORE PUSH1 0x1D PUSH1 0x24 DUP3 ADD MSTORE PUSH32 0x43616E6E6F742072656A65637420616674657220617070726F76696E67000000 PUSH1 0x44 DUP3 ADD MSTORE PUSH1 0x64 SWAP1 REVERT JUMPDEST PUSH1 0x40 MLOAD PUSH3 0x461BCD PUSH1 0xE5 SHL DUP2 MSTORE PUSH1 0x20 PUSH1 0x4 DUP3 ADD MSTORE PUSH1 0x10 PUSH1 0x24 DUP3 ADD MSTORE PUSH16 0x105B1C9958591E481C995A9958DD1959 PUSH1 0x82 SHL PUSH1 0x44 DUP3 ADD MSTORE PUSH1 0x64 SWAP1 REVERT JUMPDEST POP PUSH1 0xB SLOAD DUP2 GT ISZERO PUSH2 0x2AAD JUMP JUMPDEST CALLVALUE PUSH2 0x301 JUMPI PUSH1 0x20 CALLDATASIZE PUSH1 0x3 NOT ADD SLT PUSH2 0x301 JUMPI PUSH1 0x4 CALLDATALOAD PUSH1 0x6 SLOAD DUP2 LT ISZERO PUSH2 0x301 JUMPI PUSH2 0x2C3B PUSH1 0x20 SWAP2 PUSH2 0x34D2 JUMP JUMPDEST SWAP1 SLOAD PUSH1 0x40 MLOAD PUSH1 0x3 SWAP3 SWAP1 SWAP3 SHL SHR PUSH1 0x1 PUSH1 0x1 PUSH1 0xA0 SHL SUB AND DUP2 MSTORE RETURN JUMPDEST CALLVALUE PUSH2 0x301 JUMPI PUSH1 0x20 CALLDATASIZE PUSH1 0x3 NOT ADD SLT PUSH2 0x301 JUMPI PUSH1 0x4 CALLDATALOAD PUSH1 0x0 MSTORE PUSH1 0xC PUSH1 0x20 MSTORE PUSH2 0x3DA PUSH2 0x3CE PUSH1 0x2 PUSH1 0x40 PUSH1 0x0 KECCAK256 ADD PUSH2 0x3A0E JUMP JUMPDEST CALLVALUE PUSH2 0x301 JUMPI PUSH1 0x20 CALLDATASIZE PUSH1 0x3 NOT ADD SLT PUSH2 0x301 JUMPI PUSH1 0x20 PUSH2 0x2CB0 PUSH1 0x4 CALLDATALOAD PUSH1 0x0 MSTORE PUSH1 0x1 PUSH1 0x20 MSTORE PUSH1 0x1 PUSH1 0x40 PUSH1 0x0 KECCAK256 ADD SLOAD SWAP1 JUMP JUMPDEST PUSH1 0x40 MLOAD SWAP1 DUP2 MSTORE RETURN JUMPDEST CALLVALUE PUSH2 0x301 JUMPI PUSH1 0x40 CALLDATASIZE PUSH1 0x3 NOT ADD SLT PUSH2 0x301 JUMPI PUSH1 0x20 PUSH2 0x2CB0 PUSH2 0x2CD6 PUSH2 0x3448 JUMP JUMPDEST PUSH2 0x2CDE PUSH2 0x345E JUMP JUMPDEST SWAP1 PUSH2 0x3811 JUMP JUMPDEST CALLVALUE PUSH2 0x301 JUMPI PUSH1 0x20 CALLDATASIZE PUSH1 0x3 NOT ADD SLT PUSH2 0x301 JUMPI PUSH1 0x4 CALLDATALOAD PUSH1 0x7 SLOAD DUP2 LT ISZERO PUSH2 0x301 JUMPI PUSH2 0x2C3B PUSH1 0x20 SWAP2 PUSH2 0x34A1 JUMP JUMPDEST CALLVALUE PUSH2 0x301 JUMPI PUSH1 0x20 CALLDATASIZE PUSH1 0x3 NOT ADD SLT PUSH2 0x301 JUMPI PUSH1 0x4 CALLDATALOAD PUSH2 0x2D29 PUSH2 0x3D89 JUMP JUMPDEST PUSH1 0x1 PUSH1 0x1 PUSH1 0x80 SHL SUB DUP2 GT PUSH2 0x2D97 JUMPI PUSH2 0x2D42 PUSH1 0xB SLOAD PUSH2 0x36CD JUMP JUMPDEST DUP1 PUSH1 0xB SSTORE PUSH1 0x0 MSTORE PUSH1 0xC PUSH1 0x20 MSTORE PUSH1 0x40 PUSH1 0x0 KECCAK256 SWAP1 PUSH1 0xFF NOT DUP3 SLOAD AND DUP3 SSTORE PUSH1 0x1 DUP3 ADD SSTORE PUSH1 0xD TIMESTAMP SWAP2 ADD SSTORE PUSH2 0x534 PUSH1 0xB SLOAD PUSH1 0x0 DUP1 MLOAD PUSH1 0x20 PUSH2 0x43D8 DUP4 CODECOPY DUP2 MLOAD SWAP2 MSTORE PUSH1 0x60 PUSH1 0x40 MLOAD DUP4 DUP2 MSTORE CALLER PUSH1 0x20 DUP3 ADD MSTORE PUSH1 0x0 PUSH1 0x40 DUP3 ADD MSTORE LOG1 PUSH2 0x3E14 JUMP JUMPDEST PUSH1 0x40 MLOAD PUSH3 0x461BCD PUSH1 0xE5 SHL DUP2 MSTORE PUSH1 0x20 PUSH1 0x4 DUP3 ADD MSTORE PUSH1 0xD PUSH1 0x24 DUP3 ADD MSTORE PUSH13 0xA4C2E8CA40E8DEDE40D0D2CED PUSH1 0x9B SHL PUSH1 0x44 DUP3 ADD MSTORE PUSH1 0x64 SWAP1 REVERT JUMPDEST CALLVALUE PUSH2 0x301 JUMPI PUSH1 0x80 CALLDATASIZE PUSH1 0x3 NOT ADD SLT PUSH2 0x301 JUMPI PUSH2 0x2DE5 PUSH2 0x3448 JUMP JUMPDEST PUSH1 0x24 CALLDATALOAD PUSH1 0x1 PUSH1 0x1 PUSH1 0x40 SHL SUB DUP2 GT PUSH2 0x301 JUMPI PUSH2 0x2E04 SWAP1 CALLDATASIZE SWAP1 PUSH1 0x4 ADD PUSH2 0x3474 JUMP JUMPDEST PUSH1 0x44 SWAP3 SWAP2 SWAP3 CALLDATALOAD PUSH1 0x1 PUSH1 0x1 PUSH1 0x40 SHL SUB DUP2 GT PUSH2 0x301 JUMPI PUSH2 0x2E26 SWAP1 CALLDATASIZE SWAP1 PUSH1 0x4 ADD PUSH2 0x3474 JUMP JUMPDEST SWAP1 SWAP4 PUSH1 0x64 CALLDATALOAD SWAP3 PUSH2 0x2E34 PUSH2 0x3D89 JUMP JUMPDEST PUSH1 0x1 PUSH1 0x1 PUSH1 0xA0 SHL SUB DUP6 AND ISZERO PUSH2 0x317F JUMPI DUP4 ISZERO PUSH2 0x313A JUMPI PUSH2 0x2E5E PUSH9 0x3635C9ADC5DEA00000 DUP6 GT ISZERO PUSH2 0x36DC JUMP JUMPDEST DUP1 ISZERO PUSH2 0x3103 JUMPI PUSH1 0x20 DUP2 GT PUSH2 0x30C9 JUMPI DUP3 ISZERO PUSH2 0x308E JUMPI PUSH2 0x2E7F PUSH1 0x20 DUP5 GT ISZERO PUSH2 0x3721 JUMP JUMPDEST PUSH2 0x2E8A PUSH1 0xB SLOAD PUSH2 0x36CD JUMP JUMPDEST DUP1 PUSH1 0xB SSTORE PUSH1 0x0 MSTORE PUSH1 0xC PUSH1 0x20 MSTORE PUSH1 0x40 PUSH1 0x0 KECCAK256 SWAP5 PUSH1 0x2 PUSH1 0xFF NOT DUP8 SLOAD AND OR DUP7 SSTORE PUSH1 0x4 DUP7 ADD SWAP1 PUSH1 0x1 DUP1 PUSH1 0xA0 SHL SUB AND PUSH1 0x1 PUSH1 0x1 PUSH1 0x60 SHL SUB PUSH1 0xA0 SHL DUP3 SLOAD AND OR SWAP1 SSTORE PUSH1 0x5 DUP6 ADD SWAP2 PUSH1 0x1 PUSH1 0x1 PUSH1 0x40 SHL SUB DUP3 GT PUSH2 0x8A2 JUMPI PUSH2 0x2EE6 DUP3 PUSH2 0x118C DUP6 SLOAD PUSH2 0x3589 JUMP JUMPDEST PUSH1 0x0 SWAP1 PUSH1 0x1F DUP4 GT PUSH1 0x1 EQ PUSH2 0x302A JUMPI PUSH2 0x2F16 SWAP3 SWAP2 PUSH1 0x0 SWAP2 DUP4 PUSH2 0x301F JUMPI POP POP DUP2 PUSH1 0x1 SHL SWAP2 PUSH1 0x0 NOT SWAP1 PUSH1 0x3 SHL SHR NOT AND OR SWAP1 JUMP JUMPDEST SWAP1 SSTORE JUMPDEST PUSH1 0x6 DUP4 ADD SWAP1 PUSH1 0x1 PUSH1 0x1 PUSH1 0x40 SHL SUB DUP2 GT PUSH2 0x8A2 JUMPI PUSH2 0x2F40 DUP2 PUSH2 0x2F3A DUP5 SLOAD PUSH2 0x3589 JUMP JUMPDEST DUP5 PUSH2 0x377D JUMP JUMPDEST PUSH1 0x0 PUSH1 0x1F DUP3 GT PUSH1 0x1 EQ PUSH2 0x2FBB JUMPI DUP2 SWAP1 PUSH2 0x2F72 SWAP4 SWAP5 SWAP6 SWAP7 PUSH1 0x0 SWAP3 PUSH2 0x2FB0 JUMPI POP POP DUP2 PUSH1 0x1 SHL SWAP2 PUSH1 0x0 NOT SWAP1 PUSH1 0x3 SHL SHR NOT AND OR SWAP1 JUMP JUMPDEST SWAP1 SSTORE JUMPDEST PUSH1 0x7 DUP3 ADD SSTORE PUSH1 0xD TIMESTAMP SWAP2 ADD SSTORE PUSH2 0x534 PUSH1 0xB SLOAD PUSH1 0x0 DUP1 MLOAD PUSH1 0x20 PUSH2 0x43D8 DUP4 CODECOPY DUP2 MLOAD SWAP2 MSTORE PUSH1 0x60 PUSH1 0x40 MLOAD DUP4 DUP2 MSTORE CALLER PUSH1 0x20 DUP3 ADD MSTORE PUSH1 0x2 PUSH1 0x40 DUP3 ADD MSTORE LOG1 PUSH2 0x3E14 JUMP JUMPDEST ADD CALLDATALOAD SWAP1 POP DUP7 DUP1 PUSH2 0x11AE JUMP JUMPDEST PUSH1 0x1F NOT DUP3 AND SWAP6 DUP4 DUP3 MSTORE PUSH1 0x20 DUP3 KECCAK256 SWAP2 DUP1 JUMPDEST DUP9 DUP2 LT PUSH2 0x3007 JUMPI POP DUP4 PUSH1 0x1 SWAP6 SWAP7 SWAP8 SWAP9 LT PUSH2 0x2FED JUMPI JUMPDEST POP POP POP DUP2 SHL ADD SWAP1 SSTORE PUSH2 0x2F75 JUMP JUMPDEST ADD CALLDATALOAD PUSH1 0x0 NOT PUSH1 0x3 DUP5 SWAP1 SHL PUSH1 0xF8 AND SHR NOT AND SWAP1 SSTORE DUP6 DUP1 DUP1 PUSH2 0x2FE0 JUMP JUMPDEST SWAP1 SWAP3 PUSH1 0x20 PUSH1 0x1 DUP2 SWAP3 DUP7 DUP7 ADD CALLDATALOAD DUP2 SSTORE ADD SWAP5 ADD SWAP2 ADD PUSH2 0x2FCB JUMP JUMPDEST ADD CALLDATALOAD SWAP1 POP DUP9 DUP1 PUSH2 0x11AE JUMP JUMPDEST DUP4 DUP3 MSTORE PUSH1 0x20 DUP3 KECCAK256 SWAP2 PUSH1 0x1F NOT DUP5 AND DUP2 JUMPDEST DUP2 DUP2 LT PUSH2 0x3076 JUMPI POP SWAP1 DUP5 PUSH1 0x1 SWAP6 SWAP5 SWAP4 SWAP3 LT PUSH2 0x305C JUMPI JUMPDEST POP POP POP DUP2 SHL ADD SWAP1 SSTORE PUSH2 0x2F19 JUMP JUMPDEST ADD CALLDATALOAD PUSH1 0x0 NOT PUSH1 0x3 DUP5 SWAP1 SHL PUSH1 0xF8 AND SHR NOT AND SWAP1 SSTORE DUP8 DUP1 DUP1 PUSH2 0x304F JUMP JUMPDEST SWAP2 SWAP4 PUSH1 0x20 PUSH1 0x1 DUP2 SWAP3 DUP8 DUP8 ADD CALLDATALOAD DUP2 SSTORE ADD SWAP6 ADD SWAP3 ADD PUSH2 0x3039 JUMP JUMPDEST PUSH1 0x40 MLOAD PUSH3 0x461BCD PUSH1 0xE5 SHL DUP2 MSTORE PUSH1 0x20 PUSH1 0x4 DUP3 ADD MSTORE PUSH1 0x13 PUSH1 0x24 DUP3 ADD MSTORE PUSH19 0x456D70747920706C6174666F726D206E616D65 PUSH1 0x68 SHL PUSH1 0x44 DUP3 ADD MSTORE PUSH1 0x64 SWAP1 REVERT JUMPDEST PUSH1 0x40 MLOAD PUSH3 0x461BCD PUSH1 0xE5 SHL DUP2 MSTORE PUSH1 0x20 PUSH1 0x4 DUP3 ADD MSTORE PUSH1 0x12 PUSH1 0x24 DUP3 ADD MSTORE PUSH18 0x50616972206E616D6520746F6F206C6F6E67 PUSH1 0x70 SHL PUSH1 0x44 DUP3 ADD MSTORE PUSH1 0x64 SWAP1 REVERT JUMPDEST PUSH1 0x40 MLOAD PUSH3 0x461BCD PUSH1 0xE5 SHL DUP2 MSTORE PUSH1 0x20 PUSH1 0x4 DUP3 ADD MSTORE PUSH1 0xF PUSH1 0x24 DUP3 ADD MSTORE PUSH15 0x456D7074792070616972206E616D65 PUSH1 0x88 SHL PUSH1 0x44 DUP3 ADD MSTORE PUSH1 0x64 SWAP1 REVERT JUMPDEST PUSH1 0x40 MLOAD PUSH3 0x461BCD PUSH1 0xE5 SHL DUP2 MSTORE PUSH1 0x20 PUSH1 0x4 DUP3 ADD MSTORE PUSH1 0x1D PUSH1 0x24 DUP3 ADD MSTORE PUSH32 0x576569676874206D7573742062652067726561746572207468616E2030000000 PUSH1 0x44 DUP3 ADD MSTORE PUSH1 0x64 SWAP1 REVERT JUMPDEST PUSH1 0x40 MLOAD PUSH3 0x461BCD PUSH1 0xE5 SHL DUP2 MSTORE PUSH1 0x20 PUSH1 0x4 DUP3 ADD MSTORE PUSH1 0xC PUSH1 0x24 DUP3 ADD MSTORE PUSH12 0x24B73B30B634B2103830B4B9 PUSH1 0xA1 SHL PUSH1 0x44 DUP3 ADD MSTORE PUSH1 0x64 SWAP1 REVERT JUMPDEST CALLVALUE PUSH2 0x301 JUMPI PUSH1 0x40 CALLDATASIZE PUSH1 0x3 NOT ADD SLT PUSH2 0x301 JUMPI PUSH2 0x31CC PUSH2 0x3448 JUMP JUMPDEST PUSH1 0x24 CALLDATALOAD PUSH2 0x31D7 PUSH2 0x3D89 JUMP JUMPDEST PUSH1 0x1 PUSH1 0x1 PUSH1 0xA0 SHL SUB DUP3 AND ISZERO PUSH2 0x33B0 JUMPI DUP1 ISZERO PUSH2 0x336C JUMPI PUSH1 0x2 SLOAD PUSH1 0x40 MLOAD PUSH4 0x70A08231 PUSH1 0xE0 SHL DUP2 MSTORE ADDRESS PUSH1 0x4 DUP3 ADD MSTORE SWAP1 PUSH1 0x20 SWAP1 DUP3 SWAP1 PUSH1 0x24 SWAP1 DUP3 SWAP1 PUSH1 0x1 PUSH1 0x1 PUSH1 0xA0 SHL SUB AND GAS STATICCALL SWAP1 DUP2 ISZERO PUSH2 0x16C8 JUMPI PUSH1 0x0 SWAP2 PUSH2 0x333A JUMPI JUMPDEST POP DUP2 GT PUSH2 0x32F5 JUMPI PUSH1 0x1 PUSH1 0x1 PUSH1 0x80 SHL SUB DUP2 GT PUSH2 0x32BD JUMPI PUSH2 0x3247 PUSH1 0xB SLOAD PUSH2 0x36CD JUMP JUMPDEST DUP1 PUSH1 0xB SSTORE PUSH1 0x0 MSTORE PUSH1 0xC PUSH1 0x20 MSTORE PUSH1 0x40 PUSH1 0x0 KECCAK256 SWAP2 PUSH1 0x5 PUSH1 0xFF NOT DUP5 SLOAD AND OR DUP4 SSTORE PUSH1 0x9 DUP4 ADD SWAP1 PUSH1 0x1 DUP1 PUSH1 0xA0 SHL SUB AND PUSH1 0x1 PUSH1 0x1 PUSH1 0x60 SHL SUB PUSH1 0xA0 SHL DUP3 SLOAD AND OR SWAP1 SSTORE PUSH1 0xA DUP3 ADD SSTORE PUSH1 0xD TIMESTAMP SWAP2 ADD SSTORE PUSH2 0x534 PUSH1 0xB SLOAD PUSH1 0x0 DUP1 MLOAD PUSH1 0x20 PUSH2 0x43D8 DUP4 CODECOPY DUP2 MLOAD SWAP2 MSTORE PUSH1 0x60 PUSH1 0x40 MLOAD DUP4 DUP2 MSTORE CALLER PUSH1 0x20 DUP3 ADD MSTORE PUSH1 0x5 PUSH1 0x40 DUP3 ADD MSTORE LOG1 PUSH2 0x3E14 JUMP JUMPDEST PUSH1 0x40 MLOAD PUSH3 0x461BCD PUSH1 0xE5 SHL DUP2 MSTORE PUSH1 0x20 PUSH1 0x4 DUP3 ADD MSTORE PUSH1 0x10 PUSH1 0x24 DUP3 ADD MSTORE PUSH16 0x416D6F756E7420746F6F206C61726765 PUSH1 0x80 SHL PUSH1 0x44 DUP3 ADD MSTORE PUSH1 0x64 SWAP1 REVERT JUMPDEST PUSH1 0x40 MLOAD PUSH3 0x461BCD PUSH1 0xE5 SHL DUP2 MSTORE PUSH1 0x20 PUSH1 0x4 DUP3 ADD MSTORE PUSH1 0x1F PUSH1 0x24 DUP3 ADD MSTORE PUSH32 0x416D6F756E74206578636565647320636F6E74726163742062616C616E636500 PUSH1 0x44 DUP3 ADD MSTORE PUSH1 0x64 SWAP1 REVERT JUMPDEST SWAP1 POP PUSH1 0x20 DUP2 RETURNDATASIZE PUSH1 0x20 GT PUSH2 0x3364 JUMPI JUMPDEST DUP2 PUSH2 0x3355 PUSH1 0x20 SWAP4 DUP4 PUSH2 0x367C JUMP JUMPDEST DUP2 ADD SUB SLT PUSH2 0x301 JUMPI MLOAD DUP4 PUSH2 0x3227 JUMP JUMPDEST RETURNDATASIZE SWAP2 POP PUSH2 0x3348 JUMP JUMPDEST PUSH1 0x64 PUSH1 0x40 MLOAD PUSH3 0x461BCD PUSH1 0xE5 SHL DUP2 MSTORE PUSH1 0x20 PUSH1 0x4 DUP3 ADD MSTORE PUSH1 0x20 PUSH1 0x24 DUP3 ADD MSTORE PUSH32 0x416D6F756E74206D7573742062652067726561746572207468616E207A65726F PUSH1 0x44 DUP3 ADD MSTORE REVERT JUMPDEST PUSH1 0x40 MLOAD PUSH3 0x461BCD PUSH1 0xE5 SHL DUP2 MSTORE PUSH1 0x20 PUSH1 0x4 DUP3 ADD MSTORE PUSH1 0x19 PUSH1 0x24 DUP3 ADD MSTORE PUSH32 0x496E76616C696420726563697069656E74206164647265737300000000000000 PUSH1 0x44 DUP3 ADD MSTORE PUSH1 0x64 SWAP1 REVERT JUMPDEST CALLVALUE PUSH2 0x301 JUMPI PUSH1 0x20 CALLDATASIZE PUSH1 0x3 NOT ADD SLT PUSH2 0x301 JUMPI PUSH1 0x4 CALLDATALOAD SWAP1 PUSH4 0xFFFFFFFF PUSH1 0xE0 SHL DUP3 AND DUP1 SWAP3 SUB PUSH2 0x301 JUMPI PUSH1 0x20 SWAP2 PUSH4 0x7965DB0B PUSH1 0xE0 SHL DUP2 EQ SWAP1 DUP2 ISZERO PUSH2 0x3437 JUMPI JUMPDEST POP ISZERO ISZERO DUP2 MSTORE RETURN JUMPDEST PUSH4 0x1FFC9A7 PUSH1 0xE0 SHL EQ SWAP1 POP DUP4 PUSH2 0x3430 JUMP JUMPDEST PUSH1 0x4 CALLDATALOAD SWAP1 PUSH1 0x1 PUSH1 0x1 PUSH1 0xA0 SHL SUB DUP3 AND DUP3 SUB PUSH2 0x301 JUMPI JUMP JUMPDEST PUSH1 0x24 CALLDATALOAD SWAP1 PUSH1 0x1 PUSH1 0x1 PUSH1 0xA0 SHL SUB DUP3 AND DUP3 SUB PUSH2 0x301 JUMPI JUMP JUMPDEST SWAP2 DUP2 PUSH1 0x1F DUP5 ADD SLT ISZERO PUSH2 0x301 JUMPI DUP3 CALLDATALOAD SWAP2 PUSH1 0x1 PUSH1 0x1 PUSH1 0x40 SHL SUB DUP4 GT PUSH2 0x301 JUMPI PUSH1 0x20 DUP4 DUP2 DUP7 ADD SWAP6 ADD ADD GT PUSH2 0x301 JUMPI JUMP JUMPDEST PUSH1 0x7 SLOAD DUP2 LT ISZERO PUSH2 0x34BC JUMPI PUSH1 0x7 PUSH1 0x0 MSTORE PUSH1 0x20 PUSH1 0x0 KECCAK256 ADD SWAP1 PUSH1 0x0 SWAP1 JUMP JUMPDEST PUSH4 0x4E487B71 PUSH1 0xE0 SHL PUSH1 0x0 MSTORE PUSH1 0x32 PUSH1 0x4 MSTORE PUSH1 0x24 PUSH1 0x0 REVERT JUMPDEST PUSH1 0x6 SLOAD DUP2 LT ISZERO PUSH2 0x34BC JUMPI PUSH1 0x6 PUSH1 0x0 MSTORE PUSH1 0x20 PUSH1 0x0 KECCAK256 ADD SWAP1 PUSH1 0x0 SWAP1 JUMP JUMPDEST DUP1 SLOAD DUP3 LT ISZERO PUSH2 0x34BC JUMPI PUSH1 0x0 MSTORE PUSH1 0x20 PUSH1 0x0 KECCAK256 ADD SWAP1 PUSH1 0x0 SWAP1 JUMP JUMPDEST PUSH1 0x20 PUSH1 0x40 DUP2 DUP4 ADD SWAP3 DUP3 DUP2 MSTORE DUP5 MLOAD DUP1 SWAP5 MSTORE ADD SWAP3 ADD SWAP1 PUSH1 0x0 JUMPDEST DUP2 DUP2 LT PUSH2 0x3529 JUMPI POP POP POP SWAP1 JUMP JUMPDEST DUP3 MLOAD PUSH1 0x1 PUSH1 0x1 PUSH1 0xA0 SHL SUB AND DUP5 MSTORE PUSH1 0x20 SWAP4 DUP5 ADD SWAP4 SWAP1 SWAP3 ADD SWAP2 PUSH1 0x1 ADD PUSH2 0x351C JUMP JUMPDEST SWAP2 SWAP1 DUP3 MLOAD SWAP3 DUP4 DUP3 MSTORE PUSH1 0x0 JUMPDEST DUP5 DUP2 LT PUSH2 0x3574 JUMPI POP POP DUP3 PUSH1 0x0 PUSH1 0x20 DUP1 SWAP5 SWAP6 DUP5 ADD ADD MSTORE PUSH1 0x1F DUP1 NOT SWAP2 ADD AND ADD ADD SWAP1 JUMP JUMPDEST DUP1 PUSH1 0x20 DUP1 SWAP3 DUP5 ADD ADD MLOAD DUP3 DUP3 DUP7 ADD ADD MSTORE ADD PUSH2 0x3553 JUMP JUMPDEST SWAP1 PUSH1 0x1 DUP3 DUP2 SHR SWAP3 AND DUP1 ISZERO PUSH2 0x35B9 JUMPI JUMPDEST PUSH1 0x20 DUP4 LT EQ PUSH2 0x35A3 JUMPI JUMP JUMPDEST PUSH4 0x4E487B71 PUSH1 0xE0 SHL PUSH1 0x0 MSTORE PUSH1 0x22 PUSH1 0x4 MSTORE PUSH1 0x24 PUSH1 0x0 REVERT JUMPDEST SWAP2 PUSH1 0x7F AND SWAP2 PUSH2 0x3598 JUMP JUMPDEST PUSH1 0x0 SWAP3 SWAP2 DUP2 SLOAD SWAP2 PUSH2 0x35D3 DUP4 PUSH2 0x3589 JUMP JUMPDEST DUP1 DUP4 MSTORE SWAP3 PUSH1 0x1 DUP2 AND SWAP1 DUP2 ISZERO PUSH2 0x3629 JUMPI POP PUSH1 0x1 EQ PUSH2 0x35EF JUMPI POP POP POP JUMP JUMPDEST PUSH1 0x0 SWAP1 DUP2 MSTORE PUSH1 0x20 DUP2 KECCAK256 SWAP4 SWAP5 POP SWAP2 SWAP3 JUMPDEST DUP4 DUP4 LT PUSH2 0x360F JUMPI POP PUSH1 0x20 SWAP3 POP ADD ADD SWAP1 JUMP JUMPDEST PUSH1 0x1 DUP2 PUSH1 0x20 SWAP3 SWAP5 SWAP4 SWAP5 SLOAD DUP4 DUP6 DUP8 ADD ADD MSTORE ADD SWAP2 ADD SWAP2 SWAP1 PUSH2 0x35FE JUMP JUMPDEST SWAP2 POP POP PUSH1 0x20 SWAP4 SWAP5 POP PUSH1 0xFF SWAP3 SWAP2 SWAP3 NOT AND DUP4 DUP4 ADD MSTORE ISZERO ISZERO PUSH1 0x5 SHL ADD ADD SWAP1 JUMP JUMPDEST PUSH1 0xA0 DUP2 ADD SWAP1 DUP2 LT PUSH1 0x1 PUSH1 0x1 PUSH1 0x40 SHL SUB DUP3 GT OR PUSH2 0x8A2 JUMPI PUSH1 0x40 MSTORE JUMP JUMPDEST PUSH1 0x80 DUP2 ADD SWAP1 DUP2 LT PUSH1 0x1 PUSH1 0x1 PUSH1 0x40 SHL SUB DUP3 GT OR PUSH2 0x8A2 JUMPI PUSH1 0x40 MSTORE JUMP JUMPDEST SWAP1 PUSH1 0x1F DUP1 NOT SWAP2 ADD AND DUP2 ADD SWAP1 DUP2 LT PUSH1 0x1 PUSH1 0x1 PUSH1 0x40 SHL SUB DUP3 GT OR PUSH2 0x8A2 JUMPI PUSH1 0x40 MSTORE JUMP JUMPDEST SWAP2 DUP2 PUSH1 0x1F DUP5 ADD SLT ISZERO PUSH2 0x301 JUMPI DUP3 CALLDATALOAD SWAP2 PUSH1 0x1 PUSH1 0x1 PUSH1 0x40 SHL SUB DUP4 GT PUSH2 0x301 JUMPI PUSH1 0x20 DUP1 DUP6 ADD SWAP5 DUP5 PUSH1 0x5 SHL ADD ADD GT PUSH2 0x301 JUMPI JUMP JUMPDEST PUSH1 0x0 NOT DUP2 EQ PUSH2 0x1680 JUMPI PUSH1 0x1 ADD SWAP1 JUMP JUMPDEST ISZERO PUSH2 0x36E3 JUMPI JUMP JUMPDEST PUSH1 0x40 MLOAD PUSH3 0x461BCD PUSH1 0xE5 SHL DUP2 MSTORE PUSH1 0x20 PUSH1 0x4 DUP3 ADD MSTORE PUSH1 0x16 PUSH1 0x24 DUP3 ADD MSTORE PUSH22 0x5765696768742065786365656473206D6178696D756D PUSH1 0x50 SHL PUSH1 0x44 DUP3 ADD MSTORE PUSH1 0x64 SWAP1 REVERT JUMPDEST ISZERO PUSH2 0x3728 JUMPI JUMP JUMPDEST PUSH1 0x40 MLOAD PUSH3 0x461BCD PUSH1 0xE5 SHL DUP2 MSTORE PUSH1 0x20 PUSH1 0x4 DUP3 ADD MSTORE PUSH1 0x16 PUSH1 0x24 DUP3 ADD MSTORE PUSH22 0x506C6174666F726D206E616D6520746F6F206C6F6E67 PUSH1 0x50 SHL PUSH1 0x44 DUP3 ADD MSTORE PUSH1 0x64 SWAP1 REVERT JUMPDEST DUP2 DUP2 LT PUSH2 0x3771 JUMPI POP POP JUMP JUMPDEST PUSH1 0x0 DUP2 SSTORE PUSH1 0x1 ADD PUSH2 0x3766 JUMP JUMPDEST SWAP2 SWAP1 PUSH1 0x1F DUP2 GT PUSH2 0x378C JUMPI POP POP POP JUMP JUMPDEST PUSH2 0x37B8 SWAP3 PUSH1 0x0 MSTORE PUSH1 0x20 PUSH1 0x0 KECCAK256 SWAP1 PUSH1 0x20 PUSH1 0x1F DUP5 ADD PUSH1 0x5 SHR DUP4 ADD SWAP4 LT PUSH2 0x37BA JUMPI JUMPDEST PUSH1 0x1F ADD PUSH1 0x5 SHR ADD SWAP1 PUSH2 0x3766 JUMP JUMPDEST JUMP JUMPDEST SWAP1 SWAP2 POP DUP2 SWAP1 PUSH2 0x37AB JUMP JUMPDEST SWAP2 SWAP1 DUP3 SUB SWAP2 DUP3 GT PUSH2 0x1680 JUMPI JUMP JUMPDEST DUP2 ISZERO PUSH2 0x37DB JUMPI DIV SWAP1 JUMP JUMPDEST PUSH4 0x4E487B71 PUSH1 0xE0 SHL PUSH1 0x0 MSTORE PUSH1 0x12 PUSH1 0x4 MSTORE PUSH1 0x24 PUSH1 0x0 REVERT JUMPDEST DUP2 DUP2 MUL SWAP3 SWAP2 DUP2 ISZERO SWAP2 DUP5 DIV EQ OR ISZERO PUSH2 0x1680 JUMPI JUMP JUMPDEST SWAP2 SWAP1 DUP3 ADD DUP1 SWAP3 GT PUSH2 0x1680 JUMPI JUMP JUMPDEST PUSH1 0x1 PUSH1 0x1 PUSH1 0xA0 SHL SUB SWAP1 DUP2 AND PUSH1 0x0 SWAP1 DUP2 MSTORE PUSH1 0x5 PUSH1 0x20 SWAP1 DUP2 MSTORE PUSH1 0x40 DUP1 DUP4 KECCAK256 SWAP5 SWAP1 SWAP4 AND DUP1 DUP4 MSTORE SWAP4 DUP2 MSTORE DUP3 DUP3 KECCAK256 PUSH1 0x8 DUP3 MSTORE DUP4 DUP4 KECCAK256 SLOAD PUSH1 0x9 SWAP1 SWAP3 MSTORE SWAP3 SWAP1 SWAP2 KECCAK256 SLOAD SWAP1 SWAP3 SWAP1 TIMESTAMP GT DUP1 PUSH2 0x39A8 JUMPI JUMPDEST DUP1 PUSH2 0x399D JUMPI JUMPDEST PUSH2 0x3899 JUMPI JUMPDEST POP PUSH1 0x2 PUSH8 0xDE0B6B3A7640000 PUSH2 0x388C PUSH2 0x3896 SWAP5 PUSH2 0x3886 DUP6 SLOAD SWAP2 PUSH1 0x3 DUP8 ADD SLOAD SWAP1 PUSH2 0x37C4 JUMP JUMPDEST SWAP1 PUSH2 0x37F1 JUMP JUMPDEST DIV SWAP2 ADD SLOAD SWAP1 PUSH2 0x3804 JUMP JUMPDEST SWAP1 JUMP JUMPDEST SWAP2 DUP3 PUSH1 0x0 MSTORE PUSH1 0x9 PUSH1 0x20 MSTORE PUSH2 0x38E8 PUSH2 0x38DF PUSH2 0x38C7 PUSH2 0x38BB PUSH1 0x40 PUSH1 0x0 KECCAK256 SLOAD TIMESTAMP PUSH2 0x37C4 JUMP JUMPDEST PUSH2 0xE10 PUSH1 0x3 SLOAD DIV PUSH2 0x37F1 JUMP JUMPDEST DUP6 PUSH1 0x0 MSTORE PUSH1 0x4 PUSH1 0x20 MSTORE PUSH1 0x3 PUSH1 0x40 PUSH1 0x0 KECCAK256 ADD SLOAD SWAP1 PUSH2 0x37F1 JUMP JUMPDEST PUSH1 0xA SLOAD SWAP1 PUSH2 0x37D1 JUMP JUMPDEST PUSH8 0xDE0B6B3A7640000 DUP2 MUL SWAP1 DUP1 DUP3 DIV PUSH8 0xDE0B6B3A7640000 EQ SWAP1 ISZERO OR ISZERO PUSH2 0x1680 JUMPI PUSH1 0x20 PUSH1 0x24 SWAP5 PUSH1 0x40 MLOAD SWAP6 DUP7 DUP1 SWAP3 PUSH4 0x70A08231 PUSH1 0xE0 SHL DUP3 MSTORE ADDRESS PUSH1 0x4 DUP4 ADD MSTORE GAS STATICCALL SWAP4 DUP5 ISZERO PUSH2 0x16C8 JUMPI PUSH1 0x0 SWAP5 PUSH2 0x3965 JUMPI JUMPDEST POP PUSH2 0x388C PUSH2 0x395C PUSH1 0x2 SWAP4 PUSH2 0x3956 PUSH2 0x3896 SWAP8 PUSH8 0xDE0B6B3A7640000 SWAP6 PUSH2 0x37D1 JUMP JUMPDEST SWAP1 PUSH2 0x3804 JUMP JUMPDEST SWAP5 POP POP POP PUSH2 0x3862 JUMP JUMPDEST SWAP4 POP SWAP1 PUSH1 0x20 DUP5 RETURNDATASIZE PUSH1 0x20 GT PUSH2 0x3995 JUMPI JUMPDEST DUP2 PUSH2 0x3981 PUSH1 0x20 SWAP4 DUP4 PUSH2 0x367C JUMP JUMPDEST DUP2 ADD SUB SLT PUSH2 0x301 JUMPI SWAP3 MLOAD SWAP3 SWAP1 PUSH2 0x388C PUSH2 0x3936 JUMP JUMPDEST RETURNDATASIZE SWAP2 POP PUSH2 0x3974 JUMP JUMPDEST POP PUSH1 0xA SLOAD ISZERO ISZERO PUSH2 0x385D JUMP JUMPDEST POP PUSH1 0x40 MLOAD PUSH4 0x70A08231 PUSH1 0xE0 SHL DUP2 MSTORE ADDRESS PUSH1 0x4 DUP3 ADD MSTORE PUSH1 0x20 DUP2 PUSH1 0x24 DUP2 DUP6 GAS STATICCALL SWAP1 DUP2 ISZERO PUSH2 0x16C8 JUMPI PUSH1 0x0 SWAP2 PUSH2 0x39DC JUMPI JUMPDEST POP ISZERO ISZERO PUSH2 0x3857 JUMP JUMPDEST SWAP1 POP PUSH1 0x20 DUP2 RETURNDATASIZE PUSH1 0x20 GT PUSH2 0x3A06 JUMPI JUMPDEST DUP2 PUSH2 0x39F7 PUSH1 0x20 SWAP4 DUP4 PUSH2 0x367C JUMP JUMPDEST DUP2 ADD SUB SLT PUSH2 0x301 JUMPI MLOAD CODESIZE PUSH2 0x39D4 JUMP JUMPDEST RETURNDATASIZE SWAP2 POP PUSH2 0x39EA JUMP JUMPDEST SWAP1 PUSH1 0x40 MLOAD SWAP2 DUP3 DUP2 SLOAD SWAP2 DUP3 DUP3 MSTORE PUSH1 0x20 DUP3 ADD SWAP1 PUSH1 0x0 MSTORE PUSH1 0x20 PUSH1 0x0 KECCAK256 SWAP3 PUSH1 0x0 JUMPDEST DUP2 DUP2 LT PUSH2 0x3A40 JUMPI POP POP PUSH2 0x37B8 SWAP3 POP SUB DUP4 PUSH2 0x367C JUMP JUMPDEST DUP5 SLOAD PUSH1 0x1 PUSH1 0x1 PUSH1 0xA0 SHL SUB AND DUP4 MSTORE PUSH1 0x1 SWAP5 DUP6 ADD SWAP5 DUP8 SWAP5 POP PUSH1 0x20 SWAP1 SWAP4 ADD SWAP3 ADD PUSH2 0x3A2B JUMP JUMPDEST ISZERO PUSH2 0x3A69 JUMPI JUMP JUMPDEST PUSH1 0x40 MLOAD PUSH3 0x461BCD PUSH1 0xE5 SHL DUP2 MSTORE PUSH1 0x20 PUSH1 0x4 DUP3 ADD MSTORE PUSH1 0x10 PUSH1 0x24 DUP3 ADD MSTORE PUSH16 0x125B9D985B1A59081858DD1A5BDB9259 PUSH1 0x82 SHL PUSH1 0x44 DUP3 ADD MSTORE PUSH1 0x64 SWAP1 REVERT JUMPDEST ISZERO PUSH2 0x3AA8 JUMPI JUMP JUMPDEST PUSH1 0x40 MLOAD PUSH3 0x461BCD PUSH1 0xE5 SHL DUP2 MSTORE PUSH1 0x20 PUSH1 0x4 DUP3 ADD MSTORE PUSH1 0x10 PUSH1 0x24 DUP3 ADD MSTORE PUSH16 0x105B1C9958591E48195E1958DD5D1959 PUSH1 0x82 SHL PUSH1 0x44 DUP3 ADD MSTORE PUSH1 0x64 SWAP1 REVERT JUMPDEST ISZERO PUSH2 0x3AE7 JUMPI JUMP JUMPDEST PUSH1 0x40 MLOAD PUSH3 0x461BCD PUSH1 0xE5 SHL DUP2 MSTORE PUSH1 0x20 PUSH1 0x4 DUP3 ADD MSTORE PUSH1 0x12 PUSH1 0x24 DUP3 ADD MSTORE PUSH18 0x1058DD1A5BDB881A185CC8195E1C1A5C9959 PUSH1 0x72 SHL PUSH1 0x44 DUP3 ADD MSTORE PUSH1 0x64 SWAP1 REVERT JUMPDEST SWAP2 SWAP1 SWAP2 DUP3 DUP2 EQ PUSH2 0x3BF8 JUMPI PUSH2 0x3B35 DUP4 SLOAD PUSH2 0x3589 JUMP JUMPDEST PUSH1 0x1 PUSH1 0x1 PUSH1 0x40 SHL SUB DUP2 GT PUSH2 0x8A2 JUMPI PUSH2 0x3B51 DUP2 PUSH2 0x2F3A DUP5 SLOAD PUSH2 0x3589 JUMP JUMPDEST PUSH1 0x0 SWAP4 PUSH1 0x1F DUP3 GT PUSH1 0x1 EQ PUSH2 0x3B92 JUMPI PUSH2 0x3B83 SWAP3 SWAP4 SWAP5 DUP3 SWAP2 PUSH1 0x0 SWAP3 PUSH2 0x3B87 JUMPI POP POP DUP2 PUSH1 0x1 SHL SWAP2 PUSH1 0x0 NOT SWAP1 PUSH1 0x3 SHL SHR NOT AND OR SWAP1 JUMP JUMPDEST SWAP1 SSTORE JUMP JUMPDEST ADD SLOAD SWAP1 POP CODESIZE DUP1 PUSH2 0x11AE JUMP JUMPDEST DUP5 MSTORE PUSH1 0x20 DUP1 DUP6 KECCAK256 DUP4 DUP7 MSTORE SWAP1 DUP6 KECCAK256 SWAP1 SWAP5 PUSH1 0x1F NOT DUP4 AND DUP2 JUMPDEST DUP2 DUP2 LT PUSH2 0x3BE0 JUMPI POP SWAP6 DUP4 PUSH1 0x1 SWAP6 SWAP7 SWAP8 LT PUSH2 0x3BC7 JUMPI JUMPDEST POP POP POP DUP2 SHL ADD SWAP1 SSTORE JUMP JUMPDEST ADD SLOAD PUSH1 0x0 NOT PUSH1 0xF8 DUP5 PUSH1 0x3 SHL AND SHR NOT AND SWAP1 SSTORE CODESIZE DUP1 DUP1 PUSH2 0x3BBD JUMP JUMPDEST SWAP2 SWAP3 PUSH1 0x1 DUP1 PUSH1 0x20 SWAP3 DUP7 DUP12 ADD SLOAD DUP2 SSTORE ADD SWAP5 ADD SWAP3 ADD PUSH2 0x3BA8 JUMP JUMPDEST POP SWAP1 POP JUMP JUMPDEST PUSH1 0x0 MSTORE PUSH1 0xC PUSH1 0x20 MSTORE PUSH1 0xD PUSH1 0x40 PUSH1 0x0 KECCAK256 ADD SLOAD PUSH3 0x93A80 DUP2 ADD DUP1 SWAP2 GT PUSH2 0x1680 JUMPI TIMESTAMP GT SWAP1 JUMP JUMPDEST PUSH1 0x1 PUSH1 0x1 PUSH1 0x40 SHL SUB DUP2 GT PUSH2 0x8A2 JUMPI PUSH1 0x5 SHL PUSH1 0x20 ADD SWAP1 JUMP JUMPDEST DUP1 MLOAD DUP3 LT ISZERO PUSH2 0x34BC JUMPI PUSH1 0x20 SWAP2 PUSH1 0x5 SHL ADD ADD SWAP1 JUMP JUMPDEST ISZERO PUSH2 0x3C52 JUMPI JUMP JUMPDEST PUSH1 0x40 MLOAD PUSH3 0x461BCD PUSH1 0xE5 SHL DUP2 MSTORE PUSH1 0x20 PUSH1 0x4 DUP3 ADD MSTORE PUSH1 0xF PUSH1 0x24 DUP3 ADD MSTORE PUSH15 0x50616972206E6F7420616374697665 PUSH1 0x88 SHL PUSH1 0x44 DUP3 ADD MSTORE PUSH1 0x64 SWAP1 REVERT JUMPDEST ISZERO PUSH2 0x3C90 JUMPI JUMP JUMPDEST PUSH1 0x40 MLOAD PUSH3 0x461BCD PUSH1 0xE5 SHL DUP2 MSTORE PUSH1 0x20 PUSH1 0x4 DUP3 ADD MSTORE PUSH1 0x13 PUSH1 0x24 DUP3 ADD MSTORE PUSH19 0x1058DD1A5BDB881DD85CC81C995A9958DD1959 PUSH1 0x6A SHL PUSH1 0x44 DUP3 ADD MSTORE PUSH1 0x64 SWAP1 REVERT JUMPDEST ISZERO PUSH2 0x3CD2 JUMPI JUMP JUMPDEST PUSH1 0x40 MLOAD PUSH3 0x461BCD PUSH1 0xE5 SHL DUP2 MSTORE PUSH1 0x20 PUSH1 0x4 DUP3 ADD MSTORE PUSH1 0xE PUSH1 0x24 DUP3 ADD MSTORE PUSH14 0x546F6F206D616E79207061697273 PUSH1 0x90 SHL PUSH1 0x44 DUP3 ADD MSTORE PUSH1 0x64 SWAP1 REVERT JUMPDEST SWAP1 PUSH1 0x20 DUP3 SLOAD SWAP2 DUP3 DUP2 MSTORE ADD SWAP2 PUSH1 0x0 MSTORE PUSH1 0x20 PUSH1 0x0 KECCAK256 SWAP1 PUSH1 0x0 JUMPDEST DUP2 DUP2 LT PUSH2 0x3D2C JUMPI POP POP POP SWAP1 JUMP JUMPDEST DUP3 SLOAD DUP5 MSTORE PUSH1 0x20 SWAP1 SWAP4 ADD SWAP3 PUSH1 0x1 SWAP3 DUP4 ADD SWAP3 ADD PUSH2 0x3D1F JUMP JUMPDEST SWAP2 SWAP1 DUP2 LT ISZERO PUSH2 0x34BC JUMPI PUSH1 0x5 SHL ADD SWAP1 JUMP JUMPDEST CALLDATALOAD PUSH1 0x1 PUSH1 0x1 PUSH1 0xA0 SHL SUB DUP2 AND DUP2 SUB PUSH2 0x301 JUMPI SWAP1 JUMP JUMPDEST SWAP2 DUP2 DUP2 LT PUSH2 0x3D73 JUMPI POP POP POP JUMP JUMPDEST PUSH2 0x37B8 SWAP3 PUSH1 0x0 MSTORE PUSH1 0x20 PUSH1 0x0 KECCAK256 SWAP2 DUP3 ADD SWAP2 ADD PUSH2 0x3766 JUMP JUMPDEST CALLER PUSH1 0x0 SWAP1 DUP2 MSTORE PUSH1 0x0 DUP1 MLOAD PUSH1 0x20 PUSH2 0x43F8 DUP4 CODECOPY DUP2 MLOAD SWAP2 MSTORE PUSH1 0x20 MSTORE PUSH1 0x40 SWAP1 KECCAK256 SLOAD PUSH1 0xFF AND ISZERO PUSH2 0x3DB0 JUMPI JUMP JUMPDEST PUSH4 0xE2517D3F PUSH1 0xE0 SHL PUSH1 0x0 MSTORE CALLER PUSH1 0x4 MSTORE PUSH1 0x0 DUP1 MLOAD PUSH1 0x20 PUSH2 0x4418 DUP4 CODECOPY DUP2 MLOAD SWAP2 MSTORE PUSH1 0x24 MSTORE PUSH1 0x44 PUSH1 0x0 REVERT JUMPDEST PUSH1 0x0 DUP2 DUP2 MSTORE PUSH1 0x1 PUSH1 0x20 SWAP1 DUP2 MSTORE PUSH1 0x40 DUP1 DUP4 KECCAK256 CALLER DUP5 MSTORE SWAP1 SWAP2 MSTORE SWAP1 KECCAK256 SLOAD PUSH1 0xFF AND ISZERO PUSH2 0x3DFC JUMPI POP JUMP JUMPDEST PUSH4 0xE2517D3F PUSH1 0xE0 SHL PUSH1 0x0 MSTORE CALLER PUSH1 0x4 MSTORE PUSH1 0x24 MSTORE PUSH1 0x44 PUSH1 0x0 REVERT JUMPDEST DUP1 PUSH1 0x0 MSTORE PUSH1 0xC PUSH1 0x20 MSTORE PUSH1 0x40 PUSH1 0x0 KECCAK256 PUSH1 0xB DUP2 ADD SWAP1 PUSH2 0x3E3A PUSH1 0xFF DUP4 SLOAD PUSH2 0x2ADA DUP3 DUP3 AND ISZERO PUSH2 0x3AA1 JUMP JUMPDEST PUSH2 0x3E4B PUSH1 0xFF PUSH1 0xE DUP4 ADD SLOAD AND ISZERO PUSH2 0x3C89 JUMP JUMPDEST PUSH1 0xD DUP2 ADD SLOAD PUSH3 0x93A80 DUP2 ADD DUP1 SWAP2 GT PUSH2 0x1680 JUMPI PUSH2 0x3E69 SWAP1 TIMESTAMP GT ISZERO PUSH2 0x3AE0 JUMP JUMPDEST PUSH1 0xC ADD DUP1 SLOAD PUSH1 0x0 JUMPDEST DUP2 DUP2 LT PUSH2 0x3F1D JUMPI POP POP DUP1 SLOAD SWAP1 PUSH1 0x1 PUSH1 0x40 SHL DUP3 LT ISZERO PUSH2 0x8A2 JUMPI DUP2 PUSH2 0x3E9C SWAP2 PUSH1 0x1 PUSH2 0x3EBA SWAP5 ADD DUP2 SSTORE PUSH2 0x34ED JUMP JUMPDEST DUP2 SLOAD PUSH1 0x1 PUSH1 0x1 PUSH1 0xA0 SHL SUB PUSH1 0x3 SWAP3 SWAP1 SWAP3 SHL SWAP2 DUP3 SHL NOT AND CALLER SWAP1 SWAP2 SHL OR SWAP1 SSTORE JUMP JUMPDEST DUP1 SLOAD SWAP2 PUSH1 0xFF DUP4 PUSH1 0x10 SHR AND SWAP2 PUSH1 0xFF DUP4 EQ PUSH2 0x1680 JUMPI PUSH3 0xFF0000 NOT SWAP4 SWAP1 SWAP4 AND PUSH1 0x1 SWAP3 SWAP1 SWAP3 ADD PUSH1 0x10 SHL PUSH3 0xFF0000 AND SWAP2 SWAP1 SWAP2 OR SWAP1 SWAP2 SSTORE PUSH1 0x40 DUP1 MLOAD SWAP2 DUP3 MSTORE CALLER PUSH1 0x20 DUP4 ADD MSTORE PUSH32 0x13F5ED40F1478EB39CCC91C62E3E395DB4EA1B1AFC8928825652B67136B06044 SWAP2 LOG1 JUMP JUMPDEST PUSH2 0x3F27 DUP2 DUP5 PUSH2 0x34ED JUMP JUMPDEST SWAP1 SLOAD PUSH1 0x3 SWAP2 SWAP1 SWAP2 SHL SHR PUSH1 0x1 PUSH1 0x1 PUSH1 0xA0 SHL SUB AND CALLER EQ PUSH2 0x3F47 JUMPI PUSH1 0x1 ADD PUSH2 0x3E71 JUMP JUMPDEST PUSH1 0x40 MLOAD PUSH3 0x461BCD PUSH1 0xE5 SHL DUP2 MSTORE PUSH1 0x20 PUSH1 0x4 DUP3 ADD MSTORE PUSH1 0x10 PUSH1 0x24 DUP3 ADD MSTORE PUSH16 0x105B1C9958591E48185C1C1C9BDD9959 PUSH1 0x82 SHL PUSH1 0x44 DUP3 ADD MSTORE PUSH1 0x64 SWAP1 REVERT JUMPDEST PUSH1 0x1 PUSH1 0x1 PUSH1 0xA0 SHL SUB DUP2 AND PUSH1 0x0 SWAP1 DUP2 MSTORE PUSH1 0x0 DUP1 MLOAD PUSH1 0x20 PUSH2 0x43F8 DUP4 CODECOPY DUP2 MLOAD SWAP2 MSTORE PUSH1 0x20 MSTORE PUSH1 0x40 SWAP1 KECCAK256 SLOAD PUSH1 0xFF AND PUSH2 0x4017 JUMPI PUSH1 0x1 PUSH1 0x1 PUSH1 0xA0 SHL SUB AND PUSH1 0x0 DUP2 DUP2 MSTORE PUSH1 0x0 DUP1 MLOAD PUSH1 0x20 PUSH2 0x43F8 DUP4 CODECOPY DUP2 MLOAD SWAP2 MSTORE PUSH1 0x20 MSTORE PUSH1 0x40 DUP2 KECCAK256 DUP1 SLOAD PUSH1 0xFF NOT AND PUSH1 0x1 OR SWAP1 SSTORE CALLER SWAP2 SWAP1 PUSH1 0x0 DUP1 MLOAD PUSH1 0x20 PUSH2 0x4418 DUP4 CODECOPY DUP2 MLOAD SWAP2 MSTORE SWAP1 PUSH32 0x2F8788117E7EFF1D82E926EC794901D17C78024A50270940304540A733656F0D SWAP1 DUP1 LOG4 PUSH1 0x1 SWAP1 JUMP JUMPDEST POP PUSH1 0x0 SWAP1 JUMP JUMPDEST PUSH1 0x0 DUP2 DUP2 MSTORE PUSH1 0x1 PUSH1 0x20 SWAP1 DUP2 MSTORE PUSH1 0x40 DUP1 DUP4 KECCAK256 PUSH1 0x1 PUSH1 0x1 PUSH1 0xA0 SHL SUB DUP7 AND DUP5 MSTORE SWAP1 SWAP2 MSTORE SWAP1 KECCAK256 SLOAD PUSH1 0xFF AND PUSH2 0x40A5 JUMPI PUSH1 0x0 DUP2 DUP2 MSTORE PUSH1 0x1 PUSH1 0x20 DUP2 DUP2 MSTORE PUSH1 0x40 DUP1 DUP5 KECCAK256 PUSH1 0x1 PUSH1 0x1 PUSH1 0xA0 SHL SUB SWAP7 SWAP1 SWAP7 AND DUP1 DUP6 MSTORE SWAP6 SWAP1 SWAP2 MSTORE DUP3 KECCAK256 DUP1 SLOAD PUSH1 0xFF NOT AND SWAP1 SWAP2 OR SWAP1 SSTORE CALLER SWAP3 SWAP2 SWAP1 PUSH32 0x2F8788117E7EFF1D82E926EC794901D17C78024A50270940304540A733656F0D SWAP1 DUP1 LOG4 PUSH1 0x1 SWAP1 JUMP JUMPDEST POP POP PUSH1 0x0 SWAP1 JUMP JUMPDEST PUSH1 0x1 PUSH1 0x1 PUSH1 0xA0 SHL SUB DUP2 AND PUSH1 0x0 SWAP1 DUP2 MSTORE PUSH1 0x0 DUP1 MLOAD PUSH1 0x20 PUSH2 0x43F8 DUP4 CODECOPY DUP2 MLOAD SWAP2 MSTORE PUSH1 0x20 MSTORE PUSH1 0x40 SWAP1 KECCAK256 SLOAD PUSH1 0xFF AND ISZERO PUSH2 0x4017 JUMPI PUSH1 0x1 PUSH1 0x1 PUSH1 0xA0 SHL SUB AND PUSH1 0x0 DUP2 DUP2 MSTORE PUSH1 0x0 DUP1 MLOAD PUSH1 0x20 PUSH2 0x43F8 DUP4 CODECOPY DUP2 MLOAD SWAP2 MSTORE PUSH1 0x20 MSTORE PUSH1 0x40 DUP2 KECCAK256 DUP1 SLOAD PUSH1 0xFF NOT AND SWAP1 SSTORE CALLER SWAP2 SWAP1 PUSH1 0x0 DUP1 MLOAD PUSH1 0x20 PUSH2 0x4418 DUP4 CODECOPY DUP2 MLOAD SWAP2 MSTORE SWAP1 PUSH32 0xF6391F5C32D9C69D2A47EA670B442974B53935D1EDC7FD64EB21E047A839171B SWAP1 DUP1 LOG4 PUSH1 0x1 SWAP1 JUMP JUMPDEST PUSH1 0x0 DUP2 DUP2 MSTORE PUSH1 0x1 PUSH1 0x20 SWAP1 DUP2 MSTORE PUSH1 0x40 DUP1 DUP4 KECCAK256 PUSH1 0x1 PUSH1 0x1 PUSH1 0xA0 SHL SUB DUP7 AND DUP5 MSTORE SWAP1 SWAP2 MSTORE SWAP1 KECCAK256 SLOAD PUSH1 0xFF AND ISZERO PUSH2 0x40A5 JUMPI PUSH1 0x0 DUP2 DUP2 MSTORE PUSH1 0x1 PUSH1 0x20 SWAP1 DUP2 MSTORE PUSH1 0x40 DUP1 DUP4 KECCAK256 PUSH1 0x1 PUSH1 0x1 PUSH1 0xA0 SHL SUB SWAP6 SWAP1 SWAP6 AND DUP1 DUP5 MSTORE SWAP5 SWAP1 SWAP2 MSTORE DUP2 KECCAK256 DUP1 SLOAD PUSH1 0xFF NOT AND SWAP1 SSTORE CALLER SWAP3 SWAP2 SWAP1 PUSH32 0xF6391F5C32D9C69D2A47EA670B442974B53935D1EDC7FD64EB21E047A839171B SWAP1 DUP1 LOG4 PUSH1 0x1 SWAP1 JUMP JUMPDEST PUSH1 0x2 PUSH1 0x0 SLOAD EQ PUSH2 0x41D9 JUMPI PUSH1 0x2 PUSH1 0x0 SSTORE JUMP JUMPDEST PUSH4 0x3EE5AEB5 PUSH1 0xE0 SHL PUSH1 0x0 MSTORE PUSH1 0x4 PUSH1 0x0 REVERT JUMPDEST PUSH1 0x40 MLOAD PUSH4 0x70A08231 PUSH1 0xE0 SHL DUP2 MSTORE ADDRESS PUSH1 0x4 DUP3 ADD MSTORE PUSH1 0x1 PUSH1 0x1 PUSH1 0xA0 SHL SUB SWAP2 SWAP1 SWAP2 AND SWAP1 PUSH1 0x20 DUP2 PUSH1 0x24 DUP2 DUP6 GAS STATICCALL SWAP1 DUP2 ISZERO PUSH2 0x16C8 JUMPI PUSH1 0x0 SWAP2 PUSH2 0x42F1 JUMPI JUMPDEST POP DUP2 PUSH1 0x0 MSTORE PUSH1 0x9 PUSH1 0x20 MSTORE PUSH2 0x423B PUSH1 0x40 PUSH1 0x0 KECCAK256 SLOAD TIMESTAMP PUSH2 0x37C4 JUMP JUMPDEST DUP2 ISZERO ISZERO DUP1 PUSH2 0x42E8 JUMPI JUMPDEST DUP1 PUSH2 0x42DD JUMPI JUMPDEST PUSH2 0x4262 JUMPI JUMPDEST POP POP PUSH1 0x0 MSTORE PUSH1 0x9 PUSH1 0x20 MSTORE TIMESTAMP PUSH1 0x40 PUSH1 0x0 KECCAK256 SSTORE JUMP JUMPDEST PUSH2 0x38DF PUSH2 0x4278 PUSH2 0x4290 SWAP3 PUSH2 0xE10 PUSH1 0x3 SLOAD DIV PUSH2 0x37F1 JUMP JUMPDEST DUP5 PUSH1 0x0 MSTORE PUSH1 0x4 PUSH1 0x20 MSTORE PUSH1 0x3 PUSH1 0x40 PUSH1 0x0 KECCAK256 ADD SLOAD SWAP1 PUSH2 0x37F1 JUMP JUMPDEST SWAP1 PUSH8 0xDE0B6B3A7640000 DUP3 MUL SWAP2 DUP1 DUP4 DIV PUSH8 0xDE0B6B3A7640000 EQ SWAP1 ISZERO OR ISZERO PUSH2 0x1680 JUMPI PUSH2 0x42BB SWAP2 PUSH2 0x37D1 JUMP JUMPDEST DUP2 PUSH1 0x0 MSTORE PUSH1 0x8 PUSH1 0x20 MSTORE PUSH2 0x42D4 PUSH1 0x40 PUSH1 0x0 KECCAK256 SWAP2 DUP3 SLOAD PUSH2 0x3804 JUMP JUMPDEST SWAP1 SSTORE CODESIZE DUP1 PUSH2 0x424F JUMP JUMPDEST POP PUSH1 0xA SLOAD ISZERO ISZERO PUSH2 0x424A JUMP JUMPDEST POP DUP1 ISZERO ISZERO PUSH2 0x4244 JUMP JUMPDEST SWAP1 PUSH1 0x20 DUP3 RETURNDATASIZE PUSH1 0x20 GT PUSH2 0x431B JUMPI JUMPDEST DUP2 PUSH2 0x430B PUSH1 0x20 SWAP4 DUP4 PUSH2 0x367C JUMP JUMPDEST DUP2 ADD SUB SLT PUSH2 0x1935 JUMPI POP MLOAD CODESIZE PUSH2 0x4222 JUMP JUMPDEST RETURNDATASIZE SWAP2 POP PUSH2 0x42FE JUMP JUMPDEST PUSH1 0x40 MLOAD PUSH4 0xA9059CBB PUSH1 0xE0 SHL PUSH1 0x20 DUP3 ADD MSTORE PUSH1 0x1 PUSH1 0x1 PUSH1 0xA0 SHL SUB SWAP1 SWAP3 AND PUSH1 0x24 DUP4 ADD MSTORE PUSH1 0x44 DUP3 ADD SWAP3 SWAP1 SWAP3 MSTORE PUSH2 0x37B8 SWAP2 PUSH2 0x1BA0 DUP3 PUSH1 0x64 DUP2 ADD PUSH2 0x1B92 JUMP JUMPDEST SWAP1 PUSH1 0x0 PUSH1 0x20 SWAP2 DUP3 DUP2 MLOAD SWAP2 ADD DUP3 DUP6 GAS CALL ISZERO PUSH2 0x16C8 JUMPI PUSH1 0x0 MLOAD RETURNDATASIZE PUSH2 0x43AE JUMPI POP PUSH1 0x1 PUSH1 0x1 PUSH1 0xA0 SHL SUB DUP2 AND EXTCODESIZE ISZERO JUMPDEST PUSH2 0x438D JUMPI POP JUMP JUMPDEST PUSH4 0x5274AFE7 PUSH1 0xE0 SHL PUSH1 0x0 SWAP1 DUP2 MSTORE PUSH1 0x1 PUSH1 0x1 PUSH1 0xA0 SHL SUB SWAP2 SWAP1 SWAP2 AND PUSH1 0x4 MSTORE PUSH1 0x24 SWAP1 REVERT JUMPDEST PUSH1 0x1 EQ ISZERO PUSH2 0x4386 JUMP INVALID PUSH29 0xD79380F59DCB9A2E87DB5E49009E2CB7FF8A3175BF8DB0137C71BD7ABE PUSH18 0x43FF1F23BC7538EF354DA69561506EEDC807 DUP11 PUSH28 0xCE7B70EF9877B7BBAD4F7CA37850EFBDE2D46C37E9785F1791697F77 0xE9 0x4B 0xB7 0xB7 ADD 0xE1 SWAP16 NOT ADDRESS 0xA6 PUSH9 0x820722D37694A49807 KECCAK256 TLOAD 0xE4 0xD3 SSTORE MULMOD 0x2E CREATE2 0xA8 LOG1 DUP16 JUMP 0xE8 SWAP2 EXTCODECOPY DELEGATECALL LOG2 ADD 0xFB 0xE2 DUP8 DUP3 JUMPDEST MULMOD JUMP SWAP4 0xC2 OR PUSH22 0xA26469706673582212209C4D17AF9D7BDD7E0D027819 PUSH6 0x474E7404790B 0xC7 0xCA 0xE5 PUSH19 0xC5DB5589A4D16AE56564736F6C634300081C00 CALLER 0x2F DUP8 DUP9 GT PUSH31 0x7EFF1D82E926EC794901D17C78024A50270940304540A733656F0DB98FEA32 SWAP3 0xA5 SAR PUSH12 0xA303DD5EF6120A65C5E45F14 EXP 0x21 PUSH4 0xA75DE31 SUB TSTORE 0xB0 0xB1 SWAP10 POP 0xEF 0xBD 0xE2 0xD4 PUSH13 0x37E9785F1791697F77E94BB7B7 ADD 0xE1 SWAP16 NOT ADDRESS 0xA6 PUSH9 0x820722D37694000000 "
        },
        "methodIdentifiers": {
          "ADMIN_ROLE()": "75b238fc",
          "DEFAULT_ADMIN_ROLE()": "a217fddf",
          "MAX_PAIRS()": "996cf233",
          "MAX_WEIGHT()": "e4a28a52",
          "MIN_STAKE()": "cb1c2b5c",
          "OWNER_APPROVER_ROLE()": "3033c090",
          "PRECISION()": "aaf5eb68",
          "REQUIRED_APPROVALS()": "599c5533",
          "actionCounter()": "fdbd98b0",
          "actions(uint256)": "83240f83",
          "activePairs(uint256)": "28119ffa",
          "approveAction(uint256)": "3f8a46ee",
          "claimRewards(address)": "ef5cfb8c",
          "cleanupExpiredActions()": "7b9736b8",
          "earned(address,address)": "211dc32d",
          "executeAction(uint256)": "c0c1cf55",
          "getActionApproval(uint256)": "f80f4023",
          "getActionPairs(uint256)": "263a8c68",
          "getActionWeights(uint256)": "fafbc0f6",
          "getActivePairs()": "602baccc",
          "getPairInfo(address)": "d4ff73f7",
          "getPairs()": "767eb5ef",
          "getRoleAdmin(bytes32)": "248a9ca3",
          "getSigners()": "94cf795e",
          "getUserStakeInfo(address,address)": "d785b595",
          "getUserStakes(address)": "842e2981",
          "grantRole(bytes32,address)": "2f2ff15d",
          "handleExpiredAction(uint256)": "343a0b1c",
          "hasRole(bytes32,address)": "91d14854",
          "hourlyRewardRate()": "70ec86d5",
          "isActionExpired(uint256)": "69c28f7b",
          "lastUpdateTime(address)": "2ce9aead",
          "pairs(address)": "fe33b302",
          "proposeAddPair(address,string,string,uint256)": "170c3898",
          "proposeChangeSigner(address,address)": "f33d5647",
          "proposeRemovePair(address)": "53d61813",
          "proposeSetHourlyRewardRate(uint256)": "1a8254f5",
          "proposeUpdatePairWeights(address[],uint256[])": "e65f55b9",
          "proposeWithdrawRewards(address,uint256)": "14b9af55",
          "rejectAction(uint256)": "2b4b16b1",
          "renounceRole(bytes32,address)": "36568abe",
          "revokeRole(bytes32,address)": "d547741f",
          "rewardPerTokenStored(address)": "9ce43f90",
          "rewardToken()": "f7c618c1",
          "signers(uint256)": "2079fb9a",
          "stake(address,uint256)": "adc9772e",
          "supportsInterface(bytes4)": "01ffc9a7",
          "totalWeight()": "96c82e57",
          "unstake(address,uint256)": "c2a672e0",
          "userStakes(address,address)": "862d2d7c"
        }
      }
    }
  }
}